:1000000000600020E9040000F1C60000C1C6000045
:1000100000000000000000000000000000000000E0
:1000200000000000000000000000000021C70000E8
:10003000000000000000000051C7000095B500005E
:100040006105000065050000690500006D05000000
:100050004905000049050000490500004905000068
:100060007105000075050000790500007D050000A0
:10007000810500004DC80000890500004905000009
:10008000490500004905000049050000F1D60000BF
:10009000490500004905000055B500008D05000028
:1000A00079C200004905000049050000490500002B
:1000B00091410000490500004905000019B5000004
:1003C0006B636667FFFFFFFFFFFFFFFFFFFFFFFF9E
:1003D000FFFFFFFFF7081200541C0100FFFFFF00A2
:1003E000FFFFFFFFFFFFFFFF00FFFFFFFFFFFFFF1C
:1003F000FFFFFFFF00000000000000000000000001
:10040000FFFFFFFFFFFFFFFFFFFFFFFFFE31FFFFCB
:1004100010B5064C2378002B07D1054B002B02D0DA
:10042000044800E000BF0123237010BD00E2FF1F5D
:1004300000000000002F010008B5084B002B03D07E
:100440000748084900E000BF07480368002B03D0B5
:10045000064B002B00D0984708BDC04600000000A6
:10046000002F010004E2FF1FE4E1FF1F0000000075
:10047000164B002B00D1144B9D46402292029A1A33
:10048000924600218B460F461348144A121A0EF06A
:10049000E0FD0F4B002B00D098470E4B002B00D0F7
:1004A00098470020002104000D000D48002802D0CC
:1004B0000C4800E000BF0EF09DFD200029000CF06C
:1004C0004FF80EF081FDC0460000080000600020DB
:1004D000000000000000000000E2FF1F7C40002040
:1004E000000000000000000072B60E480E490160D6
:1004F0000A6882F308880D4880470D490D4A0E4B63
:100500009B1A03DD043BC858D050FBDC0B490C4A56
:10051000521A03DD00208850043AFCDA62B609481A
:100520008047000008ED00E000000000E59E0000AC
:10053000282F010000E0FF1FE8E1FF1F00E2FF1F7E
:100540007C4000207104000011480047114800471A
:10055000114800471148004711480047114800471B
:10056000114800471148004711480047114800470B
:1005700011480047114800471148004711480047FB
:1005800011480047114800471148004711480047EB
:1005900081C70000F1C60000C1C6000021C70000ED
:1005A00051C7000095B50000218100003181000095
:1005B0004181000051810000E98D0000018E0000A2
:1005C000D996000011970000E99200000593000001
:1005D000D1860000B1930000002934D0012300220D
:1005E00010B488422CD301242407A14204D28142B2
:1005F00002D209011B01F8E7E400A14204D28142C2
:1006000002D249005B00F8E7884201D3401A1A433E
:100610004C08A04202D3001B5C0822438C08A04275
:1006200002D3001B9C082243CC08A04202D3001B2B
:10063000DC082243002803D01B0901D00909E3E7A5
:10064000101C10BC7047002801D00020C04307B424
:10065000024802A14018029003BDC046D900000024
:100660000029F0D003B5FFF7B9FF0EBC4243891A49
:100670001847C046002941D010B4041C4C40A44681
:1006800001230022002900D54942002800D540421C
:1006900088422CD301242407A14204D2814202D2F1
:1006A00009011B01F8E7E400A14204D2814202D211
:1006B00049005B00F8E7884201D3401A1A434C080E
:1006C000A04202D3001B5C0822438C08A04202D344
:1006D000001B9C082243CC08A04202D3001BDC086C
:1006E0002243002803D01B0901D00909E3E7101CAD
:1006F0006446002C00D5404210BC7047002806D04C
:1007000003DB0020C043400801E08020000607B45E
:10071000024802A14018029003BDC0461900000023
:100720000029EBD003B5FFF7A7FF0EBC4243891A9F
:100730001847C0467047C0468446101C62468C4627
:10074000191C634600E0C0461FB501F049FF0028B0
:1007500001D40021C8421FBD10B501F079FE40420E
:10076000013010BD10B501F03BFF002801DB002077
:1007700010BD012010BDC04610B501F031FF0028AA
:1007800001DD002010BD012010BDC04610B501F0F4
:10079000A9FE002801DC002010BD012010BDC046CC
:1007A00010B501F09FFE002801DA002010BD0120E5
:1007B00010BDC0468446081C6146FFE71FB500F027
:1007C00049FC002801D40021C8421FBD10B500F02B
:1007D000CFFB4042013010BD10B500F03BFC0028BB
:1007E00001DB002010BD012010BDC04610B500F097
:1007F00031FC002801DD002010BD012010BDC046E5
:1008000010B500F0DFFB002801DC002010BD012046
:1008100010BDC04610B500F0D5FB002801DA00205D
:1008200010BD012010BDC046002B15D1002A13D1E8
:10083000002900D1002807D003DB0020C043410875
:1008400002E080210906002007B4024801A14018F7
:10085000029003BDE1FEFFFF03B4684601B50298B4
:1008600000F0BEF8019B9E4602B00CBC7047C0462B
:10087000002B11D1002A0FD1002900D1002802D06D
:100880000021C943081C07B4024802A14018029085
:1008900003BDC046A1FEFFFF03B4684601B5029840
:1008A00000F0BAF8019B9E4602B00CBC7047C046EF
:1008B0009C460304F0B51B0C17043F0C150C1E1CC2
:1008C000041C000C7E436B4347434543FB18300C2C
:1008D0001818874202D980235B02ED18030CED182B
:1008E00063465C434A433604360CA1180004801961
:1008F0004919F0BD9E2110B5C905041CFFF78AFFF8
:10090000002803D1201C00F091FE10BD9E21C905D6
:10091000201C00F015FD00F089FE80231B06C01886
:10092000F3E7C0460000000038B50E4B0C4A051C2A
:100930000C1CFFF717FF002804D1281C211C00F015
:1009400013F838BD80231B06E118281C00F00CF8B2
:10095000021C0B1C002150429941F2E7C046C046E0
:10096000000000000000000070B50E4B0C4A0D1C8A
:10097000041C01F0B3FE02F017FE061C02F0E4FCBA
:10098000094A0A4B01F0AAFE021C0B1C201C291C60
:1009900002F034F902F008FE311C70BDC046C046BA
:1009A000000000000000F03D000000000000F041E9
:1009B00070B5061C081C02F089FC084B064A01F0C1
:1009C0008DFE0D1C041C301C02F0BEFC2B1C221CD6
:1009D00000F0F8FE70BDC046000000000000F041CD
:1009E000F0B583B0161C1F1C0090019102F0FCFDB5
:1009F000041C0D1C221C2B1C301C391CFFF758FF3B
:100A0000009A019B121A8B410899201C0A604B60C6
:100A1000291C03B0F0BDC046F0B583B0141C1D1CEA
:100A20000090019102F0BCFF221C2B1C061C0F1C25
:100A3000FFF73EFF009A019B121A8B410899301C68
:100A40000A604B60391C03B0F0BDC046F8B54302E4
:100A50004400C50F4E024800240E2A1C9B09000EBC
:100A6000C90FB6098D425BD0221A002A00DC89E04A
:100A700000281DD1002E00D075E0580704D00F22A9
:100A80001A40042A00D004338021C90419402A1CCA
:100A900000293AD00134FF2C00D17FE09B015B0A92
:100AA0005B02E4B2E405580AD20720431043F8BDC4
:100AB000FF2CE2D08021C9040E431B2A00DD2DE16A
:100AC000311C2020D140821A9640721E96410E435E
:100AD0009B1B5801D1D59B019F09381C02F046FD94
:100AE000421F974094425BDC141B1F231B1B3A1CC4
:100AF0009F40611C3B1CCA405F1EBB411343002446
:100B0000BBE7131EB9D100230022DB08FF2C04D160
:100B1000002B43D08020C00303435B025B0ABFE786
:100B2000211A002940DD002823D0FF2CA5D08020E9
:100B3000C00406431B2900DDEEE0301C2027C8401E
:100B4000791A8E40711E8E4106439B19590100D4BB
:100B500093E70134FF2C55D0714901221A400B4014
:100B60005B08134389E7013A002AB1D0FF2CA4D1D6
:100B700083E7002E00D180E701390029E5D0FF2C62
:100B8000D8D17AE7002A1BD1621CD2B2012A4BDDF0
:100B90009F1B7A0123D5F71A0D1C9EE700237FE7E0
:100BA0005F4BA41A3B4068E7002946D1611CC8B2DC
:100BB000012829DDFF2924D0F3185B080C1C5CE711
:100BC000002C13D0FF2818D08024E4045242234381
:100BD0001B2A4DDD0123F31A041C0D1C79E7002F9D
:100BE00000D07AE70023002200248EE7002B3BD0C0
:100BF000D243002AEFD0FF28EAD1331CFF240D1C7A
:100C00003BE7FF24002380E7002C5CD1002B00D1C0
:100C100080E0002E00D130E79B19580100D42CE76A
:100C20003F4A0124134028E7002C15D1002B40D166
:100C3000002E63D0331C0D1C1FE7002C21D1002B8C
:100C400054D0C943002904D0FF284CD01B2958DDBB
:100C500001239B19041C79E7002B19D1002E48D0E1
:100C6000331C0D1CFF2408E7331C041C0D1C04E777
:100C70001C1C2025D440AA1A93405A1E934123439A
:100C8000A9E7FF282FD08024E40449422343DDE76D
:100C9000FF24002E00D1F0E68022DB08D2031342AD
:100CA00004D0F608164201D1331C0D1CDB00FF24D2
:100CB000E3E6002E00D1E0E69A1B500100D420E7C5
:100CC000F31A0D1CD9E6002B0DD0FF24002E00D105
:100CD000D3E68022DB08D2031342E7D0F60816429F
:100CE000E4D1331CE2E7331CFF24C6E6331C041CAA
:100CF000C3E6802300229B04FF2406E7231C002276
:100D000003E71C1C2027CC40791A8B40591E8B41CD
:100D100023439EE7331CB0E6012616E70126D7E6FB
:100D2000FFFFFFFBF0B55F4656464D464446F0B424
:100D300046024500C00F85B00F1C760A2D0E804676
:100D400041D0FF2D26D08024240400212643F60024
:100D50007F3D89468B46F90F7C027800640A000EBD
:100D600000918A463CD0FF2834D080231B041C43CA
:100D70000023E4007F380193009F4346019A7B40A3
:100D800049469C4611430F2900D971E0764F8900EE
:100D90007F58BF46002E3ED10822022391469B4633
:100DA000D9E75A46341CC24601920199022937D02C
:100DB000032900D1CFE0012900D0ABE053460B401E
:100DC0000022002632E0002E19D10421012289469A
:100DD0009346C0E7221C531E9A4102320192CBE790
:100DE00001270197002CC7D0201C02F0BFFB431F36
:100DF0009C4076235B420021181A0191BCE7301C0D
:100E000002F0B4FB7625431F9E406D4200232D1A4D
:100E100099469B469FE70C23032199468B469AE708
:100E2000D446012367463B40FF2200267602D205C6
:100E3000700ADB071043184305B03CBC9046994646
:100E4000A246AB46F0BD80260023F603FF22EDE765
:100E500000220026EAE78020C00306423BD004427D
:100E600039D1061C26437602760A009BFF22DDE775
:100E7000281A039076016401A64239D3361B1A2240
:100E800001230120311C5B007600002901DBB44204
:100E900001D8361B0343013A002AF3DC741EA64135
:100EA000341C1C43039A7F32002A27DD630704D0D9
:100EB0000F232340042B00D00434270103D52B4BF0
:100EC000039A1C408032FE2A0BDD012361460B4051
:100ED000FF220026AAE706437602760A4346FF224F
:100EE000A4E7A40101236746660AD2B23B409DE70E
:100EF000039F1B22013F03970023C2E77E23039F2A
:100F00005B42DB1B1B2B07DD012361460B400022EC
:100F100000268BE7D446C5E7221CDA40039B9E33AC
:100F20009C40231C5C1EA34113435A0704D00F228C
:100F30001A40042A00D004335F0105D5012361461D
:100F40000B400122002671E79E01624601231340F7
:100F5000760A00226AE78026F60326437602760A9E
:100F60005346FF2262E7C046C8040100FFFFFFF7B7
:100F70004A02430270B55C0A550A43004A001B0E40
:100F8000C60F120EC90FFF2B05D0FF2A08D0012073
:100F900093420BD070BD0120002CFBD1FF2AF6D16B
:100FA0000120002DF6D101209342F3D1AC42F1D1C2
:100FB0008E4205D0002BEDD1201C441EA041E9E754
:100FC0000020E7E74A024302F0B55C0A550A4300F5
:100FD0004A001B0EC60F120EC90FFF2B31D0FF2A7D
:100FE00034D0002B16D1604260418446002A14D0D0
:100FF000002820D18E4217D1934215DC04DBAC428D
:1010000012D80020AC4212D27042704140420123FB
:1010100018430CE0002AEDD194466F426F416046C0
:10102000002805D1002FE5D0704201231843F0BD00
:101030000020002FFBD14842484140420123184381
:10104000F5E7002CCBD002204042F0E7002DC8D0BD
:10105000F9E7C0464A024302F0B55C0A550A43006C
:101060004A001B0EC60F120EC90FFF2B27D0FF2AF6
:1010700029D0002B10D0002A15D194466F426F4121
:101080006046002815D00020002F04D14842484176
:10109000404201231843F0BD604260418446002A6B
:1010A000ECD00028F2D18E4211D0704201231843B7
:1010B000F1E7002FF7D0704201231843EBE702203D
:1010C000002CE8D1D3E70220002DE4D1D1E79342F0
:1010D000EBDC04DBAC42E8D80020AC42DBD270424F
:1010E0007041404201231843D5E7C046F0B55F4642
:1010F00056464D464446F0B44402460083B00F1CA9
:10110000640A360EC50F002E41D0FF2E22D0802358
:101110001B0400201C43E4007F3E82468046391CAD
:101120004B007F02C90F7F0A1B0E8B463BD0FF2B63
:1011300034D0802212041743FF007F3B00215A461F
:101140006A40019252460A430F2A63D87A489200B5
:1011500082589746002C3FD1082202239246984697
:10116000DDE70195404602282AD1019A0125154064
:10117000FF2300246402DB05600AED0718432843BF
:1011800003B03CBC90469946A246AB46F0BD002C4D
:1011900027D10420012282469046C0E7391C4A1E0E
:1011A00091410231CBE70121002FC8D0381C02F059
:1011B000DDF9431F9F4076235B421B1A0021BEE7E7
:1011C000032800D1AEE001284FD1019842461040DB
:1011D000C5B200230024CDE70C2303209A468046A5
:1011E0009DE7201C02F0C2F97626431F9C40764200
:1011F0000023361A9A46984691E780240025E40396
:10120000FF23B7E75B463C1C01938846AAE73C1CDA
:101210008846A7E7250C24043A0C240C3F04F61852
:101220003F0C211C231C794353436F435543FB1848
:101230000A0C9B18B1469F4202D980225202AD1877
:1012400009041A04090C521894011B0C611E8C41EC
:10125000920EED181443AD012C43230105D5012254
:1012600063080120144081441C434B467F33002B0C
:101270002DDD600704D00F222240042A00D0043460
:10128000220103D52D4B1C404B468033FE2B17DD2E
:10129000019B01251D400024FF236BE78020C00334
:1012A000044208D0074206D1041C3C436402640A8D
:1012B0005D46FF235EE704436402640AFF2359E7A7
:1012C0000198A4010125640ADBB2054052E77E23A0
:1012D0005B424A469B1A1B2B05DD019B01251D40E5
:1012E0000024002346E7221CDA404B469E339C40F4
:1012F000231C5C1EA3411343580704D00F221A403D
:10130000042A00D004335A0105D5019B01251D4054
:10131000002401232EE701989C010125640A054061
:10132000002327E78027FF03019B3C43640201253C
:101330001D40640AFF231DE708050100FFFFFFF7BA
:10134000F8B5C20F430244004D024800240E161C9B
:101350009B09000EC90FAD09FF2800D183E00127CA
:1013600079408A425CD0221A002A00DC8EE00028F4
:101370001ED1002D00D07AE0580704D00F221A4069
:10138000042A00D004338021C904012219403240CC
:1013900000293AD00134FF2C00D183E09B015B0A85
:1013A0005B02E4B2E405580AD20720431043F8BDBB
:1013B000FF2CE1D08021C9040D431B2A00DD31E15F
:1013C000291C2020D140821A95406A1E95410D4368
:1013D0005B1B5801D0D59B019F09381C02F0C6F851
:1013E000421F974094425FDC141B1F231B1B3A1CB7
:1013F0009F40611C3B1CCA405F1EBB41134300243D
:10140000BAE7131EB8D100230022DB08FF2C04D159
:10141000002B47D08020C00303435B025B0ABFE779
:10142000211A002944DD002827D0FF2CA4D08020D9
:10143000C00405431B2900DDF2E0281C2027C8401A
:10144000791A8D40691E8D4105435B19590100D4FD
:1014500092E70134FF2C59D0734901221A400B4006
:101460005B08134388E7002D00D07AE777E7013A5D
:10147000002AADD0FF2CA0D17EE7002D00D17BE764
:1014800001390029E1D0FF2CD4D175E7002A1BD106
:10149000621CD2B2012A4BDD5F1B7A0123D5EF1A01
:1014A0000E1C9AE700237BE75F4BA41A3B4063E7DF
:1014B000002946D1611CC8B2012829DDFF2924D0AA
:1014C000EB185B080C1C57E7002C13D0FF2818D032
:1014D0008024E404524223431B2A4DDD0123EB1AEE
:1014E000041C0E1C75E7002F00D076E700230022B5
:1014F00000248AE7002B3BD0D243002AEFD0FF28FC
:10150000EAD12B1CFF240E1C36E7FF2400237CE7C6
:10151000002C5CD1002B00D180E0002D00D12BE706
:101520005B19580100D427E73F4A0124134023E701
:10153000002C15D1002B40D1002D63D02B1C0E1C8C
:101540001AE7002C21D1002B54D0C943002904D024
:10155000FF284CD01B2958DD01235B19041C75E7BB
:10156000002B19D1002D48D02B1C0E1CFF2403E7A3
:101570002B1C041C0E1CFFE61C1C2026D440B21A97
:1015800093405A1E93412343A9E7FF282FD080247C
:10159000E40449422343DDE7FF24002D00D1EBE6BC
:1015A0008022DB08D203134204D0ED08154201D19A
:1015B0002B1C0E1CDB00FF24DEE6002D00D1DBE639
:1015C0005A1B500100D41CE7EB1A0E1CD4E6002B6A
:1015D0000DD0FF24002D00D1CEE68022DB08D203FF
:1015E0001342E7D0ED081542E4D12B1CE2E72B1C97
:1015F000FF24C1E62B1C041CBEE6802300229B04B2
:10160000FF2402E7231C0022FFE61C1C2027CC40FD
:10161000791A8B40591E8B4123439EE72B1CABE666
:10162000012512E70125D3E6FFFFFFFB4302590A1C
:101630004300C20F1B0E00207E2B0DDD9D2B0CDC0A
:10164000802000040143952B0ADC9620C31AD94060
:101650004842002A00D1081C7047034BD018FBE712
:10166000963B9940F4E7C046FFFFFF7F70B5041E2C
:101670003CD0C60F00D04442201C01F077FF9E23CF
:10168000251C1B1A962B0CDC083884406402640A63
:10169000DBB2321C6402DB05600AD2071843104338
:1016A00070BD992B0ADD0522121A211CD1400A1C9B
:1016B000011C1B318D40691E8D411543052801DD3C
:1016C000421F9540164C2C406A0704D00F2215404B
:1016D000042D00D0043461010CD59F23181AFF2873
:1016E0001AD0A401640AC3B2321CD3E7002200233B
:1016F0000024CFE7E408FF2B04D06402640ADBB2C5
:10170000321CC7E7002C04D08020C00304436402CD
:10171000640A321CFF23BDE7321CFF230024B9E713
:10172000FFFFFFFB10B5041E33D001F01FFF9E2307
:101730001B1A962B09DC083884406402640ADBB269
:101740006402DB05600A184310BD992B0ADD0522EF
:10175000121A211CD1400A1C011C1B318C40611E35
:101760008C411443052801DD421F9440144A224055
:10177000610704D00F210C40042C00D00432510129
:101780000AD59F23181AFF2816D09401640AC3B201
:10179000D6E700230024D3E7D208FF2B03D054025E
:1017A000640ADBB2CCE7002A06D08024E4031443A9
:1017B0006402640AFF23C3E7FF230024C0E7C04696
:1017C000FFFFFFFBF8B55F46564644464D46F0B472
:1017D0000C034D00CE0F610A440F2143C4001803CF
:1017E00080465800400D8246D80F84464046400A45
:1017F000530F0343D0006D0D371C83465246664598
:1018000000D1A4E0AF1A002F00DC09E1002A3BD18F
:10181000184300D0EAE0630700D187E00F2323409C
:10182000042B00D182E0221DA242A4416442802305
:1018300009191B040B40371C141C002B00D17CE041
:10184000CE4B01359D4200D105E1CD4BE408194056
:101850004807490204430B0B002000211B031A0B0D
:101860000B0D6D051B0513436A08C64DFF071D4090
:1018700015436D006D08291C3943201C3CBC904663
:101880009946A246AB46F8BDBC488542C3D08020ED
:1018900000040343382F00DDF0E01F2F00DD24E1BA
:1018A0002020C01B1A1C814682405846F840024343
:1018B000944658464A469040421E9041FB4062463C
:1018C00002431F1CA21A9442A4416442C91B091B73
:1018D000141C0B029FD549024F0A002F00D1C8E00B
:1018E000381C01F043FE021C083A1F2A00DDB5E057
:1018F0002821091A201C9740C8400743944095426C
:1019000000DDB2E0551B691C1F2900DDDCE01F2251
:10191000551B3B1C221CAB40CA40AC40651EAC4171
:101920001343CF401C43391C002574E780231B045C
:101930000B40371C002B00D082E7904B4807E4088F
:101940000443C9089D4248D009030B0B84E7AA1A37
:101950009446002A00DC98E05046002852D0874880
:10196000854200D157E78020000403436246382AAD
:1019700000DDFCE01F2A00DD4AE120226046101A4B
:101980001A1C82408246914658466246D0404A46DA
:1019900002439046584652469040421E904142466D
:1019A00002436046C3401219A242A441644259183E
:1019B0000919141C080200D42DE7704B01359D4213
:1019C00000D122E16E4B60081940012323401C1C0A
:1019D0000443CB071C4349081DE7231C0B433AD0A3
:1019E00080231B030B431B031B0B35E7013F002F19
:1019F00065D15846221A9442A4416442C91A091B6F
:101A0000141C66E75846184300D104E701225242ED
:101A100094446046002800D0C5E058460219C3E748
:101A2000002F73D1681C4005400D012800DCDEE06A
:101A30005A46A21A9442BF41C81A7F42C71B3802B5
:101A400000D489E05A46141BA3459241591A5242C8
:101A50008F1A664641E700230024FDE6271C28383C
:101A600087400024954200DC4CE74549AD1A3940D7
:101A7000D1E6201C01F07AFD203034E75A461A43A3
:101A8000531E9A41D2B200271CE7002A00D0DCE0A6
:101A9000681C4205520D012A00DC8DE0374DA8423A
:101AA00000D1F3E05D462A19A242A44164425918CC
:101AB0000919CC07520814434908051CABE62F4806
:101AC000854200D0E6E6A6E62B1C1F3B3A1CDA4016
:101AD000131C20296CD03F22551BAF403C43601E95
:101AE00084411C430021002595E6381C20381A1C2F
:101AF000C240101C202F5DD04022D71BBB405A464D
:101B00001A43531E9A4102430027DBE6002D3BD0C7
:101B10001A4DAA4500D193E080252D047F42294328
:101B2000382F00DDACE01F2F00DD29E12025ED1B63
:101B3000081C261CA840FE40AC400643651EAC4174
:101B40003443F9405D462C1BA34592415B1A524237
:101B5000991A55466646BCE6131C3B43141C002BE1
:101B600000D0BAE60027002100250024E5E65A4609
:101B70001A43531E9A41D2B2002314E7FF07000014
:101B8000FFFF7FFFFFFF0F800D1C254358D0FF4351
:101B9000002F51D1041BA3459241591A5242891A70
:101BA0005546664695E69648854200D0DEE632E622
:101BB000002793E70023A2E7081C2043002D00D054
:101BC000C4E0002800D1F7E05846184300D122E6CF
:101BD00058460219A242A441644259180919141C1A
:101BE0000A0200D417E6874B0125194013E6081CAA
:101BF0002043002D39D1002871D15946194303D013
:101C0000191C5C46664606E600270021002494E67F
:101C1000604620381A1CC24060469146202800D1F8
:101C2000ACE04022121A93405A461A43531E9A417E
:101C30004B461A430023B6E6714DAA4500D06FE724
:101C4000191C5C4655466646E5E5002D22D10D1C63
:101C5000254377D0D543002D71D15C445C4592413A
:101C60005918524289185546A4E600284DD15946C4
:101C7000194300D194E0191C5C466646604DCAE5E4
:101C80000C43611E8C41E4B200215BE7051C00217E
:101C9000002452E65A4DAA4554D0554280221004E1
:101CA0000143382D00DD81E01F2D00DD92E0202270
:101CB000501B0A1C84468240201CE8400243904688
:101CC00062469440601E844142461443E9405C44AD
:101CD0005C459241CB185242991855466AE65846DF
:101CE000184300D197E55846271ABC429241C81ABA
:101CF0005242801A020266D55846041BA3459241FF
:101D0000591A5242891A664685E55846184333D017
:101D10004807E40804438020C9080003014208D0B2
:101D2000DD08054205D15946CA085C071443291C41
:101D30006646630FC9001943E400314D6BE5304A34
:101D40009245AED1191C5C46554664E5002836D054
:101D50005846184310D080254807E408C9082D03C9
:101D600004432942E5D0D8082842E2D15D46EA087A
:101D70005C071443011CDCE7214D4CE5002353E7CD
:101D80003D1C203D0A1CEA40151C202F34D0402663
:101D9000F71BB9400C43611E8C412C430021D1E656
:101DA00080210027C903164D0024C6E50C43611E9F
:101DB0008C41E4B200218AE7191C5C462BE5191C12
:101DC0005C460F4D27E5031C3B4300D11CE7011C7B
:101DD0003C1C20E52020404240190A1CC24090468D
:101DE000202D0BD04020451BA9400C43611E8C4187
:101DF00045462C4300216AE70021CBE70021F4E7A8
:101E0000FF070000FFFF7FFFF0B5564644465F46E0
:101E10004D46F0B41F1C0B031B0B98464B0087B0BC
:101E2000041C81465B0DC80F161C9A460090002BBF
:101E300051D06A4B9A4531D08022414652030A4321
:101E4000630FD2001A43664B90460025E20091468C
:101E50009A44002402953B031B0B9B46FD0F7B001D
:101E6000311C5B0D019560D05C4A934254D08021B7
:101E7000584649030143720FC9001143584A8B4623
:101E80009B18F1000020009A04436A4003920F2C33
:101E900000D9ADE0534EA4003459A7464046044350
:101EA0006ED1002102250824884689460295D2E792
:101EB000009C0298C34649460194022864D0032836
:101EC00000D1ABE2012800D038E2019A00240240A0
:101ED0000025A14660E0434623434AD040460028FF
:101EE00000D1C0E101F042FB031E272B00DDB3E16E
:101EF00028210D1A211C083B4246E9409A400D1C3E
:101F00001543221C9A40A8469146374B00251B1AC0
:101F10009A46002402959EE75A4616430320002E57
:101F2000B1D1B34600210220ADE75A4632431BD05F
:101F30005B46002B00D18AE1584601F017FB2728A9
:101F400000DD7DE12822171A011C321C08395B468E
:101F5000FA408B40171C1F43331C8B40BB46191C97
:101F6000214B1B1A00208EE70027BB4600210120D1
:101F700089E70020012504248046814602956AE70E
:101F800003250C24029566E7019C0394039D01221E
:101F90002A400024114DA146002000212403260BD5
:101FA0000C0D2405114B34432D0523402B435B00BE
:101FB0005B08D207191C4846114307B03CBC904649
:101FC0009946A246AB46F0BD0022802424039146E8
:101FD000024DE1E700240025A146DDE7FF070000F0
:101FE00001FCFFFF480501000DFCFFFFFFFF0F8014
:101FF0005546ED1A0495D84500D953E100D14EE17C
:10200000049C0025013C4E4604944746A946584688
:1020100003020C0E1C430902250C23041B0C009127
:10202000381C291C0193FEF7D7FA019983464143D6
:10203000381C8A46291CFEF713FB330C090419438C
:102040008A450CD95B460919013B8C4200D947E10E
:102050008A4500D844E1022252429344091953466A
:10206000CB1A181C291C9846FEF7B6FA071C0198D3
:10207000291C784382464046FEF7F2FA36040B04E8
:10208000360C33439A4509D91B197A1E9C4200D954
:1020900024E19A4500D821E1023F1B195E46320433
:1020A0001743380CBB46009E009F51463F0C32043C
:1020B0005B1A5946BA46120C0F043F0C9046514623
:1020C0007A434F434146414356467043CF19160C5D
:1020D000BE19B14202D980277F02C019310C120407
:1020E0003604120C4018B618834200D2C4E000D166
:1020F000BEE0191A4846861BB145BF417F42CF1B3F
:10210000A74200D113E1291C381CFEF765FA01999A
:1021100002904143381C8946291CFEF7A1FA330C72
:102120000904194389450CD9029B0919013B8C42CA
:1021300000D9FFE0894500D8FCE0029F0919023F61
:1021400002974F46CF1B381C291C0597FEF744FA0F
:10215000071C0198291C784381460598FEF780FAF0
:1021600036040904360C0E43B14509D936197B1ED5
:10217000B44200D9E0E0B14500D8DDE0023F3619B5
:10218000029D4946761A290439430B0457460A0C26
:102190001B0C40464546584355437B437A43EB1856
:1021A000070CDB199D4202D980256D0252191D0CC6
:1021B00000041B04000C52191B18964235D300D1A1
:1021C000FCE001231943049E994FF519002D00DC12
:1021D000A1E0480709D00F230B40042B05D00B1DAD
:1021E0008B42894149428B44191C5A46D20107D57A
:1021F000904B5C46049E80271C40FF00A346F519C7
:102200008D4B9D427ADD039C0122224000248B4DA0
:10221000A146C1E680242403474627424CD13C43D3
:102220002403240B009A854DB6E63619481EB442A5
:102230005ED9011C9642C4D1009E9E42C1D1C2E724
:10224000031C283B311C99408B46002188E6301C3A
:1022500001F08CF9203072E6283B211C99400022C5
:102260008846914651E6201C01F080F920303BE67B
:102270000021B14500D33DE7009F5A46B944B94516
:10228000BF417F423F19FB18013A9C421ED298423F
:1022900000D97EE000D1B5E0191A93462AE78945B6
:1022A00000D8ADE64846464642467708D30746087A
:1022B000C0071E438146AAE65846204212D1044375
:1022C00024032A1C240B89465C4D65E6A342E3D116
:1022D000009F4F45DBD9211A93460BE7171CDDE61B
:1022E0009B46BCE63C432403240B009A534D53E623
:1022F000B24259D800D18AE0011C62E75F46C908A2
:102300007B07039E0B437C026D0501229946240B3B
:102310006D0D324040E64A4B049FDB1B382B10DD2D
:10232000039C0122224000240025A14634E601211D
:10233000494248E7029304E71F1C21E7019C0394EC
:1023400041E71F2B40DC3F48049F0C1C3A185846BD
:102350009140DC40904020430A1C511E8A41011CE0
:1023600011435A46DA40131C480709D00F220A408D
:10237000042A05D00A1D8A42894149425B18111C72
:102380001A0234D5039C0122224000240125A146D3
:1023900002E6009F02214942B9448B44B945894174
:1023A00049420919CB18A4E6009D881E6900A9427C
:1023B000AD416D422C19361900913AE7002B00D03F
:1023C00033E70024009437E71F4A049C5D46121B44
:1023D000D5402A1C202B1FD01C4E5F46A3199F40BE
:1023E0003B1C19434B1E994111430023BCE75A077C
:1023F000C9080A43039F91465B0201221C0B3A4025
:102400000025C9E54E45C4D89346002172E6009FD9
:102410009F42C9D3011C0FE70023E2E78024240375
:102420005F463C432403240B019A8946034DB3E5E0
:10243000FF030000FFFFFFFEFE070000FF07000094
:1024400002FCFFFF1E040000E2FBFFFF3E04000051
:10245000F0B55F4656464D464446F0B40D1C041C8C
:102460008046E80F814618030F03000B3F0B83B033
:1024700084461B48009749005E00DF0F490D9246D5
:10248000760DBB4681420CD01548864210D0012003
:10249000B14215D003B03CBC90469946A246AB462B
:1024A000F0BD009F01202743F4D10D488642EED1B4
:1024B000604602430120002AECD10120B142E9D15B
:1024C000009B6345E6D1D045E4D1D94506D000292B
:1024D000E0D11C43201C441EA041DBE70020D9E7CB
:1024E000FF070000F0B55F4656464D464446F0B43F
:1024F000CD0FDE0FAC461D032D0BB146374E0F033B
:102500004C00AB465D0080463F0B640D92466D0D5E
:10251000B44232D0314EB54235D0002C0ED13843C2
:1025200041424141081C002D0BD0002919D1CC4556
:102530002DD0654668420123184318E0002DF6D1DE
:10254000281C59460A4353425341002806D1002B08
:10255000EDD0634658420123184308E00020002BC9
:1025600005D14A46504250414042012318433CBCE9
:1025700090469946A246AB46F0BD3E1C0643C9D0E4
:1025800002204042F3E75E461643C6D0F8E7AC426D
:1025900007DC0BDA614648424841404201231843B8
:1025A000E5E76646704201231843E0E75F450AD835
:1025B0000ED000205F45DAD265466842684140424D
:1025C00001231843D3E76246504201231843CEE764
:1025D000D045F8D80020D045EED3C8E7FF0700006B
:1025E000F0B556464D4644465F46F0B40D1C83B0E8
:1025F000041C0190E80F814618030F03000B3F0BEA
:1026000084463548009749005E00DF0F490D924629
:10261000760DB846814234D02F48864236D0002904
:1026200018D0002E1FD1341C67463A435342534101
:10263000002C1FD00020002B05D1424650425041B3
:1026400040420123184303B03CBC90469946A24641
:10265000AB46F0BD0098044360426041041C002E6C
:10266000E2D00028E9D1C14515D04F467842012378
:102670001843E8E7002BF6D04B4658420123184395
:10268000E1E7009F02202743DDD1C5E7674602202E
:102690001743D8D1C3E7B14204DD4A465042012373
:1026A0001843D0E7B14207DB00986045E4D80AD070
:1026B000009F00206745C6D24F467842784140428D
:1026C00001231843BFE7019A5245D5D8019A00204B
:1026D0005245F1D3B7E7C046FF070000F0B55646B4
:1026E00044465F464D46F0B41F1C0B031B0B9A4635
:1026F0004B0087B0041C80465B0DC80F161C02936C
:102700008146002B68D0694B0299994232D08022D1
:10271000534652031A43D200630F1A439246644A47
:10272000E000891880460291002400253B031B0B22
:102730009B467800FB0F321C400D039300D175E0DF
:102740005A4B984269D08022594652030A43730F6C
:10275000D2001A43564B9346C018F2000023039947
:102760004E4671401C430F2C00D9A9E0514EA400E5
:102770003459A74653461C4300D087E00025AA469B
:10278000A84608240225D1E74946022D6CD0032D26
:1027900000D117E2012D00D058E10D40EDB2002428
:1027A000A9460023A0460020002125030A0D1C0590
:1027B0002D0B1205404B2A43134023435B004C462C
:1027C0005B08E207191C4046114307B03CBC904629
:1027D0009946A246AB46F0BD5346234350D05346DC
:1027E000002B00D184E1504600F0C0FE031E272BD1
:1027F00000DD76E128210D1A211C083B5246E940F4
:102800009A400D1C1543221C9A40AA4690462B4B19
:1028100000241B1A0293002588E75B461E4303230E
:10282000002E9CD1B3460022022398E75B46334337
:1028300021D05846002800D14EE100F097FE27280D
:1028400000DD42E128210F1A021C311C083A5B46C8
:10285000F94093400F1C1F43331C9340BB461A1C86
:10286000164B181A00237AE701230B4000249946DF
:10287000A0460E4B97E70027BB46002201236EE7D8
:10288000002104248A46884601254FE70C240325AD
:102890004CE700258024A9462403A846034B82E781
:1028A000DA46904603991D1C6FE7C046FF070000FB
:1028B00001FCFFFF88050100FFFF0F800DFCFFFFFB
:1028C000029F160C381804904046070C0004000CB8
:1028D0001204120C031C5343041C3D1C7443554347
:1028E00098463B1C73436419A44644460293230C48
:1028F00063449D4204D9029D802464022D190295EF
:102900001D0C039545462C041B04240C1C1905942E
:102910005C46230C051C58432404240C8446381CB4
:10292000604365435F438146CC44280C6044BB460A
:10293000814502D980277F02BB442D04070C2D0C52
:10294000000440195546BC462F04E3448446280C35
:102950003D0C2F1C5743B8462F1C77434243B946C2
:1029600047463F0C9144BA46D14446434A4502D9B2
:1029700080225202B6184F463A0CB6183A0447461F
:102980003F043F0CB8462F1C67435D434443584304
:1029900065190190380C2D184244B846AC4204D950
:1029A000019880235B02C0180190039C029F201CA9
:1029B0006044C0196045A44147466442A4462B04C4
:1029C0003C049946240C4C44A046D8448018C24686
:1029D000E24490429241574652429146F219E245F2
:1029E000BF417F424B46BC46D845BF41D4187F42C9
:1029F00063461F432D0C7F19B24292414C45AD41B5
:102A000052426D421543019E7D19AB19E20D5B02E6
:102A1000059F134342023A439A46531E9A41C30DFF
:102A2000101C18436402204380465046C0010DD557
:102A3000454601225646049C6B082A401A43F30778
:102A400001341A43760804949046B246049E634FBC
:102A5000F319002B61DD404640070BD00F2244469E
:102A60002240042A06D04246043242458041404278
:102A7000824490465546ED0107D5594B5646049F72
:102A800080201E40C000B2463B18564A934200DDEB
:102A9000EAE644465546E2086807104301226C0204
:102AA0005B050A408046240B5B0D91467BE6DA46C7
:102AB00090461D1C69E680242403574627421CD1FA
:102AC0003C432403240B484B6DE6031C283B311C7C
:102AD00099408B460022C3E6301C00F047FD2030B1
:102AE000ADE6283B211C994000228A4690468EE69E
:102AF000201C00F03BFD203078E65846204207D1EC
:102B0000044303992403240B89469046364B4AE636
:102B10003C432403240B344B45E6344B049E9B1B5F
:102B2000382B06DD01230B4000249946A0460023E4
:102B300039E61F2B25DC049C2D4D46466019524674
:102B400044468640DC4082405746301C2243DF40EA
:102B5000441EA04102433B1C540709D00F201040E3
:102B6000042805D0101D9042924152429B18021C2D
:102B70001D021AD501230B4000249946A0460123CB
:102B800011E61C48049C5546001BC540281C202B00
:102B900016D0194E5746A21997403A1C43461A437D
:102BA000531E9A4102430023D6E758075B02D2081E
:102BB0001C0B01230B401043994680460023F2E58D
:102BC0000022EBE7802424035046012304431940EC
:102BD0002403240B8946044BE5E5C046FF030000AF
:102BE000FFFFFFFEFE070000FF07000002FCFFFFE3
:102BF0001E040000E2FBFFFF3E040000F8B55F4644
:102C0000564644464D46F0B40C034D00CF0F610AC2
:102C1000440F2143C4001803DE0F8046B4464646E5
:102C20005800760A530F3343D600D14A6D0DBA4689
:102C3000400DB346904200D1F5E062460126724055
:102C40009446674500D1ABE02F1A002F00DC11E15C
:102C500000283ED15846184300D0F1E0600700D16B
:102C600097E00F232340042B00D122E1221DA24232
:102C7000A4416442802309191B04012750460B40DC
:102C80000740141C002B00D179E0B94B01359D425F
:102C900000D10BE1B74BE40819404807490204434F
:102CA0000B0B002000211B031A0B0B0D6D051B05E0
:102CB00013436A08B04DFF071D4015436D006D08B2
:102CC000291C3943201C3CBC90469946A246AB4681
:102CD000F8BDA7488542C1D0802000040343382FA7
:102CE00000DDFDE01F2F00DD31E12020C01B1A1C9C
:102CF0005E468240FE40324394465A468240101C53
:102D0000421E9041FB40624602431F1CA21A94429D
:102D1000A4416442C91B091B141C0A029ED5490226
:102D20004F0A002F00D1D6E0381C00F01FFC021C17
:102D3000083A1F2A00DDC3E02821231C091A974006
:102D4000CB401F439440954200DDC0E0551B691CF9
:102D50001F2900DDEAE01F22551B3B1C221CAB4053
:102D6000CA40AC40651EAC411343CF401C43391CE4
:102D7000002573E780217E4D0027C90300247C4B8A
:102D80004807E4080443C9089D4250D009030B0BCF
:102D900087E780231B04012752460B40174071E749
:102DA0002A1A9446002A00DCA1E0002854D070487A
:102DB000854200D152E78020000403436046382852
:102DC00000DD0EE11F2800DD57E162462020801A59
:102DD0001E1C8640B1465E46D6404A4632435E4699
:102DE00086409046301C421E904142460243604657
:102DF000C3401219A242A441644259180919141C73
:102E0000080200D42AE75A4B01359D4200D131E136
:102E1000584B60081940012323401C1C0443CB0776
:102E20001C4349081AE71E4300D00AE705E7231CA4
:102E30000B433BD080231B030B431B031B0B30E7CF
:102E4000013F002F6DD15E46A21B9442A441644213
:102E5000C91A091B141C60E75846184300D1FDE647
:102E600001267642B4446046002800D0D0E05E4699
:102E70003219BFE7002F00D080E0681C4005400DEC
:102E8000012800DCE8E05A46A21A9442BF41C81A61
:102E90007F42C71B3E0200D498E05846041BA3455E
:102EA0009241591A52428F1AE2463AE7002300240F
:102EB000F7E680231B04012756460B403740E1E626
:102EC000271C283887400024954200DC3EE729492A
:102ED000AD1A3940C2E6201C00F048FB203026E73E
:102EE0005A461A43531E9A41D2B200270EE7002ACF
:102EF00000D0DEE0681C4605760D012E00DC90E077
:102F00001B4DA84200D1F5E05E463219A242A44111
:102F1000644259180919CC07520814434908051C82
:102F20009CE61348854200D0D9E697E62B1C1F3B50
:102F30003E1CDE40331C20296FD03F22551BAF4082
:102F40003C43601E84411C430021002586E6381C5A
:102F500020381E1CC640301C202F60D04022D71BBA
:102F6000BB405A461A43531E9A4102430027CDE6FE
:102F7000FF070000FFFF7FFFFFFF0F80002D37D00E
:102F8000B64DA84200D18FE080252D047F42294311
:102F9000382F00DDA8E01F2F00DD24E12025ED1BE8
:102FA0000E1CAE40B046261CFE404246AC401643C6
:102FB000651EAC413443F9405A46141BA345924167
:102FC0005B1A5242991A051CE246A6E6131C3B43C3
:102FD000141C002B00D0A4E60027002100250024AB
:102FE000CDE65A461A43531E9A41D2B2002300E757
:102FF0000D1C254358D0FF43002F51D15A46141BB6
:10300000A3459241591A5242891A051CE24684E6A8
:103010009248854200D0D1E620E6002790E70023C1
:103020009FE7081C2043002D00D0C2E0002800D1FB
:10303000EFE05846184300D110E658460219A24264
:10304000A441644259180919141C0A0200D405E667
:10305000834B0125194001E6081C2043002D38D17F
:1030600000286FD15946194303D0191C5C46E2462B
:10307000F4E500270021002481E6604620381A1C70
:10308000C2406646101C202E00D1AAE04022921BAE
:1030900093405A461A43531E9A4102430023A8E61E
:1030A0006E4DA84200D073E7191C5C46051CE24631
:1030B000D4E5002D22D10D1C254376D0D543002D1B
:1030C00070D15C445C459241591852428918051CE4
:1030D00096E600284CD15946194300D14AE6191CFE
:1030E0005C46E2465D4DB9E50C43611E8C41E4B29D
:1030F000002161E7051C0021002440E6574DA8424D
:1031000053D05542802216043143382D7BDC1F2DCD
:1031100000DD8CE02022561B0A1CB446B240261C5F
:10312000EE403243904662469440661EB4414246A9
:103130001443E9405C445C459241CB1852429918D3
:10314000051C5DE65846184300D187E55E46A71B7F
:10315000BC429241C81A5242801A060260D55846B3
:10316000041BA3459241591A5242891AE24675E559
:103170005846184333D04807E40804438020C90860
:103180000003014208D0DD08054205D15946CA08AE
:103190005C071443291CE246630FC9001943E4008D
:1031A0002E4D5BE52D4A9042AFD1191C5C46051CA3
:1031B00054E5002830D05846184310D080254807E1
:1031C000E408C9082D0304432942E5D0D808284261
:1031D000E2D15D46EA085C071443011CDCE71F4DA1
:1031E0003CE5002355E73D1C203D0E1CEE40351C00
:1031F000202F2ED04026F71BB9400C43611E8C4176
:103200002C430021D8E60C43611E8C41E4B200211E
:1032100090E7191C5C4621E5191C5C460F4D1DE525
:10322000031C3B4300D124E7011C3C1C16E520266F
:10323000764276190A1CF2409046202D0BD040268B
:10324000751BA9400C43611E8C4145462C4300214F
:1032500070E70021D1E70021F4E7C046FF07000036
:10326000FFFF7FFF70B50B1C124C09030E0B5900BA
:10327000021C490DDD0F0020A14211DD0E488142E4
:103280000FDC8020400306430C48401A1F280BDD4A
:103290000B4A521AD640321C5042002D00D1101C4D
:1032A00070BD084BE818FBE7074BC240C9188E40B9
:1032B0003243F1E7FE0300001D0400003304000068
:1032C00013040000FFFFFF7FEDFBFFFFF8B5041EB6
:1032D00031D0C70F00D04442201C00F047F9184DF0
:1032E0002D1A0A2819DD0B38844024036D05240BA0
:1032F0006D0D3A1C0026002000210B0D2403240B29
:103300001B0523430F4C2D051C402C43640064080F
:10331000D307211C301C1943F8BD061C1536231C8D
:10332000B3401E1C0B23181AC44024036D05240B44
:103330006D0D3A1CDFE70022002500240026DAE7A5
:103340001E040000FFFF0F8010B5041E28D000F0FF
:103350000DF9154A121A0A2815DD0B38844024038A
:103360005205240B520D0023002000212403181CB9
:103370000B0D240B1B0523430C4C12051C4014435E
:103380006400610810BD031C1533211C99400B1CFF
:103390000B21081AC44024035205240B520DE3E705
:1033A000002200240023DFE71E040000FFFF0F803F
:1033B00043001B0E5A1C4102D2B270B54C0AC50F15
:1033C000012A17DDE02292006407090B98180022F9
:1033D00000231E0D221C34050C431B4940054008E8
:1033E0002140014349004908ED070B1C2B43101CE9
:1033F000191C70BD002B15D1002C1CD0201C00F016
:10340000B5F80A281ADC0B21091A231CCB40191C19
:10341000031C15339C400D4B0903181A4005090B7A
:10342000400DD4E7002C03D06407090B0848CEE711
:1034300007480021CBE700200021C8E7011C0B3919
:103440008C40211C0024E6E7FFFF0F808903000069
:10345000FF070000F0B54B000D03420F5B0D6D0A36
:1034600015435A1C5205CC0FC600520D012A27DD08
:10347000394FDA19FE2A1ADC002A35DD8001ED0009
:10348000431E98412843760F3043430704D00F234F
:103490000340042B00D004308021C904014027D010
:1034A0000132FF2A1DD083015B0AD1B201E0FF2166
:1034B00000235802C905400AE40708432043F0BD31
:1034C000002B06D1354311D10021002043025B0AB5
:1034D000EFE72E43EBD08020ED0080042843FF224D
:1034E000D3E7FF210023E4E717320DDA052000229D
:1034F000C008D1B2FF2AE9D10028D9D08023DB034C
:1035000003435B025B0AD4E780221449120415438B
:10351000C91A1F290DDC124A371C9B18281C9F4012
:1035200098403B1C5A1E93411843CE403043002222
:10353000ABE70C4F2A1CFF1AFA40171C202909D0B0
:10354000094A98188540281C3043461EB04138432C
:1035500000229AE70020F7E780FCFFFF9E030000AF
:1035600082FCFFFF7E030000A2FCFFFF1C21012361
:103570001B04984201D3000C10391B0A984201D356
:10358000000A08391B09984201D30009043902A234
:10359000105C40187047C04604030202010101019B
:1035A000000000000000000038B50E4B0C4A041C5F
:1035B0000D1CFDF7F5F8002804D1201C291CFFF78D
:1035C00051FE38BD074B064A201C291CFFF716FB8D
:1035D000FFF748FE80231B06C018F2E7C046C0462E
:1035E000000000000000E041F0B544465F4656464A
:1035F0004D46F0B41C1C85B0002900DADBE00F1C3E
:103600000021061C8A46101C191C002C00DAC9E097
:103610000196009089468046002951D1B84200D8D1
:1036200071E0FFF7A3FF002809D020234546311C95
:103630001B1A85408740D940A8460F438640424622
:10364000150C13041B0C291C381C9B46FCF7C4FFEB
:103650005B464343041C291C381C9946FDF700F8BF
:10366000330C08041843814509D94044631E804542
:1036700000D978E1814500D875E1023C40444946D3
:10368000411A8946081C291CFCF7A6FF5A464243EA
:10369000071C291C48469346FCF7E2FF3604090440
:1036A000360C0E43B34507D946447B1EB04502D8BD
:1036B000023FB34500D81F1C24042743002403E025
:1036C000B94211D9002400275246381C211C002A77
:1036D00003D03B1C00215842A14105B03CBC9046A0
:1036E0009946A246AB46F0BD081CFFF73FFF041EFB
:1036F00000D0BFE0B94500D242E1019D0099071C0E
:103700008D424741E0E7002804D101200021FCF769
:1037100063FF80464046FFF729FF002852D141460B
:1037200044460B043C1B1B0CA3460D0C00930124C8
:10373000291C5846FCF750FF009F81464743291C2F
:103740005846FCF78DFF330C090419438F4208D902
:103750004B464144013B884502D88F4200D91AE1CB
:103760009946C91B8B46081C291CFCF735FF009B9A
:10377000291C4343071C58460093FCF771FF36048D
:10378000009D0904360C0E43B54207D946447B1E02
:10379000B04502D8023FB54200D81F1C49460E046E
:1037A000374391E75246D243031C0C1C924600213A
:1037B0005842A1412CE7002746428F41012149424E
:1037C0008A4620E720231B1A4246351C82403C1CB7
:1037D000DD40DC4087402B1C150C3B43291C8640F8
:1037E000201C009317049046FCF7F6FE3F0C011CCA
:1037F000794381468B46201C291CFCF731FF009C35
:103800000904230C19438B450CD94B464144013B19
:10381000884500D9BDE08B4500D8BAE0022252426B
:10382000914441445C460C1B201C291C0194FCF76C
:10383000D3FE391C4143041C8B460198291CFCF71C
:103840000FFF009A090413041B0C19438B4509D977
:103850004144631E884500D997E08B4500D894E029
:10386000023C41445B46CB1A49469B460B041C4331
:1038700000975DE7009D20231B1A4A468240DD40E9
:103880001543391C009AD94082408846311C009269
:10389000D9403A1C82400B1C134301932F0C2B047C
:1038A0001B0C391C40460293FCF796FE029A814697
:1038B0004243391C40469346FCF7D2FE019A090464
:1038C000130C19438B450AD94B464919013B8D42CC
:1038D0005DD88B455BD902235B42994449195A460E
:1038E0008A1A101C391C0392FCF776FE029B804654
:1038F0004343391C03989B46FCF7B2FE019A090426
:1039000013041B0C19438B450AD943464919013B43
:103910008D4238D88B4536D902235B4298444919E9
:103920005D464D1BAB464946009D0F04424617437A
:103930002A04120C3B042D0C1B0C380C111C59438F
:1039400042436B436843D3180D0C5B198C469A4273
:1039500002D98022520280181D0C401983450CD3D5
:1039600003D00024B0E61C1C89E665462A041B042B
:10397000120C9B18A6409E42F3D2013F0024A3E6FE
:1039800000240127A0E69846CAE71C1C6AE799466E
:10399000A5E7994646E70222524291444144E0E6B7
:1039A000F0B55F4656464D464446F0B40D1C85B012
:1039B000061C924698460290019103921F1C141C0B
:1039C0008346A946002B59D1AA4269D9101CFFF79A
:1039D000CDFD00280AD020231B1A311CD940854078
:1039E0000B1C2B43864084409946B346250C230488
:1039F0001B0C291C48469846FCF7EEFD4646071C62
:103A00004643291C4846FCF72BFE5A460904130C72
:103A100019438E4209D909197B1E8C4200D957E1FE
:103A20008E4200D854E1023F0919891B8946081CBF
:103A3000291CFCF7D1FD43464343061C291C48467C
:103A40009846FCF70DFE5A46130409041B0C194353
:103A5000884508D90919731E8C4200D936E1023E07
:103A6000884500D832E1380430430027391C05B0BE
:103A70003CBC90469946A246AB46F0BD019A9342A3
:103A800062D8181CFFF772FD041E60D1019B9F4293
:103A900000D22CE1029F03998F4260410027E5E7A5
:103AA000002A04D101200021FCF796FD041C201CF3
:103AB000FFF75CFD002800D0B9E023042D1B1B0C90
:103AC000A946260C98460127311C4846FCF784FD80
:103AD00041464143051C8A464846311CFCF7C0FD5F
:103AE0005A460804130C1843824507D900196B1E67
:103AF000844202D8824500D910E11D1C5346C31AE6
:103B0000181C311C9A46FCF767FD4146414381462B
:103B100088465046311CFCF7A3FD5A46130409049D
:103B20001B0C194388450BD94B460919013B8C42A4
:103B300000D9CFE0884500D8CCE002235B4299440D
:103B400028044946084391E7002700208EE72023F8
:103B50001B1A424657468240DF4017435246824076
:103B60000192321CDA40291CD9408540131C2B439A
:103B700002933D0C3B041B0C8846081C291C9A46EA
:103B8000FCF72AFD534643438146291C40469B4689
:103B9000FCF766FD029A0904130C19438B4506D9FC
:103BA0004B46C919013B8F4200D8ABE099465A46B3
:103BB0008A1A101C291C9346FCF70EFD53464343FA
:103BC000291C804658469A46FCF74AFD029A090489
:103BD00015042D0C29438A4506D94346C919013BD2
:103BE0008F4200D886E098465746CF1BBA464946D2
:103BF000019F0804424610433D042D0C03043F0C72
:103C00001B0C020C291C594355437B437A43EB1888
:103C10000F0CDB198C469D4202D980277F02D219F6
:103C20001D0C521992455FD356D000271EE7202362
:103C30001B1A311C2F1CD940DF4085400B1C8440CF
:103C40002B4386400193B3462304260C1B0C381CDF
:103C5000311C9846FCF7C0FC42464243051C311C0F
:103C6000381C9146FCF7FCFC019F09043B0C1943EE
:103C7000894507D909196B1E8C424DD889454BD906
:103C8000023D09194A468A1A101C311C9246FCF75B
:103C9000A3FC43464343071C311C50469946FCF79E
:103CA000DFFC019A090413041B0C1943894507D949
:103CB00009197B1E8C422DD889452BD9023F091941
:103CC0004B46CB1A2D0499462F43FDE61E1CCAE62F
:103CD0001F1CAAE6994633E761460A041B04120C2E
:103CE0009B18A6409E42A0D201380027BEE60027BE
:103CF0000120BBE68A4500D875E702235B42984461
:103D0000C91971E78B4500D850E702235B429944FB
:103D1000C9194CE71F1CD3E71D1CB3E7023D00196E
:103D2000ECE6C04608B5094A094BD058094901409C
:103D30008020C0040143D15003F006FF031C064855
:103D4000E1214902022203F07FFC08BD007004401B
:103D500004100000FFFFFFF30040054000B585B0F0
:103D600002A80D49083106220BF06AF900236A46C1
:103D7000137080235B0201930849094B094AD15013
:103D800002A803F05DFF684603F082FE064A074B77
:103D90001A6005B000BDC046A8040100000007106D
:103DA0004410000000700440006CDC0208E0FF1FBB
:103DB00038B507F01FFC1D4B59681D4A114059606A
:103DC0001C4B98681040802189000843986058680F
:103DD0001040014359601848846F14408021490005
:103DE0000C43846758691040084358619869104033
:103DF00008439861D86902401143D9610F4C1048BB
:103E00001E21221C04F068FC0E4D281C0521221CDA
:103E100004F062FC281C0621221C04F05DFC281C16
:103E20000721221C04F058FC38BDC04600A0044005
:103E3000FFF8FFFF00B0044000D00440C8050100B7
:103E400000F10F4080F00F4008B50B4B1A6881213C
:103E50008A431A601A6880218A4301210A431A6042
:103E60002021A023054AD1500022054B1A70054895
:103E700003F040FC08BDC0460000044000C0044000
:103E80001DE2FF1F00060100F0B557464646C0B4CC
:103E90008BB0041C0D1C0021504F4F4E36196F4142
:103EA000049605970E1C8CE04D4B73434D4A9B5C6A
:103EB000002B00D184E04A4A72434A4BD35C012B69
:103EC0002ED1131C474AD3181A695B69AB4277DCC1
:103ED00001D1A24274D8424B7343424AD3181B7A91
:103EE000002B05D03E4B7343D3189C61DD610DE080
:103EF0003B4B73433B49C918CB6808930022099296
:103F0000089A099B12196B418A61CB61344A72434A
:103F10000221344BD154344B0499059A19605A60EC
:103F2000314B1A685B68AB420AD801D1A24207D86C
:103F30002D4B0499059A19605A6001222B4B1A7077
:103F4000274B7343274AD3189A69DB69AB4237DCA6
:103F500001D1A24234D822497143224B59180C6234
:103F60004D62CA68069200230793069A079B1219AE
:103F70006B418A61CB611E4B1B78002B03D0012261
:103F80001C4B1A701CE01C4B1B681C498A460422FF
:103F900000929B00019301270297081C1849194BB6
:103FA00003F08CFF18480221524603F001FF104B2A
:103FB0001F70164A092313601548002103F062FCA4
:103FC0000136012E00DC6FE70BB00CBC90469A4620
:103FD000F0BDC046C046C046A086010000000000FB
:103FE0001811000030E2FF1F28E2FF1F80080020A8
:103FF0001CE2FF1F8508002000E0FF1FC01F0020FB
:1040000010B003408004002000800040B81F002052
:1040100000B00340C046C046F8B54F4A1F231360A6
:104020004E48002103F02EFC002300204C494D4C4B
:1040300003E09A001259801801330A689342F8D3BA
:10404000474B1968FCF7C8FA80B2474B5870020A10
:104050009A70464A117819701378002B12D1444B8C
:104060001B889BB2984223D9131C01221A701B781B
:10407000002B03D140223F4B9A6019E040223D4B78
:104080005A6015E0394B1B78012B11D13A4B1B8834
:104090009BB298420CD2354B00221A701B78002B31
:1040A00003D14022334B9A6002E04022314B5A60E8
:1040B00000242D4E033648E0304B6343304A9B5C6E
:1040C000022B41D12F4F3978C9B2301C01F09EFD2F
:1040D0003B78002B02D000222A4B1A70274B6343F7
:1040E0003833274FFF18381C0AF082FC1E2803D9EA
:1040F000254B1B78002B22D0204B6343204AD3183A
:10410000FD2212019B181B78002B14D11B4B63431B
:104110001B4AD5182A6A6B6AAA62EB622B1C3033E1
:104120000D221A70E0B2402106F0DAFAFD221201E7
:10413000AB1801221A70144B1B78002B04D0381CCA
:1041400009491F220AF094FB0134012CB4DD00223E
:104150000E4B1A70F8BDC046B81F002000B00340D7
:1041600000E0FF1F80040020600400201FE2FF1F0A
:104170008208002080F00F408608002018110000FF
:1041800030E2FF1F80080020850800201CE2FF1F8E
:1041900008B51A4B196880220A431A60184B1A781E
:1041A0000132D2B21A70174B1B699A0605D5134B10
:1041B0001A6881218A431A601FE0114B1B78DBB219
:1041C000042B1AD90D4B1A6881218A431A600E4BB1
:1041D0001A7851424A41D2B21A701B78002B03D18F
:1041E00020220A4B9A6002E02022084B5A60064BBC
:1041F0001978C9B2064803F07DFA08BD00000440F2
:104200001DE2FF1FC0F00F408408002080F00F4027
:10421000140601007047C04638B5041C0F4B4343D9
:104220000F48C518682007F0F1FB002815D00D4B8A
:10423000ED18011C5831281C30220AF001FF084BF0
:10424000064860430021C1541A185160FA218900C0
:10425000D160383018180AF0D5FB38BD18110000AD
:1042600030E2FF1FD80F0000F0B583B0642068492A
:1042700009F00EFB684604F027FE6648694604F024
:10428000E7FD132003F0A4FC00215E4B5C4AFCF721
:104290000FFB5D4A5D4BFCF7EBFA002806D15E4848
:1042A0002621FF315D4A5E4B03F026FD0138594B54
:1042B00098601A6880218A43402632431A60594B1D
:1042C000802252051A60C72292009958FF2081432C
:1042D000C02001439950544C201C03F09BFA012349
:1042E000237000226270A270E370A3712372032313
:1042F0002371042363714D4D281C211C03F02EFAF9
:104300002B6AB3432B62281C032103F0A1FA281C5B
:1043100003F0FCFA002802D0454803F0EBF9454BC6
:1043200009221A6000221A715A71404B196A04223C
:104330000A431A62404B9A783F218A4328210A4354
:104340009A70997880220A439A703C4D3C4C281C04
:10435000211C022203F074FD281C3A49002203F0BC
:1043600023FE96235B00E158802212060A43E250A6
:10437000E158354A0A40802189050A43E250294A1A
:10438000C0239B00D05831490140802000040143E4
:10439000D15008F099FC01F0FFF900242C4D2D4F6D
:1043A00024261CE0381C60432B18FD2212019B18A8
:1043B0005E7034229A703522DA7023221A7100223C
:1043C0005A719A71011C5031691838302818F82236
:1043D00012010AF045FAE0B2FFF71EFF0134012C8A
:1043E000E0DD1D4C201C05211C4A07F043F8201C71
:1043F00005210A2207F066F803B0F0BDC046C046AA
:10440000102700000000000040420F0000000000E4
:10441000893E00000000044024060100E805010078
:104420006406010000E100E0AC1F002000B0034082
:1044300070060100B81F0020001002409C1F0020E1
:104440000080004019400000FFFFFFDFFFFF00FF7A
:1044500030E2FF1F1811000000C00440493E000078
:10446000F0B557464E464546E0B4041C8946151C37
:1044700008AB03CB1B789A460BAB1B789846524F80
:10448000524E6643301C383038180AF0BBFABB195C
:1044900000229A70FD20000119180A7049465960DF
:1044A000DD600898099918615961514619724246B0
:1044B0005A70002600279E62DF6230330C221A7089
:1044C00001225A70281CFDF72DF9FEF771FF374BBA
:1044D000354AFEF703F9364A364BFDF795FCFEF7F1
:1044E000B9FFFC218905FCF7B1FAFCF703FA384B58
:1044F00018601B68002B02D10122354B1A60344B27
:104500001A6880235B009A4202D91A1C304B1A6049
:104510002F4B19682F4803F0EDF82B4D2B4E6643B7
:10452000AF192D483B185868FEF742FF021C0B1CC0
:1045300021482249FEF762FBFEF78CFFFCF7DAF90F
:1045400080B2264B1880FF2109017F187868FEF79A
:104550002FFF021C0B1C1A481A49FEF74FFBFEF7EF
:1045600079FFFCF7C7F980B21D4B18801D48211C4C
:1045700003F0C0F800231C4A13701C4A13701C4A35
:10458000116813791B01CB180933FF335968802256
:10459000D2050A435A60012373551CBC90469946C4
:1045A000A246F0BDC046C046000000000000E03F4B
:1045B0000000000000C05240E1AC684C7601EB40C6
:1045C000EB6D5259B45E9C4030E2FF1F18110000A1
:1045D00000E0FF1F94060100E80F000082080020A1
:1045E00086080020AC060100850800201CE2FF1FA1
:1045F0009C1F0020C046C04638B5041C1F4A4243D9
:1046000000251F4BD5541F4A1F2313601E4800214D
:1046100003F038F91D4803F02BFD1D4B1D7001F010
:1046200025FB00280FD0002001F01AFB194B0022B7
:104630001A701B78002B03D12022174B9A6002E0DE
:104640002022154B5A601548211C03F053F80B4BE0
:1046500063430B4AD318FD2212019B181B78002BD1
:1046600003D00F48211C03F045F80E4B1B78002B9C
:1046700003D00D48211C03F03DF838BD181100008F
:1046800030E2FF1FB81F002000B003409C1F002035
:104690001CE2FF1F8408002080F00F40C4060100C8
:1046A000DC0601008508002004070100CBB2062BC0
:1046B00039D899001D4B5B589F461D4B58431D4BE5
:1046C0001818FD231B01C01840782DE0184B5843E3
:1046D000184B1818FD231B01C018807824E0144BD8
:1046E0005843144B1818FD231B01C018C0781BE059
:1046F0000F4B58430F4B1818FD231B01C0180079AE
:1047000012E00B4B58430B4B1818FD231B01C0182C
:10471000407909E0064B5843064B1818FD231B014E
:10472000C018807900E000207047C046CC05010029
:104730001811000030E2FF1F70B51E1C049D0024FC
:10474000FF2001E0285501341F2CFBDD0139C9B2DF
:10475000032913D8B218802A12D10021002402E0C4
:104760000878444001317E29FADD281C0021321CE2
:104770000AF066FC7F23EC54B0B202E0202000E097
:10478000202000B270BDC04608B50D4B994215D12E
:104790000C4802F0AFFF012001F062FA0A4B01223F
:1047A0001A701B78002B04D12022084B9A6008480D
:1047B00005E02022054B5A60054800E0081C08BDB2
:1047C00024896D49300701008408002080F00F40E3
:1047D00040420F00034B5843034BC018034B1818BB
:1047E0007047C04618110000D80F000030E2FF1FCC
:1047F00008B5064B5843064BC018064B1818002145
:1048000078220AF026FC002008BDC04618110000DE
:104810000810000030E2FF1FF0B5092918D80D4C30
:104820004D006B189B000C4E70431B18E3180B4F88
:10483000DE19012737700A4E9B191A606918890022
:1048400009186418054FE41900236360002000E094
:104850003220F0BD30E2FF1F1811000008100000E8
:104860001010000008B509290FD84B00591889000D
:10487000074B58430918074BC918074B5918101C08
:104880000C220AF0DDFB002000E0322008BDC0460B
:10489000181100000810000030E2FF1F70B584B04E
:1048A000061C141C0B78012B4AD80DD1264B012273
:1048B0001A701B78002B03D12022244B9A6010E041
:1048C0002022224B5A600CE01F4B00221A701B78EA
:1048D000002B03D120221D4B9A6002E020221B4BAB
:1048E0005A60301CFFF788FEE26A616800240025E8
:1048F000009401950123029300230393301CFFF7DA
:10490000AFFD134C134D754384235B01E818201849
:1049100008F0B6FB104BE818201808F0B1FB0F4B5D
:10492000E818201808F0ACFB0D4BE818201808F028
:10493000A7FB0C4BED18601908F0A2FB302000E03B
:10494000362004B070BDC0468408002080F00F40BF
:1049500030E2FF1F181100009C100000B81000008A
:10496000D4100000F0100000F0B55F4656464D46EA
:104970004446F0B48BB0824601910092051C784BFE
:104980004343784AD2189346171C3837381C0AF02C
:1049900027F800B21F21FBF71FFE80B203B2002BE5
:1049A00000DCD1E0002698466E4C6D4B5D438422BE
:1049B0005201AB181B1999463DE0381C02A91F2271
:1049C00009F0A4FF029B1802000CFCF7ABFE021CCE
:1049D0004846052108F05EFB6349681820186A46BE
:1049E000D37D06990A021A43052108F053FB5F4A5A
:1049F000A81820186946CB7E07990A021A43052198
:104A000008F048FB5A4AA81820186946CB7F089935
:104A10000A021A43052108F03DFB564AA81820183F
:104A2000232169440B78099A12021A43052108F0E0
:104A300031FB0136B6B233B24345BEDB484B52467A
:104A40005343484AD318842464011B199888FCF7FF
:104A50000DFE009D2C69211CFBF7BEFE002875D1C0
:104A6000019F3878002817D1434B5946CC50012379
:104A7000424A8B543A4A544662433A498A18404D56
:104A80005219404954685F467C5011683E4AB950FB
:104A900081225201BB545CE0012859D1364B5D465E
:104AA000EC500124354BEC542D4B57467B432D4A9B
:104AB000D31836481A185168324829501068324ABB
:104AC000A85081225201AC54314D5A1956683148D0
:104AD0005F463E501068304AB850304ABC543048A7
:104AE0001A185568822040013D5010682D4AB85070
:104AF0002D4ABC54882252019B182C4A5868B85041
:104B00001A682B4BFA502B4BFC542B48FCF70AF934
:104B10002A4BF8502A4BFC542748311CFCF702F969
:104B2000284BF850284BFC542348291CFCF7FAF872
:104B3000264BF850264BFC54FE229205254BFA508A
:104B4000254BFC54002004E0302002E0302000E03F
:104B500032200BB03CBC90469946A246AB46F0BD15
:104B60001811000030E2FF1F9C100000B810000078
:104B7000D4100000F01000001C1000001410000001
:104B8000901000002810000024100000AC1000005D
:104B9000C810000034100000301000002C1000007D
:104BA000E41000003C100000381000004C10000021
:104BB000481000004410000000007A445810000023
:104BC00050100000641000005C1000007010000025
:104BD000681000007C10000074100000F0B547461B
:104BE00080B4031C3A4C44433A4A14190D78002D02
:104BF0001ED1394AA258802000061218374FE251C0
:104C0000374EA2510A783748191C02F073FDE0595B
:104C1000FEF7CEFB021C0B1C334802F06BFDA059C3
:104C2000FEF7C6FB021C0B1C304802F063FD4AE095
:104C3000012D47D12E4AA2582E48804622502E4A96
:104C4000A2582E4FE2512E4AA25880267601A25138
:104C50002C4AA2582C4D62510A782248191C02F0A5
:104C600049FD4346E058FEF7A3FB021C0B1C2748F6
:104C700002F040FDE059FEF79BFB021C0B1C244890
:104C800002F038FDA059FEF793FB021C0B1C2148D3
:104C900002F030FD6059FEF78BFB021C0B1C1E4816
:104CA00002F028FD1D4B00221A701B78002B04D146
:104CB00020221B4B9A60002505E02022184B5A60E9
:104CC000002500E03225281C04BC9046F0BDC046FB
:104CD0001811000030E2FF1F28100000EC0F000048
:104CE000F40F000048070100780701009007010059
:104CF00058100000F80F000064100000FC0F0000C6
:104D0000701000007C10000004100000A8070100D3
:104D1000C4070100E0070100FC070100840800202F
:104D200080F00F40F0B5474680B484B080460C1C3C
:104D300094460AA900228E5E0BAD2F782578022DAD
:104D400045D13122A25C002A10D00093231C3233BB
:104D50000193013302930133039360682049E268B1
:104D6000634606F029FB00223123E2543023E35C42
:104D7000002B16D0002F03D000223023E25410E085
:104D8000A27800926168019102934046A26AE36AA8
:104D900006F094FAA3780133A37000223023E25482
:104DA00018E0201C383009F01BFE00B2311CFBF764
:104DB00061FC00B23323E35C98420ADB0C9A138057
:104DC00040460021FF220AF044F9064802E0002094
:104DD00000E0002000B204B004BC9046F0BDC04624
:104DE000A0860100FFFF0000F0B55F46564645462D
:104DF000E0B48EB00F1C6B4600225A8212338C4CEA
:104E000060438C4C24181F21009101920293381C9E
:104E1000211C09220423FFF785FF002800DB00E1A5
:104E200000218846002538221219924605AECDE0B1
:104E30005046311C1F2209F069FD63689B0737D576
:104E40003378002B10D131680802000C7A4BE358FC
:104E50009B46FCF70BFC5946FBF7F8FD774BE158F6
:104E6000FCF744F90D9012E0012B10D132681002CA
:104E7000000C734BE3589B46FCF7F8FB5946FBF7D5
:104E8000E5FDFF231B01E158FCF730F90D900D986B
:104E90000021FBF7A1FC002801D000230D9328B2CC
:104EA000381809300DA904220AF0CAF80435ADB249
:104EB00063685B070DD5F37871680A0213430D939D
:104EC00028B2381809300DA904220AF0B9F80435BF
:104ED000ADB2626812070DD5F379B1680A021343C7
:104EE0000D9328B2381809300DA904220AF0A8F849
:104EF0000435ADB26268D2060DD5F37AF1680A02C4
:104F000013430D9328B2381809300DA904220AF072
:104F100097F80435ADB26268920611D5F37B31691A
:104F200008021843474BE158FCF7E0F80D9028B20F
:104F3000381809300DA904220AF082F80435ADB200
:104F40006268520611D5F37C7169080218433E4B22
:104F5000E158FCF7CBF80D9028B2381809300DA9AC
:104F600004220AF06DF80435ADB26268120612D55B
:104F7000F37DB1690802184380235B01E158FCF717
:104F8000B5F80D9028B2381809300DA904220AF09E
:104F900057F80435ADB26268D20513D5F37871685D
:104FA00008021843F379B26811021943FBF74EFD6A
:104FB0000D9028B2381809300DA904220AF040F8E3
:104FC0000435ADB2434601339BB2984641460BB21D
:104FD000694612228A5E934200DA29E71B4A137857
:104FE000591C1170642B08D1059A1102090C18483C
:104FF00002F080FB0022154B1A70002D10D06B467A
:10500000997C3223E25C6378A078451CA570A48863
:105010000090019406200290381C06F0A7F900E0E9
:10502000002000B20EB01CBC90469A46A346F0BDCC
:105030001811000030E2FF1FEC0F0000E80F000025
:10504000F40F0000F80F0000FC0F00001EE2FF1F2D
:1050500018080100F0B55F4656464D464446F0B488
:1050600093B00D1C6B460022DA842633844E7043C5
:10507000844E36181F220092012201920293081CCE
:10508000311C08220223FFF74DFE002800DBEEE072
:10509000002188460022934600278F23DB059A468D
:1050A00079498946794C2B1C45469846C5E0301C09
:1050B00038300AA91F2209F029FC7268920740D5EE
:1050C0000AAB1B78002B0FD10A9B1802000CFCF7CF
:1050D000CDFA6F4BF158FBF7B9FC011C6D4BF05842
:1050E000FCF704F8834611E0012B0FD10A9908025E
:1050F000000CFCF7BBFA684BF158FBF7A7FC011C4E
:10510000FF231B01F058FBF7F1FF834658460021AF
:10511000FBF762FB002801D0002293465846514617
:10512000FBF7E4FF4946FBF7FDFDFBF7E3FB09A9AD
:10513000088038B208304044022209F081FF02376B
:10514000BFB273685B0716D50AABDA780B9800021A
:1051500010435146FBF7CAFF5049FBF7E3FDFBF74D
:10516000C9FB09A9088038B208304044022209F07E
:1051700067FF0237BFB27168090716D50AABDA7943
:105180000C98000210435146FBF7B0FF4449FBF76F
:10519000C9FDFBF7AFFB09A9088038B208304044CD
:1051A000022209F04DFF0237BFB27268D20616D54F
:1051B0000AABDA7A0D98000210435146FBF796FFCE
:1051C0003849FBF7AFFDFBF795FB09A9088038B21A
:1051D00008304044022209F033FF0237BFB223787F
:1051E0005A1C2270142B26D10AABDA7B0E990802C6
:1051F0001043DA7C94460F9A110262460A430492E5
:10520000DA7D109B1B0213430593FEF7D1F806903D
:1052100007910498FEF7CCF8009001910598FEF7ED
:10522000C7F8029003912048069A079B02F062FAA1
:105230000022164B1A700135ADB26B46D98C2BB2D9
:105240000AB2934200DA32E7002F0FD0C9B23223FC
:10525000F25C7378B078441CB47034790090019497
:1052600000200290404606F05DF800E0002000B209
:1052700013B03CBC90469946A246AB46F0BDC04632
:105280001811000030E2FF1F009E3B4820E2FF1F84
:10529000EC0F0000E80F0000F40F000000E8994652
:1052A00000007F44003004462008010010B5041CB3
:1052B000012303700130204909F021FF201C113027
:1052C0001E4909F01CFF201C21301D4909F017FF61
:1052D0000022002342216252442162524622A354FA
:1052E0004722A3540222A2648822A3549622520089
:1052F000E264144A22655822A35400220023226645
:105300006366114BA366114BE366114A226763671C
:10531000FE239B05A367E3678022A3508422A3504A
:105320000023002203E0E15C8A18D2B201338F2B04
:10533000F9D98823E25410BD300801003808010073
:1053400044080100C0A800001FA94B3E00E0FBC4B8
:105350005B9E9E4038B5041C0578012D08D0FFF7F0
:10536000A5FF22780348291C02F0C4F9012000E0BF
:10537000002038BD540801007047C04600000000FE
:10538000F0B54F464646C0B483B0634B9B780D2BB7
:1053900000D9C9E19A0061498A58974601335E4AAB
:1053A000937010200C215E4A00F032FBBCE1013307
:1053B000594A937010200021002200F0A9FBB3E1AC
:1053C0000133554A937010200021554A00F020FB0C
:1053D000AAE10133504A93702920B221514A00F0CA
:1053E000DDFAA1E101334C4A93702920A021032268
:1053F00000F048FB98E10133474A93702920A1212E
:10540000F62200F03FFB8FE10133434A93702920DD
:10541000AF21112200F036FB86E101333E4A937042
:105420002920B421404A082300F07EFA7CE10133B0
:10543000394A9370102007213C4A00F0E9FA73E1E1
:105440000133354A937010200821394A00F0E0FA00
:105450006AE10133304A937010200921354A00F087
:10546000D7FA61E101332C4A937010200A21324AA5
:1054700000F0CEFA58E10133274A937010200B2137
:105480002E4A00F0C5FA4FE12D4B1B78002B17D0A8
:10549000264B1888274B1B88C018274B1B88C01821
:1054A000264B1B88C018224B1B88C018FCF7DEF85F
:1054B000244B186000225A608022D2059A60EBE0EB
:1054C0001A4B1A881A4B1B889A4203D9D21A1749C9
:1054D0000A8002E00021154A1180164A1288934280
:1054E00003D2D21A13490A8002E00021114A118026
:1054F000114A1288934203D2D21A0F490A8002E05D
:1055000000210D4A11800D4A128893421CD2D31AF1
:105510000A490B801BE0C046B4080020C8090100FE
:10552000A8080020AE080020340900202E09002021
:10553000AA080020A4080020A60800202C090020AA
:1055400030090020880800200022894B1A80894BEE
:105550001888FCF7E7F88046874B1888FCF7E2F8D4
:10556000FDF726FF041C0D1C744B734AFDF7B6F8BB
:10557000061C0F1C4046FDF71BFF321C3B1CFDF7B1
:105580003DFB009001917A4B1888FCF7CBF8FDF7B2
:105590000FFF061C0F1C6A4A6A4BFDF79FF8021C9E
:1055A0000B1C00980199FDF729FBFDF753FF80467E
:1055B000724B1888FCF7B6F88146201C291C624AF9
:1055C000624BFDF78BF8041C0D1C4846FDF7F0FEFE
:1055D000221C2B1CFDF712FB041C0D1C301C391C5B
:1055E0005B4A5C4BFDF77AF8021C0B1C201C291C43
:1055F000FDF704FBFDF72EFF051C40460021FBF7DD
:10560000EBF8002801D000239846281C0021FBF766
:10561000E3F8002800D00025281C5949FBF766FD57
:10562000041C40465749FBF761FD011C201CFBF799
:105630000DFAFC218905FBF759FD061C0021FBF73B
:10564000CBF8002800D000264046FDF7B1FE424AC4
:10565000424BFCF7D9FBFDF7FDFE4B4C2060281CAC
:10566000FDF7A6FE3E4A3F4BFCF7CEFBFDF7F2FEF0
:105670006060A66020684549FBF7AEF8002801D0BD
:1056800000222260404B58684049FBF7A5F80028EB
:1056900002D000223C4B5A603D4B5E889D887019B9
:1056A000DF88C019FDF712FE2F4A304BFDF716F8C0
:1056B000FDF7D0FE041C301CFCF734F8211CFBF76E
:1056C0003FFE8046281CFCF72DF8211CFBF738FE16
:1056D000061C381CFCF726F8211CFBF731FE051CC4
:1056E00040460021FBF778F8002801D000239846B7
:1056F000301C0021FBF770F8002800D00026281C81
:105700000021FBF769F8002800D000251E4C434615
:10571000E360266165611E4B1888FCF703F8A06101
:105720001C4B9A7801329A7003B00CBC9046994693
:10573000F0BDC046C046C046C3F5285C8FC20140DC
:1057400048E17A14AE47F53F9A999999999907409B
:10575000D7A3703D0AD7FB3FC3F5285C8FC2ED3F4E
:10576000CDCCCCCCCCCC00409A9999999999C93F91
:105770002C0900202E090020A6080020A4080020E3
:10578000C4CDA93B067F3F3B88080020000048426B
:1057900034090020B408002070B584B001A803F0DB
:1057A00023F8154B0293002002F012FA021C134E4C
:1057B000301C01A903F0A0F8114AC2239B00D05865
:1057C00010490140802000020143D1500E4C251D9C
:1057D000281C0021282209F03CFC301C291C0B4A03
:1057E000002303F095FA002363702370A370FFF782
:1057F000C7FD04B070BDC046A08601000070064021
:1058000000E100E0FF00FFFFB40800209D5B000006
:10581000F0B54F464646C0B483B0364802F0CAFFE2
:10582000354B9868354908408022520010439860F3
:10583000586801400A435A6001A83149022209F020
:10584000FFFB304C201C022101AA02F045FF201C66
:10585000012101AA02F040FF2B4801F04BFF042375
:10586000636002236360294801F044FF284801F087
:1058700041FF0025254B9946264B98460CE004270E
:10588000676002266660484601F034FF6760A660E4
:10589000404601F02FFF0135092DF0DD1E4801F0D3
:1058A00029FF184C0426A6600225A5601B4801F0BC
:1058B00021FFA66065601A4801F01CFF6660656004
:1058C000124801F017FF174801F014FF0A4B9868BF
:1058D0000A490840802292001043986058680140AD
:1058E0000A435A60FFF758FF03B00CBC9046994634
:1058F000F0BDC0460070064000B00440FFF8FFFF56
:10590000C004010080F00F40000A0100200A0100DD
:10591000300A0100500A0100600A0100840A0100F7
:10592000940A0100A40A010038B5194C30256055CD
:10593000012031256055616338216054E26323649E
:105940000023E362201C4430251C2C35291C18221E
:1059500009F076FB211D0F482A1C03F015FA041EDE
:1059600005D10B4B01221A7000225A700DE0084D30
:105970006A780132D2B26A700748211C01F0BAFE7F
:105980006B78052B01D9FFF743FF201C38BDC046BB
:10599000B408002000700640C40A010038B5194C54
:1059A0003023E054012331202354616338216354B0
:1059B000E26323640023E362201C4430251C2C3561
:1059C000291C182209F03CFB211D0F482A1C03F05A
:1059D000DBF9041E05D10B4B01221A7000225A700C
:1059E0000DE0084D6A780132D2B26A700748211C76
:1059F00001F080FE6B78052B01D9FFF709FF201C11
:105A000038BDC046B408002000700640C40A01003A
:105A100038B5194C3023E0540123312023546163FD
:105A200038216354E263022323640023E362201CD1
:105A30004430251C2C35291C182209F001FB211D9E
:105A40000E482A1C03F0A0F9041E05D10A4B0122BE
:105A50001A7000225A700DE0074D6A780132D2B2F6
:105A60006A700748211C01F045FE6B78052B01D9AF
:105A7000FFF7CEFE201C38BDB408002000700640A1
:105A8000C40A010038B520231C4CE35C002B33D141
:105A90001B4D2A803023E05400233122A35461633C
:105AA00001213822A154E56302222264E362201C12
:105AB0004430251C2C35291C182209F0C1FA211D5F
:105AC00010482A1C03F060F9041E05D10B4B01227B
:105AD0001A7000225A700DE0084D6A780132D2B275
:105AE0006A700948211C01F005FE6B78052B01D96D
:105AF000FFF78EFE201C00E0044838BDB4080020EB
:105B0000AC08002000700640E80A01004C040000C8
:105B100038B520231C4CE35C002B33D11B4D2A806D
:105B20003023E05400233122A35461630121382241
:105B3000A154E56302222264E362201C4430251C48
:105B40002C35291C182209F07BFA211D10482A1C2B
:105B500003F01AF9041E05D10B4B01221A70002222
:105B60005A700DE0084D6A780132D2B26A70094865
:105B7000211C01F0BFFD6B78052B01D9FFF748FE12
:105B8000201C00E0044838BDB4080020B008002004
:105B900000700640E80A01004C040000F8B5002A35
:105BA00006D01548111C01F0A5FDFFF731FE21E0DC
:105BB0004923124AD35C002B17D1131C4822995C4D
:105BC000DA6C0F4801F096FD00240C4D2F1C0D4E91
:105BD00005E07B6D195D301C01F08CFD0134AB6D6F
:105BE0009C42F6D3084801F085FD0022034B1A7051
:105BF000FFF7C6FBF8BDC0460C0B0100B40800203F
:105C0000300B0100500B0100F00E010010B5041C18
:105C1000104B9B780E2B0CD100290AD00E480F494F
:105C20001C2209F00DFA07220A4B9A70FFF7A8FB15
:105C30000AE0002908D0074A53780133DBB25370D9
:105C4000052B01D9FFF7E4FD201C03491C2209F0B4
:105C5000F7F910BDB40800201009002088080020C2
:105C6000014B18707047C04630090020014B18786E
:105C7000C0B2704730090020EFF3108372B60360A2
:105C800072B6704780F310887047C046012803D869
:105C9000024B0B60002000E006207047C00B0100A3
:105CA00070B50F250D40CC0900281ED04668002E87
:105CB00019D06D0025436C006419A4000419247DDB
:105CC000002C14D16C006519AD00451901242C7508
:105CD0004CB2002C03DAB4680068A04708E0F4680E
:105CE0000068A04704E0062002E0032000E0022054
:105CF00070BDC04608B5002808D04368002B03D00B
:105D00005B690068984702E0062000E0032008BDB8
:105D100038B5051C01226F23C2540E210022FFF763
:105D2000E9FF02226E23EA5400226C23EA54002386
:105D3000002107E05A00D2189200AA18D160116120
:105D400011750133072BF5D9281C01210022AB68FE
:105D5000984700226F23EA54002038BD10B584B064
:105D60000B7A0F221A40DC09102B02D1FFF7D0FF6B
:105D70002AE0032A25D8530023435A00D218920060
:105D80008218D268002A1ED001AC0A6801924A68C3
:105D900002924A7A2272002A04D00022027520213F
:105DA000425405E05A00D218920082180021117561
:105DB0005900CA1892008218D468126901A9A04734
:105DC00002E0012000E0012004B010BD70B582B0F7
:105DD000051C0E1C01A8FFF74FFF002314E0DA009A
