:1000000000600020E904000075BA000045BA000055
:1000100000000000000000000000000000000000E0
:10002000000000000000000000000000A5BA000071
:100030000000000000000000D5BA000019A900006F
:100040006105000065050000690500006D05000000
:100050004905000049050000490500004905000068
:100060007105000075050000790500007D050000A0
:1000700081050000D1BB0000890500004905000092
:1000800049050000490500004905000069CA000053
:100090004905000049050000D9A800008D050000B1
:1000A000FDB50000490500004905000049050000B4
:1000B0004905000049050000490500009DA8000011
:1003C0006B636667FFFFFFFFFFFFFFFFFFFFFFFF9E
:1003D000FFFFFFFFF70812006C0C0100FFFFFF009A
:1003E000FFFFFFFFFFFFFFFF00FFFFFFFFFFFFFF1C
:1003F000FFFFFFFF00000000000000000000000001
:10040000FFFFFFFFFFFFFFFFFFFFFFFFFE31FFFFCB
:1004100010B5064C2378002B07D1054B002B02D0DA
:10042000044800E000BF0123237010BD00E2FF1F5D
:1004300000000000681E010008B5084B002B03D027
:100440000748084900E000BF07480368002B03D0B5
:10045000064B002B00D0984708BDC04600000000A6
:10046000681E010004E2FF1FE0E1FF1F0000000022
:10047000164B002B00D1144B9D46402292029A1A33
:10048000924600218B460F461348144A121A0DF06B
:100490009CFF0F4B002B00D098470E4B002B00D039
:1004A00098470020002104000D000D48002802D0CC
:1004B0000C4800E000BF0DF059FF200029000BF0B0
:1004C00011FA0DF03DFFC04600000800006000205A
:1004D000000000000000000000E2FF1F483600207E
:1004E000000000000000000072B60E480E490160D6
:1004F0000A6882F308880D4880470D490D4A0E4B63
:100500009B1A03DD043BC858D050FBDC0B490C4A56
:10051000521A03DD00208850043AFCDA62B609481A
:100520008047000008ED00E000000000219200007C
:10053000901E010000E0FF1FE4E1FF1F00E2FF1F2B
:100540004836002071040000114800471148004758
:10055000114800471148004711480047114800471B
:10056000114800471148004711480047114800470B
:1005700011480047114800471148004711480047FB
:1005800011480047114800471148004711480047EB
:1005900005BB000075BA000045BA0000A5BA00000E
:1005A000D5BA000019A9000041750000517500007E
:1005B0006175000071750000098200002182000051
:1005C000158A00004D8A0000258600004186000043
:1005D000F17A0000ED860000002934D001230022CA
:1005E00010B488422CD301242407A14204D28142B2
:1005F00002D209011B01F8E7E400A14204D28142C2
:1006000002D249005B00F8E7884201D3401A1A433E
:100610004C08A04202D3001B5C0822438C08A04275
:1006200002D3001B9C082243CC08A04202D3001B2B
:10063000DC082243002803D01B0901D00909E3E7A5
:10064000101C10BC7047002801D00020C04307B424
:10065000024802A14018029003BDC046D900000024
:100660000029F0D003B5FFF7B9FF0EBC4243891A49
:100670001847C046002941D010B4041C4C40A44681
:1006800001230022002900D54942002800D540421C
:1006900088422CD301242407A14204D2814202D2F1
:1006A00009011B01F8E7E400A14204D2814202D211
:1006B00049005B00F8E7884201D3401A1A434C080E
:1006C000A04202D3001B5C0822438C08A04202D344
:1006D000001B9C082243CC08A04202D3001BDC086C
:1006E0002243002803D01B0901D00909E3E7101CAD
:1006F0006446002C00D5404210BC7047002806D04C
:1007000003DB0020C043400801E08020000607B45E
:10071000024802A14018029003BDC0461900000023
:100720000029EBD003B5FFF7A7FF0EBC4243891A9F
:100730001847C0467047C0468446101C62468C4627
:10074000191C634600E0C0461FB501F0F9FE002801
:1007500001D40021C8421FBD10B501F029FE40425E
:10076000013010BD10B501F0EBFE002801DB0020C8
:1007700010BD012010BDC04610B501F0E1FE0028FB
:1007800001DD002010BD012010BDC04610B501F0F4
:1007900059FE002801DC002010BD012010BDC0461C
:1007A00010B501F04FFE002801DA002010BD012035
:1007B00010BDC0468446081C6146FFE71FB500F027
:1007C00049FC002801D40021C8421FBD10B500F02B
:1007D000CFFB4042013010BD10B500F03BFC0028BB
:1007E00001DB002010BD012010BDC04610B500F097
:1007F00031FC002801DD002010BD012010BDC046E5
:1008000010B500F0DFFB002801DC002010BD012046
:1008100010BDC04610B500F0D5FB002801DA00205D
:1008200010BD012010BDC046002B15D1002A13D1E8
:10083000002900D1002807D003DB0020C043410875
:1008400002E080210906002007B4024801A14018F7
:10085000029003BDE1FEFFFF03B4684601B50298B4
:1008600000F0BEF8019B9E4602B00CBC7047C0462B
:10087000002B11D1002A0FD1002900D1002802D06D
:100880000021C943081C07B4024802A14018029085
:1008900003BDC046A1FEFFFF03B4684601B5029840
:1008A00000F0BAF8019B9E4602B00CBC7047C046EF
:1008B0009C460304F0B51B0C17043F0C150C1E1CC2
:1008C000041C000C7E436B4347434543FB18300C2C
:1008D0001818874202D980235B02ED18030CED182B
:1008E00063465C434A433604360CA1180004801961
:1008F0004919F0BD9E2110B5C905041CFFF78AFFF8
:10090000002803D1201C00F091FE10BD9E21C905D6
:10091000201C00F015FD00F089FE80231B06C01886
:10092000F3E7C0460000000038B50E4B0C4A051C2A
:100930000C1CFFF717FF002804D1281C211C00F015
:1009400013F838BD80231B06E118281C00F00CF8B2
:10095000021C0B1C002150429941F2E7C046C046E0
:10096000000000000000000070B50E4B0C4A0D1C8A
:10097000041C01F063FE02F0C7FD061C02F094FCAB
:10098000094A0A4B01F05AFE021C0B1C201C291CB0
:1009900002F0E4F802F0B8FD311C70BDC046C0465C
:1009A000000000000000F03D000000000000F041E9
:1009B00070B5061C081C02F039FC084B064A01F011
:1009C0003DFE0D1C041C301C02F06EFC2B1C221C76
:1009D00000F0A8FE70BDC046000000000000F0411D
:1009E000F0B583B0161C1F1C0090019102F0ACFD05
:1009F000041C0D1C221C2B1C301C391CFFF758FF3B
:100A0000009A019B121A8B410899201C0A604B60C6
:100A1000291C03B0F0BDC046F0B583B0141C1D1CEA
:100A20000090019102F06CFF221C2B1C061C0F1C75
:100A3000FFF73EFF009A019B121A8B410899301C68
:100A40000A604B60391C03B0F0BDC046F8B54302E4
:100A50004400C50F4E024800240E2A1C9B09000EBC
:100A6000C90FB6098D425BD0221A002A00DC89E04A
:100A700000281DD1002E00D075E0580704D00F22A9
:100A80001A40042A00D004338021C90419402A1CCA
:100A900000293AD00134FF2C00D17FE09B015B0A92
:100AA0005B02E4B2E405580AD20720431043F8BDC4
:100AB000FF2CE2D08021C9040E431B2A00DD2DE16A
:100AC000311C2020D140821A9640721E96410E435E
:100AD0009B1B5801D1D59B019F09381C02F0F6FCE5
:100AE000421F974094425BDC141B1F231B1B3A1CC4
:100AF0009F40611C3B1CCA405F1EBB411343002446
:100B0000BBE7131EB9D100230022DB08FF2C04D160
:100B1000002B43D08020C00303435B025B0ABFE786
:100B2000211A002940DD002823D0FF2CA5D08020E9
:100B3000C00406431B2900DDEEE0301C2027C8401E
:100B4000791A8E40711E8E4106439B19590100D4BB
:100B500093E70134FF2C55D0714901221A400B4014
:100B60005B08134389E7013A002AB1D0FF2CA4D1D6
:100B700083E7002E00D180E701390029E5D0FF2C62
:100B8000D8D17AE7002A1BD1621CD2B2012A4BDDF0
:100B90009F1B7A0123D5F71A0D1C9EE700237FE7E0
:100BA0005F4BA41A3B4068E7002946D1611CC8B2DC
:100BB000012829DDFF2924D0F3185B080C1C5CE711
:100BC000002C13D0FF2818D08024E4045242234381
:100BD0001B2A4DDD0123F31A041C0D1C79E7002F9D
:100BE00000D07AE70023002200248EE7002B3BD0C0
:100BF000D243002AEFD0FF28EAD1331CFF240D1C7A
:100C00003BE7FF24002380E7002C5CD1002B00D1C0
:100C100080E0002E00D130E79B19580100D42CE76A
:100C20003F4A0124134028E7002C15D1002B40D166
:100C3000002E63D0331C0D1C1FE7002C21D1002B8C
:100C400054D0C943002904D0FF284CD01B2958DDBB
:100C500001239B19041C79E7002B19D1002E48D0E1
:100C6000331C0D1CFF2408E7331C041C0D1C04E777
:100C70001C1C2025D440AA1A93405A1E934123439A
:100C8000A9E7FF282FD08024E40449422343DDE76D
:100C9000FF24002E00D1F0E68022DB08D2031342AD
:100CA00004D0F608164201D1331C0D1CDB00FF24D2
:100CB000E3E6002E00D1E0E69A1B500100D420E7C5
:100CC000F31A0D1CD9E6002B0DD0FF24002E00D105
:100CD000D3E68022DB08D2031342E7D0F60816429F
:100CE000E4D1331CE2E7331CFF24C6E6331C041CAA
:100CF000C3E6802300229B04FF2406E7231C002276
:100D000003E71C1C2027CC40791A8B40591E8B41CD
:100D100023439EE7331CB0E6012616E70126D7E6FB
:100D2000FFFFFFFBF0B55F4656464D464446F0B424
:100D300046024500C00F85B00F1C760A2D0E804676
:100D400041D0FF2D26D08024240400212643F60024
:100D50007F3D89468B46F90F7C027800640A000EBD
:100D600000918A463CD0FF2834D080231B041C43CA
:100D70000023E4007F380193009F4346019A7B40A3
:100D800049469C4611430F2900D971E0764F8900EE
:100D90007F58BF46002E3ED10822022391469B4633
:100DA000D9E75A46341CC24601920199022937D02C
:100DB000032900D1CFE0012900D0ABE053460B401E
:100DC0000022002632E0002E19D10421012289469A
:100DD0009346C0E7221C531E9A4102320192CBE790
:100DE00001270197002CC7D0201C02F06FFB431F86
:100DF0009C4076235B420021181A0191BCE7301C0D
:100E000002F064FB7625431F9E406D4200232D1A9D
:100E100099469B469FE70C23032199468B469AE708
:100E2000D446012367463B40FF2200267602D205C6
:100E3000700ADB071043184305B03CBC9046994646
:100E4000A246AB46F0BD80260023F603FF22EDE765
:100E500000220026EAE78020C00306423BD004427D
:100E600039D1061C26437602760A009BFF22DDE775
:100E7000281A039076016401A64239D3361B1A2240
:100E800001230120311C5B007600002901DBB44204
:100E900001D8361B0343013A002AF3DC741EA64135
:100EA000341C1C43039A7F32002A27DD630704D0D9
:100EB0000F232340042B00D00434270103D52B4BF0
:100EC000039A1C408032FE2A0BDD012361460B4051
:100ED000FF220026AAE706437602760A4346FF224F
:100EE000A4E7A40101236746660AD2B23B409DE70E
:100EF000039F1B22013F03970023C2E77E23039F2A
:100F00005B42DB1B1B2B07DD012361460B400022EC
:100F100000268BE7D446C5E7221CDA40039B9E33AC
:100F20009C40231C5C1EA34113435A0704D00F228C
:100F30001A40042A00D004335F0105D5012361461D
:100F40000B400122002671E79E01624601231340F7
:100F5000760A00226AE78026F60326437602760A9E
:100F60005346FF2262E7C04640F80000FFFFFFF74C
:100F70004A02430270B55C0A550A43004A001B0E40
:100F8000C60F120EC90FFF2B05D0FF2A08D0012073
:100F900093420BD070BD0120002CFBD1FF2AF6D16B
:100FA0000120002DF6D101209342F3D1AC42F1D1C2
:100FB0008E4205D0002BEDD1201C441EA041E9E754
:100FC0000020E7E74A024302F0B55C0A550A4300F5
:100FD0004A001B0EC60F120EC90FFF2B31D0FF2A7D
:100FE00034D0002B16D1604260418446002A14D0D0
:100FF000002820D18E4217D1934215DC04DBAC428D
:1010000012D80020AC4212D27042704140420123FB
:1010100018430CE0002AEDD194466F426F416046C0
:10102000002805D1002FE5D0704201231843F0BD00
:101030000020002FFBD14842484140420123184381
:10104000F5E7002CCBD002204042F0E7002DC8D0BD
:10105000F9E7C0464A024302F0B55C0A550A43006C
:101060004A001B0EC60F120EC90FFF2B27D0FF2AF6
:1010700029D0002B10D0002A15D194466F426F4121
:101080006046002815D00020002F04D14842484176
:10109000404201231843F0BD604260418446002A6B
:1010A000ECD00028F2D18E4211D0704201231843B7
:1010B000F1E7002FF7D0704201231843EBE702203D
:1010C000002CE8D1D3E70220002DE4D1D1E79342F0
:1010D000EBDC04DBAC42E8D80020AC42DBD270424F
:1010E0007041404201231843D5E7C046F0B55F4642
:1010F00056464D464446F0B44402460083B00F1CA9
:10110000640A360EC50F002E41D0FF2E22D0802358
:101110001B0400201C43E4007F3E82468046391CAD
:101120004B007F02C90F7F0A1B0E8B463BD0FF2B63
:1011300034D0802212041743FF007F3B00215A461F
:101140006A40019252460A430F2A63D87A489200B5
:1011500082589746002C3FD1082202239246984697
:10116000DDE70195404602282AD1019A0125154064
:10117000FF2300246402DB05600AED0718432843BF
:1011800003B03CBC90469946A246AB46F0BD002C4D
:1011900027D10420012282469046C0E7391C4A1E0E
:1011A00091410231CBE70121002FC8D0381C02F059
:1011B0008DF9431F9F4076235B421B1A0021BEE737
:1011C000032800D1AEE001284FD1019842461040DB
:1011D000C5B200230024CDE70C2303209A468046A5
:1011E0009DE7201C02F072F97626431F9C40764250
:1011F0000023361A9A46984691E780240025E40396
:10120000FF23B7E75B463C1C01938846AAE73C1CDA
:101210008846A7E7250C24043A0C240C3F04F61852
:101220003F0C211C231C794353436F435543FB1848
:101230000A0C9B18B1469F4202D980225202AD1877
:1012400009041A04090C521894011B0C611E8C41EC
:10125000920EED181443AD012C43230105D5012254
:1012600063080120144081441C434B467F33002B0C
:101270002DDD600704D00F222240042A00D0043460
:10128000220103D52D4B1C404B468033FE2B17DD2E
:10129000019B01251D400024FF236BE78020C00334
:1012A000044208D0074206D1041C3C436402640A8D
:1012B0005D46FF235EE704436402640AFF2359E7A7
:1012C0000198A4010125640ADBB2054052E77E23A0
:1012D0005B424A469B1A1B2B05DD019B01251D40E5
:1012E0000024002346E7221CDA404B469E339C40F4
:1012F000231C5C1EA3411343580704D00F221A403D
:10130000042A00D004335A0105D5019B01251D4054
:10131000002401232EE701989C010125640A054061
:10132000002327E78027FF03019B3C43640201253C
:101330001D40640AFF231DE780F80000FFFFFFF750
:10134000F8B5C20F430244004D024800240E161C9B
:101350009B09000EC90FAD09FF2800D183E00127CA
:1013600079408A425CD0221A002A00DC8EE00028F4
:101370001ED1002D00D07AE0580704D00F221A4069
:10138000042A00D004338021C904012219403240CC
:1013900000293AD00134FF2C00D183E09B015B0A85
:1013A0005B02E4B2E405580AD20720431043F8BDBB
:1013B000FF2CE1D08021C9040D431B2A00DD31E15F
:1013C000291C2020D140821A95406A1E95410D4368
:1013D0005B1B5801D0D59B019F09381C02F076F8A1
:1013E000421F974094425FDC141B1F231B1B3A1CB7
:1013F0009F40611C3B1CCA405F1EBB41134300243D
:10140000BAE7131EB8D100230022DB08FF2C04D159
:10141000002B47D08020C00303435B025B0ABFE779
:10142000211A002944DD002827D0FF2CA4D08020D9
:10143000C00405431B2900DDF2E0281C2027C8401A
:10144000791A8D40691E8D4105435B19590100D4FD
:1014500092E70134FF2C59D0734901221A400B4006
:101460005B08134388E7002D00D07AE777E7013A5D
:10147000002AADD0FF2CA0D17EE7002D00D17BE764
:1014800001390029E1D0FF2CD4D175E7002A1BD106
:10149000621CD2B2012A4BDD5F1B7A0123D5EF1A01
:1014A0000E1C9AE700237BE75F4BA41A3B4063E7DF
:1014B000002946D1611CC8B2012829DDFF2924D0AA
:1014C000EB185B080C1C57E7002C13D0FF2818D032
:1014D0008024E404524223431B2A4DDD0123EB1AEE
:1014E000041C0E1C75E7002F00D076E700230022B5
:1014F00000248AE7002B3BD0D243002AEFD0FF28FC
:10150000EAD12B1CFF240E1C36E7FF2400237CE7C6
:10151000002C5CD1002B00D180E0002D00D12BE706
:101520005B19580100D427E73F4A0124134023E701
:10153000002C15D1002B40D1002D63D02B1C0E1C8C
:101540001AE7002C21D1002B54D0C943002904D024
:10155000FF284CD01B2958DD01235B19041C75E7BB
:10156000002B19D1002D48D02B1C0E1CFF2403E7A3
:101570002B1C041C0E1CFFE61C1C2026D440B21A97
:1015800093405A1E93412343A9E7FF282FD080247C
:10159000E40449422343DDE7FF24002D00D1EBE6BC
:1015A0008022DB08D203134204D0ED08154201D19A
:1015B0002B1C0E1CDB00FF24DEE6002D00D1DBE639
:1015C0005A1B500100D41CE7EB1A0E1CD4E6002B6A
:1015D0000DD0FF24002D00D1CEE68022DB08D203FF
:1015E0001342E7D0ED081542E4D12B1CE2E72B1C97
:1015F000FF24C1E62B1C041CBEE6802300229B04B2
:10160000FF2402E7231C0022FFE61C1C2027CC40FD
:10161000791A8B40591E8B4123439EE72B1CABE666
:10162000012512E70125D3E6FFFFFFFB4302590A1C
:101630004300C20F1B0E00207E2B0DDD9D2B0CDC0A
:10164000802000040143952B0ADC9620C31AD94060
:101650004842002A00D1081C7047034BD018FBE712
:10166000963B9940F4E7C046FFFFFF7F70B5041E2C
:101670003CD0C60F00D04442201C01F027FF9E231F
:10168000251C1B1A962B0CDC083884406402640A63
:10169000DBB2321C6402DB05600AD2071843104338
:1016A00070BD992B0ADD0522121A211CD1400A1C9B
:1016B000011C1B318D40691E8D411543052801DD3C
:1016C000421F9540164C2C406A0704D00F2215404B
:1016D000042D00D0043461010CD59F23181AFF2873
:1016E0001AD0A401640AC3B2321CD3E7002200233B
:1016F0000024CFE7E408FF2B04D06402640ADBB2C5
:10170000321CC7E7002C04D08020C00304436402CD
:10171000640A321CFF23BDE7321CFF230024B9E713
:10172000FFFFFFFBF8B55F46564644464D46F0B412
:101730000C034D00CE0F610A440F2143C40018036F
:1017400080465800400D8246D80F84464046400AE5
:10175000530F0343D0006D0D371C83465246664538
:1017600000D1A4E0AF1A002F00DC09E1002A3BD130
:10177000184300D0EAE0630700D187E00F2323403D
:10178000042B00D182E0221DA242A44164428023A6
:1017900009191B040B40371C141C002B00D17CE0E2
:1017A000CE4B01359D4200D105E1CD4BE4081940F7
:1017B0004807490204430B0B002000211B031A0BAE
:1017C0000B0D6D051B0513436A08C64DFF071D4031
:1017D00015436D006D08291C3943201C3CBC904604
:1017E0009946A246AB46F8BDBC488542C3D080208E
:1017F00000040343382F00DDF0E01F2F00DD24E15B
:101800002020C01B1A1C814682405846F8400243E3
:10181000944658464A469040421E9041FB406246DC
:1018200002431F1CA21A9442A4416442C91B091B13
:10183000141C0B029FD549024F0A002F00D1C8E0AB
:10184000381C01F043FE021C083A1F2A00DDB5E0F7
:101850002821091A201C9740C8400743944095420C
:1018600000DDB2E0551B691C1F2900DDDCE01F22F2
:10187000551B3B1C221CAB40CA40AC40651EAC4112
:101880001343CF401C43391C002574E780231B04FD
:101890000B40371C002B00D082E7904B4807E40830
:1018A0000443C9089D4248D009030B0B84E7AA1AD8
:1018B0009446002A00DC98E05046002852D0874821
:1018C000854200D157E78020000403436246382A4E
:1018D00000DDFCE01F2A00DD4AE120226046101AEC
:1018E0001A1C82408246914658466246D0404A467B
:1018F00002439046584652469040421E904142460E
:1019000002436046C3401219A242A44164425918DE
:101910000919141C080200D42DE7704B01359D42B3
:1019200000D122E16E4B60081940012323401C1CAA
:101930000443CB071C4349081DE7231C0B433AD043
:1019400080231B030B431B031B0B35E7013F002FB9
:1019500065D15846221A9442A4416442C91A091B0F
:10196000141C66E75846184300D104E7012252428E
:1019700094446046002800D0C5E058460219C3E7E9
:10198000002F73D1681C4005400D012800DCDEE00B
:101990005A46A21A9442BF41C81A7F42C71B380256
:1019A00000D489E05A46141BA3459241591A524269
:1019B0008F1A664641E700230024FDE6271C2838DD
:1019C00087400024954200DC4CE74549AD1A394078
:1019D000D1E6201C01F07AFD203034E75A461A4344
:1019E000531E9A41D2B200271CE7002A00D0DCE047
:1019F000681C4205520D012A00DC8DE0374DA842DB
:101A000000D1F3E05D462A19A242A441644259186C
:101A10000919CC07520814434908051CABE62F48A6
:101A2000854200D0E6E6A6E62B1C1F3B3A1CDA40B6
:101A3000131C20296CD03F22551BAF403C43601E35
:101A400084411C430021002595E6381C20381A1CCF
:101A5000C240101C202F5DD04022D71BBB405A46ED
:101A60001A43531E9A4102430027DBE6002D3BD068
:101A70001A4DAA4500D193E080252D047F422943C9
:101A8000382F00DDACE01F2F00DD29E12025ED1B04
:101A9000081C261CA840FE40AC400643651EAC4115
:101AA0003443F9405D462C1BA34592415B1A5242D8
:101AB000991A55466646BCE6131C3B43141C002B82
:101AC00000D0BAE60027002100250024E5E65A46AA
:101AD0001A43531E9A41D2B2002314E7FF070000B5
:101AE000FFFF7FFFFFFF0F800D1C254358D0FF43F2
:101AF000002F51D1041BA3459241591A5242891A11
:101B00005546664695E69648854200D0DEE632E6C2
:101B1000002793E70023A2E7081C2043002D00D0F4
:101B2000C4E0002800D1F7E05846184300D122E66F
:101B300058460219A242A441644259180919141CBA
:101B40000A0200D417E6874B0125194013E6081C4A
:101B50002043002D39D1002871D15946194303D0B3
:101B6000191C5C46664606E600270021002494E620
:101B7000604620381A1CC24060469146202800D199
:101B8000ACE04022121A93405A461A43531E9A411F
:101B90004B461A430023B6E6714DAA4500D06FE7C5
:101BA000191C5C4655466646E5E5002D22D10D1C04
:101BB000254377D0D543002D71D15C445C459241DB
:101BC0005918524289185546A4E600284DD1594665
:101BD000194300D194E0191C5C466646604DCAE585
:101BE0000C43611E8C41E4B200215BE7051C00211F
:101BF000002452E65A4DAA4554D055428022100482
:101C00000143382D00DD81E01F2D00DD92E0202210
:101C1000501B0A1C84468240201CE8400243904628
:101C200062469440601E844142461443E9405C444D
:101C30005C459241CB185242991855466AE658467F
:101C4000184300D197E55846271ABC429241C81A5A
:101C50005242801A020266D55846041BA34592419F
:101C6000591A5242891A664685E55846184333D0B8
:101C70004807E40804438020C9080003014208D053
:101C8000DD08054205D15946CA085C071443291CE2
:101C90006646630FC9001943E400314D6BE5304AD5
:101CA0009245AED1191C5C46554664E5002836D0F5
:101CB0005846184310D080254807E408C9082D036A
:101CC00004432942E5D0D8082842E2D15D46EA081B
:101CD0005C071443011CDCE7214D4CE5002353E76E
:101CE0003D1C203D0A1CEA40151C202F34D0402604
:101CF000F71BB9400C43611E8C412C430021D1E6F7
:101D000080210027C903164D0024C6E50C43611E3F
:101D10008C41E4B200218AE7191C5C462BE5191CB2
:101D20005C460F4D27E5031C3B4300D11CE7011C1B
:101D30003C1C20E52020404240190A1CC24090462D
:101D4000202D0BD04020451BA9400C43611E8C4127
:101D500045462C4300216AE70021CBE70021F4E748
:101D6000FF070000FFFF7FFFF0B5564644465F4681
:101D70004D46F0B41F1C0B031B0B98464B0087B05D
:101D8000041C81465B0DC80F161C9A460090002B60
:101D900051D06A4B9A4531D08022414652030A43C2
:101DA000630FD2001A43664B90460025E20091462D
:101DB0009A44002402953B031B0B9B46FD0F7B00BE
:101DC000311C5B0D019560D05C4A934254D0802158
:101DD000584649030143720FC9001143584A8B46C4
:101DE0009B18F1000020009A04436A4003920F2CD4
:101DF00000D9ADE0534EA4003459A74640460443F1
:101E00006ED1002102250824884689460295D2E732
:101E1000009C0298C34649460194022864D00328D6
:101E200000D1ABE2012800D038E2019A0024024040
:101E30000025A14660E0434623434AD0404600289F
:101E400000D1C0E101F042FB031E272B00DDB3E10E
:101E500028210D1A211C083B4246E9409A400D1CDE
:101E60001543221C9A40A8469146374B00251B1A61
:101E70009A46002402959EE75A4616430320002EF8
:101E8000B1D1B34600210220ADE75A4632431BD000
:101E90005B46002B00D18AE1584601F017FB27284A
:101EA00000DD7DE12822171A011C321C08395B462F
:101EB000FA408B40171C1F43331C8B40BB46191C38
:101EC000214B1B1A00208EE70027BB460021012072
:101ED00089E70020012504248046814602956AE7AF
:101EE00003250C24029566E7019C0394039D0122BF
:101EF0002A400024114DA146002000212403260B76
:101F00000C0D2405114B34432D0523402B435B005E
:101F10005B08D207191C4846114307B03CBC9046E9
:101F20009946A246AB46F0BD002280242403914688
:101F3000024DE1E700240025A146DDE7FF07000090
:101F400001FCFFFFC0F800000DFCFFFFFFFF0F804A
:101F50005546ED1A0495D84500D953E100D14EE11C
:101F6000049C0025013C4E4604944746A946584629
:101F700003020C0E1C430902250C23041B0C0091C8
:101F8000381C291C0193FEF727FB01998346414326
:101F9000381C8A46291CFEF763FB330C09041943DD
:101FA0008A450CD95B460919013B8C4200D947E1AF
:101FB0008A4500D844E1022252429344091953460B
:101FC000CB1A181C291C9846FEF706FB071C019823
:101FD000291C784382464046FEF742FB36040B0438
:101FE000360C33439A4509D91B197A1E9C4200D9F5
:101FF00024E19A4500D821E1023F1B195E463204D4
:102000001743380CBB46009E009F51463F0C3204DC
:102010005B1A5946BA46120C0F043F0C90465146C3
:102020007A434F434146414356467043CF19160CFD
:10203000BE19B14202D980277F02C019310C1204A7
:102040003604120C4018B618834200D2C4E000D106
:10205000BEE0191A4846861BB145BF417F42CF1BDF
:10206000A74200D113E1291C381CFEF7B5FA0199EB
:1020700002904143381C8946291CFEF7F1FA330CC3
:102080000904194389450CD9029B0919013B8C426B
:1020900000D9FFE0894500D8FCE0029F0919023F02
:1020A00002974F46CF1B381C291C0597FEF794FA60
:1020B000071C0198291C784381460598FEF7D0FA41
:1020C00036040904360C0E43B14509D936197B1E76
:1020D000B44200D9E0E0B14500D8DDE0023F361956
:1020E000029D4946761A290439430B0457460A0CC7
:1020F0001B0C40464546584355437B437A43EB18F7
:10210000070CDB199D4202D980256D0252191D0C66
:1021100000041B04000C52191B18964235D300D141
:10212000FCE001231943049E994FF519002D00DCB2
:10213000A1E0480709D00F230B40042B05D00B1D4D
:102140008B42894149428B44191C5A46D20107D51A
:10215000904B5C46049E80271C40FF00A346F51967
:102160008D4B9D427ADD039C0122224000248B4D41
:10217000A146C1E680242403474627424CD13C4374
:102180002403240B009A854DB6E63619481EB44246
:102190005ED9011C9642C4D1009E9E42C1D1C2E7C5
:1021A000031C283B311C99408B46002188E6301CDB
:1021B00001F08CF9203072E6283B211C9940002266
:1021C0008846914651E6201C01F080F920303BE61C
:1021D0000021B14500D33DE7009F5A46B944B945B7
:1021E000BF417F423F19FB18013A9C421ED29842E0
:1021F00000D97EE000D1B5E0191A93462AE7894557
:1022000000D8ADE64846464642467708D30746081A
:10221000C0071E438146AAE65846204212D1044315
:1022200024032A1C240B89465C4D65E6A342E3D1B6
:10223000009F4F45DBD9211A93460BE7171CDDE6BB
:102240009B46BCE63C432403240B009A534D53E6C3
:10225000B24259D800D18AE0011C62E75F46C90842
:102260007B07039E0B437C026D0501229946240BDC
:102270006D0D324040E64A4B049FDB1B382B10DDCE
:10228000039C0122224000240025A14634E60121BE
:10229000494248E7029304E71F1C21E7019C03948D
:1022A00041E71F2B40DC3F48049F0C1C3A1858465E
:1022B0009140DC40904020430A1C511E8A41011C81
:1022C00011435A46DA40131C480709D00F220A402E
:1022D000042A05D00A1D8A42894149425B18111C13
:1022E0001A0234D5039C0122224000240125A14674
:1022F00002E6009F02214942B9448B44B945894115
:1023000049420919CB18A4E6009D881E6900A9421C
:10231000AD416D422C19361900913AE7002B00D0DF
:1023200033E70024009437E71F4A049C5D46121BE4
:10233000D5402A1C202B1FD01C4E5F46A3199F405E
:102340003B1C19434B1E994111430023BCE75A071C
:10235000C9080A43039F91465B0201221C0B3A40C5
:102360000025C9E54E45C4D89346002172E6009F7A
:102370009F42C9D3011C0FE70023E2E78024240316
:102380005F463C432403240B019A8946034DB3E581
:10239000FF030000FFFFFFFEFE070000FF07000035
:1023A00002FCFFFF1E040000E2FBFFFF3E040000F2
:1023B000F0B55F4656464D464446F0B40D1C041C2D
:1023C0008046E80F814618030F03000B3F0B83B0D4
:1023D00084461B48009749005E00DF0F490D924676
:1023E000760DBB4681420CD01548864210D00120A4
:1023F000B14215D003B03CBC90469946A246AB46CC
:10240000F0BD009F01202743F4D10D488642EED154
:10241000604602430120002AECD10120B142E9D1FB
:10242000009B6345E6D1D045E4D1D94506D00029CB
:10243000E0D11C43201C441EA041DBE70020D9E76B
:10244000FF070000F0B55F4656464D464446F0B4DF
:10245000CD0FDE0FAC461D032D0BB146374E0F03DB
:102460004C00AB465D0080463F0B640D92466D0DFF
:10247000B44232D0314EB54235D0002C0ED1384363
:1024800041424141081C002D0BD0002919D1CC45F7
:102490002DD0654668420123184318E0002DF6D17F
:1024A000281C59460A4353425341002806D1002BA9
:1024B000EDD0634658420123184308E00020002B6A
:1024C00005D14A46504250414042012318433CBC8A
:1024D00090469946A246AB46F0BD3E1C0643C9D085
:1024E00002204042F3E75E461643C6D0F8E7AC420E
:1024F00007DC0BDA61464842484140420123184359
:10250000E5E76646704201231843E0E75F450AD8D5
:102510000ED000205F45DAD26546684268414042ED
:1025200001231843D3E76246504201231843CEE704
:10253000D045F8D80020D045EED3C8E7FF0700000B
:10254000F0B556464D4644465F46F0B40D1C83B088
:10255000041C0190E80F814618030F03000B3F0B8A
:1025600084463548009749005E00DF0F490D9246CA
:10257000760DB846814234D02F48864236D00029A5
:1025800018D0002E1FD1341C67463A4353425341A2
:10259000002C1FD00020002B05D142465042504154
:1025A00040420123184303B03CBC90469946A246E2
:1025B000AB46F0BD0098044360426041041C002E0D
:1025C000E2D00028E9D1C14515D04F467842012319
:1025D0001843E8E7002BF6D04B4658420123184336
:1025E000E1E7009F02202743DDD1C5E767460220CF
:1025F0001743D8D1C3E7B14204DD4A465042012314
:102600001843D0E7B14207DB00986045E4D80AD010
:10261000009F00206745C6D24F467842784140422D
:1026200001231843BFE7019A5245D5D8019A0020EB
:102630005245F1D3B7E7C046FF070000F0B5564654
:1026400044465F464D46F0B41F1C0B031B0B9A46D5
:102650004B0087B0041C80465B0DC80F161C02930C
:102660008146002B68D0694B0299994232D0802272
:10267000534652031A43D200630F1A439246644AE8
:10268000E000891880460291002400253B031B0BC3
:102690009B467800FB0F321C400D039300D175E080
:1026A0005A4B984269D08022594652030A43730F0D
:1026B000D2001A43564B9346C018F20000230399E8
:1026C0004E4671401C430F2C00D9A9E0514EA40086
:1026D0003459A74653461C4300D087E00025AA463C
:1026E000A84608240225D1E74946022D6CD0032DC7
:1026F00000D117E2012D00D058E10D40EDB20024C9
:10270000A9460023A0460020002125030A0D1C0530
:102710002D0B1205404B2A43134023435B004C46CC
:102720005B08E207191C4046114307B03CBC9046C9
:102730009946A246AB46F0BD5346234350D053467C
:10274000002B00D184E1504600F0C0FE031E272B71
:1027500000DD76E128210D1A211C083B5246E94094
:102760009A400D1C1543221C9A40AA4690462B4BBA
:1027700000241B1A0293002588E75B461E430323AF
:10278000002E9CD1B3460022022398E75B463343D8
:1027900021D05846002800D14EE100F097FE2728AE
:1027A00000DD42E128210F1A021C311C083A5B4669
:1027B000F94093400F1C1F43331C9340BB461A1C27
:1027C000164B181A00237AE701230B400024994680
:1027D000A0460E4B97E70027BB46002201236EE779
:1027E000002104248A46884601254FE70C2403254E
:1027F0004CE700258024A9462403A846034B82E722
:10280000DA46904603991D1C6FE7C046FF0700009B
:1028100001FCFFFF00F90000FFFF0F800DFCFFFF30
:10282000029F160C381804904046070C0004000C58
:102830001204120C031C5343041C3D1C74435543E7
:1028400098463B1C73436419A44644460293230CE8
:1028500063449D4204D9029D802464022D1902958F
:102860001D0C039545462C041B04240C1C190594CF
:102870005C46230C051C58432404240C8446381C55
:10288000604365435F438146CC44280C6044BB46AB
:10289000814502D980277F02BB442D04070C2D0CF3
:1028A000000440195546BC462F04E3448446280CD6
:1028B0003D0C2F1C5743B8462F1C77434243B94663
:1028C00047463F0C9144BA46D14446434A4502D953
:1028D00080225202B6184F463A0CB6183A044746C0
:1028E0003F043F0CB8462F1C67435D4344435843A5
:1028F00065190190380C2D184244B846AC4204D9F1
:10290000019880235B02C0180190039C029F201C49
:102910006044C0196045A44147466442A4462B0464
:102920003C049946240C4C44A046D8448018C24626
:10293000E24490429241574652429146F219E24592
:10294000BF417F424B46BC46D845BF41D4187F4269
:1029500063461F432D0C7F19B24292414C45AD4155
:1029600052426D421543019E7D19AB19E20D5B0287
:10297000059F134342023A439A46531E9A41C30DA0
:10298000101C18436402204380465046C0010DD5F8
:10299000454601225646049C6B082A401A43F30719
:1029A00001341A43760804949046B246049E634F5D
:1029B000F319002B61DD404640070BD00F2244463F
:1029C0002240042A06D04246043242458041404219
:1029D000824490465546ED0107D5594B5646049F13
:1029E00080201E40C000B2463B18564A934200DD8C
:1029F000EAE644465546E2086807104301226C02A5
:102A00005B050A408046240B5B0D91467BE6DA4667
:102A100090461D1C69E680242403574627421CD19A
:102A20003C432403240B484B6DE6031C283B311C1C
:102A300099408B460022C3E6301C00F047FD203051
:102A4000ADE6283B211C994000228A4690468EE63E
:102A5000201C00F03BFD203078E65846204207D18C
:102A6000044303992403240B89469046364B4AE6D7
:102A70003C432403240B344B45E6344B049E9B1B00
:102A8000382B06DD01230B4000249946A046002385
:102A900039E61F2B25DC049C2D4D46466019524615
:102AA00044468640DC4082405746301C2243DF408B
:102AB000441EA04102433B1C540709D00F20104084
:102AC000042805D0101D9042924152429B18021CCE
:102AD0001D021AD501230B4000249946A04601236C
:102AE00011E61C48049C5546001BC540281C202BA1
:102AF00016D0194E5746A21997403A1C43461A431E
:102B0000531E9A4102430023D6E758075B02D208BE
:102B10001C0B01230B401043994680460023F2E52D
:102B20000022EBE78024240350460123044319408C
:102B30002403240B8946044BE5E5C046FF0300004F
:102B4000FFFFFFFEFE070000FF07000002FCFFFF83
:102B50001E040000E2FBFFFF3E040000F8B55F46E4
:102B6000564644464D46F0B40C034D00CF0F610A63
:102B7000440F2143C4001803DE0F8046B446464686
:102B80005800760A530F3343D600D14A6D0DBA462A
:102B9000400DB346904200D1F5E0624601267240F6
:102BA0009446674500D1ABE02F1A002F00DC11E1FD
:102BB00000283ED15846184300D0F1E0600700D10C
:102BC00097E00F232340042B00D122E1221DA242D3
:102BD000A4416442802309191B04012750460B407D
:102BE0000740141C002B00D179E0B94B01359D4200
:102BF00000D10BE1B74BE4081940480749020443F0
:102C00000B0B002000211B031A0B0B0D6D051B0580
:102C100013436A08B04DFF071D4015436D006D0852
:102C2000291C3943201C3CBC90469946A246AB4621
:102C3000F8BDA7488542C1D0802000040343382F47
:102C400000DDFDE01F2F00DD31E12020C01B1A1C3C
:102C50005E468240FE40324394465A468240101CF3
:102C6000421E9041FB40624602431F1CA21A94423E
:102C7000A4416442C91B091B141C0A029ED54902C7
:102C80004F0A002F00D1D6E0381C00F01FFC021CB8
:102C9000083A1F2A00DDC3E02821231C091A9740A7
:102CA000CB401F439440954200DDC0E0551B691C9A
:102CB0001F2900DDEAE01F22551B3B1C221CAB40F4
:102CC000CA40AC40651EAC411343CF401C43391C85
:102CD000002573E780217E4D0027C90300247C4B2B
:102CE0004807E4080443C9089D4250D009030B0B70
:102CF00087E780231B04012752460B40174071E7EA
:102D00002A1A9446002A00DCA1E0002854D070481A
:102D1000854200D152E780200004034360463828F2
:102D200000DD0EE11F2800DD57E162462020801AF9
:102D30001E1C8640B1465E46D6404A4632435E4639
:102D400086409046301C421E9041424602436046F7
:102D5000C3401219A242A441644259180919141C13
:102D6000080200D42AE75A4B01359D4200D131E1D7
:102D7000584B60081940012323401C1C0443CB0717
:102D80001C4349081AE71E4300D00AE705E7231C45
:102D90000B433BD080231B030B431B031B0B30E770
:102DA000013F002F6DD15E46A21B9442A4416442B4
:102DB000C91A091B141C60E75846184300D1FDE6E8
:102DC00001267642B4446046002800D0D0E05E463A
:102DD0003219BFE7002F00D080E0681C4005400D8D
:102DE000012800DCE8E05A46A21A9442BF41C81A02
:102DF0007F42C71B3E0200D498E05846041BA345FF
:102E00009241591A52428F1AE2463AE700230024AF
:102E1000F7E680231B04012756460B403740E1E6C6
:102E2000271C283887400024954200DC3EE72949CA
:102E3000AD1A3940C2E6201C00F048FB203026E7DE
:102E40005A461A43531E9A41D2B200270EE7002A6F
:102E500000D0DEE0681C4605760D012E00DC90E017
:102E60001B4DA84200D1F5E05E463219A242A441B2
:102E7000644259180919CC07520814434908051C23
:102E80009CE61348854200D0D9E697E62B1C1F3BF1
:102E90003E1CDE40331C20296FD03F22551BAF4023
:102EA0003C43601E84411C430021002586E6381CFB
:102EB00020381E1CC640301C202F60D04022D71B5B
:102EC000BB405A461A43531E9A4102430027CDE69F
:102ED000FF070000FFFF7FFFFFFF0F80002D37D0AF
:102EE000B64DA84200D18FE080252D047F422943B2
:102EF000382F00DDA8E01F2F00DD24E12025ED1B89
:102F00000E1CAE40B046261CFE404246AC40164366
:102F1000651EAC413443F9405A46141BA345924107
:102F20005B1A5242991A051CE246A6E6131C3B4363
:102F3000141C002B00D0A4E600270021002500244B
:102F4000CDE65A461A43531E9A41D2B2002300E7F7
:102F50000D1C254358D0FF43002F51D15A46141B56
:102F6000A3459241591A5242891A051CE24684E649
:102F70009248854200D0D1E620E6002790E7002362
:102F80009FE7081C2043002D00D0C2E0002800D19C
:102F9000EFE05846184300D110E658460219A24205
:102FA000A441644259180919141C0A0200D405E608
:102FB000834B0125194001E6081C2043002D38D120
:102FC00000286FD15946194303D0191C5C46E246CC
:102FD000F4E500270021002481E6604620381A1C11
:102FE000C2406646101C202E00D1AAE04022921B4F
:102FF00093405A461A43531E9A4102430023A8E6BF
:103000006E4DA84200D073E7191C5C46051CE246D1
:10301000D4E5002D22D10D1C254376D0D543002DBB
:1030200070D15C445C459241591852428918051C84
:1030300096E600284CD15946194300D14AE6191C9E
:103040005C46E2465D4DB9E50C43611E8C41E4B23D
:10305000002161E7051C0021002440E6574DA842ED
:1030600053D05542802216043143382D7BDC1F2D6E
:1030700000DD8CE02022561B0A1CB446B240261C00
:10308000EE403243904662469440661EB44142464A
:103090001443E9405C445C459241CB185242991874
:1030A000051C5DE65846184300D187E55E46A71B20
:1030B000BC429241C81A5242801A060260D5584654
:1030C000041BA3459241591A5242891AE24675E5FA
:1030D0005846184333D04807E40804438020C90801
:1030E0000003014208D0DD08054205D15946CA084F
:1030F0005C071443291CE246630FC9001943E4002E
:103100002E4D5BE52D4A9042AFD1191C5C46051C43
:1031100054E5002830D05846184310D08025480781
:10312000E408C9082D0304432942E5D0D808284201
:10313000E2D15D46EA085C071443011CDCE71F4D41
:103140003CE5002355E73D1C203D0E1CEE40351CA0
:10315000202F2ED04026F71BB9400C43611E8C4116
:103160002C430021D8E60C43611E8C41E4B20021BF
:1031700090E7191C5C4621E5191C5C460F4D1DE5C6
:10318000031C3B4300D124E7011C3C1C16E5202610
:10319000764276190A1CF2409046202D0BD040262C
:1031A000751BA9400C43611E8C4145462C430021F0
:1031B00070E70021D1E70021F4E7C046FF070000D7
:1031C000FFFF7FFF70B50B1C124C09030E0B59005B
:1031D000021C490DDD0F0020A14211DD0E48814285
:1031E0000FDC8020400306430C48401A1F280BDDEB
:1031F0000B4A521AD640321C5042002D00D1101CEE
:1032000070BD084BE818FBE7074BC240C9188E4059
:103210003243F1E7FE0300001D0400003304000008
:1032200013040000FFFFFF7FEDFBFFFFF8B5041E56
:1032300031D0C70F00D04442201C00F047F9184D90
:103240002D1A0A2819DD0B38844024036D05240B40
:103250006D0D3A1C0026002000210B0D2403240BC9
:103260001B0523430F4C2D051C402C4364006408B0
:10327000D307211C301C1943F8BD061C1536231C2E
:10328000B3401E1C0B23181AC44024036D05240BE5
:103290006D0D3A1CDFE70022002500240026DAE746
:1032A0001E040000FFFF0F8010B5041E28D000F0A0
:1032B0000DF9154A121A0A2815DD0B38844024032B
:1032C0005205240B520D0023002000212403181C5A
:1032D0000B0D240B1B0523430C4C12051C401443FF
:1032E0006400610810BD031C1533211C99400B1CA0
:1032F0000B21081AC44024035205240B520DE3E7A6
:10330000002200240023DFE71E040000FFFF0F80DF
:1033100043001B0E5A1C4102D2B270B54C0AC50FB5
:10332000012A17DDE02292006407090B9818002299
:1033300000231E0D221C34050C431B494005400888
:103340002140014349004908ED070B1C2B43101C89
:10335000191C70BD002B15D1002C1CD0201C00F0B6
:10336000B5F80A281ADC0B21091A231CCB40191CBA
:10337000031C15339C400D4B0903181A4005090B1B
:10338000400DD4E7002C03D06407090B0848CEE7B2
:1033900007480021CBE700200021C8E7011C0B39BA
:1033A0008C40211C0024E6E7FFFF0F80890300000A
:1033B000FF070000F0B54B000D03420F5B0D6D0AD7
:1033C00015435A1C5205CC0FC600520D012A27DDA9
:1033D000394FDA19FE2A1ADC002A35DD8001ED00AA
:1033E000431E98412843760F3043430704D00F23F0
:1033F0000340042B00D004308021C904014027D0B1
:103400000132FF2A1DD083015B0AD1B201E0FF2106
:1034100000235802C905400AE40708432043F0BDD1
:10342000002B06D1354311D10021002043025B0A55
:10343000EFE72E43EBD08020ED0080042843FF22ED
:10344000D3E7FF210023E4E717320DDA052000223D
:10345000C008D1B2FF2AE9D10028D9D08023DB03EC
:1034600003435B025B0AD4E780221449120415432C
:10347000C91A1F290DDC124A371C9B18281C9F40B3
:1034800098403B1C5A1E93411843CE4030430022C3
:10349000ABE70C4F2A1CFF1AFA40171C202909D051
:1034A000094A98188540281C3043461EB0413843CD
:1034B00000229AE70020F7E780FCFFFF9E03000050
:1034C00082FCFFFF7E030000A2FCFFFF1C21012302
:1034D0001B04984201D3000C10391B0A984201D3F7
:1034E000000A08391B09984201D30009043902A2D5
:1034F000105C40187047C04604030202010101013C
:10350000000000000000000038B50E4B0C4A041CFF
:103510000D1CFDF745F9002804D1201C291CFFF7DC
:1035200051FE38BD074B064A201C291CFFF716FB2D
:10353000FFF748FE80231B06C018F2E7C046C046CE
:10354000000000000000E041F0B544465F465646EA
:103550004D46F0B41C1C85B0002900DADBE00F1CDE
:103560000021061C8A46101C191C002C00DAC9E038
:103570000196009089468046002951D1B84200D872
:1035800071E0FFF7A3FF002809D020234546311C36
:103590001B1A85408740D940A8460F4386404246C3
:1035A000150C13041B0C291C381C9B46FDF714F842
:1035B0005B464343041C291C381C9946FDF750F810
:1035C000330C08041843814509D94044631E8045E3
:1035D00000D978E1814500D875E1023C4044494674
:1035E000411A8946081C291CFCF7F6FF5A4642433B
:1035F000071C291C48469346FDF732F83604090497
:10360000360C0E43B34507D946447B1EB04502D85D
:10361000023FB34500D81F1C24042743002403E0C5
:10362000B94211D9002400275246381C211C002A17
:1036300003D03B1C00215842A14105B03CBC904640
:103640009946A246AB46F0BD081CFFF73FFF041E9B
:1036500000D0BFE0B94500D242E1019D0099071CAE
:103660008D424741E0E7002804D101200021FCF70A
:10367000B3FF80464046FFF729FF002852D141465C
:1036800044460B043C1B1B0CA3460D0C0093012469
:10369000291C5846FCF7A0FF009F81464743291C80
:1036A0005846FCF7DDFF330C090419438F4208D953
:1036B0004B464144013B884502D88F4200D91AE16C
:1036C0009946C91B8B46081C291CFCF785FF009BEB
:1036D000291C4343071C58460093FCF7C1FF3604DE
:1036E000009D0904360C0E43B54207D946447B1EA3
:1036F000B04502D8023FB54200D81F1C49460E040F
:10370000374391E75246D243031C0C1C92460021DA
:103710005842A1412CE7002746428F4101214942EE
:103720008A4620E720231B1A4246351C82403C1C57
:10373000DD40DC4087402B1C150C3B43291C864098
:10374000201C009317049046FCF746FF3F0C011C19
:10375000794381468B46201C291CFCF781FF009C85
:103760000904230C19438B450CD94B464144013BBA
:10377000884500D9BDE08B4500D8BAE0022252420C
:10378000914441445C460C1B201C291C0194FCF70D
:1037900023FF391C4143041C8B460198291CFCF76C
:1037A0005FFF009A090413041B0C19438B4509D9C8
:1037B0004144631E884500D997E08B4500D894E0CA
:1037C000023C41445B46CB1A49469B460B041C43D2
:1037D00000975DE7009D20231B1A4A468240DD408A
:1037E0001543391C009AD94082408846311C00920A
:1037F000D9403A1C82400B1C134301932F0C2B041D
:103800001B0C391C40460293FCF7E6FE029A8146E7
:103810004243391C40469346FCF722FF019A0904B3
:10382000130C19438B450AD94B464919013B8D426C
:103830005DD88B455BD902235B42994449195A46AE
:103840008A1A101C391C0392FCF7C6FE029B8046A4
:103850004343391C03989B46FCF702FF019A090475
:1038600013041B0C19438B450AD943464919013BE4
:103870008D4238D88B4536D902235B42984449198A
:103880005D464D1BAB464946009D0F04424617431B
:103890002A04120C3B042D0C1B0C380C111C594330
:1038A00042436B436843D3180D0C5B198C469A4214
:1038B00002D98022520280181D0C401983450CD376
:1038C00003D00024B0E61C1C89E665462A041B04CC
:1038D000120C9B18A6409E42F3D2013F0024A3E69F
:1038E00000240127A0E69846CAE71C1C6AE799460F
:1038F000A5E7994646E70222524291444144E0E658
:10390000F0B55F4656464D464446F0B40D1C85B0B2
:10391000061C924698460290019103921F1C141CAB
:103920008346A946002B59D1AA4269D9101CFFF73A
:10393000CDFD00280AD020231B1A311CD940854018
:103940000B1C2B43864084409946B346250C230428
:103950001B0C291C48469846FCF73EFE4646071CB1
:103960004643291C4846FCF77BFE5A460904130CC3
:1039700019438E4209D909197B1E8C4200D957E19F
:103980008E4200D854E1023F0919891B8946081C60
:10399000291CFCF721FE43464343061C291C4846CC
:1039A0009846FCF75DFE5A46130409041B0C1943A4
:1039B000884508D90919731E8C4200D936E1023EA8
:1039C000884500D832E1380430430027391C05B05F
:1039D0003CBC90469946A246AB46F0BD019A934244
:1039E00062D8181CFFF772FD041E60D1019B9F4234
:1039F00000D22CE1029F03998F4260410027E5E746
:103A0000002A04D101200021FCF7E6FD041C201C43
:103A1000FFF75CFD002800D0B9E023042D1B1B0C30
:103A2000A946260C98460127311C4846FCF7D4FDD0
:103A300041464143051C8A464846311CFCF710FEAE
:103A40005A460804130C1843824507D900196B1E07
:103A5000844202D8824500D910E11D1C5346C31A86
:103A6000181C311C9A46FCF7B7FD4146414381467C
:103A700088465046311CFCF7F3FD5A4613040904EE
:103A80001B0C194388450BD94B460919013B8C4245
:103A900000D9CFE0884500D8CCE002235B429944AE
:103AA00028044946084391E7002700208EE7202399
:103AB0001B1A424657468240DF4017435246824017
:103AC0000192321CDA40291CD9408540131C2B433B
:103AD00002933D0C3B041B0C8846081C291C9A468B
:103AE000FCF77AFD534643438146291C40469B46DA
:103AF000FCF7B6FD029A0904130C19438B4506D94D
:103B00004B46C919013B8F4200D8ABE099465A4653
:103B10008A1A101C291C9346FCF75EFD534643434A
:103B2000291C804658469A46FCF79AFD029A0904D9
:103B300015042D0C29438A4506D94346C919013B72
:103B40008F4200D886E098465746CF1BBA46494672
:103B5000019F0804424610433D042D0C03043F0C12
:103B60001B0C020C291C594355437B437A43EB1829
:103B70000F0CDB198C469D4202D980277F02D21997
:103B80001D0C521992455FD356D000271EE7202303
:103B90001B1A311C2F1CD940DF4085400B1C844070
:103BA0002B4386400193B3462304260C1B0C381C80
:103BB000311C9846FCF710FD42464243051C311C5F
:103BC000381C9146FCF74CFD019F09043B0C19433E
:103BD000894507D909196B1E8C424DD889454BD9A7
:103BE000023D09194A468A1A101C311C9246FCF7FC
:103BF000F3FC43464343071C311C50469946FCF7EF
:103C00002FFD019A090413041B0C1943894507D998
:103C100009197B1E8C422DD889452BD9023F0919E1
:103C20004B46CB1A2D0499462F43FDE61E1CCAE6CF
:103C30001F1CAAE6994633E761460A041B04120CCE
:103C40009B18A6409E42A0D201380027BEE600275E
:103C50000120BBE68A4500D875E702235B42984401
:103C6000C91971E78B4500D850E702235B4299449C
:103C7000C9194CE71F1CD3E71D1CB3E7023D00190F
:103C8000ECE6C04608B5094A094BD058094901403D
:103C90008020C0040143D15003F004FA031C0648FD
:103CA000E1214902022203F0CFF808BD0070044070
:103CB00004100000FFFFFFF30040054000B585B091
:103CC00002A80D49083106220AF076FB00236A4655
:103CD000137080235B0201930849094B094AD150B4
:103CE00002A803F05BFA684603F080F9064A074B26
:103CF0001A6005B000BDC04620F8000000000710A3
:103D00004410000000700440006CDC0204E0FF1F5F
:103D100008B506F031FE064B986806490840802237
:103D2000920010439860586801400A435A6008BDE9
:103D300000B00440FFF8FFFFF0B583B0002653E069
:103D40002B4C74432B4D645D002C4CD0284C744399
:103D5000645D012C29D1264C74432C1925696469B2
:103D60008C4240DC01D185423DD8214C7443214F27
:103D70003C19247A002C05D01D4C74433C19A061D9
:103D8000E1610DE01A4C74431A4D2F19FC68009440
:103D900000250195009C019D24184D41BC61FD61E9
:103DA000134C74430225134FE555114C7443114DC8
:103DB0002C19A569E4698C4215DC01D1854212D821
:103DC0000B4C74430B4B1F1938627962FA6800235D
:103DD000141C1D1C24184D41BC61FD61DA252D0108
:103DE0007C19012525700136012EA9DD03B0F0BD37
:103DF000A80D000020E2FF1F70B586B00024274DFB
:103E000048E0274B63435B5D022B42D1244B634365
:103E1000224AD318DA2212019B181B78002B38D0C3
:103E20001F4E66431D4A9319DA2212019B18002285
:103E30001A70684601F0FCFA3836184B9E19301C8F
:103E400009F092FF17281FD8154B6343134AD31864
:103E5000C52212019B181B78002B1AD1104B63430B
:103E60000E4EF618326A736AB262F362331C303354
:103E70000D221A70E0B2402105F0F4FDC5231B01AC
:103E8000F6180123337004E0301C6946182209F04B
:103E9000ABFE0134012CB4DD06B070BD20E2FF1F83
:103EA000A80D000038B5041C0F4B43430F48C5183C
:103EB000682006F06DFF002814D00D4BED18011C92
:103EC0005831281C40220AF077FA084B0648604314
:103ED0000021C1541A1851600649D16038301818B1
:103EE00009F04CFF38BDC046A80D000020E2FF1FBE
:103EF000580C0000204E0000F8B564201C4908F062
:103F000083FE08F0A3F801F083F80024194E1A4F3D
:103F10002D2519E0381C60433318C52212019B1867
:103F20005D709D70DD7000221A715A719A71011CCA
:103F30005031711838303018C022120109F04CFE8F
:103F4000E0B2FFF7AFFF0134012CE3DD054904487F
:103F5000054A064B0AF0B8FA084B18605960F8BDDC
:103F60009A9999999999054000000000000008402D
:103F7000393D000020E2FF1FA80D000070FDFF1F6B
:103F8000F8B55F4656464D464446F0B4071C8A468F
:103F900091460AAB06CB1B789B460DAB1B78984627
:103FA000174D184E4643301C3830281809F0E6FEED
:103FB000AC190023A370C521090162181370524681
:103FC00062604B46E3600A990B9A216162615A462E
:103FD00022724346637000220023A262E3623034FF
:103FE0000C2323700123637073550748391C02F0BA
:103FF00081FF3CBC90469946A246AB46F8BDC04600
:1040000020E2FF1FA80D00005CF9000008B5011CAC
:10401000044A42430020044BD054044802F06AFF93
:1040200008BDC046A80D000020E2FF1F74F9000083
:10403000CBB2062B39D899001D4B5B589F461D4BC0
:1040400058431D4B1818C5231B01C01840782DE09C
:10405000184B5843184B1818C5231B01C0188078FB
:1040600024E0144B5843144B1818C5231B01C018E7
:10407000C0781BE00F4B58430F4B1818C5231B018A
:10408000C018007912E00B4B58430B4B1818C5238E
:104090001B01C018407909E0064B5843064B18181D
:1040A000C5231B01C018807900E000207047C0467E
:1040B00040F90000A80D000020E2FF1F0099002336
:1040C000FF2201E0CA5401331F2BFBDD2020704783
:1040D000081C7047034B5843034BC018034B181878
:1040E0007047C046A80D0000580C000020E2FF1FDA
:1040F00008B5064B5843064BC018064B181800214C
:1041000060220AF062F9002008BDC046A80D000038
:10411000980C000020E2FF1FF0B5072919D80E4CBB
:104120004D006B189B000D4E70431B18E3180C4F8D
:10413000DE1901273770CA2636019B191A606918E3
:10414000890009186418064FE419002363600020F1
:1041500000E03220F0BDC04620E2FF1FA80D0000A5
:10416000980C000008B507290FD84B005918890092
:10417000074B58430918074BC918074B5918101C0F
:104180000C220AF019F9002000E0322008BDC046D8
:10419000A80D0000980C000020E2FF1FF0B585B0CC
:1041A000071C0E1C141CFFF731FFE26A6168002433
:1041B0000025009401950123029300230393381CEA
:1041C000FFF7DEFE3378002B0CD0362011E0E30041
:1041D0001B1B9B005819084BC018301808F00CF92D
:1041E000013403E00024054E054D7D43052CEEDD32
:1041F000302005B0F0BDC046F80C000020E2FF1FE3
:10420000A80D0000F0B55F4656464D464446F0B452
:1042100089B0071C0092051C6D4B43436D4AD218B0
:1042200091460E78002E00D0C4E038208246CA4461
:10423000504609F091FD00B21821FCF7CDF980B28B
:1042400003B2002B00DCB7E0002188469B46614C9E
:104250005F4B5D4360482B18E318019331E05046F3
:1042600002A9182209F00EFD01980221029A08F015
:10427000CDF85A49681820180221039A08F0C6F8A8
:10428000D3221201A81820180221049A08F0BEF8BF
:10429000534BE81820180221059A08F0B7F8514945
:1042A000681820180221069A08F0B0F84E4AA8189B
:1042B0002018079A022108F0A9F8434601339BB25F
:1042C0009846404603B25B45C9DB414B7B43414ABC
:1042D000D31841495B189888FDF7C8F9009A14690A
:1042E000211CFCF779FA002868D1404B4846C4509D
:1042F00001233F4A8354364A5743364AD7193D492A
:104300007A1854688021090660183B494C46605071
:1043100011683A4AA150CB221201A35438483A18E6
:10432000516880242406081936494C4660501168AB
:10433000CC221201A150344AA354D42000013A18CF
:104340005168802424060819CD2109014C4660508B
:1043500011682E4AA1502E4AA3542E483A1851688B
:104360008024240608192C494C46605011682B4AB9
:10437000A1502B4AA3542B483A1851688024240694
:10438000081929494C4660501168284AA150CE228C
:104390001201A35426483F187A6880242406111974
:1043A000244A484681503968CF2212018150224A5E
:1043B000835404E0362602E0302600E03026301C2C
:1043C00009B03CBC90469946A246AB46F0BDC046FB
:1043D000A80D000020E2FF1FF80C0000140D0000E3
:1043E0004C0D0000680D0000840D0000AC0C0000B6
:1043F000A40C0000080D0000B80C0000B40C000074
:10440000240D0000C40C0000BC0C0000CC0C00000B
:10441000C80C00005C0D0000DC0C0000D80C000093
:10442000D40C0000780D0000E80C0000E40C000043
:10443000940D0000F40C0000EC0C0000F8B55F4691
:1044400056464D464446F0B4031C3B4C44433B4A5D
:1044500014190D78002D67D1FE229205384822509C
:1044600038482058384EB346A051C720000122508A
:1044700036482058364EB246A05136482250CD20FC
:1044800000012058344EB146A051C82000012250EE
:1044900032482058324EB046A0513248225032485D
:1044A0002058324FE051C92000012250304AA25812
:1044B000304EA2510A783048191C02F01BFD5B46B1
:1044C000E058FEF725FF021C0B1C2C4802F012FDE1
:1044D0005346E058FEF71CFF021C0B1C284802F054
:1044E00009FD4B46E058FEF713FF021C0B1C254844
:1044F00002F000FD4346E058FEF70AFF021C0B1CC9
:10450000214802F0F7FCE059FEF702FF021C0B1CE9
:104510001E4802F0EFFCA059FEF7FAFE021C0B1C2D
:104520001B4802F0E7FC00E03225281C3CBC90460A
:104530009946A246AB46F8BDA80D000020E2FF1F39
:10454000680C0000B80C00006C0C0000C40C0000EB
:10455000740C0000780C00007C0C0000DC0C0000E7
:10456000840C0000880C0000E80C00008C0C00009B
:10457000F40C0000940C00008CF90000BCF9000061
:10458000D4F90000ECF9000004FA00001CFA000065
:1045900034FA0000F0B5474680B4051C0C1C037BC0
:1045A000467B36021E43837B1B041E43C37B1B06D4
:1045B0001E43301C6349FCF723F9002820D12B7CD3
:1045C0006F7C3F021F43AB7C1B041F43EB7C1B062D
:1045D0001F43381C5B49FCF713F9002810D12A7DD2
:1045E0006B7D1B021343AA7D12041343EA7D12065E
:1045F0001A439046101C5349FCF702F9002813D0C7
:1046000000222270627048214822A2704222422079
:10461000E070002020716071A171E27100232372AB
:104620006372A172E27257E0301C4749FCF7D4F87C
:1046300000280BD1381C4449FCF7CEF8002805D1DE
:1046400040464149FCF7C8F8002812D000232370E7
:10465000637048214823A370C223E37000202071B7
:104660006071A171E371002222726272A172E37221
:1046700032E02A786B781B021343AA7812041343A2
:10468000EA781206134323701A0A62701A0CA27099
:104690001B0EE3702A796B791B021343AA7912046B
:1046A0001343EA791206134323711A0A62711A0C32
:1046B000A2711B0EE3712A7A6B7A1B021343AA7A4A
:1046C00012041343EA7A1206134323721A0A62721F
:1046D0001A0CA2721B0EE3722A7B6B7B1B02134324
:1046E000AA7B12041343EA7B1206134323731A0AAC
:1046F00062731A0CA2731B0EE3732A7C6B7C1B0281
:104700001343AA7C12041343EA7C12061343237456
:104710001A0A62741A0CA2741B0EE3742A7D6B7D54
:104720001B021343AA7D12041343EA7D12061343AE
:1047300023751A0A62751A0CA2751B0EE37504BC68
:104740009046F0BD00003442000034C2F0B5474648
:1047500080B484B080460C1C94460AA900228E5E68
:104760000BAD2F782578022D45D13122A25C002A8D
:1047700010D00093231C3233019301330293013391
:10478000039360682049E268634605F0D7FF002282
:104790003123E2543023E35C002B16D0002F03D0EA
:1047A00000223023E25410E0A27800926168019167
:1047B00002934046A26AE36A05F042FFA378013300
:1047C000A37000223023E25418E0201C383009F096
:1047D000C3FA00B2311CFBF74DFF00B23323E35C98
:1047E00098420ADB0C9A138040460021FF2209F010
:1047F000ECFD064802E0002000E0002000B204B01A
:1048000004BC9046F0BDC046A0860100FFFF00003A
:10481000F0B557464E464546E0B492B088466B46E2
:1048200000225A821233684C6043684C24181821C5
:104830000091019202934046211C09220423FFF7B4
:1048400085FF002800DBB7E0002600256F46123701
:1048500038231B199A465E4B994694E050460BA9A3
:10486000182209F00FFA5B4BE1580B98FCF7EEF8B1
:104870000B90594BE1580C98FCF7E8F80C90574B0B
:10488000E1580D98FCF7E2F80D90554BE1580E9861
:10489000FCF7DCF80E90534BE1580F98FCF7D6F874
:1048A0000F90514BE1581098FCF7D0F810900BA8DE
:1048B00005A9FFF76FFE63689B070DD5059849466C
:1048C000FCF730FA119028B24044093011A90422B3
:1048D00009F072FD0435ADB263685B070DD506982B
:1048E0004946FCF71FFA119028B24044093011A93B
:1048F000042209F061FD0435ADB263681B070DD5D4
:1049000007984946FCF70EFA119028B24044093046
:1049100011A9042209F050FD0435ADB26368DB062D
:104920000DD508984946FCF7FDF9119028B240448E
:10493000093011A9042209F03FFD0435ADB26368C6
:104940009B060DD509984946FCF7ECF9119028B261
:104950004044093011A9042209F02EFD0435ADB2FE
:1049600063685B060DD50A984946FCF7DBF91190A0
:1049700028B24044093011A9042209F01DFD043574
:10498000ADB20136B6B23B8832B219B28A4200DA11
:1049900064E7002D0FD0D9B23223E25C6378A078AF
:1049A000451CA570A4880090019406200290404602
:1049B00005F09EFE00E0002000B212B01CBC904644
:1049C0009946A246F0BDC046A80D000020E2FF1F98
:1049D000000020416C0C0000740C00007C0C0000F6
:1049E000840C00008C0C0000940C000000000000FF
:1049F000F0B55F4656464D464446F0B497B00D1CA0
:104A00006B460022DA8426337B4E70437B4E361889
:104A100018220092012201920293081C311C0822E4
:104A20000223FFF793FE002800DBD6E000270024D6
:104A300000210591724A93468F23DB059A467149FE
:104A40008846714A9146AEE0301C383010A91822D1
:104A500009F018F96D4BF1581098FBF7F7FF10901B
:104A60006B4BF1581198FBF7F1FF1190694BF1581E
:104A70001298FBF7EBFF1290674BF1581398FBF776
:104A8000E5FF1390654BF1581498FBF7DFFF149086
:104A9000634BF1581598FBF7D9FF159010A80AA998
:104AA000FFF778FD73689B071FD50A990591081CCD
:104AB0005946FCF737F9FEF72BFC4E4B4C4AFCF7F6
:104AC00031FEFEF777FC5146FCF710FB4146FCF740
:104AD00029F9FBF70FFF09A9088020B20830281830
:104AE000022209F069FC0234A4B2726852071DD593
:104AF0000B985946FCF716F9FEF70AFC3D4B3C4A69
:104B0000FCF710FEFEF756FC5146FCF7EFFA414663
:104B1000FCF708F9FBF7EEFE09A9088020B208307F
:104B20002818022209F048FC0234A4B273681B075B
:104B30001DD50C985946FCF7F5F8FEF7E9FB2D4B0F
:104B40002B4AFCF7EFFDFEF735FC5146FCF7CEFA99
:104B50004146FCF7E7F8FBF7CDFE09A9088020B233
:104B600008302818022209F027FC0234A4B2494672
:104B70000B785A1C0A70322B13D10D9A04920598A7
:104B8000FEF7C6FB069007910498FEF7C1FB009064
:104B900001912448069A079B02F0ACF900221A4BB7
:104BA0001A700137BFB26B46D98C3BB20AB293423E
:104BB00000DA49E7002C0FD0C9B23223F25C7378D7
:104BC000B078441CB47034790090019400200290B5
:104BD000281C05F069FD00E0002000B217B03CBCC5
:104BE00090469946A246AB46F0BDC046C046C04678
:104BF000B81E85EB51285440A80D000020E2FF1F8D
:104C0000000020410040214378FDFF1F6C0C000094
:104C1000740C00007C0C0000840C00008C0C000064
:104C2000940C00004CFA000010B5041C0123037022
:104C30000130234909F01FFC201C1130214909F0E3
:104C40001AFC201C2130204909F015FC0022002309
:104C500042216252442162524622A3544722A35465
:104C60000222A2649822A35496225200E264174AB8
:104C700022655822A3540022002322666366FE2286
:104C80009205A2660023E36622676367A267E36773
:104C90008021625084216350882162508C216350AE
:104CA000902162509422A3500023002203E0E15C93
:104CB0008A18D2B201339F2BF9D99823E25410BD40
:104CC00060FA000070FA000068FA0000C0A8000056
:104CD00038B5041C0578012D08D0FFF7A5FF227810
:104CE0000348291C02F006F9012000E0002038BD2D
:104CF0007CFA00007047C04600010909084302B26F
:104D0000034B9A4202DD034BC01880B200B27047D9
:104D1000FF07000000F0FFFF00010F2319400143CF
:104D20000AB2044B9A4202DD034BC91889B208B299
:104D30007047C046FF07000000F0FFFF00010F238F
:104D400019400143034B994202D9034BC91889B258
:104D500008B27047FF07000000F0FFFF00000000EE
:104D600070B5041C0D1C161C00680968FCF7E8FAF5
:104D7000FEF7CEFA09F0A4FB104B0F4AFBF706FD35
:104D8000002812D02068FEF7C3FA09F099FB0C4AFC
:104D90000C4BFBF7E7FC002807D03378002B04D13D
:104DA0002B6823600123337003E024682C60002308
:104DB000337070BDC046C0460000000000002440B3
:104DC0000000000000004940F0B587B0864B01228A
:104DD0005A70DB78072B00D9F5E09B00834AD35843
:104DE0009F46814C221C5C321E204F21012300F083
:104DF000D7F9E3780133E370E5E01E2060218C22CF
:104E000000F058FA784BDA780132DA70DBE01E20D5
:104E10006121032200F04EFA734BDA780132DA7026
:104E2000D1E01E206221102200F044FA6E4BDA78A5
:104E30000132DA70C7E06C4C211C5C315E200A2222
:104E400000F0F4F9E3780133E370BCE0684D664E9E
:104E5000311C5C31281C0A2209F0AEFA654C002393
:104E60002370E979182319400123194361706248BE
:104E700002F040F82B7AA370697A1F231940C023EF
:104E80001943E1705D4802F035F85E20211C0422D0
:104E900000F056FA0823F37095E001AC201C52494B
:104EA0005C310A2209F088FAE37803221340627920
:104EB000D206D20F134346D101AC20782179FFF7F7
:104EC0001BFFFCF7D3FBFEF723FA424B404AFDF7EA
:104ED000B5FBFEF76FFA4A4DE860281C0C30494FCD
:104EE000494E391C321CFFF73BFF60782179FFF7F0
:104EF00013FFFCF7BBFBFEF70BFA364B344AFDF70A
:104F00009DFBFEF757FA2861281C1030391D721CD2
:104F1000FFF726FFA0786179FFF710FFFCF7A6FBEB
:104F2000FEF7F6F92B4B2A4AFDF788FBFEF742FA0B
:104F30006861281C1430391C0831B21CFFF710FFBF
:104F400000F068F90DE0314B1A780132D2B21A70D4
:104F50001B78DBB2132B02D800F0A2F936E000F088
:104F600059F9214BDA780132DA702FE004AC1E4D8A
:104F7000291C5C31201C062209F01EFA0023E05E89
:104F8000FEF754F9144A154BFDF758FBFEF712FAD9
:104F90001B4E30600223E05EFEF748F9104A114BC9
:104FA000FDF74CFBFEF706FA70600423E05EFEF7A7
:104FB0003DF90B4A0B4BFDF741FBFEF7FBF9B060E7
:104FC000EB780133EB700022074B5A7007B0F0BD4D
:104FD0005C8FC2F5285CEFBFFA7E6ABC749358BF41
:104FE000FA7E6ABC7493583FACFDFF1F70FB000053
:104FF0007CFDFF1F44FEFF1F90FB00009CFB000098
:1050000088FDFF1FA0FDFF1F28FEFF1F79FDFF1F6A
:1050100070B584B001A802F0F7FD154B0293002093
:1050200002F084F8021C134E301C01A902F074FE39
:10503000114AC2239B00D058104901408020000231
:105040000143D1500E4C251D281C0021282209F0B7
:10505000BCF9301C291C0B4A002303F069F800231B
:10506000A3702370E3706370FFF7AEFE04B070BDF1
:10507000A08601000070064000E100E0FF00FFFF95
:10508000ACFDFF1FC1530000F0B54F464646C0B40B
:1050900083B0364802F09EFD354B9868354908408C
:1050A0008022520010439860586801400A435A60B9
:1050B00001A83149022209F07FF9304C201C02215D
:1050C00001AA02F019FD201C012101AA02F014FD21
:1050D0002B4801F00FFF042363600223636029481B
:1050E00001F008FF284801F005FF0025254B9946EF
:1050F000264B98460CE00427676002266660484607
:1051000001F0F8FE6760A660404601F0F3FE01354D
:10511000092DF0DD1E4801F0EDFE184C0426A660B6
:105120000225A5601B4801F0E5FEA66065601A48EF
:1051300001F0E0FE66606560124801F0DBFE174892
:1051400001F0D8FE0A4B98680A4908408022920074
:1051500010439860586801400A435A60FFF758FFAF
:1051600003B00CBC90469946F0BDC04600700640A6
:1051700000B00440FFF8FFFF38F8000080F00F4057
:10518000A8FB0000C8FB0000D8FB0000F8FB0000F3
:1051900008FC00002CFC00003CFC00004CFC000063
:1051A00038B5194C302560550120312560556163B3
:1051B00038216054E26323640023E362201C4430FE
:1051C000251C2C35291C182209F0F6F8211D0F4842
:1051D0002A1C02F0E9FF041E05D10B4B01221A70B4
:1051E00000229A700DE0084DAA780132D2B2AA705E
:1051F0000748211C01F07EFEAB78142B01D9FFF784
:1052000043FF201C38BDC046ACFDFF1F00700640A8
:105210006CFC000008B51E206821034A5C3206239E
:10522000FFF7BEFF08BDC046ACFDFF1F38B5194CE7
:105230003023E05401203123E054002363633820FD
:105240002354E1632264E362201C4430251C2C3586
:10525000291C182209F0B0F8211D0F482A1C02F061
:10526000A3FF041E05D10B4B01221A7000229A7075
:105270000DE0084DAA780132D2B2AA700748211C6D
:1052800001F038FEAB78142B01D9FFF7FDFE201C8E
:1052900038BDC046ACFDFF1F007006406CFC00002E
:1052A00008B55E2002495C310622FFF7BFFF08BD4A
:1052B000ACFDFF1F38B51D4B1B78002B33D11C4DA7
:1052C0002A701A4C3023E05400233122A354616326
:1052D000012238216254E5632264E362201C4430D9
:1052E000251C2C35291C182209F066F8211D1148AF
:1052F0002A1C02F059FF041E05D10C4B01221A7022
:1053000000229A700DE0094DAA780132D2B2AA703B
:105310000948211C01F0EEFDAB78142B01D9FFF7F1
:10532000B3FE201C00E0054838BDC046ACFDFF1FA1
:105330007AFDFF1F0070064090FC00004C04000046
:1053400038B51B4B1B78002B30D1194C3023E0545F
:10535000002331202354636338202354E163226403
:10536000E362201C4430251C2C35291C182209F02E
:1053700023F8211D0F482A1C02F016FF041E05D138
:105380000B4B01221A7000229A700DE0084DAA788A
:105390000132D2B2AA700848211C01F0ABFDAB78F3
:1053A000142B01D9FFF770FE201C00E0034838BD24
:1053B000ACFDFF1F0070064090FC00004C04000094
:1053C000F8B5002A06D01548111C01F093FDFFF72F
:1053D0005BFE21E04923124AD35C002B17D1131C3A
:1053E0004822995CDA6C0F4801F084FD00240C4DD2
:1053F0002F1C0D4E05E07B6D195D301C01F07AFD10
:105400000134AB6D9C42F6D3084801F073FD0022D5
:10541000034B1A70FFF7D8FCF8BDC04618FD00001A
:10542000ACFDFF1F3CFD00005CFD0000E0FF000044
:1054300010B5041C0B4BDB78082B0CD100220A4B57
:105440001A700A480A49182208F0B6FF0622054BCE
:10545000DA70FFF725FF201C0449182208F0ACFF82
:1054600010BDC046ACFDFF1F79FDFF1F2CFEFF1FC6
:1054700088FDFF1FEFF3108372B6036072B67047AA
:1054800080F310887047C046012803D8024B0B6098
:10549000002000E006207047CCFD000070B50F250D
:1054A0000D40CC0900281ED04668002E19D06D0092
:1054B00025436C006419A4000419247D002C14D128
:1054C0006C006519AD00451901242C754CB2002CF7
:1054D00003DAB4680068A04708E0F4680068A047F1
:1054E00004E0062002E0032000E0022070BDC04678
:1054F00008B5002808D04368002B03D05B6900681A
:10550000984702E0062000E0032008BD38B5051CDE
:1055100001226F23C2540E210022FFF7E9FF02226D
:105520006E23EA5400226C23EA540023002107E092
:105530005A00D2189200AA18D16011611175013376
:10554000072BF5D9281C01210022AB6898470022BF
:105550006F23EA54002038BD10B584B00B7A0F22B7
:105560001A40DC09102B02D1FFF7D0FF2AE0032AF2
:1055700025D8530023435A00D21892008218D268CB
:10558000002A1ED001AC0A6801924A6802924A7A47
:105590002272002A04D0002202752021425405E024
:1055A0005A00D21892008218002111755900CA18A9
:1055B00092008218D468126901A9A04702E0012074
:1055C00000E0012004B010BD70B582B0051C0E1CB7
:1055D00001A8FFF74FFF002314E0DA00D21A1201EE
:1055E0001A495258002A0CD0DA00D21A12018A182D
:1055F00068325279AA4204D10198FFF741FF012095
:1056000022E00133002BE8D00023104C16E0DA0032
:10561000D21A12011259002A0FD10C49D800C21A0D
:1056200012018A1868325571C31A1B01CB183360F6
:105630000198FFF725FF002006E00133002BE6D09C
:105640000198FFF71DFF022002B070BD48FEFF1F4A
:1056500010B582B0041C01A8FFF70CFF00232360E3
:105660006D22A3540198FFF70BFF002002B010BD7C
:1056700008B5002907D0002807D08368002B06D082
:10568000FFF76AFF04E0032002E0032000E00120AE
:1056900008BDC04608B500210022FFF729FF08BD5C
:1056A00008B501210022FFF723FF08BD10B5041E35
:1056B0000CD04368002B04D05B6800689847002337
:1056C0006360201CFFF7C4FF002000E0032010BD32
:1056D000F0B5474680B482B0071C0C1C90460023EE
:1056E0000193002A55D001A9FFF76EFF002851D180
:1056F000019A94606D23D75400236C2153546F2179
:105700005354002507E05C00E418A4001419E56078
:10571000256125750133072BF5D9111D381CFFF7BD
:10572000B3FE041E04D00198FFF792FF201C31E065
:10573000019A5368002B04D1101CFFF789FF062043
:1057400028E01C68002C0ED0596800290BD09968FD
:10575000002908D0D968002905D01969002902D08C
:105760005B69002B04D1101CFFF772FF072011E0CA
:10577000381C111CA047041E04D00198FFF796FFA7
:10578000201C07E0019B02216E22995442461360BF
:1057900000E0032002B004BC9046F0BD10B50F2419
:1057A000214080242143FFF779FE10BD10B50F245E
:1057B0002140FFF773FE10BD70B50B1C00281DD0F3
:1057C00000291DD0002A1DD089780F240C40C9095A
:1057D000032C19D8640021434D006C18A40004194F
:1057E0001668E66052682261691889004118002233
:1057F0000A7502211A1CFFF77BFE06E0032004E075
:10580000042002E0042000E0042070BD70B582B0E6
:10581000041C6B46D9710F231D1C0D40CE090028B6
:1058200014D003216A460732FFF762FE032D0FD81A
:105830006D002E4371008B199B00E3180022DA6083
:105840001A618E19B600A419227502E0032000E047
:10585000042002B070BDC04600B583B06B46D9715C
:105860000F231940032905D804216A460732FFF7A0
:105870003FFE00E0042003B000BDC04600B583B089
:105880006B46D9710F231940032905D805216A46B3
:105890000732FFF72DFE00E0042003B000BDC04634
:1058A00008B5002A25D0082921D88900124B5B5859
:1058B0009F460F21FFF71CFE1CE01021FFF718FE8A
:1058C00018E06E23C35C1370002013E06C23C35CEC
:1058D000137000200EE00621FFF70AFE0AE0072100
:1058E000FFF706FE06E00921FFF702FE02E00120B5
:1058F00000E0042008BDC04678FD000008B503396B
:10590000CBB20B2B32D899001B4B5B589F46112111
:10591000FFF7EEFD2FE0002A2AD012786E23C25442
:10592000002028E06E23C35C032B09D0002A21D07D
:1059300012786C23C25403226E23C25400201AE052
:10594000021C6C320821FFF7D3FD14E00A21FFF797
:10595000CFFD10E00B21FFF7CBFD0CE00C21FFF792
:10596000C7FD08E00D21FFF7C3FD04E0012002E0C0
:10597000012000E0012008BD9CFD0000F0B54F466D
:105980004646C0B4FF2288238168CA5483689422A3
:105990009C5C022121439954002298238468E2549C
:1059A00000230F25AC46082710261825012189461B
:1059B0002FE04468610A490288466146194049015E
:1059C00044460C4322604468640A64020C433C432E
:1059D00022604468640A64020C43344322604468D1
:1059E000640A6402214329430A6059005C01A0460D
:1059F00080442824A044444662604C462143090167
:105A00004118CA62191C3031890084680A55013373
:105A1000DBB2032BCDD90021A023C154826894238B
:105A2000D45C0225AC43D454FF248C228568AC544A
:105A3000892484228568AC54A12281548268D15C77
:105A400020208143D1540CBC90469946F0BDC046FD
:105A5000F0B5474680B482B0041C0E1C151C1F1CF8
:105A600048001043804601A8FFF704FD41460801A5
:105A70002018283042794023134343716268530A47
:105A80005B020F22164076013343012215402D019F
:105A90002B434279D206D20FD20013435F60616874
:105AA0004B0A5B021E4335434379DA06D20FD2001C
:105AB000154308998A0592091B07DB0F9B011343C5
:105AC000882213432B600198FFF7DAFCA268942325
:105AD000D15C20208143D154002002B004BC904608
:105AE000F0BDC04630B583B02D23C35CDB06DB0FB1
:105AF000DB00C3180C330362002282620822426278
:105B0000011C2C314D7820242C43E4B294434C707A
:105B1000009200210022FFF79BFF03B030BDC0467A
:105B2000F8B54F464646C0B40D888C780F22224007
:105B3000E409530023439946CE78012E03D1234E26
:105B4000B5420DD80DE0402D00D94025171C303747
:105B5000BF008368FB5C01261E438368FE5400E09F
:105B60001A4D4E463301C31828335E794027BE4391
:105B70005E71AD05AE0D9D88AD0AAD0235439D80C9
:105B80002D0A0826B5430426B5435D710D79ED0154
:105B900059797F263140294359718368111C30316E
:105BA0008900CD5CEDB2012C01D1042100E0082177
:105BB0000D43111C30318900CD54224301D1FFF730
:105BC00091FF00200CBC90469946F8BDFF030000F1
:105BD000F8B55F4656464D464446F0B4041C0F22C5
:105BE0000A40C909500008430301E31828335D79CE
:105BF0000426B5430826B5435D7100235501A84628
:105C00000E01B44601270001001982460820814692
:105C100017E06568680A40024646304365462843F7
:105C20003D1C1D40ED002843056804262E4206D089
:105C30005546AD8DAE05B6094D462E43066001337F
:105C4000DBB2012BE5D9A368101C30308000C55CA5
:105C50000226B543C5540A4302D1201CFFF742FF78
:105C6000A2689423D15C20208143D15400203CBC05
:105C700090469946A246AB46F8BDC04610B5041CF6
:105C8000802300E0D354A268D15C49B20029F9DB3B
:105C90003D23E35C5A0703D42D23E35C5A0707D561
:105CA000201C8021FFF794FF201C0021FFF790FFAC
:105CB00010BDC04600B585B00123A12283548022C7
:105CC00081688B5401A90023019310220A724B6052
:105CD0004B720068FFF7CCFC05B000BD002817D060
:105CE000FF2280238168CA5482688421535C002388
:105CF0005354982281688B54942281688B54826813
:105D000080235B00D05CC0210143D154002000E01F
:105D100003207047F0B5474680B482B0041C0F27BB
:105D20000F407D0001210D43290141182831497997
:105D300048060ED428012018011C2831002686624E
:105D4000A81C000102512018436048792022024318
:105D50004A712A01A218968DB605B60D9E4200D34F
:105D60001E1CA123E35C002B0ED1AB1C1B011A5996
:105D70002B01E3189B6AD3180096201C391C0122C2
:105D8000FFF766FE804601E0012398462D01651964
:105D9000AB6A1E4304D1002F02D1201CFFF7A2FEE4
:105DA000404602B004BC9046F0BDC046F0B583B09A
:105DB0000F2421404C00002B0CD100290AD12401D2
:105DC000041928346379402293436371FFF78AFEF4
:105DD000012041E02501451928356D796E0608D46A
