:1000000000600020E90400000DBC0000DDBB000022
:1000100000000000000000000000000000000000E0
:100020000000000000000000000000003DBC0000D7
:1000300000000000000000006DBC0000B1AA00003C
:100040006105000065050000690500006D05000000
:100050004905000049050000490500004905000068
:100060007105000075050000790500007D050000A0
:100070008105000069BD000089050000B948000045
:1000800049050000490500004905000009CC0000B1
:10009000490500004905000071AA00008D05000017
:1000A00095B700004905000049050000490500001A
:1000B000F13E0000490500004905000035AA000096
:1003C0006B636667FFFFFFFFFFFFFFFFFFFFFFFF9E
:1003D000FFFFFFFFF708120020190100FFFFFF00D9
:1003E000FFFFFFFFFFFFFFFF00FFFFFFFFFFFFFF1C
:1003F000FFFFFFFF00000000000000000000000001
:10040000FFFFFFFFFFFFFFFFFFFFFFFFFE31FFFFCB
:1004100010B5064C2378002B07D1054B002B02D0DA
:10042000044800E000BF0123237010BD00E2FF1F5D
:1004300000000000582C010008B5084B002B03D029
:100440000748084900E000BF07480368002B03D0B5
:10045000064B002B00D0984708BDC04600000000A6
:10046000582C010004E2FF1FECE1FF1F0000000018
:10047000164B002B00D1144B9D46402292029A1A33
:10048000924600218B460F461348144A121A0EF06A
:100490006CF80F4B002B00D098470E4B002B00D070
:1004A00098470020002104000D000D48002802D0CC
:1004B0000C4800E000BF0EF029F8200029000BF0E6
:1004C000DDFA0EF00DF8C0460000080000600020C4
:1004D000000000000000000000E2FF1F24290020AF
:1004E000000000000000000072B60E480E490160D6
:1004F0000A6882F308880D4880470D490D4A0E4B63
:100500009B1A03DD043BC858D050FBDC0B490C4A56
:10051000521A03DD00208850043AFCDA62B609481A
:100520008047000008ED00E000000000A9940000F2
:10053000802C010000E0FF1FF0E1FF1F00E2FF1F21
:100540002429002071040000114800471148004789
:10055000114800471148004711480047114800471B
:10056000114800471148004711480047114800470B
:1005700011480047114800471148004711480047FB
:1005800011480047114800471148004711480047EB
:100590009DBC00000DBC0000DDBB00003DBC0000A8
:1005A0006DBC0000B1AA0000757D0000857D0000D3
:1005B000957D0000A57D0000AD830000C58300008F
:1005C0009D8C0000D58C0000AD880000C98800001B
:1005D0002583000075890000002934D00123002202
:1005E00010B488422CD301242407A14204D28142B2
:1005F00002D209011B01F8E7E400A14204D28142C2
:1006000002D249005B00F8E7884201D3401A1A433E
:100610004C08A04202D3001B5C0822438C08A04275
:1006200002D3001B9C082243CC08A04202D3001B2B
:10063000DC082243002803D01B0901D00909E3E7A5
:10064000101C10BC7047002801D00020C04307B424
:10065000024802A14018029003BDC046D900000024
:100660000029F0D003B5FFF7B9FF0EBC4243891A49
:100670001847C046002941D010B4041C4C40A44681
:1006800001230022002900D54942002800D540421C
:1006900088422CD301242407A14204D2814202D2F1
:1006A00009011B01F8E7E400A14204D2814202D211
:1006B00049005B00F8E7884201D3401A1A434C080E
:1006C000A04202D3001B5C0822438C08A04202D344
:1006D000001B9C082243CC08A04202D3001BDC086C
:1006E0002243002803D01B0901D00909E3E7101CAD
:1006F0006446002C00D5404210BC7047002806D04C
:1007000003DB0020C043400801E08020000607B45E
:10071000024802A14018029003BDC0461900000023
:100720000029EBD003B5FFF7A7FF0EBC4243891A9F
:100730001847C0467047C0468446101C62468C4627
:10074000191C634600E0C0461FB501F0F9FE002801
:1007500001D40021C8421FBD10B501F029FE40425E
:10076000013010BD10B501F0EBFE002801DB0020C8
:1007700010BD012010BDC04610B501F0E1FE0028FB
:1007800001DD002010BD012010BDC04610B501F0F4
:1007900059FE002801DC002010BD012010BDC0461C
:1007A00010B501F04FFE002801DA002010BD012035
:1007B00010BDC0468446081C6146FFE71FB500F027
:1007C00049FC002801D40021C8421FBD10B500F02B
:1007D000CFFB4042013010BD10B500F03BFC0028BB
:1007E00001DB002010BD012010BDC04610B500F097
:1007F00031FC002801DD002010BD012010BDC046E5
:1008000010B500F0DFFB002801DC002010BD012046
:1008100010BDC04610B500F0D5FB002801DA00205D
:1008200010BD012010BDC046002B15D1002A13D1E8
:10083000002900D1002807D003DB0020C043410875
:1008400002E080210906002007B4024801A14018F7
:10085000029003BDE1FEFFFF03B4684601B50298B4
:1008600000F0BEF8019B9E4602B00CBC7047C0462B
:10087000002B11D1002A0FD1002900D1002802D06D
:100880000021C943081C07B4024802A14018029085
:1008900003BDC046A1FEFFFF03B4684601B5029840
:1008A00000F0BAF8019B9E4602B00CBC7047C046EF
:1008B0009C460304F0B51B0C17043F0C150C1E1CC2
:1008C000041C000C7E436B4347434543FB18300C2C
:1008D0001818874202D980235B02ED18030CED182B
:1008E00063465C434A433604360CA1180004801961
:1008F0004919F0BD9E2110B5C905041CFFF78AFFF8
:10090000002803D1201C00F091FE10BD9E21C905D6
:10091000201C00F015FD00F089FE80231B06C01886
:10092000F3E7C0460000000038B50E4B0C4A051C2A
:100930000C1CFFF717FF002804D1281C211C00F015
:1009400013F838BD80231B06E118281C00F00CF8B2
:10095000021C0B1C002150429941F2E7C046C046E0
:10096000000000000000000070B50E4B0C4A0D1C8A
:10097000041C01F063FE02F0C7FD061C02F094FCAB
:10098000094A0A4B01F05AFE021C0B1C201C291CB0
:1009900002F0E4F802F0B8FD311C70BDC046C0465C
:1009A000000000000000F03D000000000000F041E9
:1009B00070B5061C081C02F039FC084B064A01F011
:1009C0003DFE0D1C041C301C02F06EFC2B1C221C76
:1009D00000F0A8FE70BDC046000000000000F0411D
:1009E000F0B583B0161C1F1C0090019102F0ACFD05
:1009F000041C0D1C221C2B1C301C391CFFF758FF3B
:100A0000009A019B121A8B410899201C0A604B60C6
:100A1000291C03B0F0BDC046F0B583B0141C1D1CEA
:100A20000090019102F06CFF221C2B1C061C0F1C75
:100A3000FFF73EFF009A019B121A8B410899301C68
:100A40000A604B60391C03B0F0BDC046F8B54302E4
:100A50004400C50F4E024800240E2A1C9B09000EBC
:100A6000C90FB6098D425BD0221A002A00DC89E04A
:100A700000281DD1002E00D075E0580704D00F22A9
:100A80001A40042A00D004338021C90419402A1CCA
:100A900000293AD00134FF2C00D17FE09B015B0A92
:100AA0005B02E4B2E405580AD20720431043F8BDC4
:100AB000FF2CE2D08021C9040E431B2A00DD2DE16A
:100AC000311C2020D140821A9640721E96410E435E
:100AD0009B1B5801D1D59B019F09381C02F0F6FCE5
:100AE000421F974094425BDC141B1F231B1B3A1CC4
:100AF0009F40611C3B1CCA405F1EBB411343002446
:100B0000BBE7131EB9D100230022DB08FF2C04D160
:100B1000002B43D08020C00303435B025B0ABFE786
:100B2000211A002940DD002823D0FF2CA5D08020E9
:100B3000C00406431B2900DDEEE0301C2027C8401E
:100B4000791A8E40711E8E4106439B19590100D4BB
:100B500093E70134FF2C55D0714901221A400B4014
:100B60005B08134389E7013A002AB1D0FF2CA4D1D6
:100B700083E7002E00D180E701390029E5D0FF2C62
:100B8000D8D17AE7002A1BD1621CD2B2012A4BDDF0
:100B90009F1B7A0123D5F71A0D1C9EE700237FE7E0
:100BA0005F4BA41A3B4068E7002946D1611CC8B2DC
:100BB000012829DDFF2924D0F3185B080C1C5CE711
:100BC000002C13D0FF2818D08024E4045242234381
:100BD0001B2A4DDD0123F31A041C0D1C79E7002F9D
:100BE00000D07AE70023002200248EE7002B3BD0C0
:100BF000D243002AEFD0FF28EAD1331CFF240D1C7A
:100C00003BE7FF24002380E7002C5CD1002B00D1C0
:100C100080E0002E00D130E79B19580100D42CE76A
:100C20003F4A0124134028E7002C15D1002B40D166
:100C3000002E63D0331C0D1C1FE7002C21D1002B8C
:100C400054D0C943002904D0FF284CD01B2958DDBB
:100C500001239B19041C79E7002B19D1002E48D0E1
:100C6000331C0D1CFF2408E7331C041C0D1C04E777
:100C70001C1C2025D440AA1A93405A1E934123439A
:100C8000A9E7FF282FD08024E40449422343DDE76D
:100C9000FF24002E00D1F0E68022DB08D2031342AD
:100CA00004D0F608164201D1331C0D1CDB00FF24D2
:100CB000E3E6002E00D1E0E69A1B500100D420E7C5
:100CC000F31A0D1CD9E6002B0DD0FF24002E00D105
:100CD000D3E68022DB08D2031342E7D0F60816429F
:100CE000E4D1331CE2E7331CFF24C6E6331C041CAA
:100CF000C3E6802300229B04FF2406E7231C002276
:100D000003E71C1C2027CC40791A8B40591E8B41CD
:100D100023439EE7331CB0E6012616E70126D7E6FB
:100D2000FFFFFFFBF0B55F4656464D464446F0B424
:100D300046024500C00F85B00F1C760A2D0E804676
:100D400041D0FF2D26D08024240400212643F60024
:100D50007F3D89468B46F90F7C027800640A000EBD
:100D600000918A463CD0FF2834D080231B041C43CA
:100D70000023E4007F380193009F4346019A7B40A3
:100D800049469C4611430F2900D971E0764F8900EE
:100D90007F58BF46002E3ED10822022391469B4633
:100DA000D9E75A46341CC24601920199022937D02C
:100DB000032900D1CFE0012900D0ABE053460B401E
:100DC0000022002632E0002E19D10421012289469A
:100DD0009346C0E7221C531E9A4102320192CBE790
:100DE00001270197002CC7D0201C02F06FFB431F86
:100DF0009C4076235B420021181A0191BCE7301C0D
:100E000002F064FB7625431F9E406D4200232D1A9D
:100E100099469B469FE70C23032199468B469AE708
:100E2000D446012367463B40FF2200267602D205C6
:100E3000700ADB071043184305B03CBC9046994646
:100E4000A246AB46F0BD80260023F603FF22EDE765
:100E500000220026EAE78020C00306423BD004427D
:100E600039D1061C26437602760A009BFF22DDE775
:100E7000281A039076016401A64239D3361B1A2240
:100E800001230120311C5B007600002901DBB44204
:100E900001D8361B0343013A002AF3DC741EA64135
:100EA000341C1C43039A7F32002A27DD630704D0D9
:100EB0000F232340042B00D00434270103D52B4BF0
:100EC000039A1C408032FE2A0BDD012361460B4051
:100ED000FF220026AAE706437602760A4346FF224F
:100EE000A4E7A40101236746660AD2B23B409DE70E
:100EF000039F1B22013F03970023C2E77E23039F2A
:100F00005B42DB1B1B2B07DD012361460B400022EC
:100F100000268BE7D446C5E7221CDA40039B9E33AC
:100F20009C40231C5C1EA34113435A0704D00F228C
:100F30001A40042A00D004335F0105D5012361461D
:100F40000B400122002671E79E01624601231340F7
:100F5000760A00226AE78026F60326437602760A9E
:100F60005346FF2262E7C046D4040100FFFFFFF7AB
:100F70004A02430270B55C0A550A43004A001B0E40
:100F8000C60F120EC90FFF2B05D0FF2A08D0012073
:100F900093420BD070BD0120002CFBD1FF2AF6D16B
:100FA0000120002DF6D101209342F3D1AC42F1D1C2
:100FB0008E4205D0002BEDD1201C441EA041E9E754
:100FC0000020E7E74A024302F0B55C0A550A4300F5
:100FD0004A001B0EC60F120EC90FFF2B31D0FF2A7D
:100FE00034D0002B16D1604260418446002A14D0D0
:100FF000002820D18E4217D1934215DC04DBAC428D
:1010000012D80020AC4212D27042704140420123FB
:1010100018430CE0002AEDD194466F426F416046C0
:10102000002805D1002FE5D0704201231843F0BD00
:101030000020002FFBD14842484140420123184381
:10104000F5E7002CCBD002204042F0E7002DC8D0BD
:10105000F9E7C0464A024302F0B55C0A550A43006C
:101060004A001B0EC60F120EC90FFF2B27D0FF2AF6
:1010700029D0002B10D0002A15D194466F426F4121
:101080006046002815D00020002F04D14842484176
:10109000404201231843F0BD604260418446002A6B
:1010A000ECD00028F2D18E4211D0704201231843B7
:1010B000F1E7002FF7D0704201231843EBE702203D
:1010C000002CE8D1D3E70220002DE4D1D1E79342F0
:1010D000EBDC04DBAC42E8D80020AC42DBD270424F
:1010E0007041404201231843D5E7C046F0B55F4642
:1010F00056464D464446F0B44402460083B00F1CA9
:10110000640A360EC50F002E41D0FF2E22D0802358
:101110001B0400201C43E4007F3E82468046391CAD
:101120004B007F02C90F7F0A1B0E8B463BD0FF2B63
:1011300034D0802212041743FF007F3B00215A461F
:101140006A40019252460A430F2A63D87A489200B5
:1011500082589746002C3FD1082202239246984697
:10116000DDE70195404602282AD1019A0125154064
:10117000FF2300246402DB05600AED0718432843BF
:1011800003B03CBC90469946A246AB46F0BD002C4D
:1011900027D10420012282469046C0E7391C4A1E0E
:1011A00091410231CBE70121002FC8D0381C02F059
:1011B0008DF9431F9F4076235B421B1A0021BEE737
:1011C000032800D1AEE001284FD1019842461040DB
:1011D000C5B200230024CDE70C2303209A468046A5
:1011E0009DE7201C02F072F97626431F9C40764250
:1011F0000023361A9A46984691E780240025E40396
:10120000FF23B7E75B463C1C01938846AAE73C1CDA
:101210008846A7E7250C24043A0C240C3F04F61852
:101220003F0C211C231C794353436F435543FB1848
:101230000A0C9B18B1469F4202D980225202AD1877
:1012400009041A04090C521894011B0C611E8C41EC
:10125000920EED181443AD012C43230105D5012254
:1012600063080120144081441C434B467F33002B0C
:101270002DDD600704D00F222240042A00D0043460
:10128000220103D52D4B1C404B468033FE2B17DD2E
:10129000019B01251D400024FF236BE78020C00334
:1012A000044208D0074206D1041C3C436402640A8D
:1012B0005D46FF235EE704436402640AFF2359E7A7
:1012C0000198A4010125640ADBB2054052E77E23A0
:1012D0005B424A469B1A1B2B05DD019B01251D40E5
:1012E0000024002346E7221CDA404B469E339C40F4
:1012F000231C5C1EA3411343580704D00F221A403D
:10130000042A00D004335A0105D5019B01251D4054
:10131000002401232EE701989C010125640A054061
:10132000002327E78027FF03019B3C43640201253C
:101330001D40640AFF231DE714050100FFFFFFF7AE
:10134000F8B5C20F430244004D024800240E161C9B
:101350009B09000EC90FAD09FF2800D183E00127CA
:1013600079408A425CD0221A002A00DC8EE00028F4
:101370001ED1002D00D07AE0580704D00F221A4069
:10138000042A00D004338021C904012219403240CC
:1013900000293AD00134FF2C00D183E09B015B0A85
:1013A0005B02E4B2E405580AD20720431043F8BDBB
:1013B000FF2CE1D08021C9040D431B2A00DD31E15F
:1013C000291C2020D140821A95406A1E95410D4368
:1013D0005B1B5801D0D59B019F09381C02F076F8A1
:1013E000421F974094425FDC141B1F231B1B3A1CB7
:1013F0009F40611C3B1CCA405F1EBB41134300243D
:10140000BAE7131EB8D100230022DB08FF2C04D159
:10141000002B47D08020C00303435B025B0ABFE779
:10142000211A002944DD002827D0FF2CA4D08020D9
:10143000C00405431B2900DDF2E0281C2027C8401A
:10144000791A8D40691E8D4105435B19590100D4FD
:1014500092E70134FF2C59D0734901221A400B4006
:101460005B08134388E7002D00D07AE777E7013A5D
:10147000002AADD0FF2CA0D17EE7002D00D17BE764
:1014800001390029E1D0FF2CD4D175E7002A1BD106
:10149000621CD2B2012A4BDD5F1B7A0123D5EF1A01
:1014A0000E1C9AE700237BE75F4BA41A3B4063E7DF
:1014B000002946D1611CC8B2012829DDFF2924D0AA
:1014C000EB185B080C1C57E7002C13D0FF2818D032
:1014D0008024E404524223431B2A4DDD0123EB1AEE
:1014E000041C0E1C75E7002F00D076E700230022B5
:1014F00000248AE7002B3BD0D243002AEFD0FF28FC
:10150000EAD12B1CFF240E1C36E7FF2400237CE7C6
:10151000002C5CD1002B00D180E0002D00D12BE706
:101520005B19580100D427E73F4A0124134023E701
:10153000002C15D1002B40D1002D63D02B1C0E1C8C
:101540001AE7002C21D1002B54D0C943002904D024
:10155000FF284CD01B2958DD01235B19041C75E7BB
:10156000002B19D1002D48D02B1C0E1CFF2403E7A3
:101570002B1C041C0E1CFFE61C1C2026D440B21A97
:1015800093405A1E93412343A9E7FF282FD080247C
:10159000E40449422343DDE7FF24002D00D1EBE6BC
:1015A0008022DB08D203134204D0ED08154201D19A
:1015B0002B1C0E1CDB00FF24DEE6002D00D1DBE639
:1015C0005A1B500100D41CE7EB1A0E1CD4E6002B6A
:1015D0000DD0FF24002D00D1CEE68022DB08D203FF
:1015E0001342E7D0ED081542E4D12B1CE2E72B1C97
:1015F000FF24C1E62B1C041CBEE6802300229B04B2
:10160000FF2402E7231C0022FFE61C1C2027CC40FD
:10161000791A8B40591E8B4123439EE72B1CABE666
:10162000012512E70125D3E6FFFFFFFB4302590A1C
:101630004300C20F1B0E00207E2B0DDD9D2B0CDC0A
:10164000802000040143952B0ADC9620C31AD94060
:101650004842002A00D1081C7047034BD018FBE712
:10166000963B9940F4E7C046FFFFFF7F70B5041E2C
:101670003CD0C60F00D04442201C01F027FF9E231F
:10168000251C1B1A962B0CDC083884406402640A63
:10169000DBB2321C6402DB05600AD2071843104338
:1016A00070BD992B0ADD0522121A211CD1400A1C9B
:1016B000011C1B318D40691E8D411543052801DD3C
:1016C000421F9540164C2C406A0704D00F2215404B
:1016D000042D00D0043461010CD59F23181AFF2873
:1016E0001AD0A401640AC3B2321CD3E7002200233B
:1016F0000024CFE7E408FF2B04D06402640ADBB2C5
:10170000321CC7E7002C04D08020C00304436402CD
:10171000640A321CFF23BDE7321CFF230024B9E713
:10172000FFFFFFFBF8B55F46564644464D46F0B412
:101730000C034D00CE0F610A440F2143C40018036F
:1017400080465800400D8246D80F84464046400AE5
:10175000530F0343D0006D0D371C83465246664538
:1017600000D1A4E0AF1A002F00DC09E1002A3BD130
:10177000184300D0EAE0630700D187E00F2323403D
:10178000042B00D182E0221DA242A44164428023A6
:1017900009191B040B40371C141C002B00D17CE0E2
:1017A000CE4B01359D4200D105E1CD4BE4081940F7
:1017B0004807490204430B0B002000211B031A0BAE
:1017C0000B0D6D051B0513436A08C64DFF071D4031
:1017D00015436D006D08291C3943201C3CBC904604
:1017E0009946A246AB46F8BDBC488542C3D080208E
:1017F00000040343382F00DDF0E01F2F00DD24E15B
:101800002020C01B1A1C814682405846F8400243E3
:10181000944658464A469040421E9041FB406246DC
:1018200002431F1CA21A9442A4416442C91B091B13
:10183000141C0B029FD549024F0A002F00D1C8E0AB
:10184000381C01F043FE021C083A1F2A00DDB5E0F7
:101850002821091A201C9740C8400743944095420C
:1018600000DDB2E0551B691C1F2900DDDCE01F22F2
:10187000551B3B1C221CAB40CA40AC40651EAC4112
:101880001343CF401C43391C002574E780231B04FD
:101890000B40371C002B00D082E7904B4807E40830
:1018A0000443C9089D4248D009030B0B84E7AA1AD8
:1018B0009446002A00DC98E05046002852D0874821
:1018C000854200D157E78020000403436246382A4E
:1018D00000DDFCE01F2A00DD4AE120226046101AEC
:1018E0001A1C82408246914658466246D0404A467B
:1018F00002439046584652469040421E904142460E
:1019000002436046C3401219A242A44164425918DE
:101910000919141C080200D42DE7704B01359D42B3
:1019200000D122E16E4B60081940012323401C1CAA
:101930000443CB071C4349081DE7231C0B433AD043
:1019400080231B030B431B031B0B35E7013F002FB9
:1019500065D15846221A9442A4416442C91A091B0F
:10196000141C66E75846184300D104E7012252428E
:1019700094446046002800D0C5E058460219C3E7E9
:10198000002F73D1681C4005400D012800DCDEE00B
:101990005A46A21A9442BF41C81A7F42C71B380256
:1019A00000D489E05A46141BA3459241591A524269
:1019B0008F1A664641E700230024FDE6271C2838DD
:1019C00087400024954200DC4CE74549AD1A394078
:1019D000D1E6201C01F07AFD203034E75A461A4344
:1019E000531E9A41D2B200271CE7002A00D0DCE047
:1019F000681C4205520D012A00DC8DE0374DA842DB
:101A000000D1F3E05D462A19A242A441644259186C
:101A10000919CC07520814434908051CABE62F48A6
:101A2000854200D0E6E6A6E62B1C1F3B3A1CDA40B6
:101A3000131C20296CD03F22551BAF403C43601E35
:101A400084411C430021002595E6381C20381A1CCF
:101A5000C240101C202F5DD04022D71BBB405A46ED
:101A60001A43531E9A4102430027DBE6002D3BD068
:101A70001A4DAA4500D193E080252D047F422943C9
:101A8000382F00DDACE01F2F00DD29E12025ED1B04
:101A9000081C261CA840FE40AC400643651EAC4115
:101AA0003443F9405D462C1BA34592415B1A5242D8
:101AB000991A55466646BCE6131C3B43141C002B82
:101AC00000D0BAE60027002100250024E5E65A46AA
:101AD0001A43531E9A41D2B2002314E7FF070000B5
:101AE000FFFF7FFFFFFF0F800D1C254358D0FF43F2
:101AF000002F51D1041BA3459241591A5242891A11
:101B00005546664695E69648854200D0DEE632E6C2
:101B1000002793E70023A2E7081C2043002D00D0F4
:101B2000C4E0002800D1F7E05846184300D122E66F
:101B300058460219A242A441644259180919141CBA
:101B40000A0200D417E6874B0125194013E6081C4A
:101B50002043002D39D1002871D15946194303D0B3
:101B6000191C5C46664606E600270021002494E620
:101B7000604620381A1CC24060469146202800D199
:101B8000ACE04022121A93405A461A43531E9A411F
:101B90004B461A430023B6E6714DAA4500D06FE7C5
:101BA000191C5C4655466646E5E5002D22D10D1C04
:101BB000254377D0D543002D71D15C445C459241DB
:101BC0005918524289185546A4E600284DD1594665
:101BD000194300D194E0191C5C466646604DCAE585
:101BE0000C43611E8C41E4B200215BE7051C00211F
:101BF000002452E65A4DAA4554D055428022100482
:101C00000143382D00DD81E01F2D00DD92E0202210
:101C1000501B0A1C84468240201CE8400243904628
:101C200062469440601E844142461443E9405C444D
:101C30005C459241CB185242991855466AE658467F
:101C4000184300D197E55846271ABC429241C81A5A
:101C50005242801A020266D55846041BA34592419F
:101C6000591A5242891A664685E55846184333D0B8
:101C70004807E40804438020C9080003014208D053
:101C8000DD08054205D15946CA085C071443291CE2
:101C90006646630FC9001943E400314D6BE5304AD5
:101CA0009245AED1191C5C46554664E5002836D0F5
:101CB0005846184310D080254807E408C9082D036A
:101CC00004432942E5D0D8082842E2D15D46EA081B
:101CD0005C071443011CDCE7214D4CE5002353E76E
:101CE0003D1C203D0A1CEA40151C202F34D0402604
:101CF000F71BB9400C43611E8C412C430021D1E6F7
:101D000080210027C903164D0024C6E50C43611E3F
:101D10008C41E4B200218AE7191C5C462BE5191CB2
:101D20005C460F4D27E5031C3B4300D11CE7011C1B
:101D30003C1C20E52020404240190A1CC24090462D
:101D4000202D0BD04020451BA9400C43611E8C4127
:101D500045462C4300216AE70021CBE70021F4E748
:101D6000FF070000FFFF7FFFF0B5564644465F4681
:101D70004D46F0B41F1C0B031B0B98464B0087B05D
:101D8000041C81465B0DC80F161C9A460090002B60
:101D900051D06A4B9A4531D08022414652030A43C2
:101DA000630FD2001A43664B90460025E20091462D
:101DB0009A44002402953B031B0B9B46FD0F7B00BE
:101DC000311C5B0D019560D05C4A934254D0802158
:101DD000584649030143720FC9001143584A8B46C4
:101DE0009B18F1000020009A04436A4003920F2CD4
:101DF00000D9ADE0534EA4003459A74640460443F1
:101E00006ED1002102250824884689460295D2E732
:101E1000009C0298C34649460194022864D00328D6
:101E200000D1ABE2012800D038E2019A0024024040
:101E30000025A14660E0434623434AD0404600289F
:101E400000D1C0E101F042FB031E272B00DDB3E10E
:101E500028210D1A211C083B4246E9409A400D1CDE
:101E60001543221C9A40A8469146374B00251B1A61
:101E70009A46002402959EE75A4616430320002EF8
:101E8000B1D1B34600210220ADE75A4632431BD000
:101E90005B46002B00D18AE1584601F017FB27284A
:101EA00000DD7DE12822171A011C321C08395B462F
:101EB000FA408B40171C1F43331C8B40BB46191C38
:101EC000214B1B1A00208EE70027BB460021012072
:101ED00089E70020012504248046814602956AE7AF
:101EE00003250C24029566E7019C0394039D0122BF
:101EF0002A400024114DA146002000212403260B76
:101F00000C0D2405114B34432D0523402B435B005E
:101F10005B08D207191C4846114307B03CBC9046E9
:101F20009946A246AB46F0BD002280242403914688
:101F3000024DE1E700240025A146DDE7FF07000090
:101F400001FCFFFF540501000DFCFFFFFFFF0F80A8
:101F50005546ED1A0495D84500D953E100D14EE11C
:101F6000049C0025013C4E4604944746A946584629
:101F700003020C0E1C430902250C23041B0C0091C8
:101F8000381C291C0193FEF727FB01998346414326
:101F9000381C8A46291CFEF763FB330C09041943DD
:101FA0008A450CD95B460919013B8C4200D947E1AF
:101FB0008A4500D844E1022252429344091953460B
:101FC000CB1A181C291C9846FEF706FB071C019823
:101FD000291C784382464046FEF742FB36040B0438
:101FE000360C33439A4509D91B197A1E9C4200D9F5
:101FF00024E19A4500D821E1023F1B195E463204D4
:102000001743380CBB46009E009F51463F0C3204DC
:102010005B1A5946BA46120C0F043F0C90465146C3
:102020007A434F434146414356467043CF19160CFD
:10203000BE19B14202D980277F02C019310C1204A7
:102040003604120C4018B618834200D2C4E000D106
:10205000BEE0191A4846861BB145BF417F42CF1BDF
:10206000A74200D113E1291C381CFEF7B5FA0199EB
:1020700002904143381C8946291CFEF7F1FA330CC3
:102080000904194389450CD9029B0919013B8C426B
:1020900000D9FFE0894500D8FCE0029F0919023F02
:1020A00002974F46CF1B381C291C0597FEF794FA60
:1020B000071C0198291C784381460598FEF7D0FA41
:1020C00036040904360C0E43B14509D936197B1E76
:1020D000B44200D9E0E0B14500D8DDE0023F361956
:1020E000029D4946761A290439430B0457460A0CC7
:1020F0001B0C40464546584355437B437A43EB18F7
:10210000070CDB199D4202D980256D0252191D0C66
:1021100000041B04000C52191B18964235D300D141
:10212000FCE001231943049E994FF519002D00DCB2
:10213000A1E0480709D00F230B40042B05D00B1D4D
:102140008B42894149428B44191C5A46D20107D51A
:10215000904B5C46049E80271C40FF00A346F51967
:102160008D4B9D427ADD039C0122224000248B4D41
:10217000A146C1E680242403474627424CD13C4374
:102180002403240B009A854DB6E63619481EB44246
:102190005ED9011C9642C4D1009E9E42C1D1C2E7C5
:1021A000031C283B311C99408B46002188E6301CDB
:1021B00001F08CF9203072E6283B211C9940002266
:1021C0008846914651E6201C01F080F920303BE61C
:1021D0000021B14500D33DE7009F5A46B944B945B7
:1021E000BF417F423F19FB18013A9C421ED29842E0
:1021F00000D97EE000D1B5E0191A93462AE7894557
:1022000000D8ADE64846464642467708D30746081A
:10221000C0071E438146AAE65846204212D1044315
:1022200024032A1C240B89465C4D65E6A342E3D1B6
:10223000009F4F45DBD9211A93460BE7171CDDE6BB
:102240009B46BCE63C432403240B009A534D53E6C3
:10225000B24259D800D18AE0011C62E75F46C90842
:102260007B07039E0B437C026D0501229946240BDC
:102270006D0D324040E64A4B049FDB1B382B10DDCE
:10228000039C0122224000240025A14634E60121BE
:10229000494248E7029304E71F1C21E7019C03948D
:1022A00041E71F2B40DC3F48049F0C1C3A1858465E
:1022B0009140DC40904020430A1C511E8A41011C81
:1022C00011435A46DA40131C480709D00F220A402E
:1022D000042A05D00A1D8A42894149425B18111C13
:1022E0001A0234D5039C0122224000240125A14674
:1022F00002E6009F02214942B9448B44B945894115
:1023000049420919CB18A4E6009D881E6900A9421C
:10231000AD416D422C19361900913AE7002B00D0DF
:1023200033E70024009437E71F4A049C5D46121BE4
:10233000D5402A1C202B1FD01C4E5F46A3199F405E
:102340003B1C19434B1E994111430023BCE75A071C
:10235000C9080A43039F91465B0201221C0B3A40C5
:102360000025C9E54E45C4D89346002172E6009F7A
:102370009F42C9D3011C0FE70023E2E78024240316
:102380005F463C432403240B019A8946034DB3E581
:10239000FF030000FFFFFFFEFE070000FF07000035
:1023A00002FCFFFF1E040000E2FBFFFF3E040000F2
:1023B000F0B55F4656464D464446F0B40D1C041C2D
:1023C0008046E80F814618030F03000B3F0B83B0D4
:1023D00084461B48009749005E00DF0F490D924676
:1023E000760DBB4681420CD01548864210D00120A4
:1023F000B14215D003B03CBC90469946A246AB46CC
:10240000F0BD009F01202743F4D10D488642EED154
:10241000604602430120002AECD10120B142E9D1FB
:10242000009B6345E6D1D045E4D1D94506D00029CB
:10243000E0D11C43201C441EA041DBE70020D9E76B
:10244000FF070000F0B55F4656464D464446F0B4DF
:10245000CD0FDE0FAC461D032D0BB146374E0F03DB
:102460004C00AB465D0080463F0B640D92466D0DFF
:10247000B44232D0314EB54235D0002C0ED1384363
:1024800041424141081C002D0BD0002919D1CC45F7
:102490002DD0654668420123184318E0002DF6D17F
:1024A000281C59460A4353425341002806D1002BA9
:1024B000EDD0634658420123184308E00020002B6A
:1024C00005D14A46504250414042012318433CBC8A
:1024D00090469946A246AB46F0BD3E1C0643C9D085
:1024E00002204042F3E75E461643C6D0F8E7AC420E
:1024F00007DC0BDA61464842484140420123184359
:10250000E5E76646704201231843E0E75F450AD8D5
:102510000ED000205F45DAD26546684268414042ED
:1025200001231843D3E76246504201231843CEE704
:10253000D045F8D80020D045EED3C8E7FF0700000B
:10254000F0B556464D4644465F46F0B40D1C83B088
:10255000041C0190E80F814618030F03000B3F0B8A
:1025600084463548009749005E00DF0F490D9246CA
:10257000760DB846814234D02F48864236D00029A5
:1025800018D0002E1FD1341C67463A4353425341A2
:10259000002C1FD00020002B05D142465042504154
:1025A00040420123184303B03CBC90469946A246E2
:1025B000AB46F0BD0098044360426041041C002E0D
:1025C000E2D00028E9D1C14515D04F467842012319
:1025D0001843E8E7002BF6D04B4658420123184336
:1025E000E1E7009F02202743DDD1C5E767460220CF
:1025F0001743D8D1C3E7B14204DD4A465042012314
:102600001843D0E7B14207DB00986045E4D80AD010
:10261000009F00206745C6D24F467842784140422D
:1026200001231843BFE7019A5245D5D8019A0020EB
:102630005245F1D3B7E7C046FF070000F0B5564654
:1026400044465F464D46F0B41F1C0B031B0B9A46D5
:102650004B0087B0041C80465B0DC80F161C02930C
:102660008146002B68D0694B0299994232D0802272
:10267000534652031A43D200630F1A439246644AE8
:10268000E000891880460291002400253B031B0BC3
:102690009B467800FB0F321C400D039300D175E080
:1026A0005A4B984269D08022594652030A43730F0D
:1026B000D2001A43564B9346C018F20000230399E8
:1026C0004E4671401C430F2C00D9A9E0514EA40086
:1026D0003459A74653461C4300D087E00025AA463C
:1026E000A84608240225D1E74946022D6CD0032DC7
:1026F00000D117E2012D00D058E10D40EDB20024C9
:10270000A9460023A0460020002125030A0D1C0530
:102710002D0B1205404B2A43134023435B004C46CC
:102720005B08E207191C4046114307B03CBC9046C9
:102730009946A246AB46F0BD5346234350D053467C
:10274000002B00D184E1504600F0C0FE031E272B71
:1027500000DD76E128210D1A211C083B5246E94094
:102760009A400D1C1543221C9A40AA4690462B4BBA
:1027700000241B1A0293002588E75B461E430323AF
:10278000002E9CD1B3460022022398E75B463343D8
:1027900021D05846002800D14EE100F097FE2728AE
:1027A00000DD42E128210F1A021C311C083A5B4669
:1027B000F94093400F1C1F43331C9340BB461A1C27
:1027C000164B181A00237AE701230B400024994680
:1027D000A0460E4B97E70027BB46002201236EE779
:1027E000002104248A46884601254FE70C2403254E
:1027F0004CE700258024A9462403A846034B82E722
:10280000DA46904603991D1C6FE7C046FF0700009B
:1028100001FCFFFF94050100FFFF0F800DFCFFFF8F
:10282000029F160C381804904046070C0004000C58
:102830001204120C031C5343041C3D1C74435543E7
:1028400098463B1C73436419A44644460293230CE8
:1028500063449D4204D9029D802464022D1902958F
:102860001D0C039545462C041B04240C1C190594CF
:102870005C46230C051C58432404240C8446381C55
:10288000604365435F438146CC44280C6044BB46AB
:10289000814502D980277F02BB442D04070C2D0CF3
:1028A000000440195546BC462F04E3448446280CD6
:1028B0003D0C2F1C5743B8462F1C77434243B94663
:1028C00047463F0C9144BA46D14446434A4502D953
:1028D00080225202B6184F463A0CB6183A044746C0
:1028E0003F043F0CB8462F1C67435D4344435843A5
:1028F00065190190380C2D184244B846AC4204D9F1
:10290000019880235B02C0180190039C029F201C49
:102910006044C0196045A44147466442A4462B0464
:102920003C049946240C4C44A046D8448018C24626
:10293000E24490429241574652429146F219E24592
:10294000BF417F424B46BC46D845BF41D4187F4269
:1029500063461F432D0C7F19B24292414C45AD4155
:1029600052426D421543019E7D19AB19E20D5B0287
:10297000059F134342023A439A46531E9A41C30DA0
:10298000101C18436402204380465046C0010DD5F8
:10299000454601225646049C6B082A401A43F30719
:1029A00001341A43760804949046B246049E634F5D
:1029B000F319002B61DD404640070BD00F2244463F
:1029C0002240042A06D04246043242458041404219
:1029D000824490465546ED0107D5594B5646049F13
:1029E00080201E40C000B2463B18564A934200DD8C
:1029F000EAE644465546E2086807104301226C02A5
:102A00005B050A408046240B5B0D91467BE6DA4667
:102A100090461D1C69E680242403574627421CD19A
:102A20003C432403240B484B6DE6031C283B311C1C
:102A300099408B460022C3E6301C00F047FD203051
:102A4000ADE6283B211C994000228A4690468EE63E
:102A5000201C00F03BFD203078E65846204207D18C
:102A6000044303992403240B89469046364B4AE6D7
:102A70003C432403240B344B45E6344B049E9B1B00
:102A8000382B06DD01230B4000249946A046002385
:102A900039E61F2B25DC049C2D4D46466019524615
:102AA00044468640DC4082405746301C2243DF408B
:102AB000441EA04102433B1C540709D00F20104084
:102AC000042805D0101D9042924152429B18021CCE
:102AD0001D021AD501230B4000249946A04601236C
:102AE00011E61C48049C5546001BC540281C202BA1
:102AF00016D0194E5746A21997403A1C43461A431E
:102B0000531E9A4102430023D6E758075B02D208BE
:102B10001C0B01230B401043994680460023F2E52D
:102B20000022EBE78024240350460123044319408C
:102B30002403240B8946044BE5E5C046FF0300004F
:102B4000FFFFFFFEFE070000FF07000002FCFFFF83
:102B50001E040000E2FBFFFF3E040000F8B55F46E4
:102B6000564644464D46F0B40C034D00CF0F610A63
:102B7000440F2143C4001803DE0F8046B446464686
:102B80005800760A530F3343D600D14A6D0DBA462A
:102B9000400DB346904200D1F5E0624601267240F6
:102BA0009446674500D1ABE02F1A002F00DC11E1FD
:102BB00000283ED15846184300D0F1E0600700D10C
:102BC00097E00F232340042B00D122E1221DA242D3
:102BD000A4416442802309191B04012750460B407D
:102BE0000740141C002B00D179E0B94B01359D4200
:102BF00000D10BE1B74BE4081940480749020443F0
:102C00000B0B002000211B031A0B0B0D6D051B0580
:102C100013436A08B04DFF071D4015436D006D0852
:102C2000291C3943201C3CBC90469946A246AB4621
:102C3000F8BDA7488542C1D0802000040343382F47
:102C400000DDFDE01F2F00DD31E12020C01B1A1C3C
:102C50005E468240FE40324394465A468240101CF3
:102C6000421E9041FB40624602431F1CA21A94423E
:102C7000A4416442C91B091B141C0A029ED54902C7
:102C80004F0A002F00D1D6E0381C00F01FFC021CB8
:102C9000083A1F2A00DDC3E02821231C091A9740A7
:102CA000CB401F439440954200DDC0E0551B691C9A
:102CB0001F2900DDEAE01F22551B3B1C221CAB40F4
:102CC000CA40AC40651EAC411343CF401C43391C85
:102CD000002573E780217E4D0027C90300247C4B2B
:102CE0004807E4080443C9089D4250D009030B0B70
:102CF00087E780231B04012752460B40174071E7EA
:102D00002A1A9446002A00DCA1E0002854D070481A
:102D1000854200D152E780200004034360463828F2
:102D200000DD0EE11F2800DD57E162462020801AF9
:102D30001E1C8640B1465E46D6404A4632435E4639
:102D400086409046301C421E9041424602436046F7
:102D5000C3401219A242A441644259180919141C13
:102D6000080200D42AE75A4B01359D4200D131E1D7
:102D7000584B60081940012323401C1C0443CB0717
:102D80001C4349081AE71E4300D00AE705E7231C45
:102D90000B433BD080231B030B431B031B0B30E770
:102DA000013F002F6DD15E46A21B9442A4416442B4
:102DB000C91A091B141C60E75846184300D1FDE6E8
:102DC00001267642B4446046002800D0D0E05E463A
:102DD0003219BFE7002F00D080E0681C4005400D8D
:102DE000012800DCE8E05A46A21A9442BF41C81A02
:102DF0007F42C71B3E0200D498E05846041BA345FF
:102E00009241591A52428F1AE2463AE700230024AF
:102E1000F7E680231B04012756460B403740E1E6C6
:102E2000271C283887400024954200DC3EE72949CA
:102E3000AD1A3940C2E6201C00F048FB203026E7DE
:102E40005A461A43531E9A41D2B200270EE7002A6F
:102E500000D0DEE0681C4605760D012E00DC90E017
:102E60001B4DA84200D1F5E05E463219A242A441B2
:102E7000644259180919CC07520814434908051C23
:102E80009CE61348854200D0D9E697E62B1C1F3BF1
:102E90003E1CDE40331C20296FD03F22551BAF4023
:102EA0003C43601E84411C430021002586E6381CFB
:102EB00020381E1CC640301C202F60D04022D71B5B
:102EC000BB405A461A43531E9A4102430027CDE69F
:102ED000FF070000FFFF7FFFFFFF0F80002D37D0AF
:102EE000B64DA84200D18FE080252D047F422943B2
:102EF000382F00DDA8E01F2F00DD24E12025ED1B89
:102F00000E1CAE40B046261CFE404246AC40164366
:102F1000651EAC413443F9405A46141BA345924107
:102F20005B1A5242991A051CE246A6E6131C3B4363
:102F3000141C002B00D0A4E600270021002500244B
:102F4000CDE65A461A43531E9A41D2B2002300E7F7
:102F50000D1C254358D0FF43002F51D15A46141B56
:102F6000A3459241591A5242891A051CE24684E649
:102F70009248854200D0D1E620E6002790E7002362
:102F80009FE7081C2043002D00D0C2E0002800D19C
:102F9000EFE05846184300D110E658460219A24205
:102FA000A441644259180919141C0A0200D405E608
:102FB000834B0125194001E6081C2043002D38D120
:102FC00000286FD15946194303D0191C5C46E246CC
:102FD000F4E500270021002481E6604620381A1C11
:102FE000C2406646101C202E00D1AAE04022921B4F
:102FF00093405A461A43531E9A4102430023A8E6BF
:103000006E4DA84200D073E7191C5C46051CE246D1
:10301000D4E5002D22D10D1C254376D0D543002DBB
:1030200070D15C445C459241591852428918051C84
:1030300096E600284CD15946194300D14AE6191C9E
:103040005C46E2465D4DB9E50C43611E8C41E4B23D
:10305000002161E7051C0021002440E6574DA842ED
:1030600053D05542802216043143382D7BDC1F2D6E
:1030700000DD8CE02022561B0A1CB446B240261C00
:10308000EE403243904662469440661EB44142464A
:103090001443E9405C445C459241CB185242991874
:1030A000051C5DE65846184300D187E55E46A71B20
:1030B000BC429241C81A5242801A060260D5584654
:1030C000041BA3459241591A5242891AE24675E5FA
:1030D0005846184333D04807E40804438020C90801
:1030E0000003014208D0DD08054205D15946CA084F
:1030F0005C071443291CE246630FC9001943E4002E
:103100002E4D5BE52D4A9042AFD1191C5C46051C43
:1031100054E5002830D05846184310D08025480781
:10312000E408C9082D0304432942E5D0D808284201
:10313000E2D15D46EA085C071443011CDCE71F4D41
:103140003CE5002355E73D1C203D0E1CEE40351CA0
:10315000202F2ED04026F71BB9400C43611E8C4116
:103160002C430021D8E60C43611E8C41E4B20021BF
:1031700090E7191C5C4621E5191C5C460F4D1DE5C6
:10318000031C3B4300D124E7011C3C1C16E5202610
:10319000764276190A1CF2409046202D0BD040262C
:1031A000751BA9400C43611E8C4145462C430021F0
:1031B00070E70021D1E70021F4E7C046FF070000D7
:1031C000FFFF7FFF70B50B1C124C09030E0B59005B
:1031D000021C490DDD0F0020A14211DD0E48814285
:1031E0000FDC8020400306430C48401A1F280BDDEB
:1031F0000B4A521AD640321C5042002D00D1101CEE
:1032000070BD084BE818FBE7074BC240C9188E4059
:103210003243F1E7FE0300001D0400003304000008
:1032200013040000FFFFFF7FEDFBFFFFF8B5041E56
:1032300031D0C70F00D04442201C00F047F9184D90
:103240002D1A0A2819DD0B38844024036D05240B40
:103250006D0D3A1C0026002000210B0D2403240BC9
:103260001B0523430F4C2D051C402C4364006408B0
:10327000D307211C301C1943F8BD061C1536231C2E
:10328000B3401E1C0B23181AC44024036D05240BE5
:103290006D0D3A1CDFE70022002500240026DAE746
:1032A0001E040000FFFF0F8010B5041E28D000F0A0
:1032B0000DF9154A121A0A2815DD0B38844024032B
:1032C0005205240B520D0023002000212403181C5A
:1032D0000B0D240B1B0523430C4C12051C401443FF
:1032E0006400610810BD031C1533211C99400B1CA0
:1032F0000B21081AC44024035205240B520DE3E7A6
:10330000002200240023DFE71E040000FFFF0F80DF
:1033100043001B0E5A1C4102D2B270B54C0AC50FB5
:10332000012A17DDE02292006407090B9818002299
:1033300000231E0D221C34050C431B494005400888
:103340002140014349004908ED070B1C2B43101C89
:10335000191C70BD002B15D1002C1CD0201C00F0B6
:10336000B5F80A281ADC0B21091A231CCB40191CBA
:10337000031C15339C400D4B0903181A4005090B1B
:10338000400DD4E7002C03D06407090B0848CEE7B2
:1033900007480021CBE700200021C8E7011C0B39BA
:1033A0008C40211C0024E6E7FFFF0F80890300000A
:1033B000FF070000F0B54B000D03420F5B0D6D0AD7
:1033C00015435A1C5205CC0FC600520D012A27DDA9
:1033D000394FDA19FE2A1ADC002A35DD8001ED00AA
:1033E000431E98412843760F3043430704D00F23F0
:1033F0000340042B00D004308021C904014027D0B1
:103400000132FF2A1DD083015B0AD1B201E0FF2106
:1034100000235802C905400AE40708432043F0BDD1
:10342000002B06D1354311D10021002043025B0A55
:10343000EFE72E43EBD08020ED0080042843FF22ED
:10344000D3E7FF210023E4E717320DDA052000223D
:10345000C008D1B2FF2AE9D10028D9D08023DB03EC
:1034600003435B025B0AD4E780221449120415432C
:10347000C91A1F290DDC124A371C9B18281C9F40B3
:1034800098403B1C5A1E93411843CE4030430022C3
:10349000ABE70C4F2A1CFF1AFA40171C202909D051
:1034A000094A98188540281C3043461EB0413843CD
:1034B00000229AE70020F7E780FCFFFF9E03000050
:1034C00082FCFFFF7E030000A2FCFFFF1C21012302
:1034D0001B04984201D3000C10391B0A984201D3F7
:1034E000000A08391B09984201D30009043902A2D5
:1034F000105C40187047C04604030202010101013C
:10350000000000000000000038B50E4B0C4A041CFF
:103510000D1CFDF745F9002804D1201C291CFFF7DC
:1035200051FE38BD074B064A201C291CFFF716FB2D
:10353000FFF748FE80231B06C018F2E7C046C046CE
:10354000000000000000E041F0B544465F465646EA
:103550004D46F0B41C1C85B0002900DADBE00F1CDE
:103560000021061C8A46101C191C002C00DAC9E038
:103570000196009089468046002951D1B84200D872
:1035800071E0FFF7A3FF002809D020234546311C36
:103590001B1A85408740D940A8460F4386404246C3
:1035A000150C13041B0C291C381C9B46FDF714F842
:1035B0005B464343041C291C381C9946FDF750F810
:1035C000330C08041843814509D94044631E8045E3
:1035D00000D978E1814500D875E1023C4044494674
:1035E000411A8946081C291CFCF7F6FF5A4642433B
:1035F000071C291C48469346FDF732F83604090497
:10360000360C0E43B34507D946447B1EB04502D85D
:10361000023FB34500D81F1C24042743002403E0C5
:10362000B94211D9002400275246381C211C002A17
:1036300003D03B1C00215842A14105B03CBC904640
:103640009946A246AB46F0BD081CFFF73FFF041E9B
:1036500000D0BFE0B94500D242E1019D0099071CAE
:103660008D424741E0E7002804D101200021FCF70A
:10367000B3FF80464046FFF729FF002852D141465C
:1036800044460B043C1B1B0CA3460D0C0093012469
:10369000291C5846FCF7A0FF009F81464743291C80
:1036A0005846FCF7DDFF330C090419438F4208D953
:1036B0004B464144013B884502D88F4200D91AE16C
:1036C0009946C91B8B46081C291CFCF785FF009BEB
:1036D000291C4343071C58460093FCF7C1FF3604DE
:1036E000009D0904360C0E43B54207D946447B1EA3
:1036F000B04502D8023FB54200D81F1C49460E040F
:10370000374391E75246D243031C0C1C92460021DA
:103710005842A1412CE7002746428F4101214942EE
:103720008A4620E720231B1A4246351C82403C1C57
:10373000DD40DC4087402B1C150C3B43291C864098
:10374000201C009317049046FCF746FF3F0C011C19
:10375000794381468B46201C291CFCF781FF009C85
:103760000904230C19438B450CD94B464144013BBA
:10377000884500D9BDE08B4500D8BAE0022252420C
:10378000914441445C460C1B201C291C0194FCF70D
:1037900023FF391C4143041C8B460198291CFCF76C
:1037A0005FFF009A090413041B0C19438B4509D9C8
:1037B0004144631E884500D997E08B4500D894E0CA
:1037C000023C41445B46CB1A49469B460B041C43D2
:1037D00000975DE7009D20231B1A4A468240DD408A
:1037E0001543391C009AD94082408846311C00920A
:1037F000D9403A1C82400B1C134301932F0C2B041D
:103800001B0C391C40460293FCF7E6FE029A8146E7
:103810004243391C40469346FCF722FF019A0904B3
:10382000130C19438B450AD94B464919013B8D426C
:103830005DD88B455BD902235B42994449195A46AE
:103840008A1A101C391C0392FCF7C6FE029B8046A4
:103850004343391C03989B46FCF702FF019A090475
:1038600013041B0C19438B450AD943464919013BE4
:103870008D4238D88B4536D902235B42984449198A
:103880005D464D1BAB464946009D0F04424617431B
:103890002A04120C3B042D0C1B0C380C111C594330
:1038A00042436B436843D3180D0C5B198C469A4214
:1038B00002D98022520280181D0C401983450CD376
:1038C00003D00024B0E61C1C89E665462A041B04CC
:1038D000120C9B18A6409E42F3D2013F0024A3E69F
:1038E00000240127A0E69846CAE71C1C6AE799460F
:1038F000A5E7994646E70222524291444144E0E658
:10390000F0B55F4656464D464446F0B40D1C85B0B2
:10391000061C924698460290019103921F1C141CAB
:103920008346A946002B59D1AA4269D9101CFFF73A
:10393000CDFD00280AD020231B1A311CD940854018
:103940000B1C2B43864084409946B346250C230428
:103950001B0C291C48469846FCF73EFE4646071CB1
:103960004643291C4846FCF77BFE5A460904130CC3
:1039700019438E4209D909197B1E8C4200D957E19F
:103980008E4200D854E1023F0919891B8946081C60
:10399000291CFCF721FE43464343061C291C4846CC
:1039A0009846FCF75DFE5A46130409041B0C1943A4
:1039B000884508D90919731E8C4200D936E1023EA8
:1039C000884500D832E1380430430027391C05B05F
:1039D0003CBC90469946A246AB46F0BD019A934244
:1039E00062D8181CFFF772FD041E60D1019B9F4234
:1039F00000D22CE1029F03998F4260410027E5E746
:103A0000002A04D101200021FCF7E6FD041C201C43
:103A1000FFF75CFD002800D0B9E023042D1B1B0C30
:103A2000A946260C98460127311C4846FCF7D4FDD0
:103A300041464143051C8A464846311CFCF710FEAE
:103A40005A460804130C1843824507D900196B1E07
:103A5000844202D8824500D910E11D1C5346C31A86
:103A6000181C311C9A46FCF7B7FD4146414381467C
:103A700088465046311CFCF7F3FD5A4613040904EE
:103A80001B0C194388450BD94B460919013B8C4245
:103A900000D9CFE0884500D8CCE002235B429944AE
:103AA00028044946084391E7002700208EE7202399
:103AB0001B1A424657468240DF4017435246824017
:103AC0000192321CDA40291CD9408540131C2B433B
:103AD00002933D0C3B041B0C8846081C291C9A468B
:103AE000FCF77AFD534643438146291C40469B46DA
:103AF000FCF7B6FD029A0904130C19438B4506D94D
:103B00004B46C919013B8F4200D8ABE099465A4653
:103B10008A1A101C291C9346FCF75EFD534643434A
:103B2000291C804658469A46FCF79AFD029A0904D9
:103B300015042D0C29438A4506D94346C919013B72
:103B40008F4200D886E098465746CF1BBA46494672
:103B5000019F0804424610433D042D0C03043F0C12
:103B60001B0C020C291C594355437B437A43EB1829
:103B70000F0CDB198C469D4202D980277F02D21997
:103B80001D0C521992455FD356D000271EE7202303
:103B90001B1A311C2F1CD940DF4085400B1C844070
:103BA0002B4386400193B3462304260C1B0C381C80
:103BB000311C9846FCF710FD42464243051C311C5F
:103BC000381C9146FCF74CFD019F09043B0C19433E
:103BD000894507D909196B1E8C424DD889454BD9A7
:103BE000023D09194A468A1A101C311C9246FCF7FC
:103BF000F3FC43464343071C311C50469946FCF7EF
:103C00002FFD019A090413041B0C1943894507D998
:103C100009197B1E8C422DD889452BD9023F0919E1
:103C20004B46CB1A2D0499462F43FDE61E1CCAE6CF
:103C30001F1CAAE6994633E761460A041B04120CCE
:103C40009B18A6409E42A0D201380027BEE600275E
:103C50000120BBE68A4500D875E702235B42984401
:103C6000C91971E78B4500D850E702235B4299449C
:103C7000C9194CE71F1CD3E71D1CB3E7023D00190F
:103C8000ECE6C04608B5094A094BD058094901403D
:103C90008020C0040143D15003F092FD031C06486C
:103CA000E1214902022203F00BFB08BD0070044031
:103CB00004100000FFFFFFF30040054000B585B091
:103CC00002A80D49083106220AF046FC00236A4684
:103CD000137080235B0201930849094B094AD150B4
:103CE00002A803F0E9FD684603F00EFD064A074B03
:103CF0001A6005B000BDC046B804010000000710FE
:103D00004410000000700440006CDC0210E0FF1F53
:103D100038B506F0FDFE184B5968184A1140596035
:103D200099681140996016494868104048601549E3
:103D3000886F104088675869104080214900084307
:103D400058619869104008439861D869024011434E
:103D5000D9610D4D0D4C281C0521221C04F0E6FAFA
:103D6000281C0621221C04F0E1FA281C0721221C31
:103D700004F0DCFA38BDC04600B00440FFF8FFFF95
:103D800000A0044000D0044080F00F40D4050100A2
:103D9000F0B585B0041C0D1C00264D4F8DE0E323CB
:103DA000DB007343DB5D002B00D185E0E323DB0008
:103DB0007343474A9B5C012B31D1E323DB00734300
:103DC000D3181A695B69AB4276DC01D1A24273D881
:103DD0000122404B1A70E323DB0073433C4AD318A3
:103DE0001B7A002B06D0E323DB007343D3189C61BE
:103DF000DD610EE0E323DB0073433549C918CB686E
:103E0000029300220392029A039B12196B418A616A
:103E1000CB61E322D200724302212D4BD154E32324
:103E2000DB0073432A4AD3189A69DB69AB4243DC4F
:103E300001D1A24240D8E321C9007143244B591853
:103E40000C624D62CB68009300220192009A019BA4
:103E500012196B418A61CB611E4B1B78002B04D178
:103E6000E222D2008B1801221A701B4B1B78002B08
:103E700022D11A4B1A6881218A431A600C2003F060
:103E8000E3FC0021C8220023FCF712FD0F4B0E4A71
:103E9000FCF7EEFC002806D111482621FF31114A1B
:103EA000114B03F065FD01380C4B98601A688021B6
:103EB0008A4301210A431A600136012E00DC6EE7B5
:103EC00005B0F0BDC046C0460040420F00000000F3
:103ED00028E2FF1FD8070020EC0700200000044064
:103EE000140601005009010054060100C046C046F6
:103EF000F8B54F464646C0B4BB4B196880220A430A
:103F00001A601A6881218A431A60B84B1B78DBB2A9
:103F1000072B01D900F073FC9B00B54AD3589F468C
:103F20002922B44B1A80B44B1A8892B2B34B1A8030
:103F30001A8892B2B24C201C002103F085FD212387
:103F4000E15C80220A43E2540023AE4A1370AE4A79
:103F50001360AE4A1360AE4A1360AE4A1360AE4AB5
:103F6000136080210902AD4A1160AD4A1169AD4A62
:103F70001160AD4A80219160202151604021916003
:103F8000AA4A1370AA4A1370984B1A780132D2B217
:103F90001A700C2003F058FC0021904B8E4AFCF75D
:103FA00087FC8F4A8F4BFCF763FC002806D1A148A1
:103FB0002621FF31A04AA14B03F0DAFC01388A4BDD
:103FC00098601A6880218A4301210A431A6000F030
:103FD00016FC9B4A0F2313609A48002103F08EFAC7
:103FE000824B1A780132D2B21A7000F008FC964B5C
:103FF0001B688A4A136080221202D21A1209802199
:104000000901521892B27C4B1A801A8892B28F4BD7
:104010009A4203D980221201774B1A80764B802274
:1040200012011A801A889B32FF3292B2734B1A80A7
:104030001A8892B27248002103F006FD80227A4B62
:104040005A606A4B1A780132D2B21A700C2003F00F
:10405000FBFB002128220023FCF72AFC604A614B6D
:10406000FCF706FC002806D172482621FF31724A6F
:10407000724B03F07DFC01385B4B98601A6880211D
:104080008A4301210A431A60B9E36D4A0F23136082
:104090006C48002103F032FA02226D4BDA60534B78
:1040A0001A780132D2B21A700C2003F0CDFB002135
:1040B00032220023FCF7FCFB494A4A4BFCF7D8FBB1
:1040C000002806D15B482621FF315B4A5B4B03F099
:1040D0004FFC0138444B986091E38022524B9A6028
:1040E000484B1B78DBB22B2B25D9464B1B78DA07C4
:1040F0000CD5464B1968544A12688A181A60454B09
:104100001968544A12688A181A600BE03E4B196805
:104110004D4A12688A181A603D4B19684D4A126858
:104120008A181A60474B1A694B4B1A603A4B196848
:104130008A181A60BAE0334B1B78002B23D1374B17
:104140001A68464BD218404B1B689A4208D2364A2E
:104150002021916040219160314A9169314A11607A
:104160002E4A12683E495218934208D22E4B202202
:104170009A6040225A602A4B5A692A4B1A602922B7
:104180001C4B1A8092E01F4B1B78DA076CD5234B2F
:104190001A68344BD2182C4B1B689A4204D9154A22
:1041A0001188293189B211801C4A12682D49521890
:1041B000934200D87AE00F4B1A88293A92B21A80BB
:1041C0002B21104A11701B889BB2002B6ED101224B
:1041D000174B1A706AE0C046F401000000000000AE
:1041E0000040420F0000000000000440EC070020E7
:1041F000D805010034080020C4070020A4070020CF
:1042000000F00340DE070020F4070020080800202B
:10421000AC07002068080020D4070020E407002035
:104220003808002004E0FF1F80F00F401CE2FF1F51
:1042300058F0FF1F14060100500901005406010048
:104240002408002000B003402C080020980800003B
:1042500000F00F400C080020B4070020C3F5FFFF5A
:104260009A99FFFFCC4C0000AD4B1A68AD4BD218A9
:10427000AD4B1B689A4204D2AC4A1188293189B2ED
:104280001180A74A1268A749521893420ED2A74B31
:104290001A88293A92B21A802B21A54A11701B88DC
:1042A0009BB2002B02D10122A24B1A709F4B1A889D
:1042B00092B2A14B9A4202D91A1C9C4B1A809F4B76
:1042C0001A8892B29E4B1A801A8892B29D48002199
:1042D00003F0BAFB0C2003F0B7FA00218D4B8C4A97
:1042E000FCF7E6FA8C4A8D4BFCF7C2FA002806D19F
:1042F00095482621FF31954A954B03F039FB01384B
:10430000944B98601A6880218A4301210A431A60FD
:10431000874A13780133DBB213706B2B07D906225F
:104320008D4B1A708D4B1A6801321A6067E20522B4
:10433000894B1A7063E27E4B1B78DA0708D57F4BF6
:104340001A887A4B1B88D21A92B27D4B1A8007E0EA
:104350007A4B1B88754A1288D21892B2784B1A8011
:10436000774B1A8892B27748002103F06DFB8022C8
:104370007B4B5A606E4B1B78DBB22B2B18D90C2071
:1043800003F062FA002128220023FCF791FA624A26
:10439000624BFCF76DFA002806D16B482621FF31ED
:1043A0006A4A6B4B03F0E4FA01386A4B986017E0F5
:1043B0000C2003F049FA002132220023FCF778FA9E
:1043C000554A564BFCF754FA002806D15E48262180
:1043D000FF315E4A5E4B03F0CBFA01385D4B9860CB
:1043E0005C4B1A6880218A4301210A431A60032228
:1043F000594B1A7003E25B4B1A6852111A605A4A01
:10440000116849111160594A116849111160584ADF
:10441000116849111160574A116889111160564994
:10442000564A11603E4A12681B68D31A832B30DD4E
:10443000534B1F683A4E30684B4B1B68C01AFEF74F
:10444000F5FE041C0D1C474B18683368C01AFEF7B4
:10445000EDFE021C0B1C201C291CFDF785FC041C16
:104460000D1C381CFEF754FF221C2B1CFEF7E6F82F
:10447000FEF7A0FF434B186018680021FCF7ACF969
:10448000002809D0404A3F4B1A6000223B4B1A607B
:1044900002E00022394B1A60344B1A68204B1B682B
:1044A000D31A832B74DD364B1F681D4E3068304B9A
:1044B0001B68C01AFEF7BAFE041C0D1C2B4B1868B3
:1044C0003368C01AFEF7B2FE021C0B1C201C291C0C
:1044D000FDF74AFC041C0D1C381CFEF719FF221CBA
:1044E0002B1CFEF7ABF8FEF765FF284B1860254B39
:1044F00018680021FCF770F900284CD0224A234BA1
:104500001A6000221D4B1A6045E0C046C046C046F6
:104510002C010000000000000040420F00000000DD
:10452000E407002034B3FFFF2C08002034080020EB
:10453000DE07002058F0FF1F66060000C4070020B9
:10454000A407002000F003401406010050090100F8
:104550005406010000000440EC070020A0070020E2
:1045600080F00F40F4070020AC070020080800206E
:1045700068080020D407002000007A4420080020AA
:1045800004E0FF1FE0070020C0D8274B04080020EC
:104590000022AD4B1A60AC4B18680021FCF716F9ED
:1045A00000280BD1A94B1868A94B1968FCF74EFAE3
:1045B000011CA848FCF7B6FBA34B1860A64DA24C03
:1045C0002168E869FCF792FD2060A86A2168FCF781
:1045D0008DFD20602068A149FCF712F900280ED05B
:1045E000286A2168FCF782FDFE218905FCF72EFA76
:1045F0009B4B186020681968FCF778FD2060994B88
:104600001B78002B02D0984A8F4B1A60974B1B786F
:10461000DBB2032B2DD8964C20688B4B1968FCF726
:1046200015FA2060914B1A780132D2B21A7000222A
:10463000904B1A700C2003F007F90021734B724A5B
:10464000FCF736F9724A734BFCF712F9002806D1D1
:1046500089482621FF31894A894B03F089F90138BD
:10466000884B98601A6880218A4301210A431A60A6
:10467000C5E007227F4B1A700C2003F0E5F80021FB
:10468000624B614AFCF714F9614A624BFCF7F0F89F
:10469000002806D178482621FF31784A784B03F06C
:1046A00067F90138774B98601A6880218A430121A5
:1046B0000A431A60A3E06E4F3868FA218905FCF7B7
:1046C00015FD614B98461860634B5B6A99466E4EC8
:1046D0003068FEF7ABFD041C0D1C336880204002DF
:1046E000C01AFEF7A3FD021C0B1C201C291CFDF7A1
:1046F0003BFB041C0D1C4846FEF70AFE221C2B1C2B
:10470000FDF79CFFFEF756FE604E30603068FEF706
:10471000FFFD0AF099F8404A404BFDF78FFF404AF1
:10472000404BFCF7FFFF041C0D1C3068FEF7F0FD4A
:104730000AF08AF83C4A3D4B0AF00EF93C4A3D4BE0
:10474000FDF77CFF021C0B1C201C291CFCF7EAFF58
:10475000021C0B1C38483949FDF706FB384A394B17
:10476000FEF7FCF9FEF726FE306030684849FCF79A
:10477000BDFC09F075FF4649FCF7D4FA42461668BD
:10478000444B1968FCF7DCFD434B1968FCF7AEFCA1
:10479000FEF7BEFD284A294BFCF7C4FF041C0D1C84
:1047A000301CFEF7B5FD221C2B1CFDF7DDFAFEF7D1
:1047B00001FE3A4B186000242E4B1C70384D20230C
:1047C0006B604023AB60374B1A8892B2364B1A802D
:1047D0001A8892B2354E301C002103F035F921239E
:1047E000F15C80220A43F2548023AB601F4B1C70A3
:1047F00000233B6001222E4B1A702E4B1C700CBC08
:1048000090469946F8BDC046F40100000000000043
:104810000040420F00000000F7D82B6663A92E3F2E
:10482000E3B59E633885523F000000000000084059
:10483000A4D9AB17A3B8773E000000000000F03FFA
:10484000666666666612714020080020E007002058
:10485000040800200024F449380800200000FA442D
:1048600008E0FF1F58F0FF1F0050C346ED0700206F
:10487000C8070020EC0700201406010050090100C1
:104880005406010000000440D40700206C080020FA
:1048900000002041B0070020A8070020F0070020FA
:1048A00080F00F40C4070020A407002000F0034060
:1048B0001CE2FF1FD807002008B50222184BDA605F
:1048C000184B1B680F2B0AD117480269174B1A6047
:1048D000144A09231360002102F010FE1EE0092B88
:1048E0000AD111480269124B1A600E4A0B23136059
:1048F000002102F003FE11E00B4B1A690D4B1A6008
:104900000D4B1A6880218A4301210A431A600B4B20
:104910001A8892B20A48002103F096F808BDC046F2
:1049200000F00F402408002000B003402C080020B5
:104930000C080020B407002000000440C407002039
:1049400000F0034070B500242F4D59E0E323DB0055
:1049500063435B5D022B52D1E323DB0063432A48B0
:10496000C318E222D2009B181B78002B47D027489F
:104970000378002B0BD000220270254B1A68254BC0
:104980001A60254A12685A60244A12689A601E4BBF
:10499000E322D20062439918E220C00009180020E7
:1049A000087038329E18301C09F0AEFA0B2821D856
:1049B000E323DB006343144AD318CA22D2009B18B6
:1049C0001B78002B1BD1E323DB0063430E4EF6184C
:1049D000326A736AB262F362331C30330D221A708A
:1049E000E0B2402105F00AF9CA23DB00F6180123E2
:1049F000337004E0301C07490C2209F0C5F901347A
:104A0000012CA3DD70BDC04628E2FF1F1CE2FF1F82
:104A100020080020F8070020F00700206C08002084
:104A200038B5041CE323DB0043430F48C518682056
:104A300006F07AFA002816D0CB23DB00ED18011C13
:104A40005831281C302209F087FD074BE320C000B5
:104A500060430021C1541A1851600449D1603830B4
:104A6000181809F05BFA38BD28E2FF1F204E00003D
:104A7000F8B56420744908F097F9744D281C02F0C9
:104A800005FD0023EB7001232B7003232B71704C69
:104A9000201C291C02F09EFC236A402293432362BF
:104AA000201C032102F010FD8A216A4B6A4AD15072
:104AB000201C02F067FD002802D0684802F056FC76
:104AC000674A0F231360012616710025557160484F
:104AD000002102F013FD634B802212021A60C322F0
:104AE000920098580002000A80210906014399505B
:104AF0005D4F381C02F094FF5C4C201C391C02F006
:104B000063FF2223E25CB243E254201C002102F046
:104B1000B3FF2123E15C7F220A40E254802212018C
:104B2000534B1A80534C201C03F0B0FC2571657167
:104B30000723A3715048211C03F06CFC0C2002F0E9
:104B400083FE00213D4B3C4AFBF7B2FE3C4A3D4B05
:104B5000FBF78EFE002806D148482621FF31484A3F
:104B6000484B02F005FF0138434B986018688022DB
:104B700090434021084318603A48C724A4000559CF
:104B8000FF26B5430D430551802464050460186871
:104B9000904301242043186000233B4803603B48B6
:104BA00003603B48037000203A4C20603A4C23607D
:104BB0003A4C23603A4B3B4C23603B4C23603B4BCD
:104BC00018603B4C3B4B1C603B4C3C4B1C603C4BD3
:104BD00018603C4B2020586099609A603A4A3B4BE1
:104BE0001A603B4A3B4B1A6007F0FCFA00243A4D2E
:104BF000E327FF0017261AE0381C60432B18CA224F
:104C0000D2009B185E709E700A22DA7000221A7120
:104C10005A719A71011C5031691838302818C02215
:104C2000D20009F0A9F8E0B2FFF7FAFE0134012C36
:104C3000E2DDF8BDC046C04640420F000000000063
:104C40000040420F00000000913D000010080020CD
:104C500000B003401810000000700440600601001E
:104C60002408002000E100E0DC07002000F0034001
:104C7000C4070020CC0700200000044014060100F7
:104C80005009010054060100A00700203008002050
:104C9000ED070020C8070020B8070020BC0700204F
:104CA000FFFF0000C00700207008002020E2FF1F67
:104CB00000E87D4700E0FF1F00409C461C080020E4
:104CC0007408002080F00F400AD7A33CA8070020FA
:104CD0000000C841B007002028E2FF1FC046C046C0
:104CE000F8B55F4656464D464446F0B4071C8A4622
:104CF00091460AAB06CB1B789B460DAB1B789846BA
:104D00001F4DE326F6004643301C3830281809F0C2
:104D100005F9AC190023A370CA21C90062181370E9
:104D2000524662604B46E3600A990B9A21616261C8
:104D30005A4622724346637000220023A262E36255
:104D4000231C30330C221A70012188465970CB2362
:104D5000DB00E1180B48302209F0FEFB0A4B002271
:104D60001A605A609A60414671550848391C02F031
:104D7000FDFA3CBC90469946A246AB46F8BDC046FB
:104D800028E2FF1F38080020F807002084060100F1
:104D900008B5011CE322D20042430020024BD0544C
:104DA000024802F0E3FA08BD28E2FF1F9C0601005A
:104DB000CBB2062B3FD89900204B5B589F46E3238C
:104DC000DB0058431E4B1818CA23DB00C01840787C
:104DD00032E0E323DB005843194B1818CA23DB00E9
:104DE000C018807828E0E323DB005843144B1818E0
:104DF000CA23DB00C018C0781EE0E323DB00584361
:104E00000F4B1818CA23DB00C018007914E0E32305
:104E1000DB0058430A4B1818CA23DB00C01840793E
:104E20000AE0E323DB005843054B1818CA23DB00D4
:104E3000C018807900E000207047C046F8050100E6
:104E400028E2FF1F00990023FF2201E0CA5401332A
:104E50001F2BFBDD20207047081C7047E323DB007D
:104E60005843CB23DB00C018014B18187047C046CD
:104E700028E2FF1F08B5E323DB005843D123DB0002
:104E8000C018044B181800216C2209F06EFB00209A
:104E900008BDC04628E2FF1FF0B508291CD80F4CFA
:104EA0004D006B189B00E326F60070431B18E318B7
:104EB000D127FF00DE1901273770D226F6009B1993
:104EC0001A606918890009186418D127FF00E419CD
:104ED00000236360002000E03220F0BD28E2FF1FC5
:104EE00008B5082911D84B0059188900E323DB00C5
:104EF00058430918D123DB00C918054B5918101C59
:104F00000C2209F029FB002000E0322008BDC04639
:104F100028E2FF1F70B584B0061C0C1C151CFFF79F
:104F200037FF2378002B25D1EA6A69680024002521
:104F3000009401950123029300230393301CFFF793
:104F4000CFFE2C4B2C4A1A612C4A5A612C4999618C
:104F5000FE229205DA610020186259629A62E3200B
:104F6000C000464327488019274BC01807F012FBA2
:104F700030203DE0022B1BD1EA6A6968002400253D
:104F8000009401950123029300230393301CFFF743
:104F9000A7FEFE229205174B9A62E320C00046430B
:104FA00018488019184BC01807F0F4FA30201FE099
:104FB000032B1CD1EA6A696800240025009401953E
:104FC0000123029300230393301CFFF789FE094B52
:104FD000FE2292059A62DA61E320C0004643094846
:104FE0008019094BC01807F0D5FA302000E03620B0
:104FF00004B070BD38080020E132F944E1BAE24360
:1050000000401C4628E2FF1FF4060000F0B55F4692
:1050100056464D464446F0B485B080468A4693468F
:10502000071CE323DB004343554AD21891460B7813
:10503000002B04D0022B02D0032B00D091E04E466F
:105040003836301C08F058FF00B20C21FBF7C4FAC8
:1050500085B22BB2002B00DC85E00024E323DB00CB
:105060005F434748C71947497F180BE0301C01A927
:105070000C2208F0D7FE029A381C022107F094FA9D
:105080000134A4B223B22AB29342EFDBE323DB0064
:10509000424653433A4AD318DE20C0001B181889F1
:1050A000FCF7E4FA59460C69211CFBF795FB002834
:1050B0005BD15A4613785A00D3189B004B44D22038
:1050C000C0001B181C6059460B785A00D3189B006F
:1050D0004B44D122D2009B1801221A700B78013365
:1050E000E321C9004046414325484118E020C00063
:1050F00009185800C3189B004B44D220C0001B184D
:105100008868186058460378013349685800C31806
:105110009B004B44D120C0001B18596059460B78A6
:1051200001335900CB189B004B441B181A70524690
:105130001378022B1BD1D223DB004946C858D52354
:10514000DB00C958FBF7EEFD0F4B4A46D05000225A
:10515000D623DB004846C25001220C4BC25400202B
:1051600006E0362004E0302002E0302000E000209D
:1051700005B03CBC90469946A246AB46F0BDC04641
:1051800028E2FF1FF4060000B4060000AC06000091
:10519000F0B557464E464546E0B4061C0F1CE325C5
:1051A000ED0045435E4B5D190C78002C5DD1D22398
:1051B000DB00E9585B48FBF7B5FDD523DB00E95878
:1051C000FBF7B0FDFEF7A4F8524B514AFDF736FA53
:1051D000FEF7F0F8544B9A46E850544BE9585148C2
:1051E000FBF7A0FD524BE958FBF79CFDFEF790F84A
:1051F000494A4A4BFDF722FAFEF7DCF8CD23DB00E3
:105200009946E850DB23DB00E9584648FBF78AFD66
:10521000DE23DB00E958FBF785FD4649FBF766FF17
:10522000CE23DB009846E8503A784348311C02F020
:105230009DF85346E858FEF76BF8021C0B1C3F48DC
:1052400002F094F84B46E858FEF762F8021C0B1C7B
:105250003B4802F08BF84346E858FEF759F8021C29
:105260000B1C384802F082F84BE0012C17D1D223F6
:10527000DB00E958344CFE208005FBF753FD285134
:105280003A782D48311C02F071F82859FEF740F8A1
:10529000021C0B1C2D4802F069F8002431E0022C9E
:1052A00013D1224BEB58D024E4002B510A7822482A
:1052B000311C02F05BF82859FEF72AF8021C0B1C7F
:1052C000234802F053F800241BE0032C18D1D2230A
:1052D000DB00E858D523DB00E958FBF723FD1A4C27
:1052E00028513A781448311C02F040F82859FEF74A
:1052F0000FF8021C0B1C154802F038F8002400E0DF
:105300003224201C1CBC90469946A246F0BDC046E3
:105310008FC2F5285C577C408FC2F5285C269F40E1
:1053200028E2FF1F002474496C060000B406000048
:10533000CC06000000401C46B4060100E406010053
:10534000FC06010014070100740600002C07010090
:1053500040070100C046C046F0B5474680B484B05F
:1053600080460C1C94460AA900228E5E0BAD2F7855
:105370002578022D45D13122A25C002A10D000935D
:10538000231C32330193013302930133039360688A
:105390002049E268634605F09DFA00223123E25479
:1053A0003023E35C002B16D0002F03D000223023E3
:1053B000E25410E0A27800926168019102934046A5
:1053C000A26AE36A05F008FAA3780133A370002209
:1053D0003023E25418E0201C383008F08DFD00B274
:1053E000311CFBF747F900B23323E35C98420ADB38
:1053F0000C9A138040460021FF2209F0B6F80648B7
:1054000002E0002000E0002000B204B004BC90469E
:10541000F0BDC046A0860100FFFF0000F0B54F467A
:105420004646C0B48BB088466B460022DA821633FB
:10543000E324E4006043324C24180C2100910192D3
:1054400002934046211C09220423FFF785FF002810
:1054500050DA002500266F46163738231B19994667
:1054600030E0484606A90C2208F0DCFC63689B0784
:105470000AD5069B099330B24044093009A9042299
:1054800009F06AF80436B6B263685B070AD5079B71
:10549000099330B24044093009A9042209F05CF8AC
:1054A0000436B6B263681B070AD5089B099330B26D
:1054B0004044093009A9042209F04EF80436B6B276
:1054C0000135ADB23B882AB219B28A42C9DB002E3F
:1054D0000FD0D9B23223E25C6378A078451CA57066
:1054E000A4880090019406200290404605F0CCF973
:1054F00000E0002000B20BB00CBC90469946F0BD15
:1055000028E2FF1F00000000F0B55F4656464D46FA
:105510004446F0B491B089466B4600225A86323335
:10552000E322D2005043B44A121890460C22009253
:10553000012201920293081C414608220223FFF730
:105540000BFF002800DB1AE1002083468246F8E0CA
:10555000404638300DA90C2208F064FC0D9C0794DD
:105560000E9D08950F9C099400220CAB1A804546AD
:105570006D68AD0716D507988F21C905FBF7B6FDF5
:105580009E49FBF7CFFBFBF7B5F90CA90880524603
:1055900010B208304844022208F0DEFF53460233BE
:1055A0009BB29A4643465B685B0716D508988F21E5
:1055B000C905FBF79BFD9149FBF7B4FBFBF79AF993
:1055C0000CA90880544620B208304844022208F052
:1055D000C3FF534602339BB29A4645466D682D077A
:1055E00000D48DE00998FDF793FE6A4B684AFCF7FA
:1055F00099F8021C0B1C68486849FCF7B5FB021CB3
:105600000B1C67486749FDF7A9FA674A674BFCF727
:10561000ABFB061C0F1C66486649674A674B09F0DE
:105620009BF9041C0D1C301C391C654A654B09F0A4
:1056300093F9654A654BFDF701F8021C0B1C201C11
:10564000291CFCF76FF809F03FFB04900591301C12
:10565000391C5F4A5F4BFCF7F1FF061C0F1C0498D6
:105660000599321C3B1CFDF779FA5B4C5B4D221C03
:105670002B1C09F071F90A900B9104980599321CC2
:105680003B1CFCF74FF8221C2B1C09F065F9021C8F
:105690000B1C0A980B99FDF761FA09F039F8041C04
:1056A0000D1C4F4A4F4BFCF7C9FF061C0F1C201C5A
:1056B000291C4D4A4D4BFCF735F8021C0B1C301CC5
:1056C000391CFCF751FBFDF775FEFDF721FE484A3A
:1056D000484BFCF7B3FF424A424BFCF745FBFDF752
:1056E00069FEFBF707F90CA90880524610B2083092
:1056F0004844022208F030FF534602339BB29A46D8
:105700003F4A1378591C11700A2B16D10798FDF7E0
:10571000FFFD041C0D1C0898FDF7FAFD0090019197
:105720000998FDF7F5FD029003913648221C2B1CC9
:1057300001F01CFE0022324B1A705B4601339BB213
:105740009B466B46598E5C4623B20AB2934200DAFE
:10575000FEE65546002D11D0C9B232234046C25C48
:1057600043788078441C4546AC702C7900900194B5
:1057700000200290484605F063F800E0002000B2E7
:1057800011B03CBC90469946A246AB46F0BDC0461F
:105790006666666666127140000000000000F03F19
:1057A000C98EEBB1BDAE503FD98178A0A1AB813E8F
:1057B00036B6608EB3A381400000000000000840B0
:1057C0000000000000000040000000000000D03F8A
:1057D000000000000000E03F555555555555D53F98
:1057E000000000000000144000000000004CCD400C
:1057F000000000000000F04028E2FF1F00C82F4713
:1058000059F0FF1F5007010010B5041C022303705C
:105810000130204908F0FFFE201C11301E4908F01D
:10582000FAFE201C21301D4908F0F5FE002200235D
:1058300042216252442162524622A3544722A35479
:105840000422A2648822A35496225200E264144ADD
:1058500022655822A3540022002322666366114B5E
:10586000A366114BE366114A2267FE239B0563671B
:105870000F49A167E2678022A3500023002203E0C2
:10588000E15C8A18D2B201338F2BF9D98823E25414
:1058900010BDC0466C0701007C07010074070100C1
:1058A000C0A80000E132F944E1BAE24300401C46DE
:1058B000ACC5A73738B5041C0578022D11D0012DD1
:1058C00006D102230370FE2292058023C25001E01C
:1058D000FFF79AFF22780448291C01F047FD0120B8
:1058E00000E0002038BDC046880701007047C04670
:1058F000EFF3108372B6036072B6704780F31088BE
:105900007047C046012803D8024B0B60002000E01E
:1059100006207047D409010070B50F250D40CC0951
:1059200000281ED04668002E19D06D0025436C005B
:105930006419A4000419247D002C14D16C0065198D
:10594000AD00451901242C754CB2002C03DAB46863
:105950000068A04708E0F4680068A04704E006205B
:1059600002E0032000E0022070BDC04608B5002818
:1059700008D04368002B03D05B690068984702E0B9
:10598000062000E0032008BD38B5051C01226F2366
:10599000C2540E210022FFF7E9FF02226E23EA54CF
:1059A00000226C23EA540023002107E05A00D21899
:1059B0009200AA18D160116111750133072BF5D936
:1059C000281C01210022AB68984700226F23EA546B
:1059D000002038BD10B584B00B7A0F221A40DC09C4
:1059E000102B02D1FFF7D0FF2AE0032A25D853005D
:1059F00023435A00D21892008218D268002A1ED07F
:105A000001AC0A6801924A6802924A7A2272002A1C
:105A100004D0002202752021425405E05A00D21819
:105A200092008218002111755900CA18920082183C
:105A3000D468126901A9A04702E0012000E001201A
:105A400004B010BD70B582B0051C0E1C01A8FFF794
:105A50004FFF002314E0DA00D21A12011A495258FB
:105A6000002A0CD0DA00D21A12018A186832527950
:105A7000AA4204D10198FFF741FF012022E001333F
:105A8000002BE8D00023104C16E0DA00D21A1201E5
:105A90001259002A0FD10C49D800C21A12018A18D3
:105AA00068325571C31A1B01CB1833600198FFF798
:105AB00025FF002006E00133002BE6D00198FFF718
:105AC0001DFF022002B070BD5CF0FF1F10B582B058
:105AD000041C01A8FFF70CFF002323606D22A354D0
:105AE0000198FFF70BFF002002B010BD08B5002998
:105AF00007D0002807D08368002B06D0FFF76AFF85
:105B000004E0032002E0032000E0012008BDC046BD
:105B100008B500210022FFF729FF08BD08B50121C3
:105B20000022FFF723FF08BD10B5041E0CD0436808
:105B3000002B04D05B680068984700236360201C3A
:105B4000FFF7C4FF002000E0032010BDF0B547467A
:105B500080B482B0071C0C1C904600230193002ADD
:105B600055D001A9FFF76EFF002851D1019A94602A
:105B70006D23D75400236C2153546F2153540025B7
:105B800007E05C00E418A4001419E56025612575A0
:105B90000133072BF5D9111D381CFFF7B3FE041E86
:105BA00004D00198FFF792FF201C31E0019A53685E
:105BB000002B04D1101CFFF789FF062028E01C6889
:105BC000002C0ED0596800290BD09968002908D004
:105BD000D968002905D01969002902D05B69002B1A
:105BE00004D1101CFFF772FF072011E0381C111CB4
:105BF000A047041E04D00198FFF796FF201C07E081
:105C0000019B02216E2299544246136000E003205A
:105C100002B004BC9046F0BD10B50F242140802492
:105C20002143FFF779FE10BD10B50F242140FFF787
:105C300073FE10BD70B50B1C00281DD000291DD0AF
:105C4000002A1DD089780F240C40C909032C19D8CB
:105C5000640021434D006C18A40004191668E66026
:105C60005268226169188900411800220A750221D0
:105C70001A1CFFF77BFE06E0032004E0042002E08C
:105C8000042000E0042070BD70B582B0041C6B4697
:105C9000D9710F231D1C0D40CE09002814D00321FB
:105CA0006A460732FFF762FE032D0FD86D002E43C0
:105CB00071008B199B00E3180022DA601A618E19BB
:105CC000B600A419227502E0032000E0042002B00F
:105CD00070BDC04600B583B06B46D9710F23194023
:105CE000032905D804216A460732FFF73FFE00E08A
:105CF000042003B000BDC04600B583B06B46D97127
:105D00000F231940032905D805216A460732FFF7FA
:105D10002DFE00E0042003B000BDC04608B5002AF7
:105D200025D0082921D88900124B5B589F460F21A6
:105D3000FFF71CFE1CE01021FFF718FE18E06E2391
:105D4000C35C1370002013E06C23C35C137000204D
:105D50000EE00621FFF70AFE0AE00721FFF706FE24
:105D600006E00921FFF702FE02E0012000E0042026
:105D700008BDC0468009010008B50339CBB20B2B22
:105D800032D899001B4B5B589F461121FFF7EEFD5F
:105D90002FE0002A2AD012786E23C254002028E077
:105DA0006E23C35C032B09D0002A21D012786C2308
:105DB000C25403226E23C25400201AE0021C6C322B
:105DC0000821FFF7D3FD14E00A21FFF7CFFD10E013
:105DD0000B21FFF7CBFD0CE00C21FFF7C7FD08E01E
