:1000000000600020E904000005A10000D5A0000068
:1000100000000000000000000000000000000000E0
:1000200000000000000000000000000035A10000FA
:10003000000000000000000065A10000A18F00008A
:100040006105000065050000690500006D05000000
:100050004905000049050000490500004905000068
:100060007105000075050000790500007D050000A0
:100070008105000061A2000089050000490500001B
:1000800049050000490500004905000051B0000085
:100090004905000049050000618F00008D05000042
:1000A0008D9C00004905000049050000490500003D
:1000B000490500004905000049050000258F0000A2
:1003C0006B636667FFFFFFFFFFFFFFFFFFFFFFFF9E
:1003D000FFFFFFFFF7081200E0EC0000FFFFFF0047
:1003E000FFFFFFFFFFFFFFFF00FFFFFFFFFFFFFF1C
:1003F000FFFFFFFF00000000000000000000000001
:10040000FFFFFFFFFFFFFFFFFFFFFFFFFE31FFFFCB
:1004100010B5064C2378002B07D1054B002B02D0DA
:10042000044800E000BF0123237010BD00E2FF1F5D
:1004300000000000A0FC000008B5084B002B03D012
:100440000748084900E000BF07480368002B03D0B5
:10045000064B002B00D0984708BDC04600000000A6
:10046000A0FC000004E2FF1FE0E1FF1F000000000D
:10047000164B002B00D1144B9D46402292029A1A33
:10048000924600218B460F461348144A121A0CF06C
:1004900090FA0F4B002B00D098470E4B002B00D04A
:1004A00098470020002104000D000D48002802D0CC
:1004B0000C4800E000BF0CF04DFA2000290009F0C4
:1004C00059FD0CF031FAC046000008000060002021
:1004D000000000000000000000E2FF1F481E002096
:1004E000000000000000000072B60E480E490160D6
:1004F0000A6882F308880D4880470D490D4A0E4B63
:100500009B1A03DD043BC858D050FBDC0B490C4A56
:10051000521A03DD00208850043AFCDA62B609481A
:100520008047000008ED00E000000000697900004D
:10053000C8FC000000E0FF1FE4E1FF1F00E2FF1F16
:10054000481E002071040000114800471148004770
:10055000114800471148004711480047114800471B
:10056000114800471148004711480047114800470B
:1005700011480047114800471148004711480047FB
:1005800011480047114800471148004711480047EB
:1005900095A1000005A10000D5A0000035A1000034
:1005A00065A10000A18F000019630000296300000D
:1005B0003963000049630000516900006969000067
:1005C0005D710000957100006D6D0000896D000087
:1005D000C9680000356E0000002934D001230022D4
:1005E00010B488422CD301242407A14204D28142B2
:1005F00002D209011B01F8E7E400A14204D28142C2
:1006000002D249005B00F8E7884201D3401A1A433E
:100610004C08A04202D3001B5C0822438C08A04275
:1006200002D3001B9C082243CC08A04202D3001B2B
:10063000DC082243002803D01B0901D00909E3E7A5
:10064000101C10BC7047002801D00020C04307B424
:10065000024802A14018029003BDC046D900000024
:100660000029F0D003B5FFF7B9FF0EBC4243891A49
:100670001847C046002941D010B4041C4C40A44681
:1006800001230022002900D54942002800D540421C
:1006900088422CD301242407A14204D2814202D2F1
:1006A00009011B01F8E7E400A14204D2814202D211
:1006B00049005B00F8E7884201D3401A1A434C080E
:1006C000A04202D3001B5C0822438C08A04202D344
:1006D000001B9C082243CC08A04202D3001BDC086C
:1006E0002243002803D01B0901D00909E3E7101CAD
:1006F0006446002C00D5404210BC7047002806D04C
:1007000003DB0020C043400801E08020000607B45E
:10071000024802A14018029003BDC0461900000023
:100720000029EBD003B5FFF7A7FF0EBC4243891A9F
:100730001847C0467047C0468446101C62468C4627
:10074000191C634600E0C0461FB501F06BFD002890
:1007500001D40021C8421FBD10B501F09BFC4042EE
:10076000013010BD10B501F05DFD002801DB002057
:1007700010BD012010BDC04610B501F053FD00288A
:1007800001DD002010BD012010BDC04610B501F0F4
:10079000CBFC002801DC002010BD012010BDC046AC
:1007A00010B501F0C1FC002801DA002010BD0120C5
:1007B00010BDC0468446081C6146FFE71FB500F027
:1007C00031FC002801D40021C8421FBD10B500F043
:1007D000B7FB4042013010BD10B500F023FC0028EB
:1007E00001DB002010BD012010BDC04610B500F097
:1007F00019FC002801DD002010BD012010BDC046FD
:1008000010B500F0C7FB002801DC002010BD01205E
:1008100010BDC04610B500F0BDFB002801DA002075
:1008200010BD012010BDC046002B15D1002A13D1E8
:10083000002900D1002807D003DB0020C043410875
:1008400002E080210906002007B4024801A14018F7
:10085000029003BDE1FEFFFF03B4684601B50298B4
:1008600000F0A6F8019B9E4602B00CBC7047C04643
:10087000002B11D1002A0FD1002900D1002802D06D
:100880000021C943081C07B4024802A14018029085
:1008900003BDC046A1FEFFFF03B4684601B5029840
:1008A00000F0A2F8019B9E4602B00CBC7047C04607
:1008B0009C460304F0B51B0C17043F0C150C1E1CC2
:1008C000041C000C7E436B4347434543FB18300C2C
:1008D0001818874202D980235B02ED18030CED182B
:1008E00063465C434A433604360CA1180004801961
:1008F0004919F0BD0000000038B50E4B0C4A051C2C
:100900000C1CFFF72FFF002804D1281C211C00F02D
:1009100013F838BD80231B06E118281C00F00CF8E2
:10092000021C0B1C002150429941F2E7C046C04610
:10093000000000000000000070B50E4B0C4A0D1CBA
:10094000041C01F0EDFC02F0C7FB061C02F01EFBCC
:10095000094A0A4B01F0E4FC021C0B1C201C291C58
:1009600001F06EFF02F0B8FB311C70BDC046C046FE
:10097000000000000000F03D000000000000F04119
:1009800070B5061C081C02F0C3FA084B064A01F0B9
:10099000C7FC0D1C041C301C02F0F8FA2B1C221C96
:1009A00000F032FD70BDC046000000000000F041C4
:1009B000F0B583B0161C1F1C0090019102F0ACFB37
:1009C000041C0D1C221C2B1C301C391CFFF770FF53
:1009D000009A019B121A8B410899201C0A604B60F7
:1009E000291C03B0F0BDC046F0B583B0141C1D1C1B
:1009F0000090019102F06CFD221C2B1C061C0F1CA8
:100A0000FFF756FF009A019B121A8B410899301C80
:100A10000A604B60391C03B0F0BDC046F8B5430214
:100A20004400C50F4E024800240E2A1C9B09000EEC
:100A3000C90FB6098D425BD0221A002A00DC89E07A
:100A400000281DD1002E00D075E0580704D00F22D9
:100A50001A40042A00D004338021C90419402A1CFA
:100A600000293AD00134FF2C00D17FE09B015B0AC2
:100A70005B02E4B2E405580AD20720431043F8BDF4
:100A8000FF2CE2D08021C9040E431B2A00DD2DE19A
:100A9000311C2020D140821A9640721E96410E438E
:100AA0009B1B5801D1D59B019F09381C02F0F4FA19
:100AB000421F974094425BDC141B1F231B1B3A1CF4
:100AC0009F40611C3B1CCA405F1EBB411343002476
:100AD000BBE7131EB9D100230022DB08FF2C04D191
:100AE000002B43D08020C00303435B025B0ABFE7B7
:100AF000211A002940DD002823D0FF2CA5D080201A
:100B0000C00406431B2900DDEEE0301C2027C8404E
:100B1000791A8E40711E8E4106439B19590100D4EB
:100B200093E70134FF2C55D0714901221A400B4044
:100B30005B08134389E7013A002AB1D0FF2CA4D106
:100B400083E7002E00D180E701390029E5D0FF2C92
:100B5000D8D17AE7002A1BD1621CD2B2012A4BDD20
:100B60009F1B7A0123D5F71A0D1C9EE700237FE710
:100B70005F4BA41A3B4068E7002946D1611CC8B20C
:100B8000012829DDFF2924D0F3185B080C1C5CE741
:100B9000002C13D0FF2818D08024E40452422343B1
:100BA0001B2A4DDD0123F31A041C0D1C79E7002FCD
:100BB00000D07AE70023002200248EE7002B3BD0F0
:100BC000D243002AEFD0FF28EAD1331CFF240D1CAA
:100BD0003BE7FF24002380E7002C5CD1002B00D1F1
:100BE00080E0002E00D130E79B19580100D42CE79B
:100BF0003F4A0124134028E7002C15D1002B40D197
:100C0000002E63D0331C0D1C1FE7002C21D1002BBC
:100C100054D0C943002904D0FF284CD01B2958DDEB
:100C200001239B19041C79E7002B19D1002E48D011
:100C3000331C0D1CFF2408E7331C041C0D1C04E7A7
:100C40001C1C2025D440AA1A93405A1E93412343CA
:100C5000A9E7FF282FD08024E40449422343DDE79D
:100C6000FF24002E00D1F0E68022DB08D2031342DD
:100C700004D0F608164201D1331C0D1CDB00FF2402
:100C8000E3E6002E00D1E0E69A1B500100D420E7F5
:100C9000F31A0D1CD9E6002B0DD0FF24002E00D135
:100CA000D3E68022DB08D2031342E7D0F6081642CF
:100CB000E4D1331CE2E7331CFF24C6E6331C041CDA
:100CC000C3E6802300229B04FF2406E7231C0022A6
:100CD00003E71C1C2027CC40791A8B40591E8B41FE
:100CE00023439EE7331CB0E6012616E70126D7E62C
:100CF000FFFFFFFBF0B55F4656464D464446F0B455
:100D000046024500C00F85B00F1C760A2D0E8046A6
:100D100041D0FF2D26D08024240400212643F60054
:100D20007F3D89468B46F90F7C027800640A000EED
:100D300000918A463CD0FF2834D080231B041C43FA
:100D40000023E4007F380193009F4346019A7B40D3
:100D500049469C4611430F2900D971E0764F89001E
:100D60007F58BF46002E3ED10822022391469B4663
:100D7000D9E75A46341CC24601920199022937D05C
:100D8000032900D1CFE0012900D0ABE053460B404E
:100D90000022002632E0002E19D1042101228946CA
:100DA0009346C0E7221C531E9A4102320192CBE7C0
:100DB00001270197002CC7D0201C02F06DF9431FBA
:100DC0009C4076235B420021181A0191BCE7301C3D
:100DD00002F062F97625431F9E406D4200232D1AD2
:100DE00099469B469FE70C23032199468B469AE739
:100DF000D446012367463B40FF2200267602D205F7
:100E0000700ADB071043184305B03CBC9046994676
:100E1000A246AB46F0BD80260023F603FF22EDE795
:100E200000220026EAE78020C00306423BD00442AD
:100E300039D1061C26437602760A009BFF22DDE7A5
:100E4000281A039076016401A64239D3361B1A2270
:100E500001230120311C5B007600002901DBB44234
:100E600001D8361B0343013A002AF3DC741EA64165
:100E7000341C1C43039A7F32002A27DD630704D009
:100E80000F232340042B00D00434270103D52B4B20
:100E9000039A1C408032FE2A0BDD012361460B4081
:100EA000FF220026AAE706437602760A4346FF227F
:100EB000A4E7A40101236746660AD2B23B409DE73E
:100EC000039F1B22013F03970023C2E77E23039F5A
:100ED0005B42DB1B1B2B07DD012361460B4000221D
:100EE00000268BE7D446C5E7221CDA40039B9E33DD
:100EF0009C40231C5C1EA34113435A0704D00F22BD
:100F00001A40042A00D004335F0105D5012361464D
:100F10000B400122002671E79E0162460123134027
:100F2000760A00226AE78026F60326437602760ACE
:100F30005346FF2262E7C04624DE0000FFFFFFF7B2
:100F40004A02430270B55C0A550A43004A001B0E70
:100F5000C60F120EC90FFF2B05D0FF2A08D00120A3
:100F600093420BD070BD0120002CFBD1FF2AF6D19B
:100F70000120002DF6D101209342F3D1AC42F1D1F2
:100F80008E4205D0002BEDD1201C441EA041E9E784
:100F90000020E7E74A024302F0B55C0A550A430025
:100FA0004A001B0EC60F120EC90FFF2B31D0FF2AAD
:100FB00034D0002B16D1604260418446002A14D000
:100FC000002820D18E4217D1934215DC04DBAC42BD
:100FD00012D80020AC4212D270427041404201232C
:100FE00018430CE0002AEDD194466F426F416046F1
:100FF000002805D1002FE5D0704201231843F0BD31
:101000000020002FFBD148424841404201231843B1
:10101000F5E7002CCBD002204042F0E7002DC8D0ED
:10102000F9E7C0464A024302F0B55C0A550A43009C
:101030004A001B0EC60F120EC90FFF2B27D0FF2A26
:1010400029D0002B10D0002A15D194466F426F4151
:101050006046002815D00020002F04D148424841A6
:10106000404201231843F0BD604260418446002A9B
:10107000ECD00028F2D18E4211D0704201231843E7
:10108000F1E7002FF7D0704201231843EBE702206D
:10109000002CE8D1D3E70220002DE4D1D1E7934220
:1010A000EBDC04DBAC42E8D80020AC42DBD270427F
:1010B0007041404201231843D5E7C046F0B55F4672
:1010C00056464D464446F0B44402460083B00F1CD9
:1010D000640A360EC50F002E41D0FF2E22D0802389
:1010E0001B0400201C43E4007F3E82468046391CDE
:1010F0004B007F02C90F7F0A1B0E8B463BD0FF2B94
:1011000034D0802212041743FF007F3B00215A464F
:101110006A40019252460A430F2A63D87A489200E5
:1011200082589746002C3FD10822022392469846C7
:10113000DDE70195404602282AD1019A0125154094
:10114000FF2300246402DB05600AED0718432843EF
:1011500003B03CBC90469946A246AB46F0BD002C7D
:1011600027D10420012282469046C0E7391C4A1E3E
:1011700091410231CBE70121002FC8D0381C01F08A
:101180008BFF431F9F4076235B421B1A0021BEE763
:10119000032800D1AEE001284FD10198424610400B
:1011A000C5B200230024CDE70C2303209A468046D5
:1011B0009DE7201C01F070FF7626431F9C4076427D
:1011C0000023361A9A46984691E780240025E403C6
:1011D000FF23B7E75B463C1C01938846AAE73C1C0B
:1011E0008846A7E7250C24043A0C240C3F04F61883
:1011F0003F0C211C231C794353436F435543FB1879
:101200000A0C9B18B1469F4202D980225202AD18A7
:1012100009041A04090C521894011B0C611E8C411C
:10122000920EED181443AD012C43230105D5012284
:1012300063080120144081441C434B467F33002B3C
:101240002DDD600704D00F222240042A00D0043490
:10125000220103D52D4B1C404B468033FE2B17DD5E
:10126000019B01251D400024FF236BE78020C00364
:10127000044208D0074206D1041C3C436402640ABD
:101280005D46FF235EE704436402640AFF2359E7D7
:101290000198A4010125640ADBB2054052E77E23D0
:1012A0005B424A469B1A1B2B05DD019B01251D4015
:1012B0000024002346E7221CDA404B469E339C4024
:1012C000231C5C1EA3411343580704D00F221A406D
:1012D000042A00D004335A0105D5019B01251D4085
:1012E000002401232EE701989C010125640A054092
:1012F000002327E78027FF03019B3C43640201256D
:101300001D40640AFF231DE764DE0000FFFFFFF7B6
:101310004302590A4300C20F1B0E00207E2B0DDD35
:101320009D2B0CDC802000040143952B0ADC9620C9
:10133000C31AD9404842002A00D1081C7047034B09
:10134000D018FBE7963B9940F4E7C046FFFFFF7FCC
:1013500070B5041E3CD0C60F00D04442201C01F0E2
:101360009BFE9E23251C1B1A962B0CDC0838844000
:101370006402640ADBB2321C6402DB05600AD20735
:101380001843104370BD992B0ADD0522121A211C47
:10139000D1400A1C011C1B318D40691E8D41154333
:1013A000052801DD421F9540164C2C406A0704D0E9
:1013B0000F221540042D00D0043461010CD59F2369
:1013C000181AFF281AD0A401640AC3B2321CD3E74A
:1013D000002200230024CFE7E408FF2B04D064029E
:1013E000640ADBB2321CC7E7002C04D08020C003A3
:1013F00004436402640A321CFF23BDE7321CFF234E
:101400000024B9E7FFFFFFFBF8B55F4656464446A8
:101410004D46F0B40C034D00CE0F610A440F21433A
:10142000C400180380465800400D8246D80F8446F9
:101430004046400A530F0343D0006D0D371C8346CE
:101440005246664500D1A4E0AF1A002F00DC09E146
:10145000002A3BD1184300D0EAE0630700D187E0BF
:101460000F232340042B00D182E0221DA242A4417D
:101470006442802309191B040B40371C141C002BE9
:1014800000D17CE0CE4B01359D4200D105E1CD4B32
:10149000E40819404807490204430B0B00200021CF
:1014A0001B031A0B0B0D6D051B0513436A08C64D74
:1014B000FF071D4015436D006D08291C3943201C92
:1014C0003CBC90469946A246AB46F8BDBC48854216
:1014D000C3D0802000040343382F00DDF0E01F2F2D
:1014E00000DD24E12020C01B1A1C814682405846A2
:1014F000F8400243944658464A469040421E904166
:10150000FB40624602431F1CA21A9442A44164425B
:10151000C91B091B141C0B029FD549024F0A002F3F
:1015200000D1C8E0381C01F0B7FD021C083A1F2AA0
:1015300000DDB5E02821091A201C9740C840074368
:101540009440954200DDB2E0551B691C1F2900DD67
:10155000DCE01F22551B3B1C221CAB40CA40AC40A8
:10156000651EAC411343CF401C43391C002574E772
:1015700080231B040B40371C002B00D082E7904BCC
:101580004807E4080443C9089D4248D009030B0BEF
:1015900084E7AA1A9446002A00DC98E05046002806
:1015A00052D08748854200D157E78020000403438A
:1015B0006246382A00DDFCE01F2A00DD4AE12022D5
:1015C0006046101A1A1C824082469146584662466E
:1015D000D0404A4602439046584652469040421EEA
:1015E0009041424602436046C3401219A242A441C0
:1015F000644259180919141C080200D42DE7704BD5
:1016000001359D4200D122E16E4B60081940012353
:1016100023401C1C0443CB071C4349081DE7231C23
:101620000B433AD080231B030B431B031B0B35E7F3
:10163000013F002F65D15846221A9442A4416442CA
:10164000C91A091B141C66E75846184300D104E761
:101650000122524294446046002800D0C5E058461A
:101660000219C3E7002F73D1681C4005400D012803
:1016700000DCDEE05A46A21A9442BF41C81A7F42FB
:10168000C71B380200D489E05A46141BA345924177
:10169000591A52428F1A664641E700230024FDE69C
:1016A000271C283887400024954200DC4CE7454938
:1016B000AD1A3940D1E6201C01F0EEFC203034E7B1
:1016C0005A461A43531E9A41D2B200271CE7002AF9
:1016D00000D0DCE0681C4205520D012A00DC8DE0E0
:1016E000374DA84200D1F3E05D462A19A242A44139
:1016F000644259180919CC07520814434908051CBB
:10170000ABE62F48854200D0E6E6A6E62B1C1F3B41
:101710003A1CDA40131C20296CD03F22551BAF40E5
:101720003C43601E84411C430021002595E6381C83
:1017300020381A1CC240101C202F5DD04022D71B1D
:10174000BB405A461A43531E9A4102430027DBE628
:10175000002D3BD01A4DAA4500D193E080252D04E1
:101760007F422943382F00DDACE01F2F00DD29E147
:101770002025ED1B081C261CA840FE40AC4006435B
:10178000651EAC413443F9405D462C1BA345924194
:101790005B1A5242991A55466646BCE6131C3B43F7
:1017A000141C002B00D0BAE60027002100250024DD
:1017B000E5E65A461A43531E9A41D2B2002314E773
:1017C000FF070000FFFF7FFFFFFF0F800D1C254379
:1017D00058D0FF43002F51D1041BA3459241591A01
:1017E0005242891A5546664695E69648854200D08B
:1017F000DEE632E6002793E70023A2E7081C204339
:10180000002D00D0C4E0002800D1F7E0584618436E
:1018100000D122E658460219A242A4416442591856
:101820000919141C0A0200D417E6874B0125194038
:1018300013E6081C2043002D39D1002871D15946E8
:10184000194303D0191C5C46664606E600270021B2
:10185000002494E6604620381A1CC2406046914637
:10186000202800D1ACE04022121A93405A461A4375
:10187000531E9A414B461A430023B6E6714DAA45C2
:1018800000D06FE7191C5C4655466646E5E5002D1D
:1018900022D10D1C254377D0D543002D71D15C4456
:1018A0005C4592415918524289185546A4E60028D1
:1018B0004DD15946194300D194E0191C5C46664647
:1018C000604DCAE50C43611E8C41E4B200215BE728
:1018D000051C0021002452E65A4DAA4554D0554219
:1018E000802210040143382D00DD81E01F2D00DD32
:1018F00092E02022501B0A1C84468240201CE840B3
:101900000243904662469440601E8441424614431E
:10191000E9405C445C459241CB18524299185546C7
:101920006AE65846184300D197E55846271ABC4244
:101930009241C81A5242801A020266D55846041BC8
:10194000A3459241591A5242891A664685E558467E
:10195000184333D04807E40804438020C908000333
:10196000014208D0DD08054205D15946CA085C0786
:101970001443291C6646630FC9001943E400314D26
:101980006BE5304A9245AED1191C5C46554664E57C
:10199000002836D05846184310D080254807E40860
:1019A000C9082D0304432942E5D0D8082842E2D1D2
:1019B0005D46EA085C071443011CDCE7214D4CE559
:1019C000002353E73D1C203D0A1CEA40151C202F34
:1019D00034D04026F71BB9400C43611E8C412C4388
:1019E0000021D1E680210027C903164D0024C6E559
:1019F0000C43611E8C41E4B200218AE7191C5C464D
:101A00002BE5191C5C460F4D27E5031C3B4300D119
:101A10001CE7011C3C1C20E52020404240190A1C08
:101A2000C2409046202D0BD04020451BA9400C43BE
:101A3000611E8C4145462C4300216AE70021CBE71B
:101A40000021F4E7FF070000FFFF7FFFF0B55646D7
:101A500044465F464D46F0B41F1C0B031B0B9846D3
:101A60004B0087B0041C81465B0DC80F161C9A46BC
:101A70000090002B51D06A4B9A4531D080224146CC
:101A800052030A43630FD2001A43664B9046002567
:101A9000E20091469A44002402953B031B0B9B46AF
:101AA000FD0F7B00311C5B0D019560D05C4A9342B9
:101AB00054D08021584649030143720FC900114395
:101AC000584A8B469B18F1000020009A04436A4054
:101AD00003920F2C00D9ADE0534EA4003459A74611
:101AE000404604436ED100210225082488468946D9
:101AF0000295D2E7009C0298C34649460194022809
:101B000064D0032800D1ABE2012800D038E2019A6A
:101B1000002402400025A14660E0434623434AD00A
:101B20004046002800D1C0E101F0B6FA031E272B81
:101B300000DDB3E128210D1A211C083B4246E94093
:101B40009A400D1C1543221C9A40A8469146374BDB
:101B500000251B1A9A46002402959EE75A46164312
:101B60000320002EB1D1B34600210220ADE75A4632
:101B700032431BD05B46002B00D18AE1584601F06E
:101B80008BFA272800DD7DE12822171A011C321C60
:101B900008395B46FA408B40171C1F43331C8B40AF
:101BA000BB46191C214B1B1A00208EE70027BB46A1
:101BB0000021012089E70020012504248046814678
:101BC00002956AE703250C24029566E7019C0394BD
:101BD000039D01222A400024114DA146002000212E
:101BE0002403260B0C0D2405114B34432D052340F3
:101BF0002B435B005B08D207191C4846114307B012
:101C00003CBC90469946A246AB46F0BD00228024DB
:101C100024039146024DE1E700240025A146DDE7BB
:101C2000FF07000001FCFFFFA4DE00000DFCFFFF2A
:101C3000FFFF0F805546ED1A0495D84500D953E1B2
:101C400000D14EE1049C0025013C4E4604944746D9
:101C5000A946584603020C0E1C430902250C230416
:101C60001B0C0091381C291C0193FEF7B5FC01994F
:101C700083464143381C8A46291CFEF7F1FC330C8D
:101C8000090419438A450CD95B460919013B8C426A
:101C900000D947E18A4500D844E1022252429344E8
:101CA00009195346CB1A181C291C9846FEF794FCB8
:101CB000071C0198291C784382464046FEF7D0FC59
:101CC00036040B04360C33439A4509D91B197A1E86
:101CD0009C4200D924E19A4500D821E1023F1B191A
:101CE0005E4632041743380CBB46009E009F5146A7
:101CF0003F0C32045B1A5946BA46120C0F043F0CD3
:101D0000904651467A434F434146414356467043BD
:101D1000CF19160CBE19B14202D980277F02C01913
:101D2000310C12043604120C4018B618834200D24B
:101D3000C4E000D1BEE0191A4846861BB145BF4138
:101D40007F42CF1BA74200D113E1291C381CFEF7AC
:101D500043FC019902904143381C8946291CFEF737
:101D60007FFC330C0904194389450CD9029B0919DE
:101D7000013B8C4200D9FFE0894500D8FCE0029F7E
:101D80000919023F02974F46CF1B381C291C0597A3
:101D9000FEF722FC071C0198291C78438146059810
:101DA000FEF75EFC36040904360C0E43B14509D932
:101DB00036197B1EB44200D9E0E0B14500D8DDE021
:101DC000023F3619029D4946761A290439430B040D
:101DD00057460A0C1B0C40464546584355437B4327
:101DE0007A43EB18070CDB199D4202D980256D025E
:101DF00052191D0C00041B04000C52191B189642AA
:101E000035D300D1FCE001231943049E994FF51905
:101E1000002D00DCA1E0480709D00F230B40042B64
:101E200005D00B1D8B42894149428B44191C5A46EF
:101E3000D20107D5904B5C46049E80271C40FF00D2
:101E4000A346F5198D4B9D427ADD039C0122224069
:101E500000248B4DA146C1E6802424034746274237
:101E60004CD13C432403240B009A854DB6E6361929
:101E7000481EB4425ED9011C9642C4D1009E9E42C7
:101E8000C1D1C2E7031C283B311C99408B4600217D
:101E900088E6301C01F000F9203072E6283B211C56
:101EA000994000228846914651E6201C01F0F4F842
:101EB00020303BE60021B14500D33DE7009F5A4664
:101EC000B944B945BF417F423F19FB18013A9C42D2
:101ED0001ED2984200D97EE000D1B5E0191A93468F
:101EE0002AE7894500D8ADE6484646464246770887
:101EF000D3074608C0071E438146AAE6584620423B
:101F000012D1044324032A1C240B89465C4D65E648
:101F1000A342E3D1009F4F45DBD9211A93460BE73B
:101F2000171CDDE69B46BCE63C432403240B009AC9
:101F3000534D53E6B24259D800D18AE0011C62E702
:101F40005F46C9087B07039E0B437C026D05012297
:101F50009946240B6D0D324040E64A4B049FDB1B33
:101F6000382B10DD039C0122224000240025A146CD
:101F700034E60121494248E7029304E71F1C21E7A8
:101F8000019C039441E71F2B40DC3F48049F0C1C3D
:101F90003A1858469140DC40904020430A1C511E9C
:101FA0008A41011C11435A46DA40131C480709D0E4
:101FB0000F220A40042A05D00A1D8A42894149425B
:101FC0005B18111C1A0234D5039C01222240002404
:101FD0000125A14602E6009F02214942B9448B44F3
:101FE000B945894149420919CB18A4E6009D881ECC
:101FF0006900A942AD416D422C19361900913AE7AA
:10200000002B00D033E70024009437E71F4A049CDC
:102010005D46121BD5402A1C202B1FD01C4E5F464C
:10202000A3199F403B1C19434B1E994111430023A8
:10203000BCE75A07C9080A43039F91465B02012285
:102040001C0B3A400025C9E54E45C4D893460021F3
:1020500072E6009F9F42C9D3011C0FE70023E2E70D
:10206000802424035F463C432403240B019A8946C1
:10207000034DB3E5FF030000FFFFFFFEFE07000076
:10208000FF07000002FCFFFF1E040000E2FBFFFF51
:102090003E040000F0B55F4656464D464446F0B457
:1020A0000D1C041C8046E80F814618030F03000B2B
:1020B0003F0B83B084461B48009749005E00DF0F4A
:1020C000490D9246760DBB4681420CD0154886429A
:1020D00010D00120B14215D003B03CBC90469946C7
:1020E000A246AB46F0BD009F01202743F4D10D4826
:1020F0008642EED1604602430120002AECD1012045
:10210000B142E9D1009B6345E6D1D045E4D1D94540
:1021100006D00029E0D11C43201C441EA041DBE76F
:102120000020D9E7FF070000F0B55F4656464D4650
:102130004446F0B4CD0FDE0FAC461D032D0BB14667
:10214000374E0F034C00AB465D0080463F0B640DDD
:1021500092466D0DB44232D0314EB54235D0002C8E
:102160000ED1384341424141081C002D0BD00029BB
:1021700019D1CC452DD0654668420123184318E09B
:10218000002DF6D1281C59460A43534253410028DA
:1021900006D1002BEDD0634658420123184308E0D6
:1021A0000020002B05D14A465042504140420123B5
:1021B00018433CBC90469946A246AB46F0BD3E1C37
:1021C0000643C9D002204042F3E75E461643C6D01C
:1021D000F8E7AC4207DC0BDA61464842484140422E
:1021E00001231843E5E76646704201231843E0E700
:1021F0005F450AD80ED000205F45DAD265466842B6
:102200006841404201231843D3E76246504201230C
:102210001843CEE7D045F8D80020D045EED3C8E724
:10222000FF070000F0B556464D4644465F46F0B401
:102230000D1C83B0041C0190E80F814618030F03A6
:10224000000B3F0B84463548009749005E00DF0FC6
:10225000490D9246760DB846814234D02F488642C9
:1022600036D0002918D0002E1FD1341C67463A43BF
:1022700053425341002C1FD00020002B05D1424671
:102280005042504140420123184303B03CBC9046A9
:102290009946A246AB46F0BD0098044360426041B7
:1022A000041C002EE2D00028E9D1C14515D04F46CC
:1022B000784201231843E8E7002BF6D04B465842FA
:1022C00001231843E1E7009F02202743DDD1C5E742
:1022D000674602201743D8D1C3E7B14204DD4A461E
:1022E000504201231843D0E7B14207DB0098604514
:1022F000E4D80AD0009F00206745C6D24F467842F6
:102300007841404201231843BFE7019A5245D5D88E
:10231000019A00205245F1D3B7E7C046FF070000FD
:10232000F0B5564644465F464D46F0B41F1C0B03BD
:102330001B0B9A464B0087B0041C80465B0DC80FF0
:10234000161C02938146002B68D0694B0299994272
:1023500032D08022534652031A43D200630F1A43ED
:102360009246644AE00089188046029100240025C4
:102370003B031B0B9B467800FB0F321C400D039365
:1023800000D175E05A4B984269D0802259465203D9
:102390000A43730FD2001A43564B9346C018F200FB
:1023A000002303994E4671401C430F2C00D9A9E02D
:1023B000514EA4003459A74653461C4300D087E031
:1023C0000025AA46A84608240225D1E74946022D41
:1023D0006CD0032D00D117E2012D00D058E10D4043
:1023E000EDB20024A9460023A046002000212503C9
:1023F0000A0D1C052D0B1205404B2A4313402343A5
:102400005B004C465B08E207191C4046114307B0CD
:102410003CBC90469946A246AB46F0BD534623438A
:1024200050D05346002B00D184E1504600F034FEDA
:10243000031E272B00DD76E128210D1A211C083B05
:102440005246E9409A400D1C1543221C9A40AA4668
:1024500090462B4B00241B1A0293002588E75B460D
:102460001E430323002E9CD1B3460022022398E78B
:102470005B46334321D05846002800D14EE100F09E
:102480000BFE272800DD42E128210F1A021C311C17
:10249000083A5B46F94093400F1C1F43331C93409E
:1024A000BB461A1C164B181A00237AE701230B406F
:1024B00000249946A0460E4B97E70027BB46002212
:1024C00001236EE7002104248A46884601254FE750
:1024D0000C2403254CE700258024A9462403A846A4
:1024E000034B82E7DA46904603991D1C6FE7C0460E
:1024F000FF07000001FCFFFFE4DE0000FFFF0F808C
:102500000DFCFFFF029F160C381804904046070C84
:102510000004000C1204120C031C5343041C3D1C49
:102520007443554398463B1C73436419A446444680
:102530000293230C63449D4204D9029D80246402CB
:102540002D1902951D0C039545462C041B04240CE3
:102550001C1905945C46230C051C58432404240CC8
:102560008446381C604365435F438146CC44280C55
:102570006044BB46814502D980277F02BB442D04BD
:10258000070C2D0C000440195546BC462F04E344AB
:102590008446280C3D0C2F1C5743B8462F1C77430C
:1025A0004243B94647463F0C9144BA46D14446435C
:1025B0004A4502D980225202B6184F463A0CB61844
:1025C0003A0447463F043F0CB8462F1C67435D431F
:1025D0004443584365190190380C2D184244B846BD
:1025E000AC4204D9019880235B02C0180190039C7F
:1025F000029F201C6044C0196045A44147466442C4
:10260000A4462B043C049946240C4C44A046D844D0
:102610008018C246E2449042924157465242914647
:10262000F219E245BF417F424B46BC46D845BF4107
:10263000D4187F4263461F432D0C7F19B24292414A
:102640004C45AD4152426D421543019E7D19AB1977
:10265000E20D5B02059F134342023A439A46531E22
:102660009A41C30D101C1843640220438046504613
:10267000C0010DD5454601225646049C6B082A40F0
:102680001A43F30701341A43760804949046B2467D
:10269000049E634FF319002B61DD404640070BD0C9
:1026A0000F2244462240042A06D0424604324245C4
:1026B00080414042824490465546ED0107D5594B32
:1026C0005646049F80201E40C000B2463B18564A22
:1026D000934200DDEAE644465546E20868071043A7
:1026E00001226C025B050A408046240B5B0D91467B
:1026F0007BE6DA4690461D1C69E680242403574693
:1027000027421CD13C432403240B484B6DE6031C99
:10271000283B311C99408B460022C3E6301C00F058
:10272000BBFC2030ADE6283B211C994000228A46A4
:1027300090468EE6201C00F0AFFC203078E658462C
:10274000204207D1044303992403240B8946904671
:10275000364B4AE63C432403240B344B45E6344BCA
:10276000049E9B1B382B06DD01230B400024994659
:10277000A046002339E61F2B25DC049C2D4D464640
:102780006019524644468640DC4082405746301C21
:102790002243DF40441EA04102433B1C540709D0A2
:1027A0000F201040042805D0101D90429241524243
:1027B0009B18021C1D021AD501230B4000249946C8
:1027C000A046012311E61C48049C5546001BC54049
:1027D000281C202B16D0194E5746A21997403A1C98
:1027E00043461A43531E9A4102430023D6E7580733
:1027F0005B02D2081C0B01230B4010439946804614
:102800000023F2E50022EBE7802424035046012355
:10281000044319402403240B8946044BE5E5C046D4
:10282000FF030000FFFFFFFEFE070000FF070000A0
:1028300002FCFFFF1E040000E2FBFFFF3E0400005D
:10284000F8B55F46564644464D46F0B40C034D007D
:10285000CF0F610A440F2143C4001803DE0F8046E6
:10286000B44646465800760A530F3343D600D14A41
:102870006D0DBA46400DB346904200D1F5E0624678
:10288000012672409446674500D1ABE02F1A002F15
:1028900000DC11E100283ED15846184300D0F1E099
:1028A000600700D197E00F232340042B00D122E1E1
:1028B000221DA242A4416442802309191B0401275E
:1028C00050460B400740141C002B00D179E0B94B57
:1028D00001359D4200D10BE1B74BE4081940480790
:1028E000490204430B0B002000211B031A0B0B0DA4
:1028F0006D051B0513436A08B04DFF071D401543C6
:102900006D006D08291C3943201C3CBC904699463B
:10291000A246AB46F8BDA7488542C1D0802000043E
:102920000343382F00DDFDE01F2F00DD31E12020C3
:10293000C01B1A1C5E468240FE40324394465A46F3
:102940008240101C421E9041FB40624602431F1C05
:10295000A21A9442A4416442C91B091B141C0A0216
:102960009ED549024F0A002F00D1D6E0381C00F056
:1029700093FB021C083A1F2A00DDC3E02821231C18
:10298000091A9740CB401F439440954200DDC0E0B8
:10299000551B691C1F2900DDEAE01F22551B3B1C4B
:1029A000221CAB40CA40AC40651EAC411343CF4033
:1029B0001C43391C002573E780217E4D0027C90385
:1029C00000247C4B4807E4080443C9089D4250D0CA
:1029D00009030B0B87E780231B04012752460B409A
:1029E000174071E72A1A9446002A00DCA1E000286B
:1029F00054D07048854200D152E780200004034340
:102A00006046382800DD0EE11F2800DD57E16246F0
:102A10002020801A1E1C8640B1465E46D6404A469B
:102A200032435E4686409046301C421E90414246EC
:102A300002436046C3401219A242A441644259189D
:102A40000919141C080200D42AE75A4B01359D428B
:102A500000D131E1584B60081940012323401C1C70
:102A60000443CB071C4349081AE71E4300D00AE77A
:102A700005E7231C0B433BD080231B030B431B03A5
:102A80001B0B30E7013F002F6DD15E46A21B944225
:102A9000A4416442C91A091B141C60E75846184334
:102AA00000D1FDE601267642B4446046002800D0FD
:102AB000D0E05E463219BFE7002F00D080E0681CEE
:102AC0004005400D012800DCE8E05A46A21A944275
:102AD000BF41C81A7F42C71B3E0200D498E0584647
:102AE000041BA3459241591A52428F1AE2463AE713
:102AF00000230024F7E680231B04012756460B40E1
:102B00003740E1E6271C283887400024954200DC46
:102B10003EE72949AD1A3940C2E6201C00F0BCFA54
:102B2000203026E75A461A43531E9A41D2B2002754
:102B30000EE7002A00D0DEE0681C4605760D012E67
:102B400000DC90E01B4DA84200D1F5E05E46321952
:102B5000A242A441644259180919CC0752081443EF
:102B60004908051C9CE61348854200D0D9E697E643
:102B70002B1C1F3B3E1CDE40331C20296FD03F2204
:102B8000551BAF403C43601E84411C43002100257F
:102B900086E6381C20381E1CC640301C202F60D012
:102BA0004022D71BBB405A461A43531E9A41024348
:102BB0000027CDE6FF070000FFFF7FFFFFFF0F802C
:102BC000002D37D0B64DA84200D18FE080252D04CE
:102BD0007F422943382F00DDA8E01F2F00DD24E1CC
:102BE0002025ED1B0E1CAE40B046261CFE40424682
:102BF000AC401643651EAC413443F9405A46141BA1
:102C0000A34592415B1A5242991A051CE246A6E678
:102C1000131C3B43141C002B00D0A4E6002700210A
:102C200000250024CDE65A461A43531E9A41D2B2DB
:102C3000002300E70D1C254358D0FF43002F51D13E
:102C40005A46141BA3459241591A5242891A051C2F
:102C5000E24684E69248854200D0D1E620E600278D
:102C600090E700239FE7081C2043002D00D0C2E01E
:102C7000002800D1EFE05846184300D110E658462E
:102C80000219A242A441644259180919141C0A02EB
:102C900000D405E6834B0125194001E6081C2043BA
:102CA000002D38D100286FD15946194303D0191C83
:102CB0005C46E246F4E500270021002481E66046F8
:102CC00020381A1CC2406646101C202E00D1AAE0F3
:102CD0004022921B93405A461A43531E9A41024384
:102CE0000023A8E66E4DA84200D073E7191C5C468D
:102CF000051CE246D4E5002D22D10D1C254376D0DB
:102D0000D543002D70D15C445C4592415918524224
:102D10008918051C96E600284CD15946194300D164
:102D20004AE6191C5C46E2465D4DB9E50C43611E5E
:102D30008C41E4B2002161E7051C0021002440E63B
:102D4000574DA84253D05542802216043143382DA6
:102D50007BDC1F2D00DD8CE02022561B0A1CB446B4
:102D6000B240261CEE403243904662469440661EB6
:102D7000B44142461443E9405C445C459241CB185F
:102D800052429918051C5DE65846184300D187E564
:102D90005E46A71BBC429241C81A5242801A0602E4
:102DA00060D55846041BA3459241591A5242891ACC
:102DB000E24675E55846184333D04807E408044313
:102DC0008020C9080003014208D0DD08054205D172
:102DD0005946CA085C071443291CE246630FC90020
:102DE0001943E4002E4D5BE52D4A9042AFD1191CEA
:102DF0005C46051C54E5002830D05846184310D0D6
:102E000080254807E408C9082D0304432942E5D07A
:102E1000D8082842E2D15D46EA085C071443011C49
:102E2000DCE71F4D3CE5002355E73D1C203D0E1C13
:102E3000EE40351C202F2ED04026F71BB9400C4306
:102E4000611E8C412C430021D8E60C43611E8C414D
:102E5000E4B2002190E7191C5C4621E5191C5C4690
:102E60000F4D1DE5031C3B4300D124E7011C3C1C16
:102E700016E52026764276190A1CF2409046202D4F
:102E80000BD04026751BA9400C43611E8C41454662
:102E90002C43002170E70021D1E70021F4E7C04670
:102EA000FF070000FFFF7FFF70B50B1C124C0903EA
:102EB0000E0B5900021C490DDD0F0020A14211DD4F
:102EC0000E4881420FDC8020400306430C48401A24
:102ED0001F280BDD0B4A521AD640321C5042002DDF
:102EE00000D1101C70BD084BE818FBE7074BC2402F
:102EF000C9188E403243F1E7FE0300001D040000B4
:102F00003304000013040000FFFFFF7FEDFBFFFF11
:102F1000F8B5041E31D0C70F00D04442201C00F089
:102F2000BBF8184D2D1A0A2819DD0B3884402403EC
:102F30006D05240B6D0D3A1C0026002000210B0DA1
:102F40002403240B1B0523430F4C2D051C402C434D
:102F500064006408D307211C301C1943F8BD061C0B
:102F60001536231CB3401E1C0B23181AC44024031F
:102F70006D05240B6D0D3A1CDFE7002200250024AF
:102F80000026DAE71E040000FFFF0F8010B5041EC4
:102F900028D000F081F8154A121A0A2815DD0B38DE
:102FA000844024035205240B520D002300200021ED
:102FB0002403181C0B0D240B1B0523430C4C12057A
:102FC0001C4014436400610810BD031C1533211C10
:102FD00099400B1C0B21081AC44024035205240BF2
:102FE000520DE3E7002200240023DFE71E04000067
:102FF000FFFF0F8043001B0E5A1C4102D2B270B576
:103000004C0AC50F012A17DDE02292006407090B64
:103010009818002200231E0D221C34050C431B4966
:10302000400540082140014349004908ED070B1CB9
:103030002B43101C191C70BD002B15D1002C1CD06B
:10304000201C00F029F80A281ADC0B21091A231C7D
:10305000CB40191C031C15339C400D4B0903181A57
:103060004005090B400DD4E7002C03D06407090B81
:103070000848CEE707480021CBE700200021C8E739
:10308000011C0B398C40211C0024E6E7FFFF0F8058
:1030900089030000FF0700001C2101231B04984244
:1030A00001D3000C10391B0A984201D3000A0839D9
:1030B0001B09984201D30009043902A2105C401890
:1030C0007047C04604030202010101010000000034
:1030D000000000000000000038B50E4B0C4A041C34
:1030E0000D1CFDF75DFB002804D1201C291CFFF7F7
:1030F000DBFE38BD074B064A201C291CFFF7A0FB4E
:10310000FFF7D2FE80231B06C018F2E7C046C04678
:10311000000000000000E041F0B544465F4656461E
:103120004D46F0B41C1C85B0002900DADBE00F1C12
:103130000021061C8A46101C191C002C00DAC9E06C
:103140000196009089468046002951D1B84200D8A6
:1031500071E0FFF7A1FF002809D020234546311C6C
:103160001B1A85408740D940A8460F4386404246F7
:10317000150C13041B0C291C381C9B46FDF72CFA5C
:103180005B464343041C291C381C9946FDF768FA2A
:10319000330C08041843814509D94044631E804517
:1031A00000D978E1814500D875E1023C40444946A8
:1031B000411A8946081C291CFDF70EFA5A4642435B
:1031C000071C291C48469346FDF74AFA36040904B1
:1031D000360C0E43B34507D946447B1EB04502D892
:1031E000023FB34500D81F1C24042743002403E0FA
:1031F000B94211D9002400275246381C211C002A4C
:1032000003D03B1C00215842A14105B03CBC904674
:103210009946A246AB46F0BD081CFFF73DFF041ED1
:1032200000D0BFE0B94500D242E1019D0099071CE2
:103230008D424741E0E7002804D101200021FDF73D
:10324000CBF980464046FFF727FF002852D1414680
:1032500044460B043C1B1B0CA3460D0C009301249D
:10326000291C5846FDF7B8F9009F81464743291CA1
:103270005846FDF7F5F9330C090419438F4208D974
:103280004B464144013B884502D88F4200D91AE1A0
:103290009946C91B8B46081C291CFDF79DF9009B0C
:1032A000291C4343071C58460093FDF7D9F93604FF
:1032B000009D0904360C0E43B54207D946447B1ED7
:1032C000B04502D8023FB54200D81F1C49460E0443
:1032D000374391E75246D243031C0C1C924600210F
:1032E0005842A1412CE7002746428F410121494223
:1032F0008A4620E720231B1A4246351C82403C1C8C
:10330000DD40DC4087402B1C150C3B43291C8640CC
:10331000201C009317049046FDF75EF93F0C011C3A
:10332000794381468B46201C291CFDF799F9009CA6
:103330000904230C19438B450CD94B464144013BEE
:10334000884500D9BDE08B4500D8BAE00222524240
:10335000914441445C460C1B201C291C0194FDF740
:103360003BF9391C4143041C8B460198291CFDF78D
:1033700077F9009A090413041B0C19438B4509D9EA
:103380004144631E884500D997E08B4500D894E0FE
:10339000023C41445B46CB1A49469B460B041C4306
:1033A00000975DE7009D20231B1A4A468240DD40BE
:1033B0001543391C009AD94082408846311C00923E
:1033C000D9403A1C82400B1C134301932F0C2B0451
:1033D0001B0C391C40460293FDF7FEF8029A814609
:1033E0004243391C40469346FDF73AF9019A0904D5
:1033F000130C19438B450AD94B464919013B8D42A1
:103400005DD88B455BD902235B42994449195A46E2
:103410008A1A101C391C0392FDF7DEF8029B8046C5
:103420004343391C03989B46FDF71AF9019A090496
:1034300013041B0C19438B450AD943464919013B18
:103440008D4238D88B4536D902235B4298444919BE
:103450005D464D1BAB464946009D0F04424617434F
:103460002A04120C3B042D0C1B0C380C111C594364
:1034700042436B436843D3180D0C5B198C469A4248
:1034800002D98022520280181D0C401983450CD3AA
:1034900003D00024B0E61C1C89E665462A041B0400
:1034A000120C9B18A6409E42F3D2013F0024A3E6D3
:1034B00000240127A0E69846CAE71C1C6AE7994643
:1034C000A5E7994646E70222524291444144E0E68C
:1034D000F0B55F4656464D464446F0B40D1C85B0E7
:1034E000061C924698460290019103921F1C141CE0
:1034F0008346A946002B59D1AA4269D9101CFFF76F
:10350000CBFD00280AD020231B1A311CD94085404E
:103510000B1C2B43864084409946B346250C23045C
:103520001B0C291C48469846FDF756F84646071CD2
:103530004643291C4846FDF793F85A460904130CE4
:1035400019438E4209D909197B1E8C4200D957E1D3
:103550008E4200D854E1023F0919891B8946081C94
:10356000291CFDF739F843464343061C291C4846ED
:103570009846FDF775F85A46130409041B0C1943C5
:10358000884508D90919731E8C4200D936E1023EDC
:10359000884500D832E1380430430027391C05B093
:1035A0003CBC90469946A246AB46F0BD019A934278
:1035B00062D8181CFFF770FD041E60D1019B9F426A
:1035C00000D22CE1029F03998F4260410027E5E77A
:1035D000002A04D101200021FCF7FEFF041C201C5E
:1035E000FFF75AFD002800D0B9E023042D1B1B0C67
:1035F000A946260C98460127311C4846FCF7ECFFEB
:1036000041464143051C8A464846311CFDF728F8CF
:103610005A460804130C1843824507D900196B1E3B
:10362000844202D8824500D910E11D1C5346C31ABA
:10363000181C311C9A46FCF7CFFF41464143814696
:1036400088465046311CFDF70BF85A46130409040E
:103650001B0C194388450BD94B460919013B8C4279
:1036600000D9CFE0884500D8CCE002235B429944E2
:1036700028044946084391E7002700208EE72023CD
:103680001B1A424657468240DF401743524682404B
:103690000192321CDA40291CD9408540131C2B436F
:1036A00002933D0C3B041B0C8846081C291C9A46BF
:1036B000FCF792FF534643438146291C40469B46F4
:1036C000FCF7CEFF029A0904130C19438B4506D967
:1036D0004B46C919013B8F4200D8ABE099465A4688
:1036E0008A1A101C291C9346FCF776FF5346434365
:1036F000291C804658469A46FCF7B2FF029A0904F4
:1037000015042D0C29438A4506D94346C919013BA6
:103710008F4200D886E098465746CF1BBA464946A6
:10372000019F0804424610433D042D0C03043F0C46
:103730001B0C020C291C594355437B437A43EB185D
:103740000F0CDB198C469D4202D980277F02D219CB
:103750001D0C521992455FD356D000271EE7202337
:103760001B1A311C2F1CD940DF4085400B1C8440A4
:103770002B4386400193B3462304260C1B0C381CB4
:10378000311C9846FCF728FF42464243051C311C79
:10379000381C9146FCF764FF019F09043B0C194358
:1037A000894507D909196B1E8C424DD889454BD9DB
:1037B000023D09194A468A1A101C311C9246FCF730
:1037C0000BFF43464343071C311C50469946FCF708
:1037D00047FF019A090413041B0C1943894507D9B3
:1037E00009197B1E8C422DD889452BD9023F091916
:1037F0004B46CB1A2D0499462F43FDE61E1CCAE604
:103800001F1CAAE6994633E761460A041B04120C02
:103810009B18A6409E42A0D201380027BEE6002792
:103820000120BBE68A4500D875E702235B42984435
:10383000C91971E78B4500D850E702235B429944D0
:10384000C9194CE71F1CD3E71D1CB3E7023D001943
:10385000ECE6C04608B5094A094BD0580949014071
:103860008020C0040143D15002F008FB031C06482D
:10387000E1214902022202F0D3F908BD00700440A0
:1038800004100000FFFFFFF30040054000B585B0C5
:1038900002A80D490831062209F082F800236A4681
:1038A000137080235B0201930849094B094AD150E8
:1038B00002A802F05FFB684602F084FA064A074B52
:1038C0001A6005B000BDC04608DE00000000071009
:1038D0004410000000700440006CDC0204E0FF1F94
:1038E00038B505F08DFB174A506C174B18408021F6
:1038F000C90008435064154A506F1840014351678E
:10390000134AD0681840802149000843D060114A0A
:103910009069184008439061506903401943516110
:103920000D4C0E480321221C02F0D2FF0C4D281C26
:1039300006210C4A02F0CCFF281C0521221C02F0B3
:10394000C7FF38BD00A00440FFF8FFFF00D00440CF
:1039500000C0044000B0044028DF0000C0F00F4069
:1039600080F00F4024DF0000F0B583B000265CE05B
:103970009E24A40074432F4D645D002C54D09E24DB
:10398000A4007443645D012C2ED19E24A4007443D2
:103990002C19256964698C4246DC01D1854243D8E3
:1039A0009E24A4007443234F3C19247A002C06D093
:1039B0009E24A40074433C19A061E1610EE09E24A2
:1039C000A40074431B4D2F19FC6800940025019539
:1039D000009C019D24184D41BC61FD619E24A40002
:1039E00074430225134FE5559E24A4007443114DE2
:1039F0002C19A569E4698C4216DC01D1854213D8E3
:103A00009E24A40074430B4B1F1938627962FA6834
:103A10000023141C1D1C24184D41BC61FD619A2516
:103A2000AD007C19012525700136012EA0DD03B003
:103A3000F0BDC04620E2FF1F10B500280AD10022C9
:103A4000124B1A701248202343600621114A02F0DB
:103A50003FFF19E001280AD101220C4B1A700C48D3
:103A60002023436006210C4A02F032FF0CE00228BA
:103A70000AD10222054B1A70054C201C0621074A68
:103A800002F026FF2023A36010BDC0461CE2FF1FEA
:103A900080F00F40E4DF0000E8DF000048DF0000B6
:103AA000F0B583B000243A4D6EE09E239B00634343
:103AB0005B5D022B67D19E239B0063433448C31890
:103AC0009A2189005B181B78002B5CD09E239B00F9
:103AD0006343C3185A18002111702E4A516889B2E5
:103AE0002D4A526892B29C27BF00DB195888081AE9
:103AF00080B21E88961BB6B259801A80274B1B785D
:103B0000002B03D1B600B6B2800080B2204A9E21BD
:103B10008900614353189A27BF00DB195F68BE19FB
:103B20005E605E68301A58605B68019338315618E1
:103B3000301C08F00DFC032820D89E239B00634313
:103B4000134AD318942080001B181B78002B1AD11D
:103B50009E239B006343D618316A726AB162F26297
:103B6000331C30330D221A70E0B2402104F08AFA7F
:103B700094229200B6180123337004E0301C01A98E
:103B8000042208F025FB0134012C8EDD03B0F0BDCA
:103B900020E2FF1F00800340009003401CE2FF1F53
:103BA00038B5041C9E239B0043431A48C51868205F
:103BB00005F036FC00282BD096229200AD18011C8F
:103BC0005831281C102208F0EBFE124B9E2080007A
:103BD00060430025C5541C1865600F4AE260383008
:103BE000181808F0BFFB9A229200A3185D600B4BD7
:103BF0005B689BB29C229200A4186380084B5B68B0
:103C00009BB223800020FFF717FF0822054B9A6024
:103C100038BDC04620E2FF1F10270000008003408F
:103C200000900340C0F00F40F8B56420204907F031
:103C3000DFFA204B1968802252040A431A601A687E
:103C4000802189040A431A6010231B4A13601B4A0F
:103C500013601B4A1B4BD4581B482040D050D058EF
:103C60000143D15006F03AFD0024184E9E27BF00B4
:103C7000002519E0381C60433318942292009B18E9
:103C80005D709D70DD701D7106225A719A71011C64
:103C900050317118383030188022920008F090FAB4
:103CA000E0B2FFF77DFF0134012CE3DDF8BDC04633
:103CB000693900003C8004400080034000900340CC
:103CC000007004400C100000FFFFFFFE20E2FF1F09
:103CD000F0B557464E464546E0B4051C8846171CCD
:103CE00008AB06CB1B7899460BAB1E78274A924649
:103CF0009E24A4004443201C3830504408F032FB7A
:103D000054440020A0709421890063181870424622
:103D10006260E7600899099A216162614A462272ED
:103D2000667000220023A262E362231C30330C225F
:103D30001A7001225A709A2189006318187008229B
:103D4000134B5A6063689A0602D5FFF775FE02E0CE
:103D50000120FFF771FE0F4B1A780F48291C01F064
:103D6000B5FF0E4C201C291C01F0B0FF9E229200D2
:103D70006A430121054BD154201C291C01F0A6FFE8
:103D80001CBC90469946A246F0BDC04620E2FF1FEB
:103D9000C0F00F401CE2FF1F4CDF000064DF00009A
:103DA00070B5011C9E229200424300200D4BD0545E
:103DB000002301200B4C9E25AD00002606E02A1CA6
:103DC0005A43125D002A00D0301C0133012BF6DD6E
:103DD000002802D00822044B9A60044801F076FFC4
:103DE00070BDC04620E2FF1FC0F00F407CDF000026
:103DF000CBB2062B3FD89900204B5B589F469E23A1
:103E00009B0058431E4B181894239B00C018407801
:103E100032E09E239B005843194B181894239B00B3
:103E2000C018807828E09E239B005843144B181834
:103E300094239B00C018C0781EE09E239B0058432B
:103E40000F4B181894239B00C018007914E09E2390
:103E50009B0058430A4B181894239B00C0184079C4
:103E60000AE09E239B005843054B181894239B009F
:103E7000C018807900E000207047C0462CDF0000A9
:103E800020E2FF1F00990023FF2201E0CA54013302
:103E90001F2BFBDD202070470C4B994214D19E2331
:103EA0009B0058430A4B18189C239B00C218002300
:103EB000538013809A22920080184360054A536011
:103EC000054A5360054800E0081C704724896D4985
:103ED00020E2FF1F008003400090034050C3000019
:103EE0009E239B00584396239B00C018014B181833
:103EF0007047C04620E2FF1F002070473220704705
:103F0000322070473220704732207047322070478D
:103F1000F0B5474680B484B080460C1C94460AA98C
:103F200000228E5E0BAD2F782578022D45D13122EF
:103F3000A25C002A10D00093231C3233019301337A
:103F400002930133039360682049E268634604F0FA
:103F500039FF00223123E2543023E35C002B16D0DA
:103F6000002F03D000223023E25410E0A278009208
:103F70006168019102934046A26AE36A04F0A4FEDC
:103F8000A3780133A37000223023E25418E0201CF0
:103F9000383008F0D5F900B2311CFCF76BFB00B2E9
:103FA0003323E35C98420ADB0C9A138040460021DD
:103FB000FF2208F0FEFC064802E0002000E000209E
:103FC00000B204B004BC9046F0BDC046A08601001B
:103FD000FFFF0000F0B557464E464546E0B488B0B6
:103FE00088466B460022DA8216339E24A400604382
:103FF000344C241804210091019202934046211C64
:1040000009220423FFF784FF002854DA0025002743
:104010006E4616362C4B9A462C4B994633E0201CA4
:10402000383006A9042208F021F963689B0612D5EE
:104030000698FDF78DF95146FDF740F84946FCF723
:1040400059FE079038B24044093007A9042208F00D
:10405000A7FC0437BFB263685B0612D50698FDF76C
:1040600077F95146FDF72AF84946FCF743FE0790D9
:1040700038B24044093007A9042208F091FC043703
:10408000BFB20135ADB233882AB219B28A42C6DB5B
:10409000002F0FD0D9B23223E25C6378A078451CA0
:1040A000A570A4880090019406200290404604F078
:1040B00063FE00E0002000B208B01CBC90469946A8
:1040C000A246F0BD20E2FF1FDB0FC9400000B4C4D0
:1040D000F0B54F464646C0B489B088466B460022CC
:1040E0005A831A339E25AD0068432D4D2D180422A6
:1040F0000092012201920293081C291C0822042329
:10410000FFF706FF002844DA002400276E461A361F
:1041100038225219914624E0484607A9042208F0A3
:10412000A5F86B689B060BD5079A5342059338B2E6
:104130000830404405A9042208F032FC0437BFB21D
:104140006B685B060BD5079A5342059338B208306B
:10415000404405A9042208F023FC0437BFB201340F
:10416000A4B2338822B219B28A42D5DB002F0FD015
:10417000D9B23223EA5C6B78A878441CAC702C79F5
:104180000090019404200290404604F0D1FD00E02C
:10419000002000B209B00CBC90469946F0BDC04664
:1041A00020E2FF1F10B5041C0123037001301949E0
:1041B00008F055FC201C1130174908F050FC201C59
:1041C0002130164908F04BFC0022002342216252A4
:1041D000442162524622A3544722A3542022A264BF
:1041E0006822A35496235B00E3640D4B23650422ED
:1041F0005823E25400220023226663660023002233
:1042000003E0E15C8A18D2B201336F2BF9D968233D
:10421000E25410BD94DF0000A4DF00009CDF00002A
:10422000C0A8000038B5041C0578012D08D0FFF7A0
:10423000B9FF22780348291C01F048FD012000E065
:10424000002038BDB0DF00007047C046EFF3108398
:1042500072B6036072B6704780F310887047C0462C
:10426000012803D8024B0B60002000E006207047B5
:1042700058E0000070B50F250D40CC0900281ED075
:104280004668002E19D06D0025436C006419A40007
:104290000419247D002C14D16C006519AD0045195A
:1042A00001242C754CB2002C03DAB4680068A047D6
:1042B00008E0F4680068A04704E0062002E003205C
:1042C00000E0022070BDC04608B5002808D0436851
:1042D000002B03D05B690068984702E0062000E0ED
:1042E000032008BD38B5051C01226F23C2540E21DE
:1042F0000022FFF7E9FF02226E23EA5400226C231A
:10430000EA540023002107E05A00D2189200AA18AC
:10431000D160116111750133072BF5D9281C0121DA
:104320000022AB68984700226F23EA54002038BD72
:1043300010B584B00B7A0F221A40DC09102B02D181
:10434000FFF7D0FF2AE0032A25D8530023435A0061
:10435000D21892008218D268002A1ED001AC0A68D6
:1043600001924A6802924A7A2272002A04D00022FC
:1043700002752021425405E05A00D218920082189A
:10438000002111755900CA1892008218D468126968
:1043900001A9A04702E0012000E0012004B010BD07
:1043A00070B582B0051C0E1C01A8FFF74FFF00235B
:1043B00014E0DA00D21A12011A495258002A0CD01D
:1043C000DA00D21A12018A1868325279AA4204D14C
:1043D0000198FFF741FF012022E00133002BE8D0D4
:1043E0000023104C16E0DA00D21A12011259002AEA
:1043F0000FD10C49D800C21A12018A1868325571BF
:10440000C31A1B01CB1833600198FFF725FF00206A
:1044100006E00133002BE6D00198FFF71DFF0220D4
:1044200002B070BD10E7FF1F10B582B0041C01A8D8
:10443000FFF70CFF002323606D22A3540198FFF7C0
:104440000BFF002002B010BD08B5002907D00028DE
:1044500007D08368002B06D0FFF76AFF04E0032033
:1044600002E0032000E0012008BDC04608B500219D
:104470000022FFF729FF08BD08B501210022FFF740
:1044800023FF08BD10B5041E0CD04368002B04D0D8
:104490005B680068984700236360201CFFF7C4FF37
:1044A000002000E0032010BDF0B5474680B482B084
:1044B000071C0C1C904600230193002A55D001A92B
:1044C000FFF76EFF002851D1019A94606D23D754F5
:1044D00000236C2153546F215354002507E05C00E6
:1044E000E418A4001419E560256125750133072B34
:1044F000F5D9111D381CFFF7B3FE041E04D0019836
:10450000FFF792FF201C31E0019A5368002B04D181
:10451000101CFFF789FF062028E01C68002C0ED035
:10452000596800290BD09968002908D0D96800295A
:1045300005D01969002902D05B69002B04D1101C39
:10454000FFF772FF072011E0381C111CA047041E62
:1045500004D00198FFF796FF201C07E0019B022181
:104560006E2299544246136000E0032002B004BC5E
:104570009046F0BD10B50F24214080242143FFF761
:1045800079FE10BD10B50F242140FFF773FE10BD5A
:1045900070B50B1C00281DD000291DD0002A1DD08D
:1045A00089780F240C40C909032C19D864002143D1
:1045B0004D006C18A40004191668E6605268226168
:1045C00069188900411800220A7502211A1CFFF798
:1045D0007BFE06E0032004E0042002E0042000E06B
:1045E000042070BD70B582B0041C6B46D9710F23D6
:1045F0001D1C0D40CE09002814D003216A46073245
:10460000FFF762FE032D0FD86D002E4371008B194A
:104610009B00E3180022DA601A618E19B600A41913
:10462000227502E0032000E0042002B070BDC04605
:1046300000B583B06B46D9710F231940032905D803
:1046400004216A460732FFF73FFE00E0042003B072
:1046500000BDC04600B583B06B46D9710F23194029
:10466000032905D805216A460732FFF72DFE00E031
:10467000042003B000BDC04608B5002A25D0082993
:1046800021D88900124B5B589F460F21FFF71CFE73
:104690001CE01021FFF718FE18E06E23C35C1370B6
:1046A000002013E06C23C35C137000200EE0062191
:1046B000FFF70AFE0AE00721FFF706FE06E00921E0
:1046C000FFF702FE02E0012000E0042008BDC04622
:1046D00004E0000008B50339CBB20B2B32D89900A7
:1046E0001B4B5B589F461121FFF7EEFD2FE0002A80
:1046F0002AD012786E23C254002028E06E23C35CB7
:10470000032B09D0002A21D012786C23C254032233
:104710006E23C25400201AE0021C6C320821FFF7FD
:10472000D3FD14E00A21FFF7CFFD10E00B21FFF7C6
:10473000CBFD0CE00C21FFF7C7FD08E00D21FFF7D2
:10474000C3FD04E0012002E0012000E0012008BDDB
:1047500028E00000F0B54F464646C0B4FF2288234B
:104760008168CA54836894229C5C02212143995435
:10477000002298238468E25400230F25AC460827C2
:1047800010261825012189462FE04468610A490254
:10479000884661461940490144460C4322604468FA
:1047A000640A64020C433C4322604468640A640265
:1047B0000C43344322604468640A64022143294361
:1047C0000A6059005C01A04680442824A044444665
:1047D00062604C46214309014118CA62191C3031FC
:1047E000890084680A550133DBB2032BCDD900213F
:1047F000A023C15482689423D45C0225AC43D454D2
:10480000FF248C228568AC54892484228568AC54AA
:10481000A12281548268D15C20208143D1540CBCF8
:1048200090469946F0BDC046F0B5474680B482B088
:10483000041C0E1C151C1F1C48001043804601A8B8
:10484000FFF704FD41460801201828304279402333
:10485000134343716268530A5B020F2216407601CC
:104860003343012215402D012B434279D206D20F4A
:10487000D20013435F6061684B0A5B021E433543FD
:104880004379DA06D20FD200154308998A059209B6
:104890001B07DB0F9B011343882213432B600198F6
:1048A000FFF7DAFCA2689423D15C20208143D15425
:1048B000002002B004BC9046F0BDC04630B583B0C5
:1048C0002D23C35CDB06DB0FDB00C3180C33036254
:1048D0000022826208224262011C2C314D78202481
:1048E0002C43E4B294434C70009200210022FFF765
:1048F0009BFF03B030BDC046F8B54F464646C0B436
:104900000D888C780F222240E409530023439946F6
:10491000CE78012E03D1234EB5420DD80DE0402DA7
:1049200000D94025171C3037BF008368FB5C012687
:104930001E438368FE5400E01A4D4E463301C318EF
:1049400028335E794027BE435E71AD05AE0D9D886C
:10495000AD0AAD0235439D802D0A0826B5430426D5
:10496000B5435D710D79ED0159797F2631402943B9
:1049700059718368111C30318900CD5CEDB2012C76
:1049800001D1042100E008210D43111C30318900C0
:10499000CD54224301D1FFF791FF00200CBC90467B
:1049A0009946F8BDFF030000F8B55F4656464D46F0
:1049B0004446F0B4041C0F220A40C90950000843C1
:1049C0000301E31828335D790426B5430826B5436F
:1049D0005D7100235501A8460E01B4460127000170
:1049E000001982460820814617E06568680A40027F
:1049F00046463043654628433D1C1D40ED00284394
:104A0000056804262E4206D05546AD8DAE05B60982
:104A10004D462E4306600133DBB2012BE5D9A36876
:104A2000101C30308000C55C0226B543C5540A43D3
:104A300002D1201CFFF742FFA2689423D15C202002
:104A40008143D15400203CBC90469946A246AB46D7
:104A5000F8BDC04610B5041C802300E0D354A26802
:104A6000D15C49B20029F9DB3D23E35C5A0703D44A
:104A70002D23E35C5A0707D5201C8021FFF794FF04
:104A8000201C0021FFF790FF10BDC04600B585B087
:104A90000123A1228354802281688B5401A9002321
:104AA000019310220A724B604B720068FFF7CCFC36
:104AB00005B000BD002817D0FF2280238168CA54AA
:104AC00082688421535C00235354982281688B545C
:104AD000942281688B54826880235B00D05CC02163
:104AE0000143D154002000E003207047F0B5474651
:104AF00080B482B0041C0F270F407D0001210D43BC
:104B0000290141182831497948060ED42801201876
:104B1000011C283100268662A81C000102512018C1
:104B200043604879202202434A712A01A218968DD7
:104B3000B605B60D9E4200D31E1CA123E35C002BDC
:104B40000ED1AB1C1B011A592B01E3189B6AD31819
:104B50000096201C391C0122FFF766FE804601E00A
:104B6000012398462D016519AB6A1E4304D1002F1D
:104B700002D1201CFFF7A2FE404602B004BC9046C2
:104B8000F0BDC046F0B583B00F2421404C00002B8F
:104B90000CD100290AD12401041928346379402258
:104BA00093436371FFF78AFE012041E02501451917
:104BB00028356D796E0608D4250145190026AE62A8
:104BC000A51C2D012A5045196B6025014519283572
:104BD0006F7920263E436E71AD88AD05AD0D9D42C7
:104BE00000D31D1C2301C3189B6A9A18131CC669A5
:104BF000002E14D0A027C75D002F10D1402D0ED855
:104C0000AF0701D197070AD024010419283463792A
:104C10002022934363710122A023C254331CA1229A
:104C2000825C002A03D10095FFF7FEFD00E0012021
:104C300003B0F0BDF0B55F4656464D464446F0B46D
:104C400089B0041C82689023D35CDBB21E0918076C
:104C5000C00FC7B25B07D90FCBB299468023082596
:104C6000D55463685A0A520273011A4394460301E9
:104C70001343C9000B431A6859688B469001800D95
:104C80009206120F0D2A02D10122904601E0002364
:104C9000984675003D432B01E31828335B7959068C
:104CA00000D44AE14246002A02D0A3234946E154F7
:104CB000012F00D087E02A01A218111C2831936A25
:104CC0001B189362AA1C1201A2185268D31A9C46A0
:104CD0004A7903921307DB0F9A46012399464A4605
:104CE00053465A4001231A40D20092460822934666
:104CF000039A5B469A43534613439B46DB06DB0FFE
:104D00001A1C4B465A40012313401B019A4610229D
:104D100091465A464B469A4353461A434A71614656
:104D2000002906D02B01E3189B8D9B059B0D834228
:104D30003FD92A01A218131C2833926A0692AA1C92
:104D40001201125905925A7940218A435A7100285A
:104D500000D1E3E02B01E318998D8905890DFBF75C
:104D60007FFC002900D0D9E0002E13D1A323E35CFF
:104D7000DB00E3185A8AAB1C1B01E3185B689A42FC
:104D800000D8CBE000230093201C311C0122FFF748
:104D90004BFDD2E02B01E31828335B79DB0900D10E
:104DA000BCE000230093201C311C0122FFF73CFDD6
:104DB000C3E08021314302352D012A59201C63466E
:104DC000FFF794FEB9E0002E05D1002803D100239F
:104DD00006930593A2E02B01E31828335B799A062A
:104DE00020D42B01E3181A1C28325279D206D20F94
:104DF000D100624611434A689446AA1C1201125916
:104E00009B6AD2189146944506D108E06146CA5C77
:104E10004946CA54013300E000238342F6D30022FE
:104E2000A023E2542A01A218916A43189362AA1C93
:104E30001201A2185268D21A9446002E0DD1424691
:104E4000002A0AD0231C2C335978082211435970A8
:104E5000103359780A435A7017E02B01E3182833AE
:104E600003935A791307DB0F01218A4651464B40C1
:104E700099460123191C4B461940C900894608214F
:104E80008A4349460A43039B5A712A01A2182832D1
:104E900051790391C906C90F01239A4653465940D7
:104EA000894601210B1C49460B401B0199461023E2
:104EB0009A46039B51468B4349460B435371AB1CA7
:104EC0001B01E3185B68002B09D06246002A06D05C
:104ED0002B01E3189B8D9B059B0D834215D92B015C
:104EE000E3189B6A06934346002B02D0594605916E
:104EF00003E0AB1C1B011B5905932D0165192835D7
:104F00006B79402293436B7108E002352D012A59D9
:104F1000201C311C6346FFF735FE0EE005A9424612
:104F20004A72FF013E430E722068FFF78DFAA268B5
:104F30009423D15C20208143D15409B03CBC9046DD
:104F40009946A246AB46F0BD10B584B0CA090F23FE
:104F50000B405B0013431A01821828325279540621
:104F600015D501AA0124644202949C1C24012458F2
:104F700001941172002151721B01C3182833597911
:104F80004024A14359710068111CFFF75DFA00200D
:104F900004B010BDF8B5041C0F260E40CD097700F3
:104FA0002F43FFF7D1FF3B01E3182833597904223F
:104FB0000A435A7161684A0A5202760116432A016D
:104FC000351C15435A79D206D20FD20015439B885F
:104FD0009B059B098C2213432B60A2689423D15C10
:104FE00020208143D1540020F8BDC04670B5041C78
:104FF0000F250D40CB096E001E43FFF7A5FF30358E
:10500000AD000023A268AB543601A419A38D9B0AFE
:105010009B02A385002070BD70B5041E00D18CE0FA
:105020000F2976D88900464B5B589F460022802383
:105030005B008168CA54836884225200985C102106
:1050400001439954A2689423D05C01210143D154B7
:10505000002073E0826884235B00D15C10208143D0
:10506000D15400206AE0002A55D0111CFFF744FCFF
:1050700064E0002A51D01178FFF7B8FF5EE0002A03
:105080004DD01178FFF786FF58E0002A49D01178FB
:10509000FFF78AFC52E0002A45D00123138000204C
:1050A0004CE0002A41D013780F21194003293ED843
:1050B0004900DB090B431B01C418283463795B07E3
:1050C000DB0F5380002039E0002A32D0816812784B
:1050D0009823CA54002031E0311C2943C9B2201C56
:1050E000FFF784FF201C291CFFF780FF0135EDB27C
:1050F00002E0002580267642032DEDD9201CFFF723
:1051000029FB00201AE0002A15D00023137000208C
:1051100014E0012012E0012010E001200EE0012047
:105120000CE001200AE0012008E0012006E0012057
:1051300004E0012002E0012000E0032070BDC04631
:1051400070E00000F0B583B0041C0E1C171C1C4B53
:105150000193002830D1A42545431A4B5D19A223A1
:10516000E854830002A9CB18043B1B68AB608101A3
:10517000154A24325218EA61FF2180229954281CD2
:1051800001210022FFF748FF6402104B1C196C60DC
:10519000240AE4B29C23AA68D454AA79B023A9684B
:1051A000CA54EA79B423A968CA54281CFFF7D2FA72
:1051B0003D602E60002000E0062003B0F0BDC04638
:1051C0000020074000EAFF1F80EAFF1F00E8FF1FE2
:1051D00038B500281ED005688023AA68D45CE4B2E4
:1051E000230702D5281CFFF725FDE20702D5281C5E
:1051F000FFF74CFC64B2002C02DA281CFFF72AFCF3
:10520000AB68AE2252009A5CD2B2002A02D0AE2124
:1052100049005A5438BDC04610B582B00190084BC1
:105220001B78002B07D0064B9C68586801A9012207
:10523000A047012001E00120404202B010BDC0465D
:10524000E4EAFF1FF0B5474680B480460C1C161CEC
:105250001D1C069F05E04046B8472B6801332B60B4
:105260000134B442F7DB04BC9046F0BDF0B55F46B4
:1052700056464D464446F0B483B01F1C0CAB1B7819
:105280009846461C00230370002A34D00C684D68F1
:10529000231C2B4326D130234370012072E0201CB5
:1052A000291C52464346FBF7BFFA81460F1C504665
:1052B00041464A463B1CFBF7FBFA241A8D41002D60
:1052C00005DA30220023121BAB41141C03E030220C
:1052D0000023A4185D41347001239B4401364C46E1
:1052E0003D1C04E000229346FB179846BA46231C57
:1052F0002B43D4D145E00C684D68231C2B4334D19B
:105300003023437001203DE0201C291C321C3B1C33
:10531000FBF7AEFA81468846301C391C4A464346A4
:10532000FBF7C6FA241A8D41002D07D101D1092CB3
:1053300004D830220023A4185D410EE0019B002B0D
:1053400002D04122002301E061220023A4185D4124
:105350000A225242D317A4185D4153461C70012201
:10536000934492444C46454608E000239B46FA1776
:105370009146B2463E1C424601924F46231C2B43A7
:10538000C2D1584603B03CBC90469946A246AB46B3
:10539000F0BDC04600000000F0B55F4656464D46E1
:1053A0004446F0B487B0041C90469A4601308146CA
:1053B000002323700A684B6800920193101C191C8B
:1053C0006A4B694AFBF7C8F9002803D030236370A1
:1053D0000120C1E00098019904AA07F0F3FA041C27
:1053E0000D1C002657460BE04046FDF791FD021CC0
:1053F0000B1C201C291CFCF793FF041C0D1C013600
:10540000BE42F1D3BA4600980199584B564AFBF771
:10541000C7F900281FD0201C291C554A554BFBF703
:10542000F3FF061C0F1C5046FDF7B0FD021C0B1CC1
:105430005148524907F038FB321C3B1CFBF79CF9E2
:1054400000282DD0049805994D4A4E4BFBF7DCFF00
:105450000490059124E0201C291C454A454BFDF78A
:10546000EFF9061C0F1C5046FDF790FD021C0B1CAB
:105470004148424907F018FB021C802000060B1827
:10548000101C191C321C3B1CFBF78AF9002807D0A2
:10549000049805993A4A3B4BFDF7D2F904900591DF
:1054A0000022009200244346DB170393A3462AE020
:1054B0004046FDF72DFD021C0B1C301C391CFCF76F
:1054C000C5FA041C0D1CFBF717FA4246039BFBF7B9
:1054D000EFF9FBF755FA021C0B1C301C391CFDF7C9
:1054E000AFF9FDF7E1FC002802DA3023181A00E0DA
:1054F00030304A461070009B0133009301208344F2
:105500008144261C2F1CD345D2D34D4601352E2372
:105510004A461370009E013604980599FDF7C4FCB5
:10552000041E15D1302348464370009E023612E017
:10553000201C4146FBF79EF843464343E41A01D53D
:105540003C1B00E030342C7001360135041C00E0B7
:105550003027002CECD1301C07B03CBC904699465B
:10556000A246AB46F0BDC0460000000000000000AF
:10557000000000000000E03F0000000000002440A8
:10558000000000000000F03FF0B55F4656464D4673
:105590004446F0B499B006900C1C059200230E937B
:1055A000002200230A920B9300210791002204920B
:1055B000BD4E171C25E325281ED0069988470E9B53
:1055C00001330E931CE3611C6378203BDAB2102A8E
:1055D0001FD89300F3589F46624615430AE043469E
:1055E0001D4307E04A46154304E053461D4301E0CE
:1055F0005A4615430C1C0DE00025002001239C4653
:1056000010218B460822924604239946022188469F
:1056100000E060460028D6D0002294460121894649
:10562000101CA84618E0651C63785AB2111C30396A
:10563000092907D883001B185B00D318181C3038C1
:105640002C1C09E02A2B06D1059B18681A1C043271
:1056500005922C1C00E0CC466346002BE3D0454667
:105660008046621C0123E3562E2B1FD000218B465F
:105670000622924627E0651C63785AB2111C303925
:10568000092908D883001B185B00D318181C303870
:105690002C1CCB4612E02A2B06D1059B186804333C
:1056A00005932C1CCB4609E0CC4607E0141C0021D6
:1056B0008B468C46012189465846AA466246002AF6
:1056C000D9D0554682466378682B02D06C2B0CD01B
:1056D00018E0A31C0222A256682A03D040231D43CF
:1056E000631C10E0202215430DE0A31C0222A256E9
:1056F0006C2A03D080231D43631C04E080225200E7
:10570000154300E0231C5C1C5B7803935BB2994655
:10571000642B12D0692B10D0662B0ED0462B0CD0E8
:10572000782B0AD0582B08D06F2B06D0622B04D0D0
:10573000702B02D0752B00D0FEE14B46642B01D0BC
:10574000692B75D1E9050BD5059B073307229343D8
:105750001A1C0832059219685A680C910D9207E0DC
:10576000059B1B68059A043205920C93DB170D9379
:10577000012300930FA80CA901220A23FFF776FD4D
:1057800004900FAB1F180D99002905DA021C013295
:1057900004922D239B4611E0A90705D5049A0132F6
:1057A00004922B239B4609E0690705D5049A013230
:1057B000049220239B4601E000218B462A0714D542
:1057C0005B46002B05D05846069988470E9B01334F
:1057D0000E93069A00923020049942460EABFFF7D2
:1057E00031FD41460491012317E0EA0712D4069BDC
:1057F00000932020049942460EABFFF723FD594643
:10580000002909D05846069A90470E9B01330E9303
:10581000012302E0002300E00123002B08D15B46B6
:10582000002B05D05846069988470E9B01330E93EE
:105830004A46662A01D0462A74D1059B07330722BF
:105840009343191C0831059119685A680891099207
:105850000FA808A90A225346FFF79EFD04900FAA3D
:105860001718089809990F4B0D4AFAF77BFF002883
:1058700005D0049B013304932D218A4618E0AA0722
:1058800005D5049B013304932B218A4610E06A0757
:105890000CD5049B0133049320218A4608E0C046BE
:1058A0000000000000000000B0E00000002292466E
:1058B0002B0714D55146002905D05046069A90472B
:1058C0000E9B01330E93069B0093302004994246B1
:1058D0000EABFFF7B7FC42460492012317E0EB073B
:1058E00012D4069900912020049942460EABFFF78E
:1058F000A9FC5246002A09D05046069B98470E9BA9
:1059000001330E93012302E0002300E00123002B6A
:1059100008D15146002905D05046069A90470E9B63
:1059200001330E934B46582B02D0782B00D08BE0DE
:105930004946782902D00122934601E000239B4684
:10594000E9050BD5059B0733072293431A1C083240
:10595000059219685A680A910B9207E0059B1B682B
:105960000A93059A0432059200230B93594600913D
:105970000FA80AA900221023FFF778FC04900FAAB1
:1059800017182B071FD5E90610D53020069A904727
:105990005B46002B01D0582000E07820069988470C
:1059A0000E9B02330E930122924601E000239A4699
:1059B000069900913020049942460EABFFF742FC55
:1059C0004346049329E0E90722D410232B409A464A
:1059D00002D0049A02320492069B0093202004997C
:1059E00042460EABFFF72EFC5146002913D0302063
:1059F000069A90475B46002B01D0582000E07820A3
:105A0000069988470E9B02330E930122924604E0CA
:105A100000239A4601E000218A46EA0616D553463D
:105A2000002B13D13020069988475A46002A01D00E
:105A3000582000E07820069B98470E9B02330E9377
:105A400004990231049101E0012293464B466F2BE9
:105A500005D0622B03D0702B01D0752B51D1E905F5
:105A60000BD5059B0733072293431A1C0832059276
:105A700019685A680A910B9207E0059B1B680A9304
:105A8000059A0432059200230B9303996F2914D0D1
:105A90004BB26F2B02DC622906D010E0039A702A09
:105AA00005D0752A06D00AE00223079307E01021EB
:105AB000079104E00A22079201E008230793594660
:105AC00000910FA80AA90022079BFFF7CFFB0490C3
:105AD0000FAA17182B070AD50699009130200499B0
:105AE00042460EABFFF7AEFB4346049309E0E907DD
:105AF00007D4069A00922020049942460EABFFF785
:105B0000A1FB002F07D10CE0013F40B2A0470E9B44
:105B100001330E9301E0A146069C38780028F3D1AA
:105B20004C46EB076CD5069900912020049942461B
:105B30000EABFFF787FB63E0632B0AD1059B0020C8
:105B4000185604330593069988470E9B01330E932C
:105B500056E0732B4ED1059B196889461A1C0432F6
:105B6000059200294CD05946002902D0534604938F
:105B700003E0484606F07BFF049001231D4007D157
:105B8000069900912020049942460EABFFF75AFB7C
:105B90005A46002A0BD11EE00123994440B20699CF
:105BA00088470E9B01330E93049A013A04924B46A8
:105BB0001878002802D004990029EDDC5246049B95
:105BC000D21A04920BE00121894440B2069A904710
:105BD0000E9B01330E934B4618780028F3D1002D0D
:105BE0000ED0069900912020049942460EABFFF793
:105BF00029FB05E0181C069A90470E9B01330E9373
:105C0000013400202056002800D0D4E40E9819B0AA
:105C10003CBC90469946A246AB46F0BDC046C04645
:105C200070B584B00E1C1D1C234C2478002C3DD173
:105C3000214B1A70022A1DD0062A01D0012A37D121
:105C40001D4C606001A801F01DFE0196606801A96D
:105C50002A1C01F089FD6368D97808220A43DA70AA
:105C6000D97804220A43DA70144BA360144BE36022
:105C700000201EE0104C606001A800F09BFF019620
:105C8000606801A92A1C00F099FE63689968802267
:105C900012030A439A6099688022D2020A439A60EA
:105CA000084BA360084BE360002002E0012000E005
:105CB000042004B070BDC046E4EAFF1FC1780000B4
:105CC000DD780000716C0000B16C00000FB400B50D
:105CD00083B0084B1B78002B06D005AA019206481A
:105CE0000499FFF751FC01E00120404203B008BCD9
:105CF00004B01847E4EAFF1F19520000094B1B7853
:105D00009A0705D4074B9B791B079B0F012B07D1E3
:105D1000044B5A7801231A409200034BD05800E0FC
:105D20000020704700400640E4E1000008B5084B41
:105D30001B785BB2002B09DA064B1868002806D1E5
:105D400005488521054A064B00F070F9002008BD82
:105D500000500640A0FDFF1F5CE10000ECE10000E8
:105D6000B8E1000008B5124B1B681B039B0F022B08
:105D700011D0032B02D0002B17D102E0FA208000B3
:105D800014E0FFF7D3FF80231B02984201D1181CB7
:105D90000CE000200AE0074B1868002806D10648EE
:105DA0009921064A064B00F041F9002008BDC04683
:105DB000007004409CFDFF1F5CE1000004E2000055
:105DC000C4E10000074B084A4168995000781968FF
:105DD000064A11408004C022120302400A431A609E
