:1000000000600020E904000031CF000001CF0000B3
:1000100000000000000000000000000000000000E0
:1000200000000000000000000000000061CF0000A0
:10003000000000000000000091CF0000BDBD0000E6
:100040006105000065050000690500006D05000000
:100050004905000049050000490500004905000068
:100060007105000075050000790500007D050000A0
:10007000810500008DD000008905000049050000C1
:1000800049050000490500004905000041DF000066
:1000900049050000490500007DBD00008D050000F8
:1000A000B9CA0000490500004905000049050000E3
:1000B00049050000490500004905000041BD000058
:1003C0006B636667FFFFFFFFFFFFFFFFFFFFFFFF9E
:1003D000FFFFFFFFF708120004360100FFFFFF00D8
:1003E000FFFFFFFFFFFFFFFF00FFFFFFFFFFFFFF1C
:1003F000FFFFFFFF00000000000000000000000001
:10040000FFFFFFFFFFFFFFFFFFFFFFFFFE31FFFFCB
:1004100010B5064C2378002B07D1054B002B02D0DA
:10042000044800E000BF0123237010BD00E2FF1F5D
:10043000000000003052010008B5084B002B03D02B
:100440000748084900E000BF07480368002B03D0B5
:10045000064B002B00D0984708BDC04600000000A6
:100460003052010004E2FF1FE4E1FF1F0000000022
:10047000164B002B00D1144B9D46402292029A1A33
:10048000924600218B460F461348144A121A0FF069
:1004900008FA0F4B002B00D098470E4B002B00D0D2
:1004A00098470020002104000D000D48002802D0CC
:1004B0000C4800E000BF0FF0C5F9200029000CF047
:1004C0006FFC0FF0A9F9C046000008000060002092
:1004D000000000000000000000E2FF1F4C2C002084
:1004E000000000000000000072B60E480E490160D6
:1004F0000A6882F308880D4880470D490D4A0E4B63
:100500009B1A03DD043BC858D050FBDC0B490C4A56
:10051000521A03DD00208850043AFCDA62B609481A
:100520008047000008ED00E00000000055A4000036
:100530005852010000E0FF1FE8E1FF1F00E2FF1F2B
:100540004C2C00207104000011480047114800475E
:10055000114800471148004711480047114800471B
:10056000114800471148004711480047114800470B
:1005700011480047114800471148004711480047FB
:1005800011480047114800471148004711480047EB
:10059000C1CF000031CF000001CF000061CF0000CB
:1005A00091CF0000BDBD0000018600001186000053
:1005B0002186000031860000C9920000E19200000F
:1005C000499C0000819C0000E59600000197000016
:1005D000B18B0000AD970000002934D00123002228
:1005E00010B488422CD301242407A14204D28142B2
:1005F00002D209011B01F8E7E400A14204D28142C2
:1006000002D249005B00F8E7884201D3401A1A433E
:100610004C08A04202D3001B5C0822438C08A04275
:1006200002D3001B9C082243CC08A04202D3001B2B
:10063000DC082243002803D01B0901D00909E3E7A5
:10064000101C10BC7047002801D00020C04307B424
:10065000024802A14018029003BDC046D900000024
:100660000029F0D003B5FFF7B9FF0EBC4243891A49
:100670001847C046002941D010B4041C4C40A44681
:1006800001230022002900D54942002800D540421C
:1006900088422CD301242407A14204D2814202D2F1
:1006A00009011B01F8E7E400A14204D2814202D211
:1006B00049005B00F8E7884201D3401A1A434C080E
:1006C000A04202D3001B5C0822438C08A04202D344
:1006D000001B9C082243CC08A04202D3001BDC086C
:1006E0002243002803D01B0901D00909E3E7101CAD
:1006F0006446002C00D5404210BC7047002806D04C
:1007000003DB0020C043400801E08020000607B45E
:10071000024802A14018029003BDC0461900000023
:100720000029EBD003B5FFF7A7FF0EBC4243891A9F
:100730001847C0467047C0468446101C62468C4627
:10074000191C634600E0C0461FB501F0F9FE002801
:1007500001D40021C8421FBD10B501F029FE40425E
:10076000013010BD10B501F0EBFE002801DB0020C8
:1007700010BD012010BDC04610B501F0E1FE0028FB
:1007800001DD002010BD012010BDC04610B501F0F4
:1007900059FE002801DC002010BD012010BDC0461C
:1007A00010B501F04FFE002801DA002010BD012035
:1007B00010BDC0468446081C6146FFE71FB500F027
:1007C00049FC002801D40021C8421FBD10B500F02B
:1007D000CFFB4042013010BD10B500F03BFC0028BB
:1007E00001DB002010BD012010BDC04610B500F097
:1007F00031FC002801DD002010BD012010BDC046E5
:1008000010B500F0DFFB002801DC002010BD012046
:1008100010BDC04610B500F0D5FB002801DA00205D
:1008200010BD012010BDC046002B15D1002A13D1E8
:10083000002900D1002807D003DB0020C043410875
:1008400002E080210906002007B4024801A14018F7
:10085000029003BDE1FEFFFF03B4684601B50298B4
:1008600000F0BEF8019B9E4602B00CBC7047C0462B
:10087000002B11D1002A0FD1002900D1002802D06D
:100880000021C943081C07B4024802A14018029085
:1008900003BDC046A1FEFFFF03B4684601B5029840
:1008A00000F0BAF8019B9E4602B00CBC7047C046EF
:1008B0009C460304F0B51B0C17043F0C150C1E1CC2
:1008C000041C000C7E436B4347434543FB18300C2C
:1008D0001818874202D980235B02ED18030CED182B
:1008E00063465C434A433604360CA1180004801961
:1008F0004919F0BD9E2110B5C905041CFFF78AFFF8
:10090000002803D1201C00F091FE10BD9E21C905D6
:10091000201C00F015FD00F089FE80231B06C01886
:10092000F3E7C0460000000038B50E4B0C4A051C2A
:100930000C1CFFF717FF002804D1281C211C00F015
:1009400013F838BD80231B06E118281C00F00CF8B2
:10095000021C0B1C002150429941F2E7C046C046E0
:10096000000000000000000070B50E4B0C4A0D1C8A
:10097000041C01F063FE02F0C7FD061C02F094FCAB
:10098000094A0A4B01F05AFE021C0B1C201C291CB0
:1009900002F0E4F802F0B8FD311C70BDC046C0465C
:1009A000000000000000F03D000000000000F041E9
:1009B00070B5061C081C02F039FC084B064A01F011
:1009C0003DFE0D1C041C301C02F06EFC2B1C221C76
:1009D00000F0A8FE70BDC046000000000000F0411D
:1009E000F0B583B0161C1F1C0090019102F0ACFD05
:1009F000041C0D1C221C2B1C301C391CFFF758FF3B
:100A0000009A019B121A8B410899201C0A604B60C6
:100A1000291C03B0F0BDC046F0B583B0141C1D1CEA
:100A20000090019102F06CFF221C2B1C061C0F1C75
:100A3000FFF73EFF009A019B121A8B410899301C68
:100A40000A604B60391C03B0F0BDC046F8B54302E4
:100A50004400C50F4E024800240E2A1C9B09000EBC
:100A6000C90FB6098D425BD0221A002A00DC89E04A
:100A700000281DD1002E00D075E0580704D00F22A9
:100A80001A40042A00D004338021C90419402A1CCA
:100A900000293AD00134FF2C00D17FE09B015B0A92
:100AA0005B02E4B2E405580AD20720431043F8BDC4
:100AB000FF2CE2D08021C9040E431B2A00DD2DE16A
:100AC000311C2020D140821A9640721E96410E435E
:100AD0009B1B5801D1D59B019F09381C02F0F6FCE5
:100AE000421F974094425BDC141B1F231B1B3A1CC4
:100AF0009F40611C3B1CCA405F1EBB411343002446
:100B0000BBE7131EB9D100230022DB08FF2C04D160
:100B1000002B43D08020C00303435B025B0ABFE786
:100B2000211A002940DD002823D0FF2CA5D08020E9
:100B3000C00406431B2900DDEEE0301C2027C8401E
:100B4000791A8E40711E8E4106439B19590100D4BB
:100B500093E70134FF2C55D0714901221A400B4014
:100B60005B08134389E7013A002AB1D0FF2CA4D1D6
:100B700083E7002E00D180E701390029E5D0FF2C62
:100B8000D8D17AE7002A1BD1621CD2B2012A4BDDF0
:100B90009F1B7A0123D5F71A0D1C9EE700237FE7E0
:100BA0005F4BA41A3B4068E7002946D1611CC8B2DC
:100BB000012829DDFF2924D0F3185B080C1C5CE711
:100BC000002C13D0FF2818D08024E4045242234381
:100BD0001B2A4DDD0123F31A041C0D1C79E7002F9D
:100BE00000D07AE70023002200248EE7002B3BD0C0
:100BF000D243002AEFD0FF28EAD1331CFF240D1C7A
:100C00003BE7FF24002380E7002C5CD1002B00D1C0
:100C100080E0002E00D130E79B19580100D42CE76A
:100C20003F4A0124134028E7002C15D1002B40D166
:100C3000002E63D0331C0D1C1FE7002C21D1002B8C
:100C400054D0C943002904D0FF284CD01B2958DDBB
:100C500001239B19041C79E7002B19D1002E48D0E1
:100C6000331C0D1CFF2408E7331C041C0D1C04E777
:100C70001C1C2025D440AA1A93405A1E934123439A
:100C8000A9E7FF282FD08024E40449422343DDE76D
:100C9000FF24002E00D1F0E68022DB08D2031342AD
:100CA00004D0F608164201D1331C0D1CDB00FF24D2
:100CB000E3E6002E00D1E0E69A1B500100D420E7C5
:100CC000F31A0D1CD9E6002B0DD0FF24002E00D105
:100CD000D3E68022DB08D2031342E7D0F60816429F
:100CE000E4D1331CE2E7331CFF24C6E6331C041CAA
:100CF000C3E6802300229B04FF2406E7231C002276
:100D000003E71C1C2027CC40791A8B40591E8B41CD
:100D100023439EE7331CB0E6012616E70126D7E6FB
:100D2000FFFFFFFBF0B55F4656464D464446F0B424
:100D300046024500C00F85B00F1C760A2D0E804676
:100D400041D0FF2D26D08024240400212643F60024
:100D50007F3D89468B46F90F7C027800640A000EBD
:100D600000918A463CD0FF2834D080231B041C43CA
:100D70000023E4007F380193009F4346019A7B40A3
:100D800049469C4611430F2900D971E0764F8900EE
:100D90007F58BF46002E3ED10822022391469B4633
:100DA000D9E75A46341CC24601920199022937D02C
:100DB000032900D1CFE0012900D0ABE053460B401E
:100DC0000022002632E0002E19D10421012289469A
:100DD0009346C0E7221C531E9A4102320192CBE790
:100DE00001270197002CC7D0201C02F06FFB431F86
:100DF0009C4076235B420021181A0191BCE7301C0D
:100E000002F064FB7625431F9E406D4200232D1A9D
:100E100099469B469FE70C23032199468B469AE708
:100E2000D446012367463B40FF2200267602D205C6
:100E3000700ADB071043184305B03CBC9046994646
:100E4000A246AB46F0BD80260023F603FF22EDE765
:100E500000220026EAE78020C00306423BD004427D
:100E600039D1061C26437602760A009BFF22DDE775
:100E7000281A039076016401A64239D3361B1A2240
:100E800001230120311C5B007600002901DBB44204
:100E900001D8361B0343013A002AF3DC741EA64135
:100EA000341C1C43039A7F32002A27DD630704D0D9
:100EB0000F232340042B00D00434270103D52B4BF0
:100EC000039A1C408032FE2A0BDD012361460B4051
:100ED000FF220026AAE706437602760A4346FF224F
:100EE000A4E7A40101236746660AD2B23B409DE70E
:100EF000039F1B22013F03970023C2E77E23039F2A
:100F00005B42DB1B1B2B07DD012361460B400022EC
:100F100000268BE7D446C5E7221CDA40039B9E33AC
:100F20009C40231C5C1EA34113435A0704D00F228C
:100F30001A40042A00D004335F0105D5012361461D
:100F40000B400122002671E79E01624601231340F7
:100F5000760A00226AE78026F60326437602760A9E
:100F60005346FF2262E7C0468C1D0100FFFFFFF7DA
:100F70004A02430270B55C0A550A43004A001B0E40
:100F8000C60F120EC90FFF2B05D0FF2A08D0012073
:100F900093420BD070BD0120002CFBD1FF2AF6D16B
:100FA0000120002DF6D101209342F3D1AC42F1D1C2
:100FB0008E4205D0002BEDD1201C441EA041E9E754
:100FC0000020E7E74A024302F0B55C0A550A4300F5
:100FD0004A001B0EC60F120EC90FFF2B31D0FF2A7D
:100FE00034D0002B16D1604260418446002A14D0D0
:100FF000002820D18E4217D1934215DC04DBAC428D
:1010000012D80020AC4212D27042704140420123FB
:1010100018430CE0002AEDD194466F426F416046C0
:10102000002805D1002FE5D0704201231843F0BD00
:101030000020002FFBD14842484140420123184381
:10104000F5E7002CCBD002204042F0E7002DC8D0BD
:10105000F9E7C0464A024302F0B55C0A550A43006C
:101060004A001B0EC60F120EC90FFF2B27D0FF2AF6
:1010700029D0002B10D0002A15D194466F426F4121
:101080006046002815D00020002F04D14842484176
:10109000404201231843F0BD604260418446002A6B
:1010A000ECD00028F2D18E4211D0704201231843B7
:1010B000F1E7002FF7D0704201231843EBE702203D
:1010C000002CE8D1D3E70220002DE4D1D1E79342F0
:1010D000EBDC04DBAC42E8D80020AC42DBD270424F
:1010E0007041404201231843D5E7C046F0B55F4642
:1010F00056464D464446F0B44402460083B00F1CA9
:10110000640A360EC50F002E41D0FF2E22D0802358
:101110001B0400201C43E4007F3E82468046391CAD
:101120004B007F02C90F7F0A1B0E8B463BD0FF2B63
:1011300034D0802212041743FF007F3B00215A461F
:101140006A40019252460A430F2A63D87A489200B5
:1011500082589746002C3FD1082202239246984697
:10116000DDE70195404602282AD1019A0125154064
:10117000FF2300246402DB05600AED0718432843BF
:1011800003B03CBC90469946A246AB46F0BD002C4D
:1011900027D10420012282469046C0E7391C4A1E0E
:1011A00091410231CBE70121002FC8D0381C02F059
:1011B0008DF9431F9F4076235B421B1A0021BEE737
:1011C000032800D1AEE001284FD1019842461040DB
:1011D000C5B200230024CDE70C2303209A468046A5
:1011E0009DE7201C02F072F97626431F9C40764250
:1011F0000023361A9A46984691E780240025E40396
:10120000FF23B7E75B463C1C01938846AAE73C1CDA
:101210008846A7E7250C24043A0C240C3F04F61852
:101220003F0C211C231C794353436F435543FB1848
:101230000A0C9B18B1469F4202D980225202AD1877
:1012400009041A04090C521894011B0C611E8C41EC
:10125000920EED181443AD012C43230105D5012254
:1012600063080120144081441C434B467F33002B0C
:101270002DDD600704D00F222240042A00D0043460
:10128000220103D52D4B1C404B468033FE2B17DD2E
:10129000019B01251D400024FF236BE78020C00334
:1012A000044208D0074206D1041C3C436402640A8D
:1012B0005D46FF235EE704436402640AFF2359E7A7
:1012C0000198A4010125640ADBB2054052E77E23A0
:1012D0005B424A469B1A1B2B05DD019B01251D40E5
:1012E0000024002346E7221CDA404B469E339C40F4
:1012F000231C5C1EA3411343580704D00F221A403D
:10130000042A00D004335A0105D5019B01251D4054
:10131000002401232EE701989C010125640A054061
:10132000002327E78027FF03019B3C43640201253C
:101330001D40640AFF231DE7CC1D0100FFFFFFF7DE
:10134000F8B5C20F430244004D024800240E161C9B
:101350009B09000EC90FAD09FF2800D183E00127CA
:1013600079408A425CD0221A002A00DC8EE00028F4
:101370001ED1002D00D07AE0580704D00F221A4069
:10138000042A00D004338021C904012219403240CC
:1013900000293AD00134FF2C00D183E09B015B0A85
:1013A0005B02E4B2E405580AD20720431043F8BDBB
:1013B000FF2CE1D08021C9040D431B2A00DD31E15F
:1013C000291C2020D140821A95406A1E95410D4368
:1013D0005B1B5801D0D59B019F09381C02F076F8A1
:1013E000421F974094425FDC141B1F231B1B3A1CB7
:1013F0009F40611C3B1CCA405F1EBB41134300243D
:10140000BAE7131EB8D100230022DB08FF2C04D159
:10141000002B47D08020C00303435B025B0ABFE779
:10142000211A002944DD002827D0FF2CA4D08020D9
:10143000C00405431B2900DDF2E0281C2027C8401A
:10144000791A8D40691E8D4105435B19590100D4FD
:1014500092E70134FF2C59D0734901221A400B4006
:101460005B08134388E7002D00D07AE777E7013A5D
:10147000002AADD0FF2CA0D17EE7002D00D17BE764
:1014800001390029E1D0FF2CD4D175E7002A1BD106
:10149000621CD2B2012A4BDD5F1B7A0123D5EF1A01
:1014A0000E1C9AE700237BE75F4BA41A3B4063E7DF
:1014B000002946D1611CC8B2012829DDFF2924D0AA
:1014C000EB185B080C1C57E7002C13D0FF2818D032
:1014D0008024E404524223431B2A4DDD0123EB1AEE
:1014E000041C0E1C75E7002F00D076E700230022B5
:1014F00000248AE7002B3BD0D243002AEFD0FF28FC
:10150000EAD12B1CFF240E1C36E7FF2400237CE7C6
:10151000002C5CD1002B00D180E0002D00D12BE706
:101520005B19580100D427E73F4A0124134023E701
:10153000002C15D1002B40D1002D63D02B1C0E1C8C
:101540001AE7002C21D1002B54D0C943002904D024
:10155000FF284CD01B2958DD01235B19041C75E7BB
:10156000002B19D1002D48D02B1C0E1CFF2403E7A3
:101570002B1C041C0E1CFFE61C1C2026D440B21A97
:1015800093405A1E93412343A9E7FF282FD080247C
:10159000E40449422343DDE7FF24002D00D1EBE6BC
:1015A0008022DB08D203134204D0ED08154201D19A
:1015B0002B1C0E1CDB00FF24DEE6002D00D1DBE639
:1015C0005A1B500100D41CE7EB1A0E1CD4E6002B6A
:1015D0000DD0FF24002D00D1CEE68022DB08D203FF
:1015E0001342E7D0ED081542E4D12B1CE2E72B1C97
:1015F000FF24C1E62B1C041CBEE6802300229B04B2
:10160000FF2402E7231C0022FFE61C1C2027CC40FD
:10161000791A8B40591E8B4123439EE72B1CABE666
:10162000012512E70125D3E6FFFFFFFB4302590A1C
:101630004300C20F1B0E00207E2B0DDD9D2B0CDC0A
:10164000802000040143952B0ADC9620C31AD94060
:101650004842002A00D1081C7047034BD018FBE712
:10166000963B9940F4E7C046FFFFFF7F70B5041E2C
:101670003CD0C60F00D04442201C01F027FF9E231F
:10168000251C1B1A962B0CDC083884406402640A63
:10169000DBB2321C6402DB05600AD2071843104338
:1016A00070BD992B0ADD0522121A211CD1400A1C9B
:1016B000011C1B318D40691E8D411543052801DD3C
:1016C000421F9540164C2C406A0704D00F2215404B
:1016D000042D00D0043461010CD59F23181AFF2873
:1016E0001AD0A401640AC3B2321CD3E7002200233B
:1016F0000024CFE7E408FF2B04D06402640ADBB2C5
:10170000321CC7E7002C04D08020C00304436402CD
:10171000640A321CFF23BDE7321CFF230024B9E713
:10172000FFFFFFFBF8B55F46564644464D46F0B412
:101730000C034D00CE0F610A440F2143C40018036F
:1017400080465800400D8246D80F84464046400AE5
:10175000530F0343D0006D0D371C83465246664538
:1017600000D1A4E0AF1A002F00DC09E1002A3BD130
:10177000184300D0EAE0630700D187E00F2323403D
:10178000042B00D182E0221DA242A44164428023A6
:1017900009191B040B40371C141C002B00D17CE0E2
:1017A000CE4B01359D4200D105E1CD4BE4081940F7
:1017B0004807490204430B0B002000211B031A0BAE
:1017C0000B0D6D051B0513436A08C64DFF071D4031
:1017D00015436D006D08291C3943201C3CBC904604
:1017E0009946A246AB46F8BDBC488542C3D080208E
:1017F00000040343382F00DDF0E01F2F00DD24E15B
:101800002020C01B1A1C814682405846F8400243E3
:10181000944658464A469040421E9041FB406246DC
:1018200002431F1CA21A9442A4416442C91B091B13
:10183000141C0B029FD549024F0A002F00D1C8E0AB
:10184000381C01F043FE021C083A1F2A00DDB5E0F7
:101850002821091A201C9740C8400743944095420C
:1018600000DDB2E0551B691C1F2900DDDCE01F22F2
:10187000551B3B1C221CAB40CA40AC40651EAC4112
:101880001343CF401C43391C002574E780231B04FD
:101890000B40371C002B00D082E7904B4807E40830
:1018A0000443C9089D4248D009030B0B84E7AA1AD8
:1018B0009446002A00DC98E05046002852D0874821
:1018C000854200D157E78020000403436246382A4E
:1018D00000DDFCE01F2A00DD4AE120226046101AEC
:1018E0001A1C82408246914658466246D0404A467B
:1018F00002439046584652469040421E904142460E
:1019000002436046C3401219A242A44164425918DE
:101910000919141C080200D42DE7704B01359D42B3
:1019200000D122E16E4B60081940012323401C1CAA
:101930000443CB071C4349081DE7231C0B433AD043
:1019400080231B030B431B031B0B35E7013F002FB9
:1019500065D15846221A9442A4416442C91A091B0F
:10196000141C66E75846184300D104E7012252428E
:1019700094446046002800D0C5E058460219C3E7E9
:10198000002F73D1681C4005400D012800DCDEE00B
:101990005A46A21A9442BF41C81A7F42C71B380256
:1019A00000D489E05A46141BA3459241591A524269
:1019B0008F1A664641E700230024FDE6271C2838DD
:1019C00087400024954200DC4CE74549AD1A394078
:1019D000D1E6201C01F07AFD203034E75A461A4344
:1019E000531E9A41D2B200271CE7002A00D0DCE047
:1019F000681C4205520D012A00DC8DE0374DA842DB
:101A000000D1F3E05D462A19A242A441644259186C
:101A10000919CC07520814434908051CABE62F48A6
:101A2000854200D0E6E6A6E62B1C1F3B3A1CDA40B6
:101A3000131C20296CD03F22551BAF403C43601E35
:101A400084411C430021002595E6381C20381A1CCF
:101A5000C240101C202F5DD04022D71BBB405A46ED
:101A60001A43531E9A4102430027DBE6002D3BD068
:101A70001A4DAA4500D193E080252D047F422943C9
:101A8000382F00DDACE01F2F00DD29E12025ED1B04
:101A9000081C261CA840FE40AC400643651EAC4115
:101AA0003443F9405D462C1BA34592415B1A5242D8
:101AB000991A55466646BCE6131C3B43141C002B82
:101AC00000D0BAE60027002100250024E5E65A46AA
:101AD0001A43531E9A41D2B2002314E7FF070000B5
:101AE000FFFF7FFFFFFF0F800D1C254358D0FF43F2
:101AF000002F51D1041BA3459241591A5242891A11
:101B00005546664695E69648854200D0DEE632E6C2
:101B1000002793E70023A2E7081C2043002D00D0F4
:101B2000C4E0002800D1F7E05846184300D122E66F
:101B300058460219A242A441644259180919141CBA
:101B40000A0200D417E6874B0125194013E6081C4A
:101B50002043002D39D1002871D15946194303D0B3
:101B6000191C5C46664606E600270021002494E620
:101B7000604620381A1CC24060469146202800D199
:101B8000ACE04022121A93405A461A43531E9A411F
:101B90004B461A430023B6E6714DAA4500D06FE7C5
:101BA000191C5C4655466646E5E5002D22D10D1C04
:101BB000254377D0D543002D71D15C445C459241DB
:101BC0005918524289185546A4E600284DD1594665
:101BD000194300D194E0191C5C466646604DCAE585
:101BE0000C43611E8C41E4B200215BE7051C00211F
:101BF000002452E65A4DAA4554D055428022100482
:101C00000143382D00DD81E01F2D00DD92E0202210
:101C1000501B0A1C84468240201CE8400243904628
:101C200062469440601E844142461443E9405C444D
:101C30005C459241CB185242991855466AE658467F
:101C4000184300D197E55846271ABC429241C81A5A
:101C50005242801A020266D55846041BA34592419F
:101C6000591A5242891A664685E55846184333D0B8
:101C70004807E40804438020C9080003014208D053
:101C8000DD08054205D15946CA085C071443291CE2
:101C90006646630FC9001943E400314D6BE5304AD5
:101CA0009245AED1191C5C46554664E5002836D0F5
:101CB0005846184310D080254807E408C9082D036A
:101CC00004432942E5D0D8082842E2D15D46EA081B
:101CD0005C071443011CDCE7214D4CE5002353E76E
:101CE0003D1C203D0A1CEA40151C202F34D0402604
:101CF000F71BB9400C43611E8C412C430021D1E6F7
:101D000080210027C903164D0024C6E50C43611E3F
:101D10008C41E4B200218AE7191C5C462BE5191CB2
:101D20005C460F4D27E5031C3B4300D11CE7011C1B
:101D30003C1C20E52020404240190A1CC24090462D
:101D4000202D0BD04020451BA9400C43611E8C4127
:101D500045462C4300216AE70021CBE70021F4E748
:101D6000FF070000FFFF7FFFF0B5564644465F4681
:101D70004D46F0B41F1C0B031B0B98464B0087B05D
:101D8000041C81465B0DC80F161C9A460090002B60
:101D900051D06A4B9A4531D08022414652030A43C2
:101DA000630FD2001A43664B90460025E20091462D
:101DB0009A44002402953B031B0B9B46FD0F7B00BE
:101DC000311C5B0D019560D05C4A934254D0802158
:101DD000584649030143720FC9001143584A8B46C4
:101DE0009B18F1000020009A04436A4003920F2CD4
:101DF00000D9ADE0534EA4003459A74640460443F1
:101E00006ED1002102250824884689460295D2E732
:101E1000009C0298C34649460194022864D00328D6
:101E200000D1ABE2012800D038E2019A0024024040
:101E30000025A14660E0434623434AD0404600289F
:101E400000D1C0E101F042FB031E272B00DDB3E10E
:101E500028210D1A211C083B4246E9409A400D1CDE
:101E60001543221C9A40A8469146374B00251B1A61
:101E70009A46002402959EE75A4616430320002EF8
:101E8000B1D1B34600210220ADE75A4632431BD000
:101E90005B46002B00D18AE1584601F017FB27284A
:101EA00000DD7DE12822171A011C321C08395B462F
:101EB000FA408B40171C1F43331C8B40BB46191C38
:101EC000214B1B1A00208EE70027BB460021012072
:101ED00089E70020012504248046814602956AE7AF
:101EE00003250C24029566E7019C0394039D0122BF
:101EF0002A400024114DA146002000212403260B76
:101F00000C0D2405114B34432D0523402B435B005E
:101F10005B08D207191C4846114307B03CBC9046E9
:101F20009946A246AB46F0BD002280242403914688
:101F3000024DE1E700240025A146DDE7FF07000090
:101F400001FCFFFF0C1E01000DFCFFFFFFFF0F80D7
:101F50005546ED1A0495D84500D953E100D14EE11C
:101F6000049C0025013C4E4604944746A946584629
:101F700003020C0E1C430902250C23041B0C0091C8
:101F8000381C291C0193FEF727FB01998346414326
:101F9000381C8A46291CFEF763FB330C09041943DD
:101FA0008A450CD95B460919013B8C4200D947E1AF
:101FB0008A4500D844E1022252429344091953460B
:101FC000CB1A181C291C9846FEF706FB071C019823
:101FD000291C784382464046FEF742FB36040B0438
:101FE000360C33439A4509D91B197A1E9C4200D9F5
:101FF00024E19A4500D821E1023F1B195E463204D4
:102000001743380CBB46009E009F51463F0C3204DC
:102010005B1A5946BA46120C0F043F0C90465146C3
:102020007A434F434146414356467043CF19160CFD
:10203000BE19B14202D980277F02C019310C1204A7
:102040003604120C4018B618834200D2C4E000D106
:10205000BEE0191A4846861BB145BF417F42CF1BDF
:10206000A74200D113E1291C381CFEF7B5FA0199EB
:1020700002904143381C8946291CFEF7F1FA330CC3
:102080000904194389450CD9029B0919013B8C426B
:1020900000D9FFE0894500D8FCE0029F0919023F02
:1020A00002974F46CF1B381C291C0597FEF794FA60
:1020B000071C0198291C784381460598FEF7D0FA41
:1020C00036040904360C0E43B14509D936197B1E76
:1020D000B44200D9E0E0B14500D8DDE0023F361956
:1020E000029D4946761A290439430B0457460A0CC7
:1020F0001B0C40464546584355437B437A43EB18F7
:10210000070CDB199D4202D980256D0252191D0C66
:1021100000041B04000C52191B18964235D300D141
:10212000FCE001231943049E994FF519002D00DCB2
:10213000A1E0480709D00F230B40042B05D00B1D4D
:102140008B42894149428B44191C5A46D20107D51A
:10215000904B5C46049E80271C40FF00A346F51967
:102160008D4B9D427ADD039C0122224000248B4D41
:10217000A146C1E680242403474627424CD13C4374
:102180002403240B009A854DB6E63619481EB44246
:102190005ED9011C9642C4D1009E9E42C1D1C2E7C5
:1021A000031C283B311C99408B46002188E6301CDB
:1021B00001F08CF9203072E6283B211C9940002266
:1021C0008846914651E6201C01F080F920303BE61C
:1021D0000021B14500D33DE7009F5A46B944B945B7
:1021E000BF417F423F19FB18013A9C421ED29842E0
:1021F00000D97EE000D1B5E0191A93462AE7894557
:1022000000D8ADE64846464642467708D30746081A
:10221000C0071E438146AAE65846204212D1044315
:1022200024032A1C240B89465C4D65E6A342E3D1B6
:10223000009F4F45DBD9211A93460BE7171CDDE6BB
:102240009B46BCE63C432403240B009A534D53E6C3
:10225000B24259D800D18AE0011C62E75F46C90842
:102260007B07039E0B437C026D0501229946240BDC
:102270006D0D324040E64A4B049FDB1B382B10DDCE
:10228000039C0122224000240025A14634E60121BE
:10229000494248E7029304E71F1C21E7019C03948D
:1022A00041E71F2B40DC3F48049F0C1C3A1858465E
:1022B0009140DC40904020430A1C511E8A41011C81
:1022C00011435A46DA40131C480709D00F220A402E
:1022D000042A05D00A1D8A42894149425B18111C13
:1022E0001A0234D5039C0122224000240125A14674
:1022F00002E6009F02214942B9448B44B945894115
:1023000049420919CB18A4E6009D881E6900A9421C
:10231000AD416D422C19361900913AE7002B00D0DF
:1023200033E70024009437E71F4A049C5D46121BE4
:10233000D5402A1C202B1FD01C4E5F46A3199F405E
:102340003B1C19434B1E994111430023BCE75A071C
:10235000C9080A43039F91465B0201221C0B3A40C5
:102360000025C9E54E45C4D89346002172E6009F7A
:102370009F42C9D3011C0FE70023E2E78024240316
:102380005F463C432403240B019A8946034DB3E581
:10239000FF030000FFFFFFFEFE070000FF07000035
:1023A00002FCFFFF1E040000E2FBFFFF3E040000F2
:1023B000F0B55F4656464D464446F0B40D1C041C2D
:1023C0008046E80F814618030F03000B3F0B83B0D4
:1023D00084461B48009749005E00DF0F490D924676
:1023E000760DBB4681420CD01548864210D00120A4
:1023F000B14215D003B03CBC90469946A246AB46CC
:10240000F0BD009F01202743F4D10D488642EED154
:10241000604602430120002AECD10120B142E9D1FB
:10242000009B6345E6D1D045E4D1D94506D00029CB
:10243000E0D11C43201C441EA041DBE70020D9E76B
:10244000FF070000F0B55F4656464D464446F0B4DF
:10245000CD0FDE0FAC461D032D0BB146374E0F03DB
:102460004C00AB465D0080463F0B640D92466D0DFF
:10247000B44232D0314EB54235D0002C0ED1384363
:1024800041424141081C002D0BD0002919D1CC45F7
:102490002DD0654668420123184318E0002DF6D17F
:1024A000281C59460A4353425341002806D1002BA9
:1024B000EDD0634658420123184308E00020002B6A
:1024C00005D14A46504250414042012318433CBC8A
:1024D00090469946A246AB46F0BD3E1C0643C9D085
:1024E00002204042F3E75E461643C6D0F8E7AC420E
:1024F00007DC0BDA61464842484140420123184359
:10250000E5E76646704201231843E0E75F450AD8D5
:102510000ED000205F45DAD26546684268414042ED
:1025200001231843D3E76246504201231843CEE704
:10253000D045F8D80020D045EED3C8E7FF0700000B
:10254000F0B556464D4644465F46F0B40D1C83B088
:10255000041C0190E80F814618030F03000B3F0B8A
:1025600084463548009749005E00DF0F490D9246CA
:10257000760DB846814234D02F48864236D00029A5
:1025800018D0002E1FD1341C67463A4353425341A2
:10259000002C1FD00020002B05D142465042504154
:1025A00040420123184303B03CBC90469946A246E2
:1025B000AB46F0BD0098044360426041041C002E0D
:1025C000E2D00028E9D1C14515D04F467842012319
:1025D0001843E8E7002BF6D04B4658420123184336
:1025E000E1E7009F02202743DDD1C5E767460220CF
:1025F0001743D8D1C3E7B14204DD4A465042012314
:102600001843D0E7B14207DB00986045E4D80AD010
:10261000009F00206745C6D24F467842784140422D
:1026200001231843BFE7019A5245D5D8019A0020EB
:102630005245F1D3B7E7C046FF070000F0B5564654
:1026400044465F464D46F0B41F1C0B031B0B9A46D5
:102650004B0087B0041C80465B0DC80F161C02930C
:102660008146002B68D0694B0299994232D0802272
:10267000534652031A43D200630F1A439246644AE8
:10268000E000891880460291002400253B031B0BC3
:102690009B467800FB0F321C400D039300D175E080
:1026A0005A4B984269D08022594652030A43730F0D
:1026B000D2001A43564B9346C018F20000230399E8
:1026C0004E4671401C430F2C00D9A9E0514EA40086
:1026D0003459A74653461C4300D087E00025AA463C
:1026E000A84608240225D1E74946022D6CD0032DC7
:1026F00000D117E2012D00D058E10D40EDB20024C9
:10270000A9460023A0460020002125030A0D1C0530
:102710002D0B1205404B2A43134023435B004C46CC
:102720005B08E207191C4046114307B03CBC9046C9
:102730009946A246AB46F0BD5346234350D053467C
:10274000002B00D184E1504600F0C0FE031E272B71
:1027500000DD76E128210D1A211C083B5246E94094
:102760009A400D1C1543221C9A40AA4690462B4BBA
:1027700000241B1A0293002588E75B461E430323AF
:10278000002E9CD1B3460022022398E75B463343D8
:1027900021D05846002800D14EE100F097FE2728AE
:1027A00000DD42E128210F1A021C311C083A5B4669
:1027B000F94093400F1C1F43331C9340BB461A1C27
:1027C000164B181A00237AE701230B400024994680
:1027D000A0460E4B97E70027BB46002201236EE779
:1027E000002104248A46884601254FE70C2403254E
:1027F0004CE700258024A9462403A846034B82E722
:10280000DA46904603991D1C6FE7C046FF0700009B
:1028100001FCFFFF4C1E0100FFFF0F800DFCFFFFBE
:10282000029F160C381804904046070C0004000C58
:102830001204120C031C5343041C3D1C74435543E7
:1028400098463B1C73436419A44644460293230CE8
:1028500063449D4204D9029D802464022D1902958F
:102860001D0C039545462C041B04240C1C190594CF
:102870005C46230C051C58432404240C8446381C55
:10288000604365435F438146CC44280C6044BB46AB
:10289000814502D980277F02BB442D04070C2D0CF3
:1028A000000440195546BC462F04E3448446280CD6
:1028B0003D0C2F1C5743B8462F1C77434243B94663
:1028C00047463F0C9144BA46D14446434A4502D953
:1028D00080225202B6184F463A0CB6183A044746C0
:1028E0003F043F0CB8462F1C67435D4344435843A5
:1028F00065190190380C2D184244B846AC4204D9F1
:10290000019880235B02C0180190039C029F201C49
:102910006044C0196045A44147466442A4462B0464
:102920003C049946240C4C44A046D8448018C24626
:10293000E24490429241574652429146F219E24592
:10294000BF417F424B46BC46D845BF41D4187F4269
:1029500063461F432D0C7F19B24292414C45AD4155
:1029600052426D421543019E7D19AB19E20D5B0287
:10297000059F134342023A439A46531E9A41C30DA0
:10298000101C18436402204380465046C0010DD5F8
:10299000454601225646049C6B082A401A43F30719
:1029A00001341A43760804949046B246049E634F5D
:1029B000F319002B61DD404640070BD00F2244463F
:1029C0002240042A06D04246043242458041404219
:1029D000824490465546ED0107D5594B5646049F13
:1029E00080201E40C000B2463B18564A934200DD8C
:1029F000EAE644465546E2086807104301226C02A5
:102A00005B050A408046240B5B0D91467BE6DA4667
:102A100090461D1C69E680242403574627421CD19A
:102A20003C432403240B484B6DE6031C283B311C1C
:102A300099408B460022C3E6301C00F047FD203051
:102A4000ADE6283B211C994000228A4690468EE63E
:102A5000201C00F03BFD203078E65846204207D18C
:102A6000044303992403240B89469046364B4AE6D7
:102A70003C432403240B344B45E6344B049E9B1B00
:102A8000382B06DD01230B4000249946A046002385
:102A900039E61F2B25DC049C2D4D46466019524615
:102AA00044468640DC4082405746301C2243DF408B
:102AB000441EA04102433B1C540709D00F20104084
:102AC000042805D0101D9042924152429B18021CCE
:102AD0001D021AD501230B4000249946A04601236C
:102AE00011E61C48049C5546001BC540281C202BA1
:102AF00016D0194E5746A21997403A1C43461A431E
:102B0000531E9A4102430023D6E758075B02D208BE
:102B10001C0B01230B401043994680460023F2E52D
:102B20000022EBE78024240350460123044319408C
:102B30002403240B8946044BE5E5C046FF0300004F
:102B4000FFFFFFFEFE070000FF07000002FCFFFF83
:102B50001E040000E2FBFFFF3E040000F8B55F46E4
:102B6000564644464D46F0B40C034D00CF0F610A63
:102B7000440F2143C4001803DE0F8046B446464686
:102B80005800760A530F3343D600D14A6D0DBA462A
:102B9000400DB346904200D1F5E0624601267240F6
:102BA0009446674500D1ABE02F1A002F00DC11E1FD
:102BB00000283ED15846184300D0F1E0600700D10C
:102BC00097E00F232340042B00D122E1221DA242D3
:102BD000A4416442802309191B04012750460B407D
:102BE0000740141C002B00D179E0B94B01359D4200
:102BF00000D10BE1B74BE4081940480749020443F0
:102C00000B0B002000211B031A0B0B0D6D051B0580
:102C100013436A08B04DFF071D4015436D006D0852
:102C2000291C3943201C3CBC90469946A246AB4621
:102C3000F8BDA7488542C1D0802000040343382F47
:102C400000DDFDE01F2F00DD31E12020C01B1A1C3C
:102C50005E468240FE40324394465A468240101CF3
:102C6000421E9041FB40624602431F1CA21A94423E
:102C7000A4416442C91B091B141C0A029ED54902C7
:102C80004F0A002F00D1D6E0381C00F01FFC021CB8
:102C9000083A1F2A00DDC3E02821231C091A9740A7
:102CA000CB401F439440954200DDC0E0551B691C9A
:102CB0001F2900DDEAE01F22551B3B1C221CAB40F4
:102CC000CA40AC40651EAC411343CF401C43391C85
:102CD000002573E780217E4D0027C90300247C4B2B
:102CE0004807E4080443C9089D4250D009030B0B70
:102CF00087E780231B04012752460B40174071E7EA
:102D00002A1A9446002A00DCA1E0002854D070481A
:102D1000854200D152E780200004034360463828F2
:102D200000DD0EE11F2800DD57E162462020801AF9
:102D30001E1C8640B1465E46D6404A4632435E4639
:102D400086409046301C421E9041424602436046F7
:102D5000C3401219A242A441644259180919141C13
:102D6000080200D42AE75A4B01359D4200D131E1D7
:102D7000584B60081940012323401C1C0443CB0717
:102D80001C4349081AE71E4300D00AE705E7231C45
:102D90000B433BD080231B030B431B031B0B30E770
:102DA000013F002F6DD15E46A21B9442A4416442B4
:102DB000C91A091B141C60E75846184300D1FDE6E8
:102DC00001267642B4446046002800D0D0E05E463A
:102DD0003219BFE7002F00D080E0681C4005400D8D
:102DE000012800DCE8E05A46A21A9442BF41C81A02
:102DF0007F42C71B3E0200D498E05846041BA345FF
:102E00009241591A52428F1AE2463AE700230024AF
:102E1000F7E680231B04012756460B403740E1E6C6
:102E2000271C283887400024954200DC3EE72949CA
:102E3000AD1A3940C2E6201C00F048FB203026E7DE
:102E40005A461A43531E9A41D2B200270EE7002A6F
:102E500000D0DEE0681C4605760D012E00DC90E017
:102E60001B4DA84200D1F5E05E463219A242A441B2
:102E7000644259180919CC07520814434908051C23
:102E80009CE61348854200D0D9E697E62B1C1F3BF1
:102E90003E1CDE40331C20296FD03F22551BAF4023
:102EA0003C43601E84411C430021002586E6381CFB
:102EB00020381E1CC640301C202F60D04022D71B5B
:102EC000BB405A461A43531E9A4102430027CDE69F
:102ED000FF070000FFFF7FFFFFFF0F80002D37D0AF
:102EE000B64DA84200D18FE080252D047F422943B2
:102EF000382F00DDA8E01F2F00DD24E12025ED1B89
:102F00000E1CAE40B046261CFE404246AC40164366
:102F1000651EAC413443F9405A46141BA345924107
:102F20005B1A5242991A051CE246A6E6131C3B4363
:102F3000141C002B00D0A4E600270021002500244B
:102F4000CDE65A461A43531E9A41D2B2002300E7F7
:102F50000D1C254358D0FF43002F51D15A46141B56
:102F6000A3459241591A5242891A051CE24684E649
:102F70009248854200D0D1E620E6002790E7002362
:102F80009FE7081C2043002D00D0C2E0002800D19C
:102F9000EFE05846184300D110E658460219A24205
:102FA000A441644259180919141C0A0200D405E608
:102FB000834B0125194001E6081C2043002D38D120
:102FC00000286FD15946194303D0191C5C46E246CC
:102FD000F4E500270021002481E6604620381A1C11
:102FE000C2406646101C202E00D1AAE04022921B4F
:102FF00093405A461A43531E9A4102430023A8E6BF
:103000006E4DA84200D073E7191C5C46051CE246D1
:10301000D4E5002D22D10D1C254376D0D543002DBB
:1030200070D15C445C459241591852428918051C84
:1030300096E600284CD15946194300D14AE6191C9E
:103040005C46E2465D4DB9E50C43611E8C41E4B23D
:10305000002161E7051C0021002440E6574DA842ED
:1030600053D05542802216043143382D7BDC1F2D6E
:1030700000DD8CE02022561B0A1CB446B240261C00
:10308000EE403243904662469440661EB44142464A
:103090001443E9405C445C459241CB185242991874
:1030A000051C5DE65846184300D187E55E46A71B20
:1030B000BC429241C81A5242801A060260D5584654
:1030C000041BA3459241591A5242891AE24675E5FA
:1030D0005846184333D04807E40804438020C90801
:1030E0000003014208D0DD08054205D15946CA084F
:1030F0005C071443291CE246630FC9001943E4002E
:103100002E4D5BE52D4A9042AFD1191C5C46051C43
:1031100054E5002830D05846184310D08025480781
:10312000E408C9082D0304432942E5D0D808284201
:10313000E2D15D46EA085C071443011CDCE71F4D41
:103140003CE5002355E73D1C203D0E1CEE40351CA0
:10315000202F2ED04026F71BB9400C43611E8C4116
:103160002C430021D8E60C43611E8C41E4B20021BF
:1031700090E7191C5C4621E5191C5C460F4D1DE5C6
:10318000031C3B4300D124E7011C3C1C16E5202610
:10319000764276190A1CF2409046202D0BD040262C
:1031A000751BA9400C43611E8C4145462C430021F0
:1031B00070E70021D1E70021F4E7C046FF070000D7
:1031C000FFFF7FFF70B50B1C124C09030E0B59005B
:1031D000021C490DDD0F0020A14211DD0E48814285
:1031E0000FDC8020400306430C48401A1F280BDDEB
:1031F0000B4A521AD640321C5042002D00D1101CEE
:1032000070BD084BE818FBE7074BC240C9188E4059
:103210003243F1E7FE0300001D0400003304000008
:1032200013040000FFFFFF7FEDFBFFFFF8B5041E56
:1032300031D0C70F00D04442201C00F047F9184D90
:103240002D1A0A2819DD0B38844024036D05240B40
:103250006D0D3A1C0026002000210B0D2403240BC9
:103260001B0523430F4C2D051C402C4364006408B0
:10327000D307211C301C1943F8BD061C1536231C2E
:10328000B3401E1C0B23181AC44024036D05240BE5
:103290006D0D3A1CDFE70022002500240026DAE746
:1032A0001E040000FFFF0F8010B5041E28D000F0A0
:1032B0000DF9154A121A0A2815DD0B38844024032B
:1032C0005205240B520D0023002000212403181C5A
:1032D0000B0D240B1B0523430C4C12051C401443FF
:1032E0006400610810BD031C1533211C99400B1CA0
:1032F0000B21081AC44024035205240B520DE3E7A6
:10330000002200240023DFE71E040000FFFF0F80DF
:1033100043001B0E5A1C4102D2B270B54C0AC50FB5
:10332000012A17DDE02292006407090B9818002299
:1033300000231E0D221C34050C431B494005400888
:103340002140014349004908ED070B1C2B43101C89
:10335000191C70BD002B15D1002C1CD0201C00F0B6
:10336000B5F80A281ADC0B21091A231CCB40191CBA
:10337000031C15339C400D4B0903181A4005090B1B
:10338000400DD4E7002C03D06407090B0848CEE7B2
:1033900007480021CBE700200021C8E7011C0B39BA
:1033A0008C40211C0024E6E7FFFF0F80890300000A
:1033B000FF070000F0B54B000D03420F5B0D6D0AD7
:1033C00015435A1C5205CC0FC600520D012A27DDA9
:1033D000394FDA19FE2A1ADC002A35DD8001ED00AA
:1033E000431E98412843760F3043430704D00F23F0
:1033F0000340042B00D004308021C904014027D0B1
:103400000132FF2A1DD083015B0AD1B201E0FF2106
:1034100000235802C905400AE40708432043F0BDD1
:10342000002B06D1354311D10021002043025B0A55
:10343000EFE72E43EBD08020ED0080042843FF22ED
:10344000D3E7FF210023E4E717320DDA052000223D
:10345000C008D1B2FF2AE9D10028D9D08023DB03EC
:1034600003435B025B0AD4E780221449120415432C
:10347000C91A1F290DDC124A371C9B18281C9F40B3
:1034800098403B1C5A1E93411843CE4030430022C3
:10349000ABE70C4F2A1CFF1AFA40171C202909D051
:1034A000094A98188540281C3043461EB0413843CD
:1034B00000229AE70020F7E780FCFFFF9E03000050
:1034C00082FCFFFF7E030000A2FCFFFF1C21012302
:1034D0001B04984201D3000C10391B0A984201D3F7
:1034E000000A08391B09984201D30009043902A2D5
:1034F000105C40187047C04604030202010101013C
:10350000000000000000000038B50E4B0C4A041CFF
:103510000D1CFDF745F9002804D1201C291CFFF7DC
:1035200051FE38BD074B064A201C291CFFF716FB2D
:10353000FFF748FE80231B06C018F2E7C046C046CE
:10354000000000000000E041F0B544465F465646EA
:103550004D46F0B41C1C85B0002900DADBE00F1CDE
:103560000021061C8A46101C191C002C00DAC9E038
:103570000196009089468046002951D1B84200D872
:1035800071E0FFF7A3FF002809D020234546311C36
:103590001B1A85408740D940A8460F4386404246C3
:1035A000150C13041B0C291C381C9B46FDF714F842
:1035B0005B464343041C291C381C9946FDF750F810
:1035C000330C08041843814509D94044631E8045E3
:1035D00000D978E1814500D875E1023C4044494674
:1035E000411A8946081C291CFCF7F6FF5A4642433B
:1035F000071C291C48469346FDF732F83604090497
:10360000360C0E43B34507D946447B1EB04502D85D
:10361000023FB34500D81F1C24042743002403E0C5
:10362000B94211D9002400275246381C211C002A17
:1036300003D03B1C00215842A14105B03CBC904640
:103640009946A246AB46F0BD081CFFF73FFF041E9B
:1036500000D0BFE0B94500D242E1019D0099071CAE
:103660008D424741E0E7002804D101200021FCF70A
:10367000B3FF80464046FFF729FF002852D141465C
:1036800044460B043C1B1B0CA3460D0C0093012469
:10369000291C5846FCF7A0FF009F81464743291C80
:1036A0005846FCF7DDFF330C090419438F4208D953
:1036B0004B464144013B884502D88F4200D91AE16C
:1036C0009946C91B8B46081C291CFCF785FF009BEB
:1036D000291C4343071C58460093FCF7C1FF3604DE
:1036E000009D0904360C0E43B54207D946447B1EA3
:1036F000B04502D8023FB54200D81F1C49460E040F
:10370000374391E75246D243031C0C1C92460021DA
:103710005842A1412CE7002746428F4101214942EE
:103720008A4620E720231B1A4246351C82403C1C57
:10373000DD40DC4087402B1C150C3B43291C864098
:10374000201C009317049046FCF746FF3F0C011C19
:10375000794381468B46201C291CFCF781FF009C85
:103760000904230C19438B450CD94B464144013BBA
:10377000884500D9BDE08B4500D8BAE0022252420C
:10378000914441445C460C1B201C291C0194FCF70D
:1037900023FF391C4143041C8B460198291CFCF76C
:1037A0005FFF009A090413041B0C19438B4509D9C8
:1037B0004144631E884500D997E08B4500D894E0CA
:1037C000023C41445B46CB1A49469B460B041C43D2
:1037D00000975DE7009D20231B1A4A468240DD408A
:1037E0001543391C009AD94082408846311C00920A
:1037F000D9403A1C82400B1C134301932F0C2B041D
:103800001B0C391C40460293FCF7E6FE029A8146E7
:103810004243391C40469346FCF722FF019A0904B3
:10382000130C19438B450AD94B464919013B8D426C
:103830005DD88B455BD902235B42994449195A46AE
:103840008A1A101C391C0392FCF7C6FE029B8046A4
:103850004343391C03989B46FCF702FF019A090475
:1038600013041B0C19438B450AD943464919013BE4
:103870008D4238D88B4536D902235B42984449198A
:103880005D464D1BAB464946009D0F04424617431B
:103890002A04120C3B042D0C1B0C380C111C594330
:1038A00042436B436843D3180D0C5B198C469A4214
:1038B00002D98022520280181D0C401983450CD376
:1038C00003D00024B0E61C1C89E665462A041B04CC
:1038D000120C9B18A6409E42F3D2013F0024A3E69F
:1038E00000240127A0E69846CAE71C1C6AE799460F
:1038F000A5E7994646E70222524291444144E0E658
:10390000F0B55F4656464D464446F0B40D1C85B0B2
:10391000061C924698460290019103921F1C141CAB
:103920008346A946002B59D1AA4269D9101CFFF73A
:10393000CDFD00280AD020231B1A311CD940854018
:103940000B1C2B43864084409946B346250C230428
:103950001B0C291C48469846FCF73EFE4646071CB1
:103960004643291C4846FCF77BFE5A460904130CC3
:1039700019438E4209D909197B1E8C4200D957E19F
:103980008E4200D854E1023F0919891B8946081C60
:10399000291CFCF721FE43464343061C291C4846CC
:1039A0009846FCF75DFE5A46130409041B0C1943A4
:1039B000884508D90919731E8C4200D936E1023EA8
:1039C000884500D832E1380430430027391C05B05F
:1039D0003CBC90469946A246AB46F0BD019A934244
:1039E00062D8181CFFF772FD041E60D1019B9F4234
:1039F00000D22CE1029F03998F4260410027E5E746
:103A0000002A04D101200021FCF7E6FD041C201C43
:103A1000FFF75CFD002800D0B9E023042D1B1B0C30
:103A2000A946260C98460127311C4846FCF7D4FDD0
:103A300041464143051C8A464846311CFCF710FEAE
:103A40005A460804130C1843824507D900196B1E07
:103A5000844202D8824500D910E11D1C5346C31A86
:103A6000181C311C9A46FCF7B7FD4146414381467C
:103A700088465046311CFCF7F3FD5A4613040904EE
:103A80001B0C194388450BD94B460919013B8C4245
:103A900000D9CFE0884500D8CCE002235B429944AE
:103AA00028044946084391E7002700208EE7202399
:103AB0001B1A424657468240DF4017435246824017
:103AC0000192321CDA40291CD9408540131C2B433B
:103AD00002933D0C3B041B0C8846081C291C9A468B
:103AE000FCF77AFD534643438146291C40469B46DA
:103AF000FCF7B6FD029A0904130C19438B4506D94D
:103B00004B46C919013B8F4200D8ABE099465A4653
:103B10008A1A101C291C9346FCF75EFD534643434A
:103B2000291C804658469A46FCF79AFD029A0904D9
:103B300015042D0C29438A4506D94346C919013B72
:103B40008F4200D886E098465746CF1BBA46494672
:103B5000019F0804424610433D042D0C03043F0C12
:103B60001B0C020C291C594355437B437A43EB1829
:103B70000F0CDB198C469D4202D980277F02D21997
:103B80001D0C521992455FD356D000271EE7202303
:103B90001B1A311C2F1CD940DF4085400B1C844070
:103BA0002B4386400193B3462304260C1B0C381C80
:103BB000311C9846FCF710FD42464243051C311C5F
:103BC000381C9146FCF74CFD019F09043B0C19433E
:103BD000894507D909196B1E8C424DD889454BD9A7
:103BE000023D09194A468A1A101C311C9246FCF7FC
:103BF000F3FC43464343071C311C50469946FCF7EF
:103C00002FFD019A090413041B0C1943894507D998
:103C100009197B1E8C422DD889452BD9023F0919E1
:103C20004B46CB1A2D0499462F43FDE61E1CCAE6CF
:103C30001F1CAAE6994633E761460A041B04120CCE
:103C40009B18A6409E42A0D201380027BEE600275E
:103C50000120BBE68A4500D875E702235B42984401
:103C6000C91971E78B4500D850E702235B4299449C
:103C7000C9194CE71F1CD3E71D1CB3E7023D00190F
:103C8000ECE6C04608B5094A094BD058094901403D
:103C90008020C0040143D15004F064FA031C06489C
:103CA000E1214902022204F02FF908BD007004400E
:103CB00004100000FFFFFFF30040054000B585B091
:103CC00002A80D49083106220BF0E2FD00236A46E6
:103CD000137080235B0201930849094B094AD150B4
:103CE00002A804F0BBFA684604F0E0F9064A074B64
:103CF0001A6005B000BDC046681D01000000071035
:103D00004410000000700440006CDC0208E0FF1F5B
:103D100070B508F08BF8344A9068344B1840802115
:103D20008900084390605068184008435060304C48
:103D3000E06818400843E060A06818400843A060AD
:103D40002C4D2E6E1E408020400006432E66556985
:103D50001D400543556195691D4005439561656C9E
:103D60001D400543656414681C4004431460D46915
:103D70001C400443D461204A14681C402043106056
:103D8000506818400843506090681840084390609D
:103D9000D06803401943D160184C194D201C0621EE
:103DA0002A1C04F009FF201C07212A1C04F004FF30
:103DB000144811212A1C04F0FFFE201C00212A1C9B
:103DC00004F0FAFE104D114818212A1C04F0F4FEEC
:103DD000201C05212A1C04F0EFFE0D4800212A1C9E
:103DE00004F0EAFE70BDC04600B00440FFF8FFFFDB
:103DF00000A0044000D0044000C0044080F00F4008
:103E00008C1E010040F00F40901E010000F10F4099
:103E1000C0F00F40F8B5071C0E1C002434E0A623A8
:103E20009B0063431A4A9B5C022B2CD1A6239B0068
:103E300063435033D518281C0BF002FA86421DDD6F
:103E4000A6239B006343124AD31868331B78002BC8
:103E500019D1A6239B006343D518AA6BEB6B2A6488
:103E60006B642B1C48330D221A70E0B2402107F01E
:103E70000BF82B1C683301221A7004E0281C391C33
:103E8000321C0BF01DF90134012CC8DDF8BDC04611
:103E900020EDFF1F00000000F0B58FB0041C0D1CCA
:103EA000002670496E480019694102900391D0E0E4
:103EB000A6239B0073436C495B5C002B00D1C7E0D9
:103EC000A62292007243535C012B48D1131CCB18DD
:103ED0009A69DB69AB4200DDBAE002D1A24200D9A7
:103EE000B6E0A6239B0073435F4AD3181B7A002BCE
:103EF0000CD0A6239B007343D31802980399186231
:103F000059629C62DD621863596322E0A6239B001C
:103F10007343554FFF180821C9198C464A680A9205
:103F200000230B930A9A0B9B12196B414D494C4885
:103F300012184B413A627B62614649680C9100203D
:103F40000D900C980D9900196941B862F9623A63B5
:103F50007B63A622920072430221434BD154A623D5
:103F60009B007343404AD318A42189005B18DB7976
:103F7000002B3DD0A6239B007343D3189A6ADB6ABB
:103F8000AB4218DC01D1A24215D8A62189007143A9
:103F9000354B59180A69089200230993089A099B1E
:103FA00012196B418A62CB6201F096FD002802D1A2
:103FB0002E4803F0FFFFA6239B0073432A4AD31821
:103FC0001A6B5B6BAB4215DC01D1A24212D8A62161
:103FD00089007143244B5918086906900022079202
:103FE000069A079B12196B410A634B63012702E093
:103FF000002700E00027A622920072431A498A187F
:10400000136A526AAA4223DC01D1A34220D8A62116
:1040100089007143144B59188C63CD63CB680493AA
:1040200000200590049A059B12196B410A624B62AD
:10403000A42292008B18187959799A790C4B009325
:104040003B1C02F0DBF9002802D10A4803F0B2FF62
:104050000136012E00DC2BE70FB0F0BDC046C04694
:10406000F05500000000000020EDFF1FB01E010011
:10407000153E0000C01E01007047C04670B582B0FA
:10408000051CA624A4004443174B1C19682008F003
:10409000DDF8002826D0231C7033011C5831181C71
:1040A00060220BF0F5FB8023E0588823E158902331
:1040B000E2588423E3588C26A65900969426A659E4
:1040C000019601F033FD084BA620800068430021D3
:1040D000C1541A185160FA218900D1605030181863
:1040E0000BF0B8F802B070BD20EDFF1FF8B56420EA
:1040F000164909F0F5FF09F007FA154801F090FF9D
:1041000001F04AFB02F0BCF90024124DA627BF00C3
:10411000114E17E0381C60432B1868333A225A704E
:104120001B229A70DA7000221A715A719A715030FB
:104130002818311CB02212010AF0BAFFE0B2FFF7D2
:104140009DFF0134012CE5DDF8BDC046993E00001D
:10415000153E000020EDFF1F20E2FF1FF0B557467F
:104160004E464546E0B4061C0F1C904608AB06CBF5
:104170001B7899460BAB1D78534A9246A624A4009F
:104180004443201C503050440BF064F851460B1946
:10419000002098701A1C683210705F604246DA6026
:1041A0000899099A9961DA614A461A725D70002489
:1041B00000251C645D641A1C48320C211170012119
:1041C0005170A42189005B18187158719871D871C9
:1041D0003E4B1F4207D0A6239B0073433A4AD31895
:1041E0005B1801221A7170233B4209D0A6239B0061
:1041F0007343354AD318A42292009B1801225A71A6
:104200007B0509D5A6239B0073432F4AD318A4210D
:1042100089005B180122DA713A0509D5A6239B00B3
:104220007343294AD318A42189005B1801229A718B
:10423000274C201C4146FCF713FA0D1C201C41465C
:10424000FCF7CAF9041C002D00D001344246624339
:10425000A6239B0073431C49CB181A61A422920029
:104260009B181B79002B02D01A4803F0A3FEA6234B
:104270009B007343144AD318A42189005B185B790F
:10428000002B02D0144803F095FEA6239B00734335
:104290000D4AD318A42292009B18DB79002B03D07F
:1042A0000E48211C03F086FEA622920072430121D3
:1042B000054BD1540A48311C03F07CFE1CBC9046CF
:1042C0009946A246F0BDC04620EDFF1F8E0B0000B0
:1042D000A8610000D01E0100E41E0100F81E0100CC
:1042E0001C1F010008B5011CA622920042430020B9
:1042F000024BD054024803F05DFE08BD20EDFF1FC5
:10430000341F0100CBB2062B33D899001A4B5B58EF
:104310009F46A6239B005843184B181868304078D6
:1043200028E0A6239B005843144B18186830807867
:1043300020E0A6239B005843104B18186830C07823
:1043400018E0A6239B0058430C4B181868300079DE
:1043500010E0A6239B005843084B1818683040799A
:1043600008E0A6239B005843044B18186830807956
:1043700000E000207047C046941E010020EDFF1FA2
:1043800000990023FF2201E0CA5401331F2BFBDDFB
:1043900020207047081C7047A6239B0058437030AC
:1043A000014B18187047C04620EDFF1F08B5A62323
:1043B0009B005843D030044B1818002190220BF07A
:1043C00070FA002008BDC04620EDFF1FF0B50B2994
:1043D00012D80A4C4D006B189B00A626B6007043FD
:1043E0001B18E3181E1CD03601273770D8331A600B
:1043F00000237360002000E03220F0BD20EDFF1F9D
:1044000008B50B290FD84B0059188900A6239B002B
:1044100058430918D031054B5918101C0C220BF0C9
:1044200037FA002000E0322008BDC04620EDFF1F13
:10443000F0B585B0071C0E1C141CFFF753FFE26A91
:104440006168002400250094019501230293002354
:104450000393381CFFF782FE3378002B20D0012B0A
:1044600020D0022B20D0032B20D0042B20D0052BD2
:1044700020D0062B20D0072B20D0082B20D0092BB2
:1044800020D00A2B20D0362026E0E3001B1B9B0007
:1044900058196130FF30301809F00EFA013418E075
:1044A000002412E0002410E000240EE000240CE0C0
:1044B00000240AE0002408E0002406E0002404E0D0
:1044C000002402E0002400E00024044EA625AD00F4
:1044D0007D430A2CD9DD302005B0F0BD20EDFF1F53
:1044E000F0B55F4656464D464446F0B48BB000905A
:1044F000039102920190A6239B004343E24AD21803
:10450000934650218A46DA4450460AF091FE00B2A2
:104510001621FCF761F880B2814603B2002B00DC63
:1045200096E300239846D84FA626B60001994E433D
:1045300021E0504604A916220AF010FE002413E0E0
:1045400023B25A00D800C01A800085196135FF35A2
:104550007D1904AB985EFDF789F8021C281C022126
:1045600009F0B4F90134A4B223B20A2BE8DD4546C0
:104570000135ADB2A84641460BB249460AB2934254
:10458000D7DBA6239B00009A5343BF4AD31861335D
:10459000FF339888FDF76AF8029B1C69211CFCF721
:1045A0001BF9002800D056E30399097888460029B2
:1045B00000D06BE1E4235A46D4500122DC23594653
:1045C000CA5400229146A627BF00019B5F43AE4913
:1045D000CF19B8225200D2199246A64DA44C41469A
:1045E00001915E46CB46B84623E152465068FEF73D
:1045F0008FFE221C2B1CFEF721F8FEF7DBFEF023BA
:10460000F05053461868FEF783FE221C2B1CFEF761
:1046100015F8FEF7CFFEEC23F0500127E823F754FE
:10462000C62149008946C1444A465068FEF770FEDB
:10463000221C2B1CFEF702F8FEF7BCFEFC23F050F8
:104640004B461868FEF764FE221C2B1CFDF7F6FF94
:10465000FEF7B0FEF823F050F423F754D4214900BC
:104660008946C1444A465068FEF752FE221C2B1C64
:10467000FDF7E4FFFEF79EFE84235B00F0504B46FF
:104680001868FEF745FE221C2B1CFDF7D7FFFEF72E
:1046900091FE82235B00F05080235B00F754E221FF
:1046A00049008946C1444A465068FEF731FE724AC5
:1046B000724BFDF7C3FFFEF77DFE8A235B00F050CF
:1046C0004B461868FEF724FE6B4A6C4BFDF7B6FFAD
:1046D000FEF770FE88235B00F05086235B00F754E2
:1046E000F02149008946C1444A465068FEF710FE51
:1046F000614A624BFDF7A2FFFEF75CFE90235B0070
:10470000F0504B461868FEF703FE5B4A5B4BFDF723
:1047100095FFFEF74FFE8E235B00F0508C235B006D
:10472000F754FE2149008946C1444A465068FEF7C5
:10473000EFFD514A514BFDF781FFFEF73BFE9623FB
:104740005B00F0504B461868FEF7E2FD4A4A4B4BBF
:10475000FDF774FFFEF72EFE94235B00F0509223CA
:104760005B00F754862189008946C1444A46506857
:10477000FEF7CEFD424A434BFDF760FFFEF71AFEFF
:104780009C235B00F0504B461868FEF7C1FD3C4A85
:104790003C4BFDF753FFFEF70DFE9A235B00F050F4
:1047A00098235B00F7548D2189008946C1444A460D
:1047B0005068FEF7ADFD324A324BFDF73FFFFEF782
:1047C000F9FDA2235B00F0504B461868FEF7A0FDF0
:1047D0002B4A2C4BFDF732FFFEF7ECFDA0235B00CC
:1047E000F0509E235B00F754942189008946C14410
:1047F0004A465068FEF78CFD214A224BFDF71EFF0A
:10480000FEF7D8FDA8235B00F0504B461868FEF772
:104810007FFD1B4A1B4BFDF711FFFEF7CBFDA623C7
:104820005B00F050A4235B00F7545B4601339BB25E
:104830009B4659460BB2082B00DCD6E6019A9046FF
:1048400001F042FE002809D0FE229205AE235B0053
:10485000F2500122AA235B00F25403E20022AE23AD
:104860005B00F2500222AA235B00F254FAE1C04638
:104870004AFDC00EAF6F513FC397923A019D733FFF
:104880008B7CA87EEFC0EE3F20EDFF1F01292DD1CC
:10489000E4235946CC500124DC23CC54A6239B00AE
:1048A000009A5343ED4EF618E2235B00F71880366A
:1048B00078683168FCF71AFC051CF0235946C8508B
:1048C00038683168FCF712FCEC235A46D050E823D4
:1048D000D454D823D058291CFCF732FDFC23594668
:1048E000C850F423CC5400229046BBE102292DD1BC
:1048F000E4235946CC500124DC23CC54A6239B004E
:10490000009A5343D54EF618F0235B00F71888360B
:1049100078683168FCF7EAFB051CF0235946C8505B
:1049200038683168FCF7E2FBEC235A46D050E823A4
:10493000D454D823D058291CFCF702FDFC23594637
:10494000C850F423CC54002290468BE103292DD18A
:10495000E4235946CC500124DC23CC54A6239B00ED
:10496000009A5343BD4EF618FE235B00F7189036AD
:1049700078683168FCF7BAFB051CF0235946C8502B
:1049800038683168FCF7B2FBEC235A46D050E82374
:10499000D454D823D058291CFCF7D2FCFC23594608
:1049A000C850F423CC54002290465BE104292DD159
:1049B000E4235946CC500124DC23CC54A6239B008D
:1049C000009A5343A54EF61886239B00F718983695
:1049D00078683168FCF78AFB051CF0235946C850FB
:1049E00038683168FCF782FBEC235A46D050E82344
:1049F000D454D823D058291CFCF7A2FCFC235946D8
:104A0000C850F423CC54002290462BE105292DD127
:104A1000E4235946CC500124DC23CC54A6239B002C
:104A2000009A53438D4EF6188D239B00F718A0363D
:104A300078683168FCF75AFB051CF0235946C850CA
:104A400038683168FCF752FBEC235A46D050E82313
:104A5000D454D823D058291CFCF772FCFC235946A7
:104A6000C850F423CC5400229046FBE006292DD1F7
:104A7000E4235946CC500124DC23CC54A6239B00CC
:104A8000009A5343754EF61894239B00F718A836E6
:104A900078683168FCF72AFB051CF0235946C8509A
:104AA00038683168FCF722FBEC235A46D050E823E3
:104AB000D454D823D058291CFCF742FCFC23594677
:104AC000C850F423CC5400229046CBE007292DD1C6
:104AD000E4235946CC500124DC23CC54A6239B006C
:104AE000009A53435D4EF618B8235B00F718B036B2
:104AF00078683168FCF7FAFA051CF0235946C8506B
:104B000038683168FCF7F2FAEC235A46D050E823B3
:104B1000D454D823D058291CFCF712FCFC23594646
:104B2000C850F423CC54002290469BE008292DD194
:104B3000E4235946CC500124DC23CC54A6239B000B
:104B4000009A5343454EF618C6235B00F718B83653
:104B500078683168FCF7CAFA051CF0235946C8503A
:104B600038683168FCF7C2FAEC235A46D050E82383
:104B7000D454D823D058291CFCF7E2FBFC23594617
:104B8000C850F423CC54002290466BE009292DD163
:104B9000E4235946CC500124DC23CC54A6239B00AB
:104BA000009A53432D4EF618D4235B00F718C036F5
:104BB00078683168FCF79AFA051CF0235946C8500A
:104BC00038683168FCF792FAEC235A46D050E82353
:104BD000D454D823D058291CFCF7B2FBFC235946E7
:104BE000C850F423CC54002290463BE00A2937D128
:104BF000E4235946CC500124DC23CC54A6239B004B
:104C0000009A5343154EF6189B239B00F6187068C4
:104C1000FBF770FE80B200F023FFF02559464851A3
:104C20003068FBF767FE80B200F01AFFEC235A46AB
:104C3000D050E823D454D823D0585159FCF780FBE6
:104C4000FC235946C850F423CC540022904609E076
:104C50003023984606E03021884603E020EDFF1F10
:104C60003622904640460BB03CBC90469946A24640
:104C7000AB46F0BDC046C046F0B55F4656464D4611
:104C80004446F0B487B0061C0F1CA624A40044437D
:104C9000DF4B1C190D78002D00D0DAE0DD4B8021B0
:104CA00063508A225200A25880210906521884219A
:104CB0008A4662508822A35090225200A258802136
:104CC000090652188C21894662509022A3509623DF
:104CD0005B00E058FEF71CFB021C0B1CCB49CA48CA
:104CE000FDF73CFF94239846FEF764FB4146605075
:104CF000C94B9822A3509C225200A2588021090639
:104D000052189C216250A022A350A2225200A25805
:104D1000802109065218A4216250A822A350A8237A
:104D20005B00E058FEF7F4FA021C0B1CB749B648CA
:104D3000FDF714FFFEF73EFBAC22A050B74BB022AC
:104D4000A350F022A258802109065218B4216250C3
:104D5000B822A350FC22A258802109065218BC2177
:104D60006250C022A35084235B00E35880221206C5
:104D70009B18C4218B4663503A78A948311C03F034
:104D800019F95346E3580593181CFEF7C1FA021CA3
:104D90000B1CA44803F00EF94E46A6590496301C8D
:104DA000FEF7B6FA021C0B1C9F4803F003F94146BC
:104DB00061580391081CFEF7ABFA021C0B1C9B48C0
:104DC00003F0F8F89C22A058FEF7A2FA021C0B1C74
:104DD000974803F0EFF8A423E058FEF799FA021C75
:104DE0000B1C944803F0E6F8AC26A059FEF790FAA5
:104DF000021C0B1C904803F0DDF8B4216058FEF74C
:104E000087FA021C0B1C8D4803F0D4F8BC22A05872
:104E1000FEF77EFA021C0B1C894803F0CBF85B46B8
:104E2000E058FEF775FA021C0B1C864803F0C2F826
:104E30008026A0598822A1589023E2585646A359AB
:104E40004E46A65900964646A459019400F06EFEBF
:104E5000D2E0012D12D1FC23E358842563510A7856
:104E60006F48311C03F0A6F86059FEF751FA021C96
:104E70000B1C6C4803F09EF80025BDE0022D12D1FA
:104E8000FC23E3588C2563510A786548311C03F0F4
:104E900091F86059FEF73CFA021C0B1C624803F0C3
:104EA00089F80025A8E0032D12D1FC23E3589425AE
:104EB00063510A785A48311C03F07CF86059FEF7B8
:104EC00027FA021C0B1C594803F074F8002593E0E4
:104ED000042D12D1FC23E3589C2563510A785048D5
:104EE000311C03F067F86059FEF712FA021C0B1C24
:104EF0004F4803F05FF800257EE0052D12D1FC231A
:104F0000E358A42563510A784548311C03F052F850
:104F10006059FEF7FDF9021C0B1C464803F04AF8E5
:104F2000002569E0062D12D1FC23E358AC2563511E
:104F30000A783B48311C03F03DF86059FEF7E8F968
:104F4000021C0B1C3C4803F035F8002554E0072DEB
:104F500012D1FC23E358B42563510A783048311C40
:104F600003F028F86059FEF7D3F9021C0B1C3348F4
:104F700003F020F800253FE0082D12D1FC23E35870
:104F8000BC2563510A782648311C03F013F8605998
:104F9000FEF7BEF9021C0B1C294803F00BF8002594
:104FA0002AE0092D12D1FC23E358C42563510A7865
:104FB0001B48311C02F0FEFF6059FEF7A9F9021CE4
:104FC0000B1C204802F0F6FF002515E00A2D12D137
:104FD000FC23E358CC2563510A781148311C02F0B8
:104FE000E9FF6059FEF794F9021C0B1C164802F009
:104FF000E1FF002500E03225281C07B03CBC9046AC
:105000009946A246AB46F0BD05A3923A019D2340C6
:1050100020EDFF1F0AE89C3B7C07763F787D8B3AAA
:105020004C1F01007C1F0100901F0100A41F010004
:10503000B81F0100CC1F0100E01F0100F41F010098
:10504000082001001C20010030200100C046C0469D
:10505000F0B5474680B484B080460C1C94460AA93B
:1050600000228E5E0BAD2F782578022D4CD149227F
:10507000A25C002A17D00093231C4A33019301330A
:1050800002930133039360682349E268634606F0A4
:10509000A7FD4B23E35C3A2B02D93A224B23E2547F
:1050A00000224923E2544823E35C002B16D0002F52
:1050B00003D000224823E25410E0A27800926168F5
:1050C000019102934046226C636C06F007FDA378C1
:1050D0000133A37000224823E25418E0201C503012
:1050E0000AF0A6F800B2311CFBF7C4FA00B24B2359
:1050F000E35C98420ADB0C9A138040460021FF22B1
:105100000AF0CFFB054802E0002000E0002000B2DA
:1051100004B004BC9046F0BDA0860100FFFF000073
:10512000F0B557464E46C0B48DB00F1C6B460022FA
:105130005A821233A624A4006043A54C24181621D9
:10514000009101920293381C211C0B220423FFF7CB
:105150007FFF002800DB35E100208146002550223A
:105160001219924605AE12E15046311C162209F082
:10517000F5FF63689B0715D50622B05EFCF776FA4B
:105180008023E158FBF7B2FF8423E158FBF75EFC74
:105190000B9028B238180B300BA904220AF078FBC8
:1051A0000435ADB263685B0715D50822B05EFCF725
:1051B0005DFA8823E158FBF799FF8C23E158FBF750
:1051C00045FC0B9028B238180B300BA904220AF0CA
:1051D0005FFB0435ADB263681B0715D50A22B05ECC
:1051E000FCF744FA9023E158FBF780FF9423E15841
:1051F000FBF72CFC0B9028B238180B300BA90422BB
:105200000AF046FB0435ADB26368DB0615D50C2207
:10521000B05EFCF72BFA9823E158FBF767FF9C235D
:10522000E158FBF713FC0B9028B238180B300BA990
:1052300004220AF02DFB0435ADB263689B0615D538
:105240000E22B05EFCF712FAA023E158FBF74EFFE6
:10525000A423E158FBF7FAFB0B9028B238180B3067
:105260000BA904220AF014FB0435ADB263685B0697
:1052700015D51022B05EFCF7F9F9A823E158FBF729
:1052800035FFAC23E158FBF7E1FB0B9028B238184F
:105290000B300BA904220AF0FBFA0435ADB26368A7
:1052A0001B0615D50022B05EFCF7E0F9B023E158EB
:1052B000FBF71CFFB423E158FBF7C8FB0B9028B2A7
:1052C00038180B300BA904220AF0E2FA0435ADB20B
:1052D0006368DB0515D50222B05EFCF7C7F9B82379
:1052E000E158FBF703FFBC23E158FBF7AFFB0B9042
:1052F00028B238180B300BA904220AF0C9FA043579
:10530000ADB263689B0515D50422B05EFCF7AEF91B
:10531000C023E158FBF7EAFEC423E158FBF796FBF4
:105320000B9028B238180B300BA904220AF0B0FAFF
:105330000435ADB263685B0514D5708A00F090FB4C
:10534000C823E158FBF7D2FECC23E158FBF77EFBE4
:105350000B9028B238180B300BA904220AF098FAE7
:105360000435ADB2606800050DD51422B05EFCF7BF
:105370007DF90B9028B238180B300BA904220AF0E3
:1053800087FA0435ADB24B4601339BB299466B4662
:10539000598A484603B20AB2934200DAE4E6002D85
:1053A0000FD0C9B24A23E25C6378A078451CA5708F
:1053B00064680194009007200290381C06F0E6FB18
:1053C00000E0002000B20DB00CBC91469A46F0BD42
:1053D00020EDFF1F00000000F0B55F4656464D4629
:1053E0004446F0B48DB088466B460022DA8216330C
:1053F000A624A40060438E4C241816220092012299
:1054000001920293081C211C08220223FFF720FEB0
:10541000002800DBF7E0002500268F22D205914608
:10542000D7E0201C503006A9162209F097FE6368C9
:105430009B0736D506AB588A00F012FB071C0AF012
:1054400079FA002802D07B4B18680BE0C823E0589B
:10545000391CFBF74BFE011CCC23E058FBF7F6FA96
:10546000744A1060FDF754FF6C4B6B4AFCF75AF915
:10547000FDF7A0FF4946FBF739FEFDF749FF684AF3
:10548000684BFCF771FCFDF795FFFBF733FA05A9B4
:10549000088030B20830404402220AF0F9F902369E
:1054A000B6B263685B0728D506AB0A22985EFCF7A4
:1054B000DDF8011C9023E058FBF718FE011C942333
:1054C000E058FBF7C3FAFDF723FF574A574BFCF7A9
:1054D00029F9FDF76FFF4946FBF708FE5649FBF730
:1054E00021FCFBF707FA05A9088030B208304044D8
:1054F00002220AF0CDF90236B6B263681B0766D500
:1055000006AF0622B85EFCF7B1F883460823F85EC2
:10551000FCF7ACF882460A22B85EFCF7A7F8071C35
:105520008023E0585946FBF7E1FD011C8423E05835
:10553000FBF78CFA83468823E0585146FBF7D6FDEB
:10554000011C8C23E058FBF781FA82469023E05837
:10555000391CFBF7CBFD011C9423E058FBF776FACE
:10556000071C58465946FBF7C1FD83465046514635
:10557000FBF7BCFD8246381C391CFBF7B7FD071C46
:1055800058465146FBF762FA391CFBF75FFAFDF704
:10559000BFFE0AF0E9FCFDF70DFFFDF7B9FE224A58
:1055A000224BFCF7BFF8FDF705FF4946FBF79EFDD0
:1055B0002149FBF7B7FBFBF79DF905A9088030B23D
:1055C0000830404402220AF063F90236B6B20135CF
:1055D000ADB26B46D98A2BB20AB2934200DA20E709
:1055E000002E0FD0C9B24A23E25C6378A078451C34
:1055F000A57024790090019400200290404606F0A6
:10560000A1FA00E0002000B20DB03CBC90469946E3
:10561000A246AB46F0BDC046713D0AD7A3688140A3
:10562000666666666628A240CDCCCCCCCCFC7140C8
:1056300020EDFF1F1CE2FF1F00E01F44C046C046D4
:1056400010B5041C0123037001302D490AF088F9BC
:10565000201C11302B490AF083F9201C21302A49E3
:105660000AF07EF900220023422162524421625254
:105670004622A3544722A3540222A264B822A35470
:1056800096225200E264214A22655822A354002245
:105690000023226663661E4AA2660023E366226731
:1056A0006367A267E3671B4A8021625084216350CD
:1056B000882162508C216350902162509422A35023
:1056C000154A982162509C216350A0216250A42168
:1056D0006350A8216250AC22A350FE218905B0225C
:1056E000A150B422A3500023002203E0E15C8A18F9
:1056F000D2B20133BF2BF9D9B823E25410BDC04652
:1057000044200100542001004C200100C0A80000EA
:105710000AE89C3B7C07763F787D8B3A38B5041CC1
:105720000578012D08D0FFF78BFF22780348291C4C
:1057300002F040FC012000E0002038BD60200100A4
:105740007047C04608B5114BDB78012B1DD15C2397
:105750000E4AD35C9A0610D40C4B5D22985C000272
:105760005E229A5C10430A4A10800022DA70094BCC
:105770001B68002B09D0984707E004490123CB7030
:105780005C312720052200F0D1F808BD50F2FF1F40
:10579000CCF2FF1FD0F2FF1F70B584B001A803F058
:1057A00093FA154B0293002002F020FD021C134EC9
:1057B000301C01A903F010FB114AC2239B00D158F1
:1057C000FF20814340200143D1500E4C251D281C51
:1057D000002128220AF065F8301C291C0A4A0023FF
:1057E00003F006FD0023A3702370E3706370FFF7DE
:1057F000A9FF04B070BDC046801A060000600640D4
:1058000000E100E050F2FF1F3D5A0000F0B54F46A6
:105810004646C0B483B00122364B5A70364803F076
:1058200039FA364BD8683649084080225200104376
:10583000D860986801400A439A6001A83149022261
:105840000AF026F8304C201C032101AA03F0B4F919
:10585000201C022101AA03F0AFF92C4802F0AAFB98
:105860000823636004236360294802F0A3FB2948EE
:1058700002F0A0FB0025264B9946274B98460CE0EA
:105880000827676004266660484602F093FB67605D
:10589000A660404602F08EFB0135092DF0DD1F4861
:1058A00002F088FB184C0826A6600425A5601C4859
:1058B00002F080FBA66065601A4802F07BFB666020
:1058C0006560134802F076FB174802F073FB0B4B40
:1058D000D8680B490840802292001043D86098682D
:1058E00001400A439A60FFF757FF03B00CBC904693
:1058F0009946F0BD50F2FF1F0060064000A0044032
:10590000FFF8FFFF801D010040F00F40F823010069
:105910001824010028240100482401005824010013
:105920008024010090240100A024010038B51C4B04
:105930001B78002B31D11A4C3023E0540120312345
:10594000E0540023636338202354E1632264E3625C
:10595000201C4430251C2C35291C182209F098FFE6
:10596000211D10482A1C03F07FFC041E05D10C4B9E
:1059700001221A7000229A700DE0094DAA780132B6
:10598000D2B2AA700848211C02F014FBAB78142B89
:1059900001D9FFF73BFF201C00E0044838BDC0469A
:1059A00050F2FF1F00600640C02401004C040000BC
:1059B00038B51D4B1B78002B34D11C4AAC23137017
:1059C000194C3023E05400233121635463633821A0
:1059D0006354E26301222264E362201C4430251CEC
:1059E0002C35291C182209F053FF211D10482A1CB0
:1059F00003F03AFC041E05D10B4B01221A70002261
:105A00009A700DE0084DAA780132D2B2AA70094806
:105A1000211C02F0CFFAAB78142B01D9FFF7F6FE68
:105A2000201C00E0044838BD50F2FF1FD4F2FF1FD5
:105A300000600640E42401004C04000008B5002A80
:105A400004D00548111C02F0B5FA04E00022034B13
:105A50001A70FFF777FE08BD0825010050F2FF1FFE
:105A600008B580231B0298421ED0FDF7DFFB114BC7
:105A70000F4AFCF779F9104A104BFCF7DFFD104A8A
:105A8000104BFBF74FFEFDF795FC0F49FBF74AF96A
:105A90000E490AF0C9FA011CFE208005FBF750FCF4
:105AA0000B49FBF723FB00E00A4808BDC046C0468F
:105AB00000000000E0FFEF400000000000408F40C9
:105AC000000000000040704000507D44AEDC423ECB
:105AD000002A2D470000C07F08B5074BDB78002B5C
:105AE00007D10022044BDA702720FFF761FF012065
:105AF00000E0002008BDC04650F2FF1F08B5094B6A
:105B00001860094BDB78002B09D107490123CB70C2
:105B10005C3127200522FFF709FF012000E000206B
:105B200008BDC046D0F2FF1F50F2FF1F10B5074C52
:105B300020600748016007490A60074A1360074B65
:105B4000029A1A60064B039A1A6010BD0CF3FF1FED
:105B500010F3FF1F14F3FF1F24F3FF1FF0F2FF1FCA
:105B6000A4F3FF1F00000000F0B557464E4645461F
:105B7000E0B4834CE08800B2FBF778FD814B1968F4
:105B8000FBF7B4FA804B1968FAF760FF061C20890E
:105B900000B2FBF76BFD7D4B1968FBF7A7FA7C4B56
:105BA0001968FAF753FF051C608900B2FBF75EFD28
:105BB000784B1968FBF79AFA774B1968FAF746FFA2
:105BC000041C301C0021FAF707FE002805D08023B2
:105BD0001B06F618714B994601E001239946281CD3
:105BE0000021FAF7F9FD002805D080231B06ED18E7
:105BF0006A4B9A4601E001239A46201C0021FAF7DD
:105C0000EBFD002804D080231B06E418634F00E05E
:105C10000127201C8221C905FAF7F2FD002817D0C0
:105C2000301CFDF775FB514B4F4AFAF79BFD0028DE
:105C30000ED0281CFDF76CFB4C4B4B4AFAF792FD3B
:105C4000002805D056481121564A02F0B5FF3EE023
:105C5000281C8221C905FAF7D3FD002815D0201C85
:105C60008021C905FAF7B8FD00280ED0301CFDF7D9
:105C70004FFB3E4B3C4AFAF775FD002805D04848DB
:105C80001121484A02F098FF21E0301C8221C90509
:105C9000FAF7B6FD002815D0201C8021C905FAF7B7
:105CA0009BFD00280ED0281CFDF732FB2F4B2E4AFF
:105CB000FAF758FD002805D039481121394A02F079
:105CC0007BFF04E036481121374A02F075FF201CA3
:105CD000211CFBF70BFA8046281C291CFBF706FA4F
:105CE000011C4046FAF7B2FE0AF06AFB8046FDF757
:105CF0000FFB1F4A1F4BFAF735FD00280FD1301C50
:105D00004146FBF70FF809F051FEFDF701FB1A4A77
:105D10001A4BFCF793FCFDF74DFB061C00E0234EED
:105D2000201C291CFAF76CFD002800D157463FB211
:105D3000013704D11E48311CFBF702FB061C4B4601
:105D400018B2FBF793FC311CFBF7D0F9FC21890555
:105D5000FAF77CFEFBF76AFC80B2094B98821CBC08
:105D600090469946A246F0BD9A9999999999C93F4A
:105D7000666666666666D63FE3A9471ADCA54C40B0
:105D8000F4F2FF1F0CF3FF1F24F3FF1F10F3FF1F9C
:105D9000F0F2FF1F14F3FF1FA4F3FF1FFFFF00002B
:105DA00040F00F40B0260100B42601000000B442CC
:105DB00000003443C046C04608B580B2084B588244
:105DC000084B1B78002B01D0FFF7CEFE064B1B685B
:105DD0000348162198471222044BDA7008BDC046CA
